:020000040800F2
:1000000000000220F5340008593400085B34000871
:100010005D3400085F34000861340008000000000F
:10002000000000000000000000000000C174000893
:1000300063340008000000005175000865340008B2
:1000400045350008453500084535000845350008A8
:100050004535000845350008453500084535000898
:100060004535000845350008453500084535000888
:100070007D34000845350008453500084535000841
:100080004535000845350008453500084535000868
:100090004535000845350008453500084535000858
:1000A0004535000845350008453500084535000848
:1000B00045350008453500088934000845350008F5
:1000C0004535000845350008453500084535000828
:1000D00045350008453500084535000895340008C9
:1000E0004535000845350008453500084535000808
:1000F00045350008453500084535000845350008F8
:1001000045350008453500084535000845350008E7
:1001100045350008453500084535000845350008D7
:1001200045350008453500084535000845350008C7
:1001300045350008453500084535000845350008B7
:1001400045350008453500084535000845350008A7
:100150004535000845350008453500084535000897
:100160004535000845350008453500084535000887
:1001700045350008453500084535000800000000F9
:08018000453500084535000873
:1001900010B5054C237833B9044B13B10448AFF3C1
:1001A00000800123237010BDA80000200000000083
:1001B000B082000808B5034B1BB103490348AFF3F5
:1001C000008008BD00000000AC000020B0820008E4
:1001D000034613F8012B002AFBD1181A0138704787
:1001E00001F0FF01102A2BDB10F0070F08D010F8E8
:1001F000013B013A8B422DD010F0070F42B3F6D1EC
:10020000F0B441EA012141EA014122F007047FF004
:1002100000070023F0E80256083C85EA010586EA5B
:10022000010685FA47F5A3FA87F586FA47F6A5FA97
:1002300087F68EB9EED1F0BC01F0FF0102F00702A3
:1002400032B110F8013B013A83EA010313B1F8D14E
:100250000020704701387047002D06BF354603382F
:10026000073815F0010F07D1013015F4807F02BF68
:10027000013015F4C03F0130F0BC0138704700BFB9
:1002800081F0004102E000BF83F0004330B54FEA47
:1002900041044FEA430594EA050F08BF90EA020FB4
:1002A0001FBF54EA000C55EA020C7FEA645C7FEA47
:1002B000655C00F0E2804FEA5454D4EB5555B8BF6A
:1002C0006D420CDD2C4480EA020281EA030382EADB
:1002D000000083EA010180EA020281EA0303362D6D
:1002E00088BF30BD11F0004F4FEA01314FF4801C40
:1002F0004CEA113102D0404261EB410113F0004F52
:100300004FEA03334CEA133302D0524263EB430308
:1003100094EA050F00F0A780A4F10104D5F1200EA6
:100320000DDB02FA0EFC22FA05F2801841F1000101
:1003300003FA0EF2801843FA05F359410EE0A5F1D5
:1003400020050EF1200E012A03FA0EFC28BF4CF006
:10035000020C43FA05F3C01851EBE37101F00045BC
:1003600007D54FF0000EDCF1000C7EEB00006EEBC9
:100370000101B1F5801F1BD3B1F5001F0CD3490853
:100380005FEA30004FEA3C0C04F101044FEA4452AA
:1003900012F5800F80F09A80BCF1004F08BF5FEA31
:1003A000500C50F1000041EB045141EA050130BD11
:1003B0005FEA4C0C404141EB0101013C28BFB1F523
:1003C000801FE9D291F0000F04BF01460020B1FA6E
:1003D00081F308BF2033A3F10B03B3F120020CDA41
:1003E0000C3208DD02F1140CC2F10C0201FA0CF01F
:1003F00021FA02F10CE002F11402D8BFC2F1200C84
:1004000001FA02F120FA0CFCDCBF41EA0C01904039
:10041000E41AA2BF01EB0451294330BD6FEA040482
:100420001F3C1CDA0C340EDC04F11404C4F120026D
:1004300020FA04F001FA02F340EA030021FA04F37F
:1004400045EA030130BDC4F10C04C4F1200220FAD6
:1004500002F001FA04F340EA0300294630BD21FA14
:1004600004F0294630BD94F0000F83F4801306BFDA
:1004700081F480110134013D4EE77FEA645C18BFCE
:100480007FEA655C29D094EA050F08BF90EA020F65
:1004900005D054EA000C04BF1946104630BD91EA5D
:1004A000030F1EBF0021002030BD5FEA545C05D160
:1004B0004000494128BF41F0004130BD14F580049F
:1004C0003CBF01F5801130BD01F0004545F0FE4113
:1004D00041F470014FF0000030BD7FEA645C1ABF48
:1004E000194610467FEA655C1CBF0B46024650EA7F
:1004F000013406BF52EA033591EA030F41F40021AB
:1005000030BD00BF90F0000F04BF0021704730B530
:100510004FF4806404F132044FF000054FF0000105
:1005200050E700BF90F0000F04BF0021704730B5C6
:100530004FF4806404F1320410F0004548BF40429B
:100540004FF000013EE700BF42004FEAE2014FEAF0
:1005500031014FEA02701FBF12F07F4393F07F4FCB
:1005600081F06051704732F07F4208BF704793F0CE
:100570007F4F04BF41F40021704730B54FF46074E1
:1005800001F0004521F000411CE700BF50EA0102E4
:1005900008BF704730B54FF000050AE050EA01028D
:1005A00008BF704730B511F0004502D5404261EBFD
:1005B00041014FF4806404F132045FEA915C3FF43E
:1005C000D8AE4FF003025FEADC0C18BF03325FEADB
:1005D000DC0C18BF033202EBDC02C2F1200300FA8C
:1005E00003FC20FA02F001FA03FE40EA0E0021FAB1
:1005F00002F11444BDE600BF70B54FF0FF0C4CF49F
:10060000E06C1CEA11541DBF1CEA135594EA0C0F50
:1006100095EA0C0F00F0DEF82C4481EA030621EA8B
:100620004C5123EA4C5350EA013518BF52EA0335C6
:1006300041F4801143F4801338D0A0FB02CE4FF078
:100640000005E1FB02E506F00042E0FB03E54FF0A8
:100650000006E1FB03569CF0000F18BF4EF0010EA0
:10066000A4F1FF04B6F5007F64F5407404D25FEA9C
:100670004E0E6D4146EB060642EAC62141EA55514F
:100680004FEAC52040EA5E504FEACE2EB4F1FD0C91
:1006900088BFBCF5E06F1ED8BEF1004F08BF5FEA0F
:1006A000500E50F1000041EB045170BD06F00046C1
:1006B00046EA010140EA020081EA0301B4EB5C046E
:1006C000C2BFD4EB0C0541EA045170BD41F4801166
:1006D0004FF0000E013C00F3AB8014F1360FDEBF8B
:1006E000002001F0004170BDC4F10004203C35DA67
:1006F0000C341BDC04F11404C4F1200500FA05F3EA
:1007000020FA04F001FA05F240EA020001F000428A
:1007100021F0004110EBD37021FA04F642EB060100
:100720005EEA430E08BF20EAD37070BDC4F10C042A
:10073000C4F1200500FA04F320FA05F001FA04F2EE
:1007400040EA020001F0004110EBD37041F10001DA
:100750005EEA430E08BF20EAD37070BDC4F12005E5
:1007600000FA05F24EEA020E20FA04F301FA05F24D
:1007700043EA020321FA04F001F0004121FA04F2F5
:1007800020EA020000EBD3705EEA430E08BF20EAC5
:10079000D37070BD94F0000F0FD101F000464000FF
:1007A00041EB010111F4801F08BF013CF7D041EA81
:1007B000060195F0000F18BF704703F00046520085
:1007C00043EB030313F4801F08BF013DF7D043EA56
:1007D0000603704794EA0C0F0CEA135518BF95EA0C
:1007E0000C0F0CD050EA410618BF52EA4306D1D193
:1007F00081EA030101F000414FF0000070BD50EAB2
:10080000410606BF1046194652EA430619D094EA3B
:100810000C0F02D150EA013613D195EA0C0F05D125
:1008200052EA03361CBF104619460AD181EA030179
:1008300001F0004141F0FE4141F470014FF0000031
:1008400070BD41F0FE4141F4780170BD70B54FF0CC
:10085000FF0C4CF4E06C1CEA11541DBF1CEA13554C
:1008600094EA0C0F95EA0C0F00F0A7F8A4EB05042E
:1008700081EA030E52EA03354FEA013100F0888025
:100880004FEA03334FF0805545EA131343EA1263EE
:100890004FEA022245EA111545EA10654FEA0026A3
:1008A0000EF000419D4208BF964244F1FD0404F55C
:1008B000407402D25B084FEA3202B61A65EB0305B8
:1008C0005B084FEA32024FF480104FF4002CB6EB75
:1008D000020E75EB030E22BFB61A754640EA0C00F5
:1008E0005B084FEA3202B6EB020E75EB030E22BF35
:1008F000B61A754640EA5C005B084FEA3202B6EB76
:10090000020E75EB030E22BFB61A754640EA9C0034
:100910005B084FEA3202B6EB020E75EB030E22BF04
:10092000B61A754640EADC0055EA060E18D04FEAC2
:10093000051545EA16754FEA06164FEAC30343EA62
:1009400052734FEAC2025FEA1C1CC0D111F4801F2F
:100950000BD141EA00014FF000004FF0004CB6E728
:1009600011F4801F04BF01430020B4F1FD0C88BFC7
:10097000BCF5E06F3FF6AFAEB5EB030C04BFB6EBD2
:10098000020C5FEA500C50F1000041EB045170BDC5
:100990000EF0004E4EEA113114EB5C04C2BFD4EBF2
:1009A0000C0541EA045170BD41F480114FF0000E76
:1009B000013C90E645EA060E8DE60CEA135594EAF2
:1009C0000C0F08BF95EA0C0F3FF43BAF94EA0C0FF5
:1009D0000AD150EA01347FF434AF95EA0C0F7FF46A
:1009E00025AF104619462CE795EA0C0F06D152EABE
:1009F00003353FF4FDAE1046194622E750EA4106A2
:100A000018BF52EA43067FF4C5AE50EA41047FF4B2
:100A10000DAF52EA43057FF4EBAE12E74FF0FF3C17
:100A200006E000BF4FF0010C02E000BF4FF0010CE8
:100A30004DF804CD4FEA410C7FEA6C5C4FEA430C61
:100A400018BF7FEA6C5C1BD001B050EA410C0CBFB0
:100A500052EA430C91EA030F02BF90EA020F002012
:100A6000704710F1000F91EA030F58BF994208BF79
:100A700090422CBFD8176FEAE37040F00100704736
:100A80004FEA410C7FEA6C5C02D150EA013C07D18D
:100A90004FEA430C7FEA6C5CD6D152EA033CD3D0D8
:100AA0005DF8040B704700BF8446104662468C46D2
:100AB0001946634600E000BF01B5FFF7B7FF002805
:100AC00048BF10F1000F01BD4DF808EDFFF7F4FF2E
:100AD0000CBF012000205DF808FB00BF4DF808EDB9
:100AE000FFF7EAFF34BF012000205DF808FB00BFDC
:100AF0004DF808EDFFF7E0FF94BF012000205DF8FE
:100B000008FB00BF4DF808EDFFF7CEFF94BF0120B2
:100B100000205DF808FB00BF4DF808EDFFF7C4FFAB
:100B200034BF012000205DF808FB00BF4FEA4102FE
:100B300012F5001215D211D56FF47873B3EB62522F
:100B400012D94FEAC12343F0004343EA505311F056
:100B5000004F23FA02F018BF404270474FF00000E8
:100B6000704750EA013005D111F0004008BF6FF026
:100B7000004070474FF00000704700BF4A0011D29C
:100B800012F5001211D20DD56FF47873B3EB6252E7
:100B90000ED44FEAC12343F0004343EA505323FAF3
:100BA00002F070474FF00000704750EA013002D168
:100BB0004FF0FF3070474FF0000070474FEA41029E
:100BC000B2F1E04324BFB3F5001CDCF1FE5C0DD9AB
:100BD00001F0004C4FEAC0024CEA5070B2F1004FF5
:100BE00040EB830008BF20F00100704711F0804FF8
:100BF00021D113F13872BCBF01F00040704741F4BD
:100C000080114FEA5252C2F11802C2F1200C10FAC0
:100C10000CF320FA02F018BF40F001004FEAC123A4
:100C20004FEAD32303FA0CFC40EA0C0023FA02F348
:100C30004FEA4303CCE77FEA625307D150EA01331E
:100C40001EBF4FF0FE4040F44000704701F00040EE
:100C500040F0FE4040F40000704700BF53B94AB96D
:100C6000002908BF00281CBF4FF0FF314FF0FF30B4
:100C700000F074B9ADF1080C6DE904CE00F006F88F
:100C8000DDF804E0DDE9022304B070472DE9F04708
:100C9000089D04468E46002B4DD18A42944669D960
:100CA000B2FA82F252B101FA02F3C2F1200120FA43
:100CB00001F10CFA02FC41EA030E94404FEA1C4891
:100CC000210CBEFBF8F61FFA8CF708FB16E341EA8D
:100CD000034306FB07F199420AD91CEB030306F113
:100CE000FF3080F01F81994240F21C81023E634434
:100CF0005B1AA4B2B3FBF8F008FB103344EA0344D8
:100D000000FB07F7A7420AD91CEB040400F1FF33EC
:100D100080F00A81A74240F207816444023840EA29
:100D20000640E41B00261DB1D4400023C5E9004362
:100D30003146BDE8F0878B4209D9002D00F0EF80E5
:100D40000026C5E9000130463146BDE8F087B3FA18
:100D500083F6002E4AD18B4202D3824200F2F98000
:100D6000841A61EB030301209E46002DE0D0C5E903
:100D7000004EDDE702B9FFDEB2FA82F2002A40F04F
:100D80009280A1EB0C014FEA1C471FFA8CFE012652
:100D9000200CB1FBF7F307FB131140EA01410EFBF6
:100DA00003F0884208D91CEB010103F1FF3802D29D
:100DB000884200F2CB804346091AA4B2B1FBF7F097
:100DC00007FB101144EA01440EFB00FEA64508D9BA
:100DD0001CEB040400F1FF3102D2A64500F2BB80F7
:100DE0000846A4EB0E0440EA03409CE7C6F1200746
:100DF000B34022FA07FC4CEA030C20FA07F401FA8C
:100E000006F31C43F9404FEA1C4900FA06F3B1FB14
:100E1000F9F8200C1FFA8CFE09FB181140EA014179
:100E200008FB0EF0884202FA06F20BD91CEB010116
:100E300008F1FF3A80F08880884240F28580A8F16E
:100E400002086144091AA4B2B1FBF9F009FB1011C0
:100E500044EA014100FB0EFE8E4508D91CEB01015E
:100E600000F1FF346CD28E456AD90238614440EA01
:100E70000840A0FB0294A1EB0E01A142C846A64681
:100E800056D353D05DB1B3EB080261EB0E0101FA0A
:100E900007F722FA06F3F1401F43C5E90071002667
:100EA0003146BDE8F087C2F12003D8400CFA02FCBD
:100EB00021FA03F3914001434FEA1C471FFA8CFECD
:100EC000B3FBF7F007FB10360B0C43EA064300FBBD
:100ED0000EF69E4204FA02F408D91CEB030300F15B
:100EE000FF382FD29E422DD9023863449B1B89B212
:100EF000B3FBF7F607FB163341EA034106FB0EF39B
:100F00008B4208D91CEB010106F1FF3816D28B4247
:100F100014D9023E6144C91A46EA004638E72E4613
:100F2000284605E70646E3E61846F8E64B45A9D20B
:100F3000B9EB020864EB0C0E0138A3E74646EAE77A
:100F4000204694E74046D1E7D0467BE7023B614428
:100F500032E7304609E76444023842E7704700BF91
:100F60007FB501238DF817204FF0FF32CDE9013214
:100F70000DF11702009200680A46D02103F004F92F
:100F800007B05DF804FB00001FB54FF0FF3C0123E4
:100F9000CDE9013C009200680A46D02103F084F9B3
:100FA000024B187005B05DF804FB00BFEC00002098
:100FB0002DE9F041774B88B003AE944604468E4647
:100FC00003F11002354618685968374603C70833DD
:100FD00093423E46F7D11B783B7000227F21C4E943
:100FE00000EC2046ADF81D208DF81F20FFF7B8FF5C
:100FF000694E0146307038B16849284606F010FD48
:10100000002008B0BDE8F0810DF107022046FFF78F
:10101000BBFF0746307008B16149EEE79DF8072035
:10102000604902A806F0DCFC02A9284606F0F8FC9C
:101030009DF80C308DF81C70203B8DF818309DF811
:101040000D30203B8DF819300D238DF81A304FF0FC
:101050000A088DF80C30284649238DF80E308DF89B
:101060001B808DF80D80FFF7B3F84FF0FF3382B28D
:101070002946606804F014FC3A467F212046FFF7B9
:101080006FFF307008B14849B7E7F12206212046CA
:10109000FFF766FF307008B14449AEE7404602F002
:1010A000A3FA012206212046FFF75AFF307008B14B
:1010B0003F49A2E7404602F097FA3F220721204627
:1010C000FFF74EFF0746307008B13A4995E74046B2
:1010D00002F08AFA3A4607212046FFF741FF3070B6
:1010E00008B1354989E7012210212046FFF738FF72
:1010F0007F21307020222046FFF732FF01463070FA
:1011000008B12E4979E704222046FFF729FF307005
:1011100008B12B4971E7332201212046FFF720FF58
:101120000746307008B1274967E70722112120469A
:10113000FFF716FF3A46307010212046FFF710FFE8
:10114000307008B1204958E7312214212046FFF7BA
:1011500007FF0746307008B11C494EE7024653218D
:101160002046FFF7FDFE20463A467F21FFF7F8FEB6
:101170000446307008B116493FE7642002F034FAA3
:10118000144BC3E900449C60134BC3E900449C60CA
:1011900036E700BFC8820008EC000020FB82000890
:1011A000058300080F830008128300081C830008D1
:1011B00027830008328300083D8300084883000825
:1011C000528300085C83000866830008708300086F
:1011D0007B830008D0000020C40000202DE9F743E5
:1011E000382101AA4FF000080546ADF80480FFF74A
:1011F000CBFE3F4C3F4F20700DF1050237212846B2
:10120000FFF7C2FE20703C6834B905F045FC386039
:10121000204603B0BDE8F08305F03EFC364A9DF859
:101220000430B2F90420DFF8E0E03E68DFF8DCC00B
:1012300038609B1A9DF80520DEF80440DCF8047045
:10124000DCF80010CEF8084043EA0223B3F5004F63
:10125000A0EB0606DEF80000CCF80870A5BFC3F5C9
:101260007F4243464246FF329842CEF80400CCF813
:101270000410CEF80030CCF8002034DC844222DCAC
:10128000034691422BDC8F4223DC0A46D41A1B4BC7
:101290001868201AFFF746F9194B0022FFF7ACF93E
:1012A000804630468946FFF72DF902460B464046F8
:1012B0004946FFF7A1F9134B0022FFF7C7FAFFF7E2
:1012C0007DFCE861A4E79842DAD0A342A8BF234698
:1012D000D7E79142D9D0BA42A8BF3A46D6E78F4263
:1012E000D3DA3A46D2E78442CADA2346C9E700BFD6
:1012F000EC000020E8000020DC000020E4000020DA
:1013000000408F3F00408F40C4000020D0000020EC
:1013100070B506464FF400742DED028BB0EE408A96
:10132000F0EE608A3046013CFFF758FFB0EE480A05
:10133000F0EE680AA4B204F024FE002CF2D14FF4BF
:1013400000653046FFF74AFFB0EE480AF0EE680A43
:10135000013DADB2044404F014FE002DF1D1BDEC0A
:10136000028B024BE4121C6070BD00BFE400002041
:101370007FB50B4E0B4D0C4C3246294601A806F0AA
:101380002FFB01AA14210A2001F0EEFB20464FF4A6
:10139000806102F06CFC012004F0E7FDECE700BF87
:1013A000ED00002086830008001002407FB50E4A41
:1013B0000E4C10685168127A01AB03C31A700023F7
:1013C000CDF81130CDF80D300593214601A806F077
:1013D00027FB0A21084601AA01F0C6FB01F028FB01
:1013E000012004F0C2FDF0E7DC8200088E830008D3
:1013F0002DE9F04F2DED0E8B00218FB0C048C14C70
:1014000004F072F80421BE4804F06EF8BE480C21C6
:1014100004F06AF82378002B00F01F81BA4B1B6898
:1014200094221A64B94B0022CDE90823B84B4FF03F
:10143000000AD3E900014FF0000BCDE90CABFFF738
:1014400075FBB44BB44918600522B4489FEDA2ABBC
:101450009FEDA3BB04F0FCFC4BEC1CAB00234BEC5E
:1014600019AB0393AC4D0A2004F07FFD2878642863
:10147000F8D069786429F5D0AA78642AF2D0EB789C
:10148000642BEFD02E79642EECD0303A02EB82023E
:1014900002EB8202303E303B06EB820203EB830319
:1014A00002EB430344281CB23BD14D2940F0D980C4
:1014B0004FF4967004F059FD06F014F8984BAA7892
:1014C0001C682B7997493034E41AEB78303B03EBF6
:1014D0008303A4EB4304303AA3B221F8123046222E
:1014E0002A7057220A2124B26A70642294FBF2F215
:1014F000D2B2B2FBF1F001FB10223032AA7094FBA1
:10150000F1F2D2B2B2FBF1F001FB10223032DBB2C9
:10151000EA70B3FBF1F201FB123330332B7106F0AA
:1015200001F87D4A13785678462B40F0CC804C2E3B
:1015300040F00881774B1868001B1860FEF7F2FF37
:10154000CDE90801012303936F4B774D1A682B787F
:101550004C2E40F013815B21022B116440F0088176
:101560004FF4FA7004F001FD00232B706A4B5A7897
:10157000572A00F02D836D4A65496D4801240023E8
:101580009FED592B9FED5A1B9FED5B0B82ED009B4E
:10159000CDE9004308AB01F04BFD2146644801F062
:1015A00054FC63480A2101F077FD624B6249D3E99C
:1015B0000045002022462B46FEF766FE5E4B41ECBE
:1015C000180B002220462946FEF75EFEB0EE481AB0
:1015D000F0EE681A41EC100B554801F043FC0398FB
:1015E000FEF790FF02460B4600205449FEF74CFEE2
:1015F00002460B46FEF74AFE41EC180B444CDDE96F
:101600000801D4E90023FEF73FFE53EC182BFEF748
:10161000F3FF00220023FFF77FFA0546002840F081
:10162000CA8005F05FFF364B1B685D639D6305F064
:1016300079FF334B42491B68384800225A639A634A
:10164000354B64221A705A709A70DA701A714FF022
:10165000FF33022204F024F904E7642004F085FC3F
:10166000D8E652297FF45DAF05F03CFF46232B708E
:1016700057236B70EB782A79A978303B303A03EB2B
:10168000830302EB43033039264A32F811201A440F
:101690000A2014B2642394FBF3F3DBB2B3FBF0F142
:1016A00000FB1133303394FBF0F1C9B2AB70B1FBE6
:1016B000F0F300FB13113031D3B2E970B3FBF0F259
:1016C00000FB123329E7422B48D1522E3FF432AFB0
:1016D0004C2E38E0AFF300807B14AE47E17A943FA4
:1016E000BA490C022B87863F000000000000000072
:1016F0009A9999999999B93F1B2FDD240681953FB5
:10170000640400201405002044030020008056409B
:10171000780200203C050020ED000020AC040020F1
:10172000FC000020280500202000002018010020D7
:1017300000020020180000200000F03F0000E03F01
:101740009B830008522E09D1954B186820441860DD
:10175000FEF7E8FE0023CDE90801F4E6572E7FF4FA
:10176000F3AE8F4B1868FEF7DDFECDE90801EBE61E
:10177000012B7FF4F9AE4FF48770F3E6522E0DD1B2
:10178000F02111642BB94FF4FA7004F0EEFB022340
:10179000EBE6012BFBD14FF48770F6E7942113F0B1
:1017A000FD0F116403D14FF4877004F0DEFB7D4B15
:1017B00001221A70DAE64FF480617B4802F057FA92
:1017C0007A4801F09EFA05F08DFE794B5B784C2B40
:1017D00040F00081774E0022D6E900010023FFF798
:1017E0007DF90546002800F096807348DFF8E08117
:1017F0000022042102F036FA6F480122082102F08B
:1018000031FA6D480022202102F02CFA6A480122A8
:10181000102102F027FAD4E90023DDE90801FEF7E0
:1018200033FD53EC182BFEF7E7FE644B0022044611
:101830000D46FFF753F990B3B8F80000FEF762FECB
:101840005F4BD3E900675F4BD3F800805E4BD3E971
:10185000002304460D46FEF7CFFE32463B46FEF718
:10186000CBFE4DA3D3E90023FEF7C6FEFFF786F9B2
:101870003246C8F834003B4620462946FEF7BCFEF7
:1018800045A3D3E90023FEF7B7FEFFF777F9C8F8C1
:10189000380005F047FE0A2004F073FBAEE64B4B20
:1018A000474F002220462946FFF718F9E0B1B8F863
:1018B0000000FEF727FE434BD3F80080424BD7E9E8
:1018C0000067D3E9002304460D46FEF795FE324635
:1018D0003B46FEF791FEFFF751F93246C8F8340057
:1018E0003B4620462946CEE7B8F80000FEF70AFE40
:1018F000D6E9002304460D46D7E90001FEF7C4FCF3
:10190000304BD3F80080304B06460F46D3E9002316
:1019100020462946D9E7024608212748DFF8B0804B
:1019200002F0A0F924480122042102F09BF92A4682
:101930002148102102F096F91F480122202102F0CF
:1019400091F9D4E90023DDE90801FEF79DFC53EC91
:10195000182BFEF751FE194B002204460D46FFF7E7
:10196000BDF800287FF468AF184B154F00222046C1
:101970002946FFF7B3F8002899D1B8F80000FEF720
:10198000C1FDD7E9002304460D46D6E90001FEF764
:101990007DFCB5E7AFF30080333333333333E33FBC
:1019A0003C05002020000020001002400002002022
:1019B000ED0000201801002000000240000024403B
:1019C00018000020640400200000002000004440B3
:1019D00024000020522B7FF45CAF754D0022D5E926
:1019E00000010023FFF77AF80646002800F0828005
:1019F0007048DFF8D8810022082102F033F96D48E1
:101A00000122042102F02EF96A480022102102F07E
:101A100029F968480122202102F024F9D4E90023A1
:101A2000DDE90801FEF730FC53EC182BFEF7E4FD6E
:101A300002460B4643EC1E2B5F4B604C0022FFF727
:101A40004DF85F4B38B31888FEF75CFDD8E9008984
:101A500042464B4606460F46FEF7CEFD52A3D3E95B
:101A60000023FEF7C9FDFFF789F82468554B606332
:101A7000D3E9002330463946FEF7BEFD42464B46C9
:101A8000FEF7BAFD48A3D3E90023FEF7B5FDFFF743
:101A900075F8A063FDE61888FEF734FD494B24680D
:101AA000D3E9002306460F46FEF7A6FD464B41EC60
:101AB0001D0B002251EC1E0BD8E90089FFF70EF830
:101AC00068B132463B4640464946FEF795FDFFF772
:101AD00055F853EC1D2B606349464046D5E7D5E9E0
:101AE000002340464946FEF7CFFB804689463246F2
:101AF0003B46EAE7024604212E48DFF8D08002F098
:101B0000B1F82C480122082102F0ACF829483246ED
:101B1000202102F0A7F827480122102102F0A2F8A4
:101B2000D4E90023DDE90801FEF7AEFB53EC182BE6
:101B3000FEF762FD02460B4643EC1E2B1E4B1F4C6C
:101B40000022FEF7CBFF1E4B00287FF47CAF1888E5
:101B5000FEF7D8FC1B4B2468D3E9002306460F464A
:101B6000FEF74AFD184B41EC1D0B002251EC1E0BF9
:101B7000D8E90089FEF7B2FF68B132463B464046DD
:101B80004946FEF739FDFEF7F9FF424660634B46D2
:101B900051EC1D0B79E7D5E9002340464946FEF795
:101BA00075FBA2E7AFF30080333333333333E33FC6
:101BB00018010020000002400000244064040020BE
:101BC00024000020280000200000444018000020CD
:101BD000C74A1B7882ED009BC64A0025462B15603C
:101BE00040F04281C4482A46042102F03BF8C24832
:101BF0000122082102F036F8BF482A46202102F0CF
:101C000031F80122BC48102102F02CF82046FEF7E2
:101C100089FCABA3D3E90023FEF7EEFCCDE90C0170
:101C200001230393DFF80083B0EE4A1AF0EE6A1A3C
:101C3000012700269FEDA42BB0EE4B0AF0EE6B0AB5
:101C40000CAB0AAA88ED009BA949AC48CDE9007607
:101C50008DED0A9B01F0ECF9A848394601F0F5F842
:101C6000A6480A2101F018FAA54BA649D3E9004578
:101C7000002022462B46FEF707FBA24B41EC180B37
:101C8000002220462946FEF7FFFAB0EE481AF0EE91
:101C9000681A41EC100B994801F0E4F8B0EE4A1ACA
:101CA000F0EE6A1A9FED882B9FED890B08AB424638
:101CB00095499648CDE9007601F0BAF9934839463E
:101CC00001F0C3F891480A2101F0E6F9904B8F48E2
:101CD000D3E9002303F100410692079143EC112B55
:101CE0009DED060B01F0BEF88A4B03981B685E63FE
:101CF0009E63FEF707FC884B0022FEF7C5FA0246FA
:101D00000B46FEF7C3FA41EC180B794BDDE90C01E9
:101D1000D3E90023FEF7B8FA53EC182BFEF76CFC5E
:101D200000220023FEF7F8FE00283FF482AC73483F
:101D300000F0E7FF754800F0E4FF784B1B78462B76
:101D400040F0F680764B1C686F4BDDE90801D3E963
:101D50000023FEF799FA60A3D3E90023FEF74CFCB9
:101D60005FA3D3E90023FEF791FAFEF707FF6D4B5F
:101D700020641888FEF7C6FB6B4BD3E90067044666
:101D8000604B0D46002230463946FEF77FFA224668
:101D90002B46FEF731FC324641EC1C0B3B465949C1
:101DA0000020FEF771FA22462B46FEF725FC8246FC
:101DB0008B4605F097FBDDE90A0100220023FEF7C0
:101DC0008DFE0446002800F01B814B4800220821AC
:101DD00001F048FF48480122042101F043FF464832
:101DE0000022102101F03EFF43480122202101F092
:101DF00039FF3F4BDDE90C01D3E90023FEF744FA3C
:101E000053EC182BFEF7F8FB484B002206460F4612
:101E1000FEF764FE3A4A3F4BD2E90045002800F045
:101E2000BC801E68204653EC1C2B2946FEF7E4FBC1
:101E30002DA3D3E90023FEF7DFFBFEF79FFE5246FA
:101E400070635B4620462946FEF7D6FB26A3D3E9FE
:101E50000023FEF7D1FBFEF791FEB06305F062FBB5
:101E60000A2004F08EF850E7422B7FF4DBAE2248C4
:101E70002A46082101F0F6FE1F480122042101F044
:101E8000F1FE1D482A46102101F0ECFE01221A48FD
:101E9000202101F0E7FE2046FEF744FB01F100435C
:101EA0000593049006A3D3E90023DDE90401FEF7BE
:101EB000A3FB0395CDE90C01B4E600BFAFF30080AE
:101EC000295C8FC2F528F03F0000000000000000F0
:101ED0009A9999999999A93F9A99999999990140AB
:101EE000CDCCCCCCCC8C6240333333333333E33F73
:101EF000400500208C0200200000024090010020DC
:101F0000100000200000F03F780200202001002097
:101F100008000020640400200000E03FED000020E5
:101F2000440300202200002018010020000024406B
:101F3000422B7FF43EAF564B56491C68D1E9000155
:101F4000DDE90823FEF7A0F94DA3D3E90023FEF74E
:101F500053FB4DA3D3E90023FEF798F9FEF70EFEDD
:101F60004D4B20641888FEF7CDFA4C4BD3E900673F
:101F700004460D4632463B4649490020FEF784F9A7
:101F800022462B46FEF738FB454B41EC1C0B00224A
:101F900030463946FEF77AF905E7D3F80080414B21
:101FA000002230463946FEF799FDA0B122462B4665
:101FB00051EC1C0BFEF720FBFEF7E0FD2246C8F8B3
:101FC00034002B4650465946FEF716FBFEF7D6FD69
:101FD000C8F8380042E7DDE90A2320462946FEF723
:101FE00053F953EC1C2B04460D46FEF705FBFEF798
:101FF000C5FD5246C8F834005B4620462946E3E753
:1020000002460421284801F02DFE2748012208211C
:1020100001F028FE22462448202101F023FE224818
:102020000122102101F01EFE204BDDE90C01D3E955
:102030000023FEF729F953EC182BFEF7DDFA1C4BB1
:10204000002206460F46FEF749FD1A4A1A4BD2E90E
:10205000004500287FF4E5AED3F80080114B002244
:1020600030463946FEF73AFD00289FD1DDE90A23C4
:1020700020462946FEF70AF9B3E700BFAFF3008018
:102080009A99999999990140CDCCCCCCCC8C62404D
:1020900044030020780200202200002018010020C4
:1020A0000000F03F000037400000024040050020E3
:1020B0000000244010000020640400200000000004
:1020C0002DE9F04F2DED048B654A6649664887B0CF
:1020D000FEF76EFF05F006FA644901A805F0A0FCC2
:1020E00001AA1E210A2000F03FFD4FF4FA6003F020
:1020F0003CFF9FED550B5C48FFF70AF94FF4FA607F
:1021000003F033FF05F00EFA594B5A4801223C21E7
:102110001A709FED4F8B02F014FD9FED4B9B4FF01B
:10212000FF34A046504DDFF85C91DFF85CA105F06C
:10213000D9F92846FFF752F805F0F4F9E869FEF7F7
:1021400003FAD9E90023FEF7A1F84A4B06460F46E9
:10215000B8F1FF3FC9E90067CAE90067DFF82C81E1
:102160001B6801D0621C53D15C6A2546D8F8000078
:10217000DFF81CB1FEF7D6F937A3D3E90023FEF749
:102180003BFACBE9000139463046FEF7CFFC4FF46D
:102190007A724243384901A805F022FC1E210A2028
:1021A00001AA00F0E1FC35484FF4807101F054FDC4
:1021B00040BB334BC8F8000018608BED008B89EDF5
:1021C000008B8AED008B05F08DF9284901A805F0F8
:1021D00027FC01AA1E210A2000F0C6FC4FF4FA6079
:1021E00003F0C3FEB0EE490AF0EE690A1E48FFF79D
:1021F0008FF84FF4FA6003F0B8FE05F093F94FF052
:10220000FF352C460A20A04603F0BBFE2C4689E78A
:102210005D6A1B68DB060DD5AC4201DB631B03E086
:10222000C5F57F43FF332344D8F800201344C8F892
:1022300000309BE7AC42F1DD05F57F43FF33E31A45
:10224000F2E700BFAFF3008000000000000035405F
:102250000000000000000000994B7CF3E9CE8A3FAB
:10226000AC040020F0020020F00400209D83000850
:10227000140500208C030020AB830008000C0240F2
:102280003C05002080020020780200208C02002003
:1022900040050020034B1B6800225A625A6A8242A2
:1022A000FCD370471C0400202DE9F041037F022B72
:1022B000044612D13E4D2B788BB9042102F09CFCD0
:1022C0003C4B186001232B7023681A6A22F0A0028D
:1022D0001A621A6A42F020021A62BDE8F081012BEC
:1022E000FBD1042102F088FC334B186023680022E4
:1022F0005A62304B314A1B6898423BD9C31A13606B
:10230000DFF8C8801068D8F80060D8F80470C8F802
:102310000870C8F80460FEF7F5F81FA3D3E900239E
:10232000FEF76AF9264B0022FEF766F91CA3D3E9F3
:102330000023FEF761F91CA3D3E90023FEF786FA18
:10234000FEF71CFC86421F4BC8F800001ED8B7429F
:1023500016D81E6000232B7023681A6A22F0A00290
:102360001A621A6A1A62184B1A68D36823F00403B7
:10237000D360B2E7C4D2C3F57F43FF330344BEE763
:102380008642E6D0874203D31860E3E7B742E0D243
:102390001F60DFE7AFF300809CC420B07268A13FEC
:1023A0000000000000C0624000000000002061400A
:1023B0000C0100200401002008010020F40000208E
:1023C0000000E03FFC0000201C0400201805002055
:1023D00010B50A4C01221021204601F043FC0A20CE
:1023E000FFF758FF10210022204601F03BFC044B70
:1023F0001A68D36843F00403D36010BD000C024098
:102400001C0400207FB5094D094CFFF7E1FF2A6845
:10241000214601A805F0E4FA01AA28210A2000F0CB
:10242000A3FB642003F0ADFDEFE700BFFC0000203C
:10243000F082000800B595B02C22002109A805F013
:10244000C7FA1422002103A805F0C2FA0023194A92
:102450000193116C41F080511164126C02F08052B2
:102460000192019A144A0293116841F4804111606B
:1024700012680E9302F480420292029A022208929B
:1024800001201022CDE90B0208A802F031F8014624
:1024900008B172B6FEE70F23CDE90330CDE90500A0
:1024A000079003A802F002FA08B172B6FEE715B071
:1024B0005DF804FB003802400070004080B59EB01B
:1024C00001F066F8AB4BAC4D46221A7057225A7099
:1024D00030229A703922DA7064221A710024FFF7D0
:1024E000A9FF1422002115A805F072FA02942B6BA3
:1024F000A24843F010032B632B6B03F010030293ED
:10250000029B03942B6B43F080032B632B6B03F034
:1025100080030393039B04942B6B43F001032B6311
:102520002B6B03F001030493049B05942B6B43F086
:1025300008032B632B6B03F008030593059B06949C
:102540002B6B43F004032B632B6B03F00403069304
:10255000069B07942B6B43F002032B632B6B03F05A
:102560000203079322464FF4BC61079B01F07AFBFC
:10257000834822463C2101F075FB22468148102108
:1025800001F070FB01274FF4BC637C4815A9CDE92D
:102590001537CDE9174401F085FA3C23784815A991
:1025A000CDE91537CDE9174401F07CFA4FF480737B
:1025B0007448179415A9CDE91534102601F072FA64
:1025C000704815A9CDE91567CDE9174401F06AFAFD
:1025D00001942B6B43F400132B632B6B6A4D03F4B4
:1025E00000132246052101930C20019B01F022F8E3
:1025F0000C2001F051F8324621460AA805F0E8F90E
:102600001C2221460EA8CDE9084405F0E1F920225C
:10261000214615A805F0DCF95C4BAC60C5E9003437
:10262000284641F61F43C5E90334C5E9054402F0D5
:1026300005FC08B172B6FEE74FF480530AA928469C
:102640000A9302F03EFE08B172B6FEE7284602F099
:1026500021FC08B172B6FEE7CDE9080008A92846BA
:1026600002F0C8FF024608B172B6FEE76023CDE96A
:102670000E30CDE91000CDE9120014900EA92846C5
:1026800002F0ECFC08B172B6FEE704220EA928465F
:1026900002F0E4FC08B172B6FEE7CDE91500CDE921
:1026A000170019904FF400531C9015A928461A934F
:1026B00002F0DEFF044608B172B6FEE7344D014673
:1026C0001C2216A805F084F94FF08043C5E90034B8
:1026D0004FF6FF73C5E903340323159315A90A23A5
:1026E0002846CDE90E44AC60AC61179719931B974F
:1026F0001D9302F027FC08B172B6FEE7CDE90E008B
:102700000EA9284602F076FF044608B172B6FEE72D
:10271000014632460AA805F05BF91C2221460EA8A4
:10272000CDE9084405F054F92022214615A805F00A
:102730004FF9184D1848A023C0E900534FF47A739D
:10274000C0E90334C0E90544846002F077FB08B1B6
:1027500072B6FEE74FF480530F480A930AA902F0BD
:10276000B0FD08B172B6FEE70B4802F093FBA8B1CA
:1027700072B6FEE7ED000020003802400010024073
:1027800000000240000C02406404002000040140EC
:102790008C0300200000014044030020CDE9080024
:1027A00008A96F4802F026FF08B172B6FEE7602361
:1027B000CDE90E30CDE91200109014900C2268483B
:1027C0000EA902F04BFC08B172B6FEE74FF40053BD
:1027D000CDE91500CDE9170019901C9015A96048A6
:1027E0001A9302F045FF034608B172B6FEE75D4852
:1027F0005D4C03614FF4E132C0E900420C22C0E9B4
:102800000233C0E90523C36103F01CF8044608B194
:1028100072B6FEE701461C2216A805F0D9F8534D02
:10282000534BAC60C5E90034032301224FF6FF7619
:10283000159315A90A232846CDE90E44C5E903647A
:10284000AC61179219931B921D9302F07BFB08B1A8
:1028500072B6FEE7CDE90E000EA9284602F0CAFEC8
:10286000034608B172B6FEE742484349434A036251
:10287000C0E900124FF48042C0E90233C0E90423EA
:10288000C0E9063301F0D8FB044608B172B6FEE792
:102890001025CDE90E0001462A4615A805F098F846
:1028A0003748384B0461C0E90035C0E9024684610D
:1028B00002F01CFB08B172B6FEE7002330480EA9F7
:1028C000CDE90E3302F096FE08B172B6FEE70123A1
:1028D000CDE91630159018900422294815A902F068
:1028E00053FC044608B172B6FEE700F05DF9264AD3
:1028F0002348D2F8FC3043F08073C2F8FC30234BFD
:102900005C601A6842F001021A60042102F0EEFDD8
:1029100003F0B6FA1E4A1F48214603F0DDFA1E4BAB
:102920001E4A186021461E4803F0D6FA1D4B1E4A67
:10293000186021461D4803F0CFFA1D4B1D4A186050
:1029400021461D4803F0C8FA1C4B1D4A1860214659
:102950001C4803F0C1FA1C4B186003F0A3FAFEE711
:1029600044030020AC04002000480040D4030020B1
:1029700000040040F002002000540040A086010046
:102980001C0400200008004000ED00E0001000E002
:102990007C8400087113000888020020EC83000882
:1029A000AD130008F800002034840008F11300087B
:1029B0001001002010840008C12000080001002040
:1029C00058840008052400087002002072B6FEE753
:1029D000012970B50A46044618BF00221348134E59
:1029E0004FF4807101F03EF9082500222021304685
:1029F00001F038F923064CBF012200224021304665
:102A000001F030F9013D01222021304601F02AF980
:102A1000640015F0FF05E4B2E7D1BDE8704003485B
:102A200001224FF4807101F01DB900BF0010024077
:102A300070B50F4EB02400212046FFF7C9FF0021DA
:102A40000846FFF7C5FF00211020FFF7C1FF002552
:102A500016F8350001210135FFF7BAFF802DF7D1B7
:102A60000134E4B2B82C06F10106E4D170BD00BF18
:102A7000480500200023084810B41C460022C11855
:102A800001F832400132802AFAD10133082BF5D106
:102A90005DF8044BFFF7CCBF48050020030630B5B6
:102AA00013D43F2911D801F007050A4CC908C1F118
:102AB0000701C9B204EBC0000123C5F1070503FA01
:102AC00005F5435C12B12B43435430BD23EA0503A3
:102AD000FAE700BF480500202DE9F74F1F46A2F195
:102AE000200A1F4B9DF830B05FFA8AFA03EB0A13F5
:102AF00000931C4B0AEB4A0A03EB8A038146884683
:102B000001930C460026B74202D103B0BDE8F08F16
:102B10000C2F0CBF019B009B9D5D04F108035FFA25
:102B200083FA2B0658BFBBFA8BF2214604F101044D
:102B30004CBF5A4652094846E4B2FFF7AFFFA4EB38
:102B400008026D00BA42EDB207D109F101005FFA47
:102B500080F9C24601365446D5E7A245E1D1F9E7EE
:102B600014890008A0840008F7B504460D46561ED7
:102B7000012716F8013F0BB903B0F0BD7A2C82BFD4
:102B80001035EDB200243A2D03D9FFF773FF00256D
:102B90002C460097204632780C2329460834FFF74C
:102BA0009BFFE4B2E5E7000010B501F085FC404B67
:102BB000404C1A6F22F001021A671A6F22F00402C9
:102BC0001A6701F087FC00228021204601F04AF8B4
:102BD000642000F009FD01222046802101F042F826
:102BE0000021AE20FFF7F4FE0021D520FFF7F0FE14
:102BF00000215020FFF7ECFE0021A820FFF7E8FE9F
:102C000000213F20FFF7E4FE0021D320FFF7E0FE84
:102C100000210846FFF7DCFE00214020FFF7D8FE28
:102C200000218D20FFF7D4FE00211420FFF7D0FEF5
:102C300000212020FFF7CCFE00210220FFF7C8FE74
:102C40000021A120FFF7C4FE0021C020FFF7C0FE35
:102C50000021DA20FFF7BCFE00211220FFF7B8FEAA
:102C600000218120FFF7B4FE0021EF20FFF7B0FE26
:102C70000021D920FFF7ACFE0021F120FFF7A8FECC
:102C80000021DB20FFF7A4FE00213020FFF7A0FE8B
:102C90000021A420FFF79CFE0021A620FFF798FE4C
:102CA0000021AF20FFF794FEBDE81040FFF7E2BE21
:102CB0000038024000100240436C2DE9D043D3E9B4
:102CC0000067C0E91467036CD0E91A89D3E90023CF
:102CD0000446C0E91623394642464B463046FDF7C6
:102CE0001BFF10B1C4E9148909E0D4E91889304602
:102CF00042464B463946FDF7F1FE0028F2D1BDE8C9
:102D0000D0832DE9F04F2DED048B437885B0044638
:102D10002BB9002005B0BDEC048BBDE8F08F00F0AE
:102D20005DFC6368A268C31A9A420546F1D8236C19
:102D3000A16CD3E900ABD1E9000152465B46FDF737
:102D4000A3FAD4E9162341EC180B50465946FDF777
:102D50009BFAD4E90C2341EC190B51EC180BFDF74D
:102D60004BFCD4E91423FDF791FA2378019306462E
:102D70000F46C4E914676BB9D4E90A2351EC190B67
:102D8000FDF73AFC02460B4630463946FDF77CFA21
:102D9000C4E91401D4E91489D4E91A6740463246DB
:102DA0003B464946FDF7B8FE002838D0C4E9146711
:102DB000019B002B44D0D4E90A2351EC180BFDF7FA
:102DC0001BFC80468946D4E90E2351EC190BFDF714
:102DD00013FC02460B46D4E91401FDF755FA4246AE
:102DE0004B46FDF753FA8046894602460B4630466D
:102DF0003946FDF773FE50B9D4E9186742464B4691
:102E000030463946FDF788FE08B946464F46636CA2
:102E10000120C3E90067C4E916AB65607AE794ED69
:102E2000187B404653EC172B49468DED027BFDF78E
:102E300055FE0028BCD09DED027B84ED147BB7E7E6
:102E40004FF000084FF00009BDE7012938B50446EE
:102E50000CBF0125002503D143780BB9FFF72CFFE8
:102E6000657038BD2DE9F84F55EC104B57EC116BE0
:102E7000824611EE102A10EE100A3B462946FDF755
:102E800041FE002837D19AF80130CAE91845CAE94D
:102E90001A67002B2FD0DAF844B0DBE900893246FC
:102EA0003B4640464946FDF737FE78B1CBE900671F
:102EB000DAE91467DAE91A45304622462B463946E4
:102EC000FDF72AFE68B1CAE9144514E022462B46F4
:102ED00040464946FDF702FE0028E9D0CBE900450F
:102EE000E6E7DAE91845304622462B463946FDF733
:102EF000F5FD0028E7D1BDE8F88F00002DE9F34784
:102F000055EC104B8246884610EE100A0022002332
:102F100029468DED002B57EC116BFDF7DFFD0028E6
:102F20005DD10022002330463946FDF7D7FD002849
:102F300055D1DDE9000100220023FDF7CFFD002877
:102F40004DD19DED007B08F1FF338AF80280D3F16B
:102F5000000848EB03088AED087BCAE906678AF88F
:102F60000080CAE90445DAF80800FDF7CBFA1D4BEA
:102F70000022FDF76BFCCAE90A45804689460246F5
:102F80000B4630463946FDF737FB06460F464B46A3
:102F90004246CAE90C67DDE90001FDF757FC9AF8E3
:102FA000033080468946012BCAE90E8917D1224693
:102FB0002B4600200021FDF767F93246CAE90A01D5
:102FC0003B4600200021FDF75FF94246CAE90C01AB
:102FD0004B4600200021FDF757F9CAE90E0102B067
:102FE000BDE8F08700408F4038B5437804460D4671
:102FF000D3B1C3788B4217D0D0E90A230021002037
:10300000FDF742F9D4E90C23C4E90A0100200021AC
:10301000FDF73AF9D4E90E23C4E90C0100200021A0
:10302000FDF732F9C4E90E01E57038BD000000007B
:1030300010B583640023C0E91012437000220023FE
:10304000C0E9182312A3D3E9002386B0C0E91A23EC
:103050006423044683609DF824108DED040B8DEDF0
:10306000021B8DED002BFFF7BFFF9DED002B9DEDAB
:10307000021B9DED040B9DF820102046FFF73EFF3C
:1030800000F0ACFAA368C01A606006B010BD00BFC3
:103090000000000000E06F40F8B50D1E044620DD82
:1030A0002846FDF73FFA0646A0680F46FDF72AFAC4
:1030B00002460B4630463946FDF7C8FB02460B4632
:1030C00006460F46D4E90C01FDF796FA3246C4E9EC
:1030D0000C013B46D4E90E01FDF7B8FBC4E90E0133
:1030E000A560F8BD82B00E4B00220092596C41F4ED
:1030F00080415964596C01F480410091009901921A
:10310000196C41F0805119641B6C03F080530193DA
:10311000019B0F216FF0010002B000F08BBA00BFDD
:103120000038024030B5044689B01422002103A8BB
:1031300004F04EFC2268144B9A4222D1134C1448DE
:1031400000250195236B43F002032363236B03F0F7
:1031500002030193019B4FF440721223CDE9032334
:1031600003210423CDE9061303A900F09BFC02957B
:10317000236C43F400132364236C03F400130293C1
:10318000029B09B030BD00BF00540040003802402F
:103190000004024010B514228AB0044600210DEB51
:1031A000020004F015FC2368234A934222D1234BEA
:1031B0002348002101915A6C42F001025A645A6C72
:1031C00002F001020192019A02911A6B42F0100280
:1031D0001A631B6B03F0100302934FF48041029BB0
:1031E0000223CDE905130123099305A900F05AFC38
:1031F0000AB010BD134A9342FAD1104B1248002175
:1032000003915A6C42F002025A645A6C02F00202B4
:103210000392039A04911A6B42F004021A631B6B27
:1032200003F004030493049BC0220223CDE9052389
:103230000323099305A9D9E70000014000380240A3
:1032400000100240000401400008024070B5142242
:103250008AB0044600210DEB020004F0B9FB23689C
:10326000B3F1804F37D103F50E33002400941A6C6C
:10327000294842F001021A641A6C02F0010200921D
:10328000009A01941A6B42F001021A631A6B02F061
:1032900001020192019A02941A6B42F002021A632F
:1032A0001B6B03F002030293029B02264FF40043C0
:1032B000012505A9CDE90536099500F0F3FB0823A2
:1032C000CDE90536CDE907441448099505A900F074
:1032D000E9FB0AB070BD124A9342FAD1114B0E4875
:1032E000002103911A6C42F002021A641A6C02F077
:1032F00002020392039A04911A6B42F001021A63CC
:103300001B6B03F001030493049BC0220223CDE94D
:103310000523099305A9DAE70000024000040240F2
:10332000000400400038024010B5044688B0142262
:10333000002103A804F04CFB2268174B9A4228D1C5
:1033400003F50C33002401941A6C144842F0040273
:103350001A641A6C02F004020192019A02941A6B28
:1033600042F008021A631B6B03F0080302934FF448
:103370000052029B03A90223CDE90323079300F027
:1033800091FB1E202246052100F054F91E2000F07A
:1033900083F908B010BD00BF00080040000C0240D7
:1033A00070B5064688B01422002103A804F010FB73
:1033B0003268254B9A4245D1002503F5F833019533
:1033C0001A6C2248224C42F480221A641A6C02F4CD
:1033D00080220192019A02951A6B42F004021A634C
:1033E0001B6B03F004030293029B4FF44062022321
:1033F000CDE9032303210723CDE9061303A900F038
:1034000051FB1448A5614FF00063C4E900034FF479
:103410008063C4E9043520464FF48073C4E9025543
:10342000C4E90735656200F06FF908B1FFF7CEFA1D
:10343000B463272000220521A66300F0FBF82720B3
:1034400000F02AF908B070BD0048004000080240B2
:103450009002002028600240FEE7FEE7FEE7FEE75C
:10346000FEE7704708B500F0ADF803F095FD0128C0
:1034700003D0BDE8084004F09DB808BD014800F045
:1034800053BA00BF90020020014801F0CFBB00BF3B
:103490001C040020014802F03FBB00BFAC04002028
:1034A0000B4A116810B5034609B90A491160106842
:1034B00009490A4C0344091B8B4206D904F050FA0F
:1034C0000C2303604FF0FF3010BD1360FCE700BF1A
:1034D00048090020B0520020000002200004000033
:1034E000034AD2F8883043F47003C2F8883070473A
:1034F00000ED00E0DFF834D00D480E490E4A0023FD
:1035000002E0D458C4500433C4188C42F9D30B4A97
:103510000B4C002301E013600432A242FBD3FFF7FF
:10352000DFFF04F023FAFEF7C9FF70470000022016
:1035300000000020A40000207C8F0008A8000020CC
:10354000AC520020FEE7000038B50E4A0E4B05468F
:1035500018784FF47A73B3FBF0F31068B0FBF3F014
:1035600000F0A8F8044658B90F2D09D8024629469C
:103570004FF0FF3000F05EF8044B20461D6038BD70
:103580000120FCE73000002034000020380000203B
:1035900008B50B4B1A6842F400721A601A6842F4BC
:1035A00080621A601A6842F480721A60032000F088
:1035B0002FF80F20FFF7C8FFFFF794FD002008BD8C
:1035C000003C0240034A044B11681B780B44136013
:1035D000704700BF4C09002034000020014B1868E0
:1035E000704700BF4C09002038B50446FFF7F6FFCE
:1035F000631C1CBF054B1B78054618BFE418FFF77A
:10360000EDFF431BA342FAD338BD00BF34000020B6
:103610000749CA6822F4E0620302120403F4E0637B
:10362000120C134343F0BF6343F40033CB60704785
:1036300000ED00E0164B30B5DC68C4F30224C4F1A1
:103640000705231D042D28BF0425062B4FF0FF334B
:103650008CBF033C002403FA05F521EA0501A340D1
:1036600022EA0302A140002841EA0203ACBF00F1B4
:103670006040084A4FEA0313B8BF00F00F00DBB206
:10368000AABF00F56140135480F8003330BD00BF7D
:1036900000ED00E014ED00E0002808DB4209012302
:1036A00000F01F0003FA00F0014B43F822007047BE
:1036B00000E100E00138B0F1807F0BD24FF0E02351
:1036C000054A5861F02182F82310002007229861F2
:1036D0001A6170470120704700ED00E0036810B5E3
:1036E000084C0246D9B210391820B1FBF0F0205C2A
:1036F000D06523F47F7020F003005F2988BF043079
:10370000906510BD1C8F000870B50446FFF766FF7A
:103710000546002C73D0022384F83530226800233C
:1037200084F83430136823F00103136021680B68B8
:10373000D8072FD40B68334DA0691D40D4E901236D
:103740001343E26813432269134362691343E26936
:1037500003431343226A1343626A042A43EA0503BC
:1037600002BFD4E90B5635432B430B604B69042A47
:1037700023F0070343EA020333D1A26AE56A134345
:103780007DB390B9012A21D032F0020229D1EA0199
:1037900027D51EE0FFF722FF401B0528C6D92023AE
:1037A0006365032084F8350070BDB0F5005F14D167
:1037B000032A16D801A050F822F000BFD337000822
:1037C0008F370008D3370008CD370008B5F1C07F28
:1037D00007D1402363650120E4E7022AF9D9032ACF
:1037E000D5D04B612046FFF779FFE26D3F23934030
:1037F000836000200123606584F83530D4E7012020
:10380000D2E700BF3F8010F070B590F83440866D6D
:10381000012C31D0012480F8344090F83540012C3F
:103820004FF000054FF0020424D180F835400468C1
:103830004565256825F48025256063608368402BF5
:103840000EBFA260A160E260C26D08BFE1603F23CD
:103850009340B360236843F016032360036C1BB1ED
:10386000236843F008032360236843F001032360C7
:10387000002070BD80F834500220FAE770B504468D
:10388000866DFFF7ABFE94F83530022B054606D067
:1038900080236365002384F83430012070BD2368E1
:1038A0001A6822F016021A605A6922F080025A61E0
:1038B000226C0AB9A26C1AB11A6822F008021A60C6
:1038C0001A6822F001021A6023681B6813F00103D2
:1038D0000AD1E16D3F228A40B260012284F835208E
:1038E00084F834301846D9E7FFF778FE401B0528E6
:1038F000EAD9202363650320002384F8350084F887
:103900003430CBE790F83530022B03D08023436569
:10391000012070470268052380F83530136823F0D2
:103920000103136000207047F7B5002301935C4B3F
:10393000856D1F68C36D2E6808229A403242044686
:103940000CD001680868400708D5086820F004001A
:103950000860AA60626D42F00102626501229A402D
:10396000324208D021684969090641BFAA60626DE8
:1039700042F00202626504229A40324208D0216875
:103980000968880741BFAA60626D42F0040262655F
:1039900010229A40324210D02368196809070CD5CA
:1039A000AA601A68500337D51B68190301D4236C29
:1039B00000E0A36C0BB120469847E16D20228A40BD
:1039C00032423AD023681868C60636D5AA6094F801
:1039D0003520052A1A6827D122F016021A605A6982
:1039E00022F080025A61226C0AB9A26C1AB11A68DC
:1039F00022F008021A603F238B40AB60012384F859
:103A00003530002384F83430236D002B45D0204618
:103A100003B0BDE8F04018471A68D2055EBF1A68C7
:103A200022F008021A60C2E7500327D51B68190369
:103A300031D4636C0BB120469847636D6BB3636DF3
:103A4000DA0719D522684FF41653B7FBF3F70523AD
:103A500084F83530136823F001031360019B0133B0
:103A6000BB42019302D81368DB07F7D4012384F823
:103A70003530002384F83430E36CC6E71A6812F45A
:103A8000807208D1196821F010011960012384F8AF
:103A9000353084F83420E36BCCE703B0F0BD00BFD1
:103AA000300000202DE9F74FDFF8A891674A002386
:103AB0000D6801249C4004EA050CAC4340F0B18041
:103AC0004D6805F003044FEA43080326671E06FA13
:103AD00008F6012F6FEA060634D8876807EA060E53
:103AE000CF6807FA08F747EA0E078760476827EAB2
:103AF0000C0EC5F300179F4047EA0E074760C768E2
:103B000007EA060E8F6807FA08F747EA0E07022C45
:103B1000C76019D14FEAD30A00EB8A0A03F0070BFA
:103B2000DAF820704FEA8B0B4FF00F0E0EFA0BFEF7
:103B300027EA0E0E0F6907FA0BF747EA0E07CAF8D5
:103B4000207001E0032CDAD1076804FA08F43E4043
:103B5000264315F4403F066063D04FF0000ACDF8CD
:103B600004A0D9F844603A4C46F48046C9F8446051
:103B7000D9F8446006F480460196019E23F00306BE
:103B800006F1804606F59C3603F0030ED6F8088051
:103B90004FEA8E0E0F2707FA0EF7A04228EA070712
:103BA00046D004F58064A04244D004F58064A0426D
:103BB00042D004F58064A04240D004F58064A04265
:103BC0003ED004F58064A0423CD004F58064A0425D
:103BD0003AD004F58064A0420CBF0724082404FAFC
:103BE0000EF43C43B46014686FEA0C06EF0354BF54
:103BF00034404CEA040414605468AF0354BF3440AA
:103C00004CEA040454609468EF0254BF34404CEA18
:103C100004049460D468AD0254BF34404CEA0404F8
:103C2000D4600133102B7FF443AF03B0BDE8F08FB5
:103C30005446D4E70124D2E70224D0E70324CEE798
:103C40000424CCE70524CAE70624C8E7003C014069
:103C500000000240003802400369194214BF0120ED
:103C6000002070470AB1816170470904FBE743698E
:103C700001EA030221EA030141EA0241816170473E
:103C800001684B6913F480634FF0000210D06FF4A9
:103C900080634B612023026380F83D3080F83E2032
:103CA000036C80F83C2043F0040303640120704758
:103CB000184670472DE9F84606460F4691461D46C0
:103CC0004FEA114A3368BAF1010F0CBF5C699C6975
:103CD00027EA0404A4B2B4FA84F46409A14501D02B
:103CE000002017E06A1CEED0FFF778FC089BC01A92
:103CF000A84201D8002DE5D100232022336386F8A5
:103D00003D2086F83E30326C86F83C3042F020028E
:103D100032640120BDE8F8862DE9F04104460F46E3
:103D2000164698462568686927EA000080B2B8B14F
:103D30006B695A0516D52B6843F400732B606FF43A
:103D400080636B6120220023236384F83D2084F884
:103D50003E30226C42F00402226484F83C300120A0
:103D6000BDE8F081731CDED0FFF738FCA0EB080043
:103D7000B04201D8002ED5D100232022236384F83D
:103D80003D2084F83E30226C42F02002E4E770B51A
:103D900004460D46164621684B6913F0400301D0D6
:103DA000002010E04A69D2060ED56FF010024A6179
:103DB0002022236384F83D2084F83E30226C226464
:103DC00084F83C30012070BDFFF708FC801BA8423E
:103DD00001D8002DDFD100232022236384F83D2069
:103DE00084F83E30226C42F02002E8E770B50446C9
:103DF0000D46164623685B695B0701D5002070BD40
:103E00002046FFF73DFFA8B96A1CF3D0FFF7E6FB99
:103E1000801BA84201D8002DECD10023202223636F
:103E200084F83D2084F83E30226C84F83C3042F027
:103E3000200222640120E2E770B504460D461646D2
:103E400023685B691B0601D5002070BD2046FFF783
:103E500017FFA8B96A1CF3D0FFF7C0FB801BA8426C
:103E600001D8002DECD100232022236384F83D20CB
:103E700084F83E30226C84F83C3042F02002226408
:103E80000120E2E72DE9F0431546026885B0DDE93F
:103E90000C789946136843F4807313600E463B46D2
:103EA000CDF8008000224FF001110446FFF702FF19
:103EB000236838B11B68DB0502D54FF40073236417
:103EC00003200AE006F0FE061E61194943463A4601
:103ED0002046FFF721FF18B1012005B0BDE8F083AF
:103EE000236803905A6903929B69039342463946BB
:103EF0002046039BFFF7A0FF40B1236C042B01BFBA
:103F00002268136843F400731360E5E7B9F1010F09
:103F1000236802D1EDB21D61DFE72A0A1A61394632
:103F200042462046FFF788FF0028E6D12368F1E7E4
:103F3000020001002DE9FF479A46036815461A68FA
:103F400042F480621A601A68DDE90C7842F48072EB
:103F50001A600E463B46CDF8008000224FF001115A
:103F60000446FFF7A7FE236848B11B68DB0502D5AE
:103F70004FF400732364032004B0BDE8F0875FFAB8
:103F800086F906F0FE061E612A4943463A46204657
:103F9000FFF7C2FE08B10120EEE7236803905A69DB
:103FA00003929B690393424639462046039BFFF7E1
:103FB00043FF40B1236C042B01BF2268136843F414
:103FC00000731360E7E7BAF1010F23681AD1EDB26D
:103FD0001D61424639462046FFF72EFF0028E9D1F1
:103FE0002268136843F4807313604FF00111024696
:103FF000CDF800803B462046FFF75CFE226860B1AA
:104000001368B3E72A0A1A61394642462046FFF789
:1040100013FF0028CED12368D9E749F001031361CB
:10402000044943463A462046FFF776FE003818BF5B
:104030000120A1E70200010070B5044608B9012083
:1040400070BD90F83D3003F0FF021BB980F83C20B2
:10405000FFF768F8242384F83D3023681A6822F0BB
:1040600001021A601A6842F400421A601A6822F4C7
:1040700000421A6000F0B6FC3F4B65689D4294BF59
:104080003E4B3F4B98428CBF00230123002BD6D1DF
:104090002268394E53683B49B0FBF1F123F03F03EE
:1040A0000B43B542536088BF4FF49676136A88BFBE
:1040B000714323F03F0384BF4FF47A76B1FBF6F1EE
:1040C000013119431162D169431E2B4821F44F413C
:1040D000854221F0FF0132D86D0040F6FC70B3FB41
:1040E000F5F30133034242D0C3F30B030B43D36117
:1040F000D4E907301168034321F0C0010B4313607A
:104100009168D4E9030321F40341034321F0FF0143
:104110000B439360D4E90530D168034321F0FF01DC
:104120000B43D360136843F0010313600020202386
:10413000206484F83D30206384F83E0080E7A06866
:1041400050B905EB4505B3FBF5F30133C3F30B039E
:104150007BB143F40043C9E719204543B3FBF5F3B2
:104160000133C3F30B0323B143F44043BEE70423FD
:10417000BCE70123BAE700BFA08601007F841E00D0
:10418000FF083D0040420F002DE9F74304469946E1
:104190000C9E0F469046FFF721FA94F83D30202BF5
:1041A000054603D0022003B0BDE8F08300903C49EF
:1041B000192301222046FFF77DFD0028F2D194F853
:1041C0003C30012BEED02068012384F83C3003689A
:1041D000D9075EBF036843F001030360036823F45B
:1041E00000630360212384F83D30402384F83E308F
:1041F000002323640A9B6362BDF82C306385638DC2
:104200002385284BE362CDE900654B46424639469B
:104210002046FFF737FE00282AD00120C3E7FFF72A
:104220000BFE40B1236C042B01BF2268136843F4DA
:1042300000731360F1E7636A27681A4612F8011BDE
:1042400039616262628D218D013A92B262857A692A
:10425000481E80B2520720850AD548B15A783A6183
:1042600002336362638D013B02399BB22185638512
:10427000238D2A4631462046002BD0D1FFF7B6FDCC
:104280000028CFD12268136843F400731360202301
:1042900084F83D3084F83C0084F83E0083E700BF9A
:1042A000020010000000FFFF2DE9F043044687B034
:1042B0009946109F0D469046FFF790F994F83D30CF
:1042C000202B064604D00225284607B0BDE8F0831F
:1042D00000907649192301222046FFF7EBFC0028C5
:1042E000F1D194F83C30012BEDD02068012384F803
:1042F0003C300368DB075EBF036843F001030360E3
:10430000036823F400630360222384F83D304023D4
:1043100084F83E30002323640E9B6362BDF83C307A
:104320006385638D2385624BE3622946CDE9007680
:104330004B4642462046FFF7FDFD054608B10125E4
:10434000C2E7228D2368B2B902905A6902929A6933
:104350000292029A1A6842F400721A60DFF85481DD
:10436000238D002B2CD1202284F83D2084F83C3072
:1043700084F83E30A8E7012A0AD11A6822F4806244
:104380001A6003905A6903929A690392039AE1E7CB
:10439000022A0ED11A6822F480621A601A6842F466
:1043A00000621A6004905A6904929B690493049B0A
:1043B000D4E705905A6905929B690593059BCDE763
:1043C000032B56D8012B15D1324639462046FFF72C
:1043D000DEFC0028B3D123681A69636A1A70636A25
:1043E00001336362238D013B2385638D013B9BB2C7
:1043F0006385B5E7022B00963B464FF0000241462D
:10440000204619D1FFF756FC002898D123681A6876
:1044100042F400721A601A69636A1A70626A531C65
:104420006362238D013B2385638D013B9BB26385D2
:1044300023681B695370D2E7FFF73CFC00287FF428
:104440007EAF23681A6822F480621A601A69636A70
:104450001A70636A009601336362238D013B2385E2
:10446000638D013B9BB2638502463B464146204635
:10447000C8E7324639462046FFF789FC00287FF41A
:104480005EAF23681A69636A1A70626A531C6362BA
:10449000238D013B2385638D013B9BB2638523689C
:1044A000596949077FF55CAFC3E700BF0200100000
:1044B0000000FFFF04000100044B01221A62044BBC
:1044C00082B01B680193019B02B0704700000E424E
:1044D00000700040044B00221A62044B82B01B683B
:1044E0000193019B02B0704700000E420070004033
:1044F0002DE9F341044640B30368DD0710D4236877
:1045000098075ED423681A0700F1A08023685B0730
:1045100000F1C080A069002840F0288100202BE035
:104520008F4B9A6802F00C02042A07D09A6802F0B6
:104530000C02082A0BD15A68510208D5884B1B6817
:104540009A03DCD56368002BD9D1012014E062689E
:10455000B2F5803F13D11A6842F480321A60FFF737
:104560003DF87F4E054633689B03C8D4FFF736F805
:10457000401B6428F7D9032002B0BDE8F081784DD4
:10458000B2F5A02F2B6807D143F480232B602B6852
:1045900043F480332B60E2E723F480332B602B68F5
:1045A00023F480232B60002AD9D1FFF717F80646A1
:1045B0002B689F03A3D5FFF711F8801B6428F7D958
:1045C000D9E7674B9A6812F00C0F07D09A6802F08F
:1045D0000C02082A11D15B685E020ED4604A13688F
:1045E0009D0702D5E368012BAFD11368216923F041
:1045F000F80343EAC103136084E7E268594BB2B1A0
:1046000001221A60FEF7EAFF554D06462B6898070F
:1046100007D52B68226923F0F80343EAC2032B6015
:1046200070E7FEF7DBFF801B0228EFD9A3E71A60D3
:10463000FEF7D4FF4A4E0546336899077FF562AF0F
:10464000FEF7CCFF401B0228F6D994E76269454B80
:1046500082B10122C3F8802EFEF7C0FF404E05460E
:10466000736F9F073FF552AFFEF7B8FF401B02285C
:10467000F6D980E7C3F8802EFEF7B0FF384E054626
:10468000736F98077FF542AFFEF7A8FF401B022823
:10469000F6D970E7324B1A6C12F0805228D1019291
:1046A0001A6C42F080521A641B6C03F08053019321
:1046B000019B01272C4D2B68D9051BD5A368284DDC
:1046C000012B27D12B6F43F001032B67FEF786FFE9
:1046D000234E054641F28838336F9B0739D5002FAA
:1046E0003FF418AF1E4A136C23F08053136411E794
:1046F0000027DFE72B6843F480732B60FEF76EFF23
:1047000006462B68DA05D9D4FEF768FF801B02281D
:10471000F7D930E7052B04D12B6F43F004032B6747
:10472000D0E72A6F22F001022A672A6F22F00402E2
:104730002A67002BCAD1FEF751FF41F2883806469E
:104740002B6F9807CBD5FEF749FF801B4045F7D963
:1047500011E7FEF743FF401B4045BDD90BE700BF03
:10476000003802400000474200700040364DAB6800
:1047700003F00C03082B3DD0344B002202281A66AC
:104780002BD1FEF72BFF06462B6899011FD4D4E9E5
:1047900007321343626A43EA8213E26A43EA02631E
:1047A000A26A5208013A43EA02436B60274B264D46
:1047B00001221A66FEF712FF04462B689A013FF5A4
:1047C000ADAEFEF70BFF001B0228F6D9D3E6FEF7CD
:1047D00005FF801B0228D7D9CDE6FEF7FFFE044671
:1047E0002B689B017FF59AAEFEF7F8FE001B0228AE
:1047F000F6D9C0E601283FF4BFAE6B68E26903F466
:10480000800191427FF4A1AE216A03F03F028A4207
:104810007FF49BAE616A47F6C0721A40B2EB811F0B
:104820007FF493AEA26A520803F44031013AB1EB2F
:10483000024F7FF48AAEE26A03F07063B3EB026F5B
:104840003FF46CAE81E600BF0038024000004742F2
:10485000134908B58B6803F00C03042B1CD0082BFC
:104860001CD14A684B68496813F4800314BF0D4893
:104870000D48C1F3881118BF002302F03F02A1FBCD
:104880000001FCF7EBF9064B5B68C3F3014301330E
:104890005B00B0FBF3F008BD0248FCE70248FAE712
:1048A0000038024040787D010024F4002DE9F041F9
:1048B0000D46044610B90120BDE8F081444B1A684A
:1048C00002F007028A4228D3226897072DD4D00726
:1048D00041D43F4B1A6802F00702AA4266D8226808
:1048E00051076CD4130707D53A4A2169936823F41A
:1048F000604343EAC1039360FFF7AAFF354B364A92
:104900009B68C3F30313D35CD840344B1860344B1B
:104910001868FEF719FE0020CEE7CAB21A701B68AD
:1049200003F007038B42C6D1CEE72A4B12F0040FE7
:104930001EBF996841F4E0519960160742BF99681B
:1049400041F4604199602349A0688B6823F0F0032B
:1049500003438B60BBE762681E4B012A1CD11B68B6
:1049600013F4003FA7D01B4EB36823F00303134397
:10497000B360FEF733FE41F288380746B3686268D9
:1049800003F00C03B3EB820FA3D0FEF727FEC01B8E
:104990004045F3D903208FE7911E01291B6802D8F7
:1049A00013F0007FDEE713F0020FDBE7EAB21A70C4
:1049B0001B6803F00703AB427FF47DAF8FE7054927
:1049C000E0688B6823F4E05303438B608AE700BF01
:1049D000003C024000380240048F000830000020F4
:1049E00038000020044B054A9B68C3F38223D35C44
:1049F000034A1068D840704700380240148F0008FE
:104A000030000020044B054A9B68C3F34233D35C5B
:104A1000034A1068D840704700380240148F0008DD
:104A200030000020036A23F001030362036A70B5BB
:104A3000446882690D6822F073022A438D6823F06E
:104A400002032B430E4DA84202D00E4EB04210D1AD
:104A5000CE6823F008033343A84223F0040302D0B6
:104A6000084DA84205D1D1E9055624F440743543D8
:104A70002C43446082614A684263036270BD00BF98
:104A80000000014000040140036A23F480730362C4
:104A9000036A70B54468C2690D6822F073022A4344
:104AA0008D6823F4007343EA0523114DA84203D017
:104AB00005F58065A84214D1CD6823F4006343EA6C
:104AC00005230B4DA84223F4806303D005F58065D0
:104AD000A84206D1D1E9055624F44054354344EAAE
:104AE00005144460C2614A68C263036270BD00BFBE
:104AF00000000140036A23F480530362036A30B567
:104B00004468C2690D6822F4E64242EA05228D68D3
:104B100023F4005343EA0533084DA84203D005F5BA
:104B20008065A84204D14D6924F4804444EA851488
:104B30004460C2614A680264036230BD0000014003
:104B4000704730B590F83E2090F83F3090F84250D2
:104B500090F84340D2B2DBB2EDB2E4B2C9B9012A57
:104B600046D1012D46D1022380F83E3080F84230F4
:104B700003681A6A22F001021A621A6A42F00102FC
:104B80001A620268136843F0010313600023184699
:104B900030BD042911D1012B2AD1012CF7D10223D8
:104BA00080F83F3080F8433003681A6A22F0100220
:104BB0001A621A6A42F01002E2E7012A18D1012BA8
:104BC00018D1012DE3D1012CE1D1022380F83E3030
:104BD00080F83F3080F8423080F8433003681A6A2A
:104BE00022F001021A621A6A42F001021A62DCE73C
:104BF0000123CCE71346CAE7082910D004D841B1F5
:104C0000042909D0002070470C29FBD10368186CD7
:104C100070470368586B70470368986B7047036868
:104C2000D86B7047704770477047704703681A69C0
:104C3000910710B504460ED5DA6892070BD56FF0D0
:104C400002021A61012202779B699B0777D0FDF768
:104C50002BFB0023237723681A69500710D5DA68E5
:104C600051070DD56FF004021A61022222779B6969
:104C700013F4407F204668D0FDF716FB002323770E
:104C800023681A6912070FD5DA6810070CD56FF080
:104C900008021A6104222277DB69990720465AD05C
:104CA000FDF702FB0023237723681A69D20610D58B
:104CB000DA68D0060DD56FF010021A61082222774B
:104CC000DB6913F4407F20464BD0FDF7EDFA00235B
:104CD000237723681A69D10708D5DA68D20705D582
:104CE0006FF001021A612046FFF79CFF23681A69E2
:104CF000100608D5DA68110605D56FF080021A6132
:104D0000204600F0DCFC23681A69520608D5DA68F0
:104D1000500605D56FF040021A612046FFF785FF67
:104D200023681A69910622D5DA6892061FD56FF0BA
:104D3000200220461A61BDE8104000F0BFBCFFF71A
:104D400072FF2046FFF770FF83E7FFF76CFF2046F6
:104D5000FFF76AFF92E7FFF766FF2046FFF764FF61
:104D6000A0E7FFF760FF2046FFF75EFFAFE710BD4B
:104D7000304A0368904212D0B0F1804F0FD0A2F5B4
:104D80007C4290420BD002F58062904207D002F53F
:104D90008062904203D002F57842904219D14A686D
:104DA00023F070031343234A904229D0B0F1804F7F
:104DB00026D0A2F57C42904222D002F58062904239
:104DC0001ED002F5806290421AD002F578429042DD
:104DD00016D0194A904213D002F5806290420FD04B
:104DE00002F5806290420BD0A2F59832904207D033
:104DF00002F58062904203D002F58062904203D1B6
:104E0000CA6823F4407313434A6923F080031343B1
:104E100003608B68C3620B688362064B984203D0C1
:104E200003F58063984201D10B6903630123436159
:104E3000704700BF000001400040014010B504462B
:104E400030B390F83D3003F0FF021BB980F83C20EE
:104E5000FEF7A0F90223206884F83D30211DFFF7FA
:104E600087FF012384F84630002084F83E3084F820
:104E70003F3084F8403084F8413084F8423084F880
:104E8000433084F8443084F8453084F83D3010BD18
:104E90000120FCE710B5044630B390F83D3003F034
:104EA000FF021BB980F83C20FFF74AFE022320686E
:104EB00084F83D30211DFFF75BFF012384F8463065
:104EC000002084F83E3084F83F3084F8403084F885
:104ED000413084F8423084F8433084F8443084F818
:104EE000453084F83D3010BD0120FCE710B5044684
:104EF00030B390F83D3003F0FF021BB980F83C203E
:104F0000FEF712FA0223206884F83D30211DFFF7D6
:104F10002FFF012384F84630002084F83E3084F8C7
:104F20003F3084F8403084F8413084F8423084F8CF
:104F3000433084F8443084F8453084F83D3010BD67
:104F40000120FCE7F8B50D46044600284DD090F846
:104F50003D3003F0FF021BB980F83C20FEF776F9E4
:104F60002146022384F83D3051F8040B836823F472
:104F7000804323F007038360FFF7FAFE20682A6866
:104F800086688369A968076A1643AA6923F440738F
:104F900041EA022123F003030B4323F47C422B69F3
:104FA000E9691B0143EA0123E9680B43296A22F0FE
:104FB000FC0243EA01331343696927F0AA026F68D0
:104FC000866047EA0117836117430123076284F86B
:104FD0004630002084F83E3084F83F3084F8423078
:104FE00084F8433084F83D30F8BD0120FCE7000030
:104FF000036A23F010030362036A70B54468826990
:105000000D6822F4E64242EA05228D6823F020036F
:1050100043EA0513104DA84203D005F58065A84268
:1050200014D1CD6823F0800343EA05130A4DA8424A
:1050300023F0400303D005F58065A84206D1D1E9ED
:10504000055624F44064354344EA85044460826193
:105050004A688263036270BD0000014070B590F839
:105060003C30012B054653D00120082A85F83C002E
:105070003DD006D8C2B1042A28D0002385F83C30A0
:1050800070BD0C2AF9D12868FFF734FD2B68096937
:10509000DA6942F40062DA61DA6922F48062DA6184
:1050A000DA6942EA012231E02868FFF7BBFC2B688D
:1050B00009699A6942F008029A619A6922F0040229
:1050C0009A619A690A439A610020D6E72868FFF737
:1050D0008FFF2B6809699A6942F400629A619A69A4
:1050E00022F480629A619A6942EA0122EBE7286819
:1050F000FFF7CAFC2B680969DA6942F00802DA6135
:10510000DA6922F00402DA61DA690A43DA61DBE77C
:105110000220B5E770B5046A1A4E24F00104046257
:10512000B0428469056A29D0B0F1804F26D0A6F537
:105130007C46B04222D006F58066B0421ED006F50D
:105140008066B0421AD006F57846B04216D006F511
:105150007056B04212D0A6F59436B0420ED044F04C
:1051600001021B01DBB222F0F0021A4301F00A0136
:1051700025F00A0319438261016270BD24F0030423
:105180002243EEE700000140F8B590F83C30012BD7
:1051900005460C4600F08980012085F83C009AB94C
:1051A000CB682868D1E90012FFF7B4FF2B68A1682B
:1051B0009A6922F00C029A619A690A439A61002066
:1051C000002385F83C30F8BD042A23D12B681E6AE1
:1051D00026F01006D1E90027C9681E6298691E6A88
:1051E00020F4407040EA0720090320F4704089B29F
:1051F0001201014302F0A00226F0A00002439961CF
:105200001A629A69A16822F440629A619A6942EA34
:105210000122D3E7082A22D12B681E6A26F4807661
:10522000D1E90020C9681E62DF691E6A27F0030702
:105230003843090120F0F000C9B21202014302F420
:10524000206226F420600243D9611A62DA69A168FB
:1052500022F00C02DA61DA690A43DA61AFE70C2A5C
:10526000AED12B681E6A26F48056D1E90027C968A2
:105270001E62D8691E6A20F4407040EA07200903C4
:1052800020F4704089B21203014302F4204226F454
:1052900020400243D9611A62DA69A16822F44062AF
:1052A000DA61DA6942EA0122D7E702208BE710B51A
:1052B0008468114324F47F4441EA03232343836039
:1052C00010BD70B590F83C30012B04464FF002033E
:1052D00000F09180012280F83D3080F83C20006889
:1052E000836823F47F4323F0770383600B68602B8C
:1052F00052D033D8402B67D016D8202B0DD00AD8E7
:1053000033F0100109D0012384F83D30002384F8E4
:105310003C30104670BD302BF5D1826822F070020F
:10532000134343F0070317E0502BECD14A68CE68D3
:10533000016A056A25F001050562836921F00A0109
:1053400023F0F00343EA06130A4383610262836891
:1053500023F0700343F05703836011E0B3F5805FDF
:105360000ED0B3F5005F0DD0702BCCD1CB68D1E956
:105370000121FFF79CFF2268936843F07703936055
:105380000022C0E7CB68D1E90121FFF790FF226836
:10539000936843F48043F2E74D68CE68016A21F0D8
:1053A000100101628269036A22F4704223F0A003B3
:1053B00043EA051342EA063282610362836823F0FE
:1053C000700343F06703C7E74A68CE68016A056A5D
:1053D00025F001050562836921F00A0123F0F0033D
:1053E00043EA06130A4383610262836823F0700371
:1053F00043F04703B0E71A468BE7036A01F01F0149
:1054000010B501248C4023EA04030362036A8A4036
:105410001A43026210BD000010B5044629B990F885
:105420003E30012B18D001202DE004290DD190F839
:105430003F30013B18BF0123002BF4D104294FF06A
:10544000020321D184F83F3009E008290CBF90F80D
:10545000403090F84130ECE7022380F83E3020687D
:105460000122FFF7CAFF23681C498B4213D01C4A54
:10547000934210D0B3F1804F14D19A6802F0070222
:10548000062A26D1002010BD08290CBF84F8403020
:1054900084F84130E3E75A6C8B4242F400425A648C
:1054A000EBD0E7E70F4A9342E7D002F580629342E0
:1054B000E3D002F580629342DFD002F57842934256
:1054C000DBD002F570529342D7D0A2F594329342CA
:1054D000D3D01A6842F001021A60D3E700000140FD
:1054E0000004014000040040FFF796BF10B50446D9
:1054F000002943D190F83E3090F84200DBB2012BF6
:10550000C0B272D1012870D1022300294CD1226887
:1055100084F83E3084F84230D36843F00203D3600D
:1055200020680122FFF769FF2368314A93421AD0AD
:10553000B3F1804F17D0A2F57C42934213D002F50D
:10554000806293420FD002F5806293420BD002F545
:105550007842934207D002F57052934203D0A2F5ED
:105560009432934204D19A6802F00702062A03D0CB
:105570001A6842F001021A60002037E0042905D1C0
:1055800090F83F3090F84300DBB2B8E708290BBF32
:1055900090F8403094F8413090F8440094F8450079
:1055A0000CBFDBB2DBB2AAE7042908D1226884F879
:1055B0003F3084F84330D36843F00403AFE7082951
:1055C00008D1226884F8403084F84430D36843F02E
:1055D0000803A4E70C2984F8413084F8453005D14C
:1055E0002268D36843F0100399E7012010BD00BF83
:1055F0000000014030B590F83C30012B4FF0020321
:1056000032D080F83D3003680D685C689A6824F0F9
:1056100070042C435C60154CA3421AD0B3F1804F48
:1056200017D0A4F57C44A34213D004F58064A342B0
:105630000FD004F58064A3420BD004F57844A34254
:1056400007D004F57054A34203D0A4F59434A342C8
:1056500004D1496822F080020A439A60012380F84D
:105660003D30002380F83C30184630BD000001403A
:1056700090F83C30012B1FD0CB688A6823F440732C
:1056800013434A6823F4806313430A6823F40063D6
:1056900013430A6923F4805313434A6923F40053E4
:1056A0001343CA6923F480431343026853640023FD
:1056B00080F83C30184670470220704770477047AA
:1056C000026802F10C0353E8003F23F490730C329C
:1056D00042E8003102680029F2D102F1140353E8D4
:1056E000003F23F0010302F1140C4CE800310029C3
:1056F000F3D1036B012B0BD102F10C0353E8003FF4
:1057000023F0100302F10C0C4CE800310029F3D116
:10571000202380F83E300023036370470268C1688D
:10572000136923F440530B4370B513610546836836
:105730000069D168034368690343E86921F41641AD
:1057400021F00C0103430B43D3605369A96923F48F
:1057500040730B4353611F4B9A4203D003F58063A0
:105760009A4223D1FFF74EF9EB691921B3F5004FA7
:10577000D5E90046A0FB01011BD1B2194FF000038F
:105780005B41FBF76BFA6421B0FBF1F501FB1503FC
:10579000DB003233B3FBF1F303F007025B0002EBF3
:1057A000051203F4F8731344A36070BDFFF71AF9F0
:1057B000DAE7B200B30FFBF751FA6422B0FBF2F163
:1057C00002FB11031B013233B3FBF2F303EB0113B2
:1057D000EAE700BF00100140F8B504460E46174640
:1057E0001D462268136836EA030301D1002028E031
:1057F0006B1CF7D025B1FDF7F1FEC01B8542F0D23E
:10580000226802F10C0353E8003F23F4D0730C32FA
:1058100042E8003021680028F2D101F1140353E876
:10582000003F23F0010301F1140040E80032002A98
:10583000F3D1202384F83D3084F83C2084F83E30B6
:105840000320F8BD10B5044640B390F83D3003F096
:10585000FF021BB980F83C20FDF7A2FD226824233B
:1058600084F83D30D36823F40053D3602046FFF71B
:1058700055FF23681A6922F490421A615A6922F08E
:105880002A025A61DA6842F40052DA6000202023CA
:10589000206484F83D3084F83E3010BD0120FCE7E0
:1058A000F7B5174690F83D200093202A04460E468F
:1058B00049D1002945D0002F43D090F83C20012A3F
:1058C00041D0012280F83C2000252122056480F887
:1058D0003D20FDF783FEA168009BA784B1F5805FA2
:1058E0000246E78403D1216909B935460E460021F5
:1058F00084F83C10E18C89B241B940212046FFF781
:105900006BFF60B9202384F83D3009E080212046F8
:10591000CDE90023FFF760FFDDE9002310B103208C
:1059200003B0F0BD20684EB935F8021BC1F3080181
:105930004160E18C013989B2E184DBE716F8011B93
:10594000F6E70120ECE70220EAE77047704770476E
:10595000704708B5806B03685A6990F83D1021299B
:1059600012D1120610D50022C28403F10C0252E8B3
:10597000002F22F0C00203F10C0C4CE8002100299A
:10598000F3D1202280F83D205B6990F83E20222A46
:1059900005D15B0603D50023C385FFF791FE036C99
:1059A00043F010030364FFF7D3FF08BD08B5806B15
:1059B0000023C385C384FFF7CBFF08BD7047806B0E
:1059C00008B5036B012B04D1818D4908FFF7F6FF61
:1059D00008BDFFF7BCFFFBE708B50346806B1B68FB
:1059E0001B6813F4807337D1C385026802F10C037E
:1059F00053E8003F23F480730C3242E8003103681F
:105A00000029F2D103F1140252E8002F22F0010222
:105A100003F1140C4CE800210029F3D103F1140226
:105A200052E8002F22F0400203F1140C4CE8002150
:105A30000029F3D1202280F83E20026B012A0BD1ED
:105A400003F10C0252E8002F22F0100203F10C0CBB
:105A50004CE800210029F3D1036B012B03D1818D88
:105A6000FFF7ACFF08BDFFF771FFFBE707B58168E3
:105A7000836A0268B1F5805F3ED1016900293ED199
:105A80005268C2F3080223F8022B8362C38D013BE4
:105A90009BB2C385002B2CD10268D16821F0200174
:105AA000D160D16821F48071D160516921F0010188
:105AB0005161202280F83E20026B012A026828D121
:105AC000036302F10C0353E8003F23F0100302F1DB
:105AD0000C0C4CE800310029F3D11368DB0605D526
