:020000040800F2
:10000000000002206D170008E9160008EB16000832
:10001000ED160008EF160008F116000800000000B9
:100020000000000000000000000000004145000842
:10003000F316000800000000D1450008F51600087E
:10004000BD170008BD170008BD170008BD17000840
:10005000BD170008BD170008BD170008BD17000830
:10006000BD170008BD170008BD170008BD17000820
:10007000BD170008BD170008BD170008BD17000810
:10008000BD170008BD170008BD170008BD17000800
:10009000BD170008BD170008BD170008BD170008F0
:1000A000BD170008BD170008BD170008BD170008E0
:1000B000BD170008BD170008BD170008BD170008D0
:1000C000BD170008BD170008BD170008BD170008C0
:1000D000BD170008BD170008BD1700080D17000860
:1000E000BD170008BD170008BD170008BD170008A0
:1000F000BD170008BD170008BD170008BD17000890
:10010000BD170008BD170008BD170008BD1700087F
:10011000BD170008BD170008BD170008BD1700086F
:10012000BD170008BD170008BD170008BD1700085F
:10013000BD170008BD170008BD170008BD1700084F
:10014000BD170008BD170008BD170008BD1700083F
:10015000BD170008BD170008BD170008BD1700082F
:10016000BD170008BD170008BD170008BD1700081F
:10017000BD170008BD170008BD17000800000000EB
:08018000BD170008BD170008BF
:1001900010B5054C237833B9044B13B10448AFF3C1
:1001A00000800123237010BD7400002000000000B7
:1001B0002053000808B5034B1BB103490348AFF3B4
:1001C000008008BD000000007800002020530008D7
:1001D00001F0FF01102A2BDB10F0070F08D010F8F8
:1001E000013B013A8B422DD010F0070F42B3F6D1FC
:1001F000F0B441EA012141EA014122F007047FF015
:1002000000070023F0E80256083C85EA010586EA6B
:10021000010685FA47F5A3FA87F586FA47F6A5FAA7
:1002200087F68EB9EED1F0BC01F0FF0102F00702B3
:1002300032B110F8013B013A83EA010313B1F8D15E
:100240000020704701387047002D06BF354603383F
:10025000073815F0010F07D1013015F4807F02BF78
:10026000013015F4C03F0130F0BC0138704700BFC9
:1002700070B54FF0FF0C4CF4E06C1CEA11541DBF3C
:100280001CEA135594EA0C0F95EA0C0F00F0DEF807
:100290002C4481EA030621EA4C5123EA4C5350EAEC
:1002A000013518BF52EA033541F4801143F480133D
:1002B00038D0A0FB02CE4FF00005E1FB02E506F0CE
:1002C0000042E0FB03E54FF00006E1FB03569CF023
:1002D000000F18BF4EF0010EA4F1FF04B6F5007F29
:1002E00064F5407404D25FEA4E0E6D4146EB06069B
:1002F00042EAC62141EA55514FEAC52040EA5E5024
:100300004FEACE2EB4F1FD0C88BFBCF5E06F1ED8CD
:10031000BEF1004F08BF5FEA500E50F1000041EB04
:10032000045170BD06F0004646EA010140EA0200B1
:1003300081EA0301B4EB5C04C2BFD4EB0C0541EAD3
:10034000045170BD41F480114FF0000E013C00F3E8
:10035000AB8014F1360FDEBF002001F0004170BD0C
:10036000C4F10004203C35DA0C341BDC04F1140425
:10037000C4F1200500FA05F320FA04F001FA05F2B1
:1003800040EA020001F0004221F0004110EBD3707E
:1003900021FA04F642EB06015EEA430E08BF20EAAA
:1003A000D37070BDC4F10C04C4F1200500FA04F34D
:1003B00020FA05F001FA04F240EA020001F00041DF
:1003C00010EBD37041F100015EEA430E08BF20EA52
:1003D000D37070BDC4F1200500FA05F24EEA020E9A
:1003E00020FA04F301FA05F243EA020321FA04F0C9
:1003F00001F0004121FA04F220EA020000EBD37080
:100400005EEA430E08BF20EAD37070BD94F0000F7F
:100410000FD101F00046400041EB010111F4801FB3
:1004200008BF013CF7D041EA060195F0000F18BF64
:10043000704703F00046520043EB030313F4801FA0
:1004400008BF013DF7D043EA0603704794EA0C0F5A
:100450000CEA135518BF95EA0C0F0CD050EA410670
:1004600018BF52EA4306D1D181EA030101F00041ED
:100470004FF0000070BD50EA410606BF1046194615
:1004800052EA430619D094EA0C0F02D150EA013621
:1004900013D195EA0C0F05D152EA03361CBF104662
:1004A00019460AD181EA030101F0004141F0FE4101
:1004B00041F470014FF0000070BD41F0FE4141F485
:1004C000780170BD81F0004102E000BF83F000437D
:1004D00030B54FEA41044FEA430594EA050F08BFDF
:1004E00090EA020F1FBF54EA000C55EA020C7FEAA3
:1004F000645C7FEA655C00F0E2804FEA5454D4EB20
:100500005555B8BF6D420CDD2C4480EA020281EAE9
:10051000030382EA000083EA010180EA020281EA21
:100520000303362D88BF30BD11F0004F4FEA013173
:100530004FF4801C4CEA113102D0404261EB410182
:1005400013F0004F4FEA03334CEA133302D0524208
:1005500063EB430394EA050F00F0A780A4F10104C4
:10056000D5F1200E0DDB02FA0EFC22FA05F28018FE
:1005700041F1000103FA0EF2801843FA05F35941E4
:100580000EE0A5F120050EF1200E012A03FA0EFC63
:1005900028BF4CF0020C43FA05F3C01851EBE3718D
:1005A00001F0004507D54FF0000EDCF1000C7EEBAA
:1005B00000006EEB0101B1F5801F1BD3B1F5001FE8
:1005C0000CD349085FEA30004FEA3C0C04F1010407
:1005D0004FEA445212F5800F80F09A80BCF1004F30
:1005E00008BF5FEA500C50F1000041EB045141EAB2
:1005F000050130BD5FEA4C0C404141EB0101013C7B
:1006000028BFB1F5801FE9D291F0000F04BF014669
:100610000020B1FA81F308BF2033A3F10B03B3F13B
:1006200020020CDA0C3208DD02F1140CC2F10C02CB
:1006300001FA0CF021FA02F10CE002F11402D8BF29
:10064000C2F1200C01FA02F120FA0CFCDCBF41EAF5
:100650000C019040E41AA2BF01EB0451294330BDC4
:100660006FEA04041F3C1CDA0C340EDC04F11404A1
:10067000C4F1200220FA04F001FA02F340EA030078
:1006800021FA04F345EA030130BDC4F10C04C4F1BE
:10069000200220FA02F001FA04F340EA030029469E
:1006A00030BD21FA04F0294630BD94F0000F83F4E8
:1006B000801306BF81F480110134013D4EE77FEACB
:1006C000645C18BF7FEA655C29D094EA050F08BF17
:1006D00090EA020F05D054EA000C04BF19461046F8
:1006E00030BD91EA030F1EBF0021002030BD5FEA3C
:1006F000545C05D14000494128BF41F0004130BD64
:1007000014F580043CBF01F5801130BD01F00045B7
:1007100045F0FE4141F470014FF0000030BD7FEA2A
:10072000645C1ABF194610467FEA655C1CBF0B4625
:10073000024650EA013406BF52EA033591EA030F3C
:1007400041F4002130BD00BF90F0000F04BF002134
:10075000704730B54FF4806404F132044FF0000567
:100760004FF0000150E700BF90F0000F04BF0021E0
:10077000704730B54FF4806404F1320410F0004546
:1007800048BF40424FF000013EE700BF42004FEA41
:10079000E2014FEA31014FEA02701FBF12F07F43BE
:1007A00093F07F4F81F06051704732F07F4208BF75
:1007B000704793F07F4F04BF41F40021704730B57C
:1007C0004FF4607401F0004521F000411CE700BFC8
:1007D00050EA010208BF704730B54FF000050AE04B
:1007E00050EA010208BF704730B511F0004502D54C
:1007F000404261EB41014FF4806404F132045FEA4E
:10080000915C3FF4D8AE4FF003025FEADC0C18BFF6
:1008100003325FEADC0C18BF033202EBDC02C2F1E8
:10082000200300FA03FC20FA02F001FA03FE40EA7A
:100830000E0021FA02F11444BDE600BF4A0011D2B5
:1008400012F5001211D20DD56FF47873B3EB62522A
:100850000ED44FEAC12343F0004343EA505323FA36
:1008600002F070474FF00000704750EA013002D1AB
:100870004FF0FF3070474FF00000704753B94AB94E
:10088000002908BF00281CBF4FF0FF314FF0FF3098
:1008900000F074B9ADF1080C6DE904CE00F006F873
:1008A000DDF804E0DDE9022304B070472DE9F047EC
:1008B000089D04468E46002B4DD18A42944669D944
:1008C000B2FA82F252B101FA02F3C2F1200120FA27
:1008D00001F10CFA02FC41EA030E94404FEA1C4875
:1008E000210CBEFBF8F61FFA8CF708FB16E341EA71
:1008F000034306FB07F199420AD91CEB030306F1F7
:10090000FF3080F01F81994240F21C81023E634417
:100910005B1AA4B2B3FBF8F008FB103344EA0344BB
:1009200000FB07F7A7420AD91CEB040400F1FF33D0
:1009300080F00A81A74240F207816444023840EA0D
:100940000640E41B00261DB1D4400023C5E9004346
:100950003146BDE8F0878B4209D9002D00F0EF80C9
:100960000026C5E9000130463146BDE8F087B3FAFC
:1009700083F6002E4AD18B4202D3824200F2F980E4
:10098000841A61EB030301209E46002DE0D0C5E9E7
:10099000004EDDE702B9FFDEB2FA82F2002A40F033
:1009A0009280A1EB0C014FEA1C471FFA8CFE012636
:1009B000200CB1FBF7F307FB131140EA01410EFBDA
:1009C00003F0884208D91CEB010103F1FF3802D281
:1009D000884200F2CB804346091AA4B2B1FBF7F07B
:1009E00007FB101144EA01440EFB00FEA64508D99E
:1009F0001CEB040400F1FF3102D2A64500F2BB80DB
:100A00000846A4EB0E0440EA03409CE7C6F1200729
:100A1000B34022FA07FC4CEA030C20FA07F401FA6F
:100A200006F31C43F9404FEA1C4900FA06F3B1FBF8
:100A3000F9F8200C1FFA8CFE09FB181140EA01415D
:100A400008FB0EF0884202FA06F20BD91CEB0101FA
:100A500008F1FF3A80F08880884240F28580A8F152
:100A600002086144091AA4B2B1FBF9F009FB1011A4
:100A700044EA014100FB0EFE8E4508D91CEB010142
:100A800000F1FF346CD28E456AD90238614440EAE5
:100A90000840A0FB0294A1EB0E01A142C846A64665
:100AA00056D353D05DB1B3EB080261EB0E0101FAEE
:100AB00007F722FA06F3F1401F43C5E9007100264B
:100AC0003146BDE8F087C2F12003D8400CFA02FCA1
:100AD00021FA03F3914001434FEA1C471FFA8CFEB1
:100AE000B3FBF7F007FB10360B0C43EA064300FBA1
:100AF0000EF69E4204FA02F408D91CEB030300F13F
:100B0000FF382FD29E422DD9023863449B1B89B2F5
:100B1000B3FBF7F607FB163341EA034106FB0EF37E
:100B20008B4208D91CEB010106F1FF3816D28B422B
:100B300014D9023E6144C91A46EA004638E72E46F7
:100B4000284605E70646E3E61846F8E64B45A9D2EF
:100B5000B9EB020864EB0C0E0138A3E74646EAE75E
:100B6000204694E74046D1E7D0467BE7023B61440C
:100B700032E7304609E76444023842E7704700BF75
:100B8000FEE700007FB50D4C0D4E0E4D21460522AF
:100B9000304602F0F8F922460B4901A803F060FF45
:100BA00001AA14210A2000F0F5FB28464FF48061C9
:100BB00001F005F8012002F074FAE7E79000002048
:100BC00084010020001002408753000808B501206E
:100BD00002F067FAFBE700007FB50A4A1068516827
:100BE00001AB03C30023CDE9033305930A21084673
:100BF00001AA00F0CFFB00F031FB012002F051FA16
:100C0000F4E700BF385300082DE9F04F002187B00A
:100C10007548DFF8FCA1DFF8FC9101F03BFE0421F0
:100C2000714801F037FE0C21704801F033FE3C2181
:100C3000504601F012FBDAF800305E6A00F00AFE5E
:100C4000074699F8003099F802B099F80340DFF8A8
:100C50009881462B30D166480022042100F0AAFF7B
:100C600063480122082100F0A5FF002220216048EE
:100C700000F0A0FF012210210A255D48303C00F061
:100C800099FF6C43ABF1300399F80120642505FB13
:100C90000344564B5C444C2A1B68A4F1300425D015
:100CA000522A00F08F8093221A644FF4967002F05B
:100CB000F8F93C2044432EE0422B11D14C4800224D
:100CC000082100F077FF4A480122042100F072FF5A
:100CD00000221021464800F06DFF01222021CBE7C1
:100CE000D8F8003000225A639A63AAE75A221A649D
:100CF0004FF4967002F0D5F92046FFF725FD38A392
:100D0000D3E90023FFF7B4FA3A4B0022FFF7B0FA19
:100D1000FFF794FD0446D8F80030DFF8FCB040F24D
:100D2000DC525A6300259A6300F094FDC01B322800
:100D300032D92246594601A803F092FE01AA1E218B
:100D40000A2000F027FBDAF80020536A126812F03C
:100D5000100F4FF6FF7237D09E42D5BFD31A2649E7
:100D60002649F61ACEBF2A46F6182A4601A803F0ED
:100D700077FE01AA28210A2000F00CFBDAF80030E7
:100D80002E444FF6FF75B6FBF5F5C5EB0545751B13
:100D90005E6A00F05FFD0746AC42C5D8642389F85F
:100DA0000030D8F8003000225A634FF496709A63EE
:100DB00002F077F9124913484FF0FF33022201F095
:100DC000BFFE3EE7CA2292E79E42ABBF961B0E498A
:100DD0000E499E1BB2BF2A46F6182A46C6E700BF38
:100DE000666666666666D63F3C010020AC00002061
:100DF0000000024000804D40575300086353000834
:100E0000A1530008840100206F5300087B530008A1
:100E1000F4000020900000204C53000800B595B06D
:100E20002C22002109A803F013FE1422002103A89C
:100E300003F00EFE0023194A0193116C41F080511A
:100E40001164126C02F080520192019A144A0293CA
:100E5000116841F48041116012680E9302F48042DF
:100E60000292029A0222089201201022CDE90B027E
:100E700008A800F0C9FE014608B172B6FEE70F23CC
:100E8000CDE90330CDE90500079003A801F09AF8F9
:100E900008B172B6FEE715B05DF804FB00380240F9
:100EA0000070004000B59BB000F0AEFCFFF7B6FF4D
:100EB0001422002111A803F0CBFD0024A14B0094C3
:100EC0001A6BA148A14D42F010021A631A6B02F08E
:100ED00010020092009A01941A6B42F001021A6308
:100EE0001A6B02F001020192019A02941A6B42F00D
:100EF00004021A631A6B02F004020292029A03942B
:100F00001A6B42F002021A631B6B03F00203039395
:100F100022464FF4BC61039B00F04CFE22468C48F5
:100F20003C2100F047FE01264FF4BC63864811A91E
:100F3000CDE91136CDE9134400F062FD3C2384482D
:100F400011A9CDE91136CDE9134400F059FD102265
:100F5000214606A803F07CFD1C2221460AA8CDE903
:100F6000044403F075FD2022214611A803F070FD12
:100F7000784BAC60C5E90034284641F61F43C5E90B
:100F80000334C5E9054401F029FA08B172B6FEE759
:100F90004FF4805306A92846069301F069FB08B177
:100FA00072B6FEE7284601F045FA08B172B6FEE7D0
:100FB000CDE9040004A9284601F06EFC024608B100
:100FC00072B6FEE76023CDE90A30CDE90C00CDE929
:100FD0000E0010900AA9284601F0E4FA08B172B692
:100FE000FEE704220AA9284601F0DCFA08B172B62D
:100FF000FEE7CDE91100CDE9130015904FF4005341
:10100000189011A92846169301F084FC044608B1F3
:1010100072B6FEE7504D01461C2212A803F018FDDF
:101020004FF08043C5E900344FF6FF73C5E9033440
:101030000323119311A90A232846CDE90A44AC6081
:10104000AC61139615931796199301F01FFA08B126
:1010500072B6FEE7CDE90A000AA9284601F01CFC99
:10106000044608B172B6FEE70146102206A803F056
:10107000EFFC1C2221460AA8CDE9044403F0E8FC59
:101080002022214611A803F0E3FC344D3448A0236C
:10109000C0E900534FF47A73C0E90334C0E9054452
:1010A000846001F09BF908B172B6FEE74FF48053FB
:1010B0002B48069306A901F0DBFA08B172B6FEE7E9
:1010C000274801F0B7F908B172B6FEE7CDE9040090
:1010D00004A9234801F0E0FB08B172B6FEE76023E3
:1010E000CDE90A30CDE90E000C9010900C221C487E
:1010F0000AA901F057FA08B172B6FEE74FF400539F
:10110000CDE91100CDE913001590189011A91448EC
:10111000169301F0FFFB034608B172B6FEE71148D3
:10112000114903614FF4E132C0E900120C22C0E919
:101130000233C0E90523C36101F0D4FC0446A8B121
:1011400072B6FEE700380240001002403C01002069
:101150000000024000040140F400002000000140B3
:10116000AC000020840100200048004000F032F96B
:1011700001F022FF124A1348214601F049FF124BA9
:10118000124A18602146124801F042FF114B124AE0
:1011900018602146114801F03BFF114B114A1860BD
:1011A0002146114801F034FF104B114A18602146C6
:1011B000104801F02DFF104B186001F00FFFFEE703
:1011C00054540008850B0008A8000020C4530008F0
:1011D000D90B0008980000200C540008090C0008E6
:1011E000A000002030540008810B0008A40000205B
:1011F000E8530008CD0B00089C000020012970B5C1
:101200000A46044618BF00221348134E4FF480715B
:1012100000F0D0FC082500222021304600F0CAFC56
:1012200023064CBF012200224021304600F0C2FCC0
:10123000013D01222021304600F0BCFC640015F085
:10124000FF05E4B2E7D1BDE87040034801224FF446
:10125000807100F0AFBC00BF0010024070B50F4EAF
:10126000B02400212046FFF7C9FF00210846FFF700
:10127000C5FF00211020FFF7C1FF002516F835003B
:1012800001210135FFF7BAFF802DF7D10134E4B217
:10129000B82C06F10106E4D170BD00BFC8010020E2
:1012A0000023084810B41C460022C11801F832403F
:1012B0000132802AFAD10133082BF5D15DF8044BB5
:1012C000FFF7CCBFC8010020030630B513D43F2977
:1012D00011D801F007050A4CC908C1F10701C9B2CC
:1012E00004EBC0000123C5F1070503FA05F5435CD3
:1012F00012B12B43435430BD23EA0503FAE700BF84
:10130000C80100202DE9F74F1F46A2F1200A1F4B0C
:101310009DF830B05FFA8AFA03EB0A1300931C4B76
:101320000AEB4A0A03EB8A038146884601930C467E
:101330000026B74202D103B0BDE8F08F0C2F0CBFDE
:10134000019B009B9D5D04F108035FFA83FA2B0665
:1013500058BFBBFA8BF2214604F101044CBF5A4638
:1013600052094846E4B2FFF7AFFFA4EB08026D0054
:10137000BA42EDB207D109F101005FFA80F9C24625
:1013800001365446D5E7A245E1D1F9E7EC5800080B
:1013900078540008F7B504460D46561E012716F886
:1013A000013F0BB903B0F0BD7A2C82BF1035EDB20E
:1013B00000243A2D03D9FFF773FF00252C46009730
:1013C000204632780C2329460834FFF79BFFE4B20D
:1013D000E5E7000010B500F0FBFB404B404C1A6FF6
:1013E00022F001021A671A6F22F004021A6700F055
:1013F000FDFB00228021204600F0DCFB642000F091
:101400002FFA01222046802100F0D4FB0021AE20DB
:10141000FFF7F4FE0021D520FFF7F0FE0021502059
:10142000FFF7ECFE0021A820FFF7E8FE00213F2097
:10143000FFF7E4FE0021D320FFF7E0FE002108467D
:10144000FFF7DCFE00214020FFF7D8FE00218D20B1
:10145000FFF7D4FE00211420FFF7D0FE002120204A
:10146000FFF7CCFE00210220FFF7C8FE0021A120DB
:10147000FFF7C4FE0021C020FFF7C0FE0021DA20E4
:10148000FFF7BCFE00211220FFF7B8FE00218120EB
:10149000FFF7B4FE0021EF20FFF7B0FE0021D920B6
:1014A000FFF7ACFE0021F120FFF7A8FE0021DB20B2
:1014B000FFF7A4FE00213020FFF7A0FE0021A420AA
:1014C000FFF79CFE0021A620FFF798FE0021AF2029
:1014D000FFF794FEBDE81040FFF7E2BE003802407F
:1014E0000010024082B00E4B00220092596C41F471
:1014F00080415964596C01F4804100910099019236
:10150000196C41F0805119641B6C03F080530193F6
:10151000019B0F216FF0010002B000F0C7B900BFBE
:101520000038024010B514228AB0044600210DEBA9
:10153000020003F08DFA2368234A934222D1234B01
:101540002348002101915A6C42F001025A645A6CFE
:1015500002F001020192019A02911A6B42F010020C
:101560001A631B6B03F0100302934FF48041029B3C
:101570000223CDE905130123099305A900F040FAE0
:101580000AB010BD134A9342FAD1104B1248002101
:1015900003915A6C42F002025A645A6C02F0020241
:1015A0000392039A04911A6B42F004021A631B6BB4
:1015B00003F004030493049BC0220223CDE9052316
:1015C0000323099305A9D9E7000001400038024030
:1015D00000100240000401400008024070B50446BB
:1015E00088B01422002103A803F032FA2368B3F173
:1015F000804F35D103F50E33002400941A6C19483E
:1016000042F001021A641A6C02F001020092009A80
:1016100001941A6B42F001021A631A6B02F0010284
:101620000192019A02941A6B42F002021A631B6B38
:1016300003F002030293029B02264FF400430125AC
:1016400003A9CDE90336079500F0DAF90823064827
:10165000079503A9CDE90336CDE9054400F0D0F99B
:1016600008B070BD000002400004024010B50446FE
:1016700088B01422002103A803F0EAF92268184B6D
:101680009A422BD103F5F833002401941A6C1548C3
:1016900042F480221A641A6C02F480220192019AA8
:1016A00002941A6B42F004021A631B6B03F00403EA
:1016B00002934FF44062029B0223CDE903230321EE
:1016C0000723CDE9061303A900F09AF92720224643
:1016D000052100F0EBF8272000F01AF908B010BD42
:1016E0000048004000080240FEE7FEE7FEE7FEE794
:1016F000FEE7704708B500F0A1F802F08BFC012866
:1017000003D0BDE8084002F095BF08BD014801F0D4
:10171000CFBA00BF840100200B4A116810B5034600
:1017200009B90A491160106809490A4C0344091BA8
:101730008B4206D903F054F90C2303604FF0FF30BD
:1017400010BD1360FCE700BFC8050020304F00202B
:101750000000022000040000034AD2F8883043F45D
:101760007003C2F88830704700ED00E0DFF834D035
:101770000D480E490E4A002302E0D458C4500433E9
:10178000C4188C42F9D30B4A0B4C002301E01360C0
:101790000432A242FBD3FFF7DFFF03F027F9FFF784
:1017A00081FB704700000220000000207400002030
:1017B0004C5F0008740000202C4F0020FEE7000062
:1017C00038B50E4A0E4B054618784FF47A73B3FBC2
:1017D000F0F31068B0FBF3F000F0A8F8044658B935
:1017E0000F2D09D8024629464FF0FF3000F05EF871
:1017F000044B20461D6038BD0120FCE7000000209E
:10180000040000200800002008B50B4B1A6842F4C1
:1018100000721A601A6842F480621A601A6842F410
:1018200080721A60032000F02FF80F20FFF7C8FF26
:10183000FFF758FE002008BD003C0240034A044B5D
:1018400011681B780B441360704700BFCC05002063
:1018500004000020014B1868704700BFCC05002031
:1018600038B50446FFF7F6FF631C1CBF054B1B7819
:10187000054618BFE418FFF7EDFF431BA342FAD358
:1018800038BD00BF040000200749CA6822F4E062A6
:101890000302120403F4E063120C134343F0BF632A
:1018A00043F40033CB60704700ED00E0164B30B5D9
:1018B000DC68C4F30224C4F10705231D042D28BFEE
:1018C0000425062B4FF0FF338CBF033C002403FAA2
:1018D00005F521EA0501A34022EA0302A140002800
:1018E00041EA0203ACBF00F16040084A4FEA03132B
:1018F000B8BF00F00F00DBB2AABF00F5614013547F
:1019000080F8003330BD00BF00ED00E014ED00E0D2
:10191000002808DB4209012300F01F0003FA00F051
:10192000014B43F82200704700E100E00138B0F1BC
:10193000807F0BD24FF0E023054A5861F02182F8F6
:1019400023100020072298611A6170470120704718
:1019500000ED00E070B50446866DFFF77BFF94F85C
:101960003530022B054606D080236365002384F8BA
:101970003430012070BD23681A6822F016021A6004
:101980005A6922F080025A61226C0AB9A26C1AB11B
:101990001A6822F008021A601A6822F001021A601E
:1019A00023681B6813F001030AD1E16D3F228A40CE
:1019B000B260012284F8352084F834301846D9E723
:1019C000FFF748FF401B0528EAD920236365032061
:1019D000002384F8350084F83430CBE790F83530B4
:1019E000022B03D080234365012070470268052342
:1019F00080F83530136823F001031360002070472E
:101A00002DE9F74FDFF8A891674A00230D680124FC
:101A10009C4004EA050CAC4340F0B1804D6805F0F1
:101A200003044FEA43080326671E06FA08F6012F4F
:101A30006FEA060634D8876807EA060ECF6807FA09
:101A400008F747EA0E078760476827EA0C0EC5F3D8
:101A500000179F4047EA0E074760C76807EA060E6F
:101A60008F6807FA08F747EA0E07022CC76019D1FA
:101A70004FEAD30A00EB8A0A03F0070BDAF820706A
:101A80004FEA8B0B4FF00F0E0EFA0BFE27EA0E0EED
:101A90000F6907FA0BF747EA0E07CAF8207001E052
:101AA000032CDAD1076804FA08F43E40264315F403
:101AB000403F066063D04FF0000ACDF804A0D9F88B
:101AC00044603A4C46F48046C9F84460D9F8446012
:101AD00006F480460196019E23F0030606F1804637
:101AE00006F59C3603F0030ED6F808804FEA8E0EFA
:101AF0000F2707FA0EF7A04228EA070746D004F599
:101B00008064A04244D004F58064A04242D004F531
:101B10008064A04240D004F58064A0423ED004F529
:101B20008064A0423CD004F58064A0423AD004F521
:101B30008064A0420CBF0724082404FA0EF43C433E
:101B4000B46094686FEA0C06EF0254BF34404CEA6C
:101B500004049460D468AF0254BF34404CEA0404D7
:101B6000D4605468AF0354BF34404CEA040454605A
:101B70001468ED0354BF34404CEA0404146001338C
:101B8000102B7FF443AF03B0BDE8F08F5446D4E789
:101B90000124D2E70224D0E70324CEE70424CCE7D3
:101BA0000524CAE70624C8E7003C014000000240C3
:101BB000003802400AB1816170470904FBE74369BC
:101BC00001EA030221EA030141EA0241816170470F
:101BD000044B01221A62044B82B01B680193019BE3
:101BE00002B0704700000E4200700040044B00221B
:101BF0001A62044B82B01B680193019B02B07047CC
:101C000000000E42007000402DE9F341044640B34D
:101C10000368DD0710D4236898075ED423681A0789
:101C200000F1A08023685B0700F1C080A069002854
:101C300040F0288100202BE08F4B9A6802F00C02C4
:101C4000042A07D09A6802F00C02082A0BD15A68BD
:101C5000510208D5884B1B689A03DCD56368002BBA
:101C6000D9D1012014E06268B2F5803F13D11A681F
:101C700042F480321A60FFF7EDFD7F4E054633686F
:101C80009B03C8D4FFF7E6FD401B6428F7D9032067
:101C900002B0BDE8F081784DB2F5A02F2B6807D1D6
:101CA00043F480232B602B6843F480332B60E2E7FE
:101CB00023F480332B602B6823F480232B60002ACD
:101CC000D9D1FFF7C7FD06462B689F03A3D5FFF7C1
:101CD000C1FD801B6428F7D9D9E7674B9A6812F0D9
:101CE0000C0F07D09A6802F00C02082A11D15B6829
:101CF0005E020ED4604A13689D0702D5E368012B8B
:101D0000AFD11368216923F0F80343EAC1031360DC
:101D100084E7E268594BB2B101221A60FFF79AFDDD
:101D2000554D06462B68980707D52B68226923F086
:101D3000F80343EAC2032B6070E7FFF78BFD801BBB
:101D40000228EFD9A3E71A60FFF784FD4A4E054643
:101D5000336899077FF562AFFFF77CFD401B0228CF
:101D6000F6D994E76269454B82B10122C3F8802E0F
:101D7000FFF770FD404E0546736F9F073FF552AF6A
:101D8000FFF768FD401B0228F6D980E7C3F8802ED4
:101D9000FFF760FD384E0546736F98077FF542AF39
:101DA000FFF758FD401B0228F6D970E7324B1A6C3A
:101DB00012F0805228D101921A6C42F080521A64BB
:101DC0001B6C03F080530193019B01272C4D2B6862
:101DD000D9051BD5A368284D012B27D12B6F43F0C4
:101DE00001032B67FFF736FD234E054641F2883885
:101DF000336F9B0739D5002F3FF418AF1E4A136C81
:101E000023F08053136411E70027DFE72B6843F4C6
:101E100080732B60FFF71EFD06462B68DA05D9D4C8
:101E2000FFF718FD801B0228F7D930E7052B04D1F6
:101E30002B6F43F004032B67D0E72A6F22F00102D7
:101E40002A672A6F22F004022A67002BCAD1FFF703
:101E500001FD41F2883806462B6F9807CBD5FFF776
:101E6000F9FC801B4045F7D911E7FFF7F3FC401B55
:101E70004045BDD90BE700BF003802400000474293
:101E800000700040364DAB6803F00C03082B3DD0CA
:101E9000344B002202281A662BD1FFF7DBFC0646E2
:101EA0002B6899011FD4D4E907321343626A43EACD
:101EB0008213E26A43EA0263A26A5208013A43EAE1
:101EC00002436B60274B264D01221A66FFF7C2FCC6
:101ED00004462B689A013FF5ADAEFFF7BBFC001B33
:101EE0000228F6D9D3E6FFF7B5FC801B0228D7D924
:101EF000CDE6FFF7AFFC04462B689B017FF59AAE59
:101F0000FFF7A8FC001B0228F6D9C0E601283FF421
:101F1000BFAE6B68E26903F4800191427FF4A1AE29
:101F2000216A03F03F028A427FF49BAE616A47F662
:101F3000C0721A40B2EB811F7FF493AEA26A5208BE
:101F400003F44031013AB1EB024F7FF48AAEE26A0A
:101F500003F07063B3EB026F3FF46CAE81E600BF39
:101F60000038024000004742134908B58B6803F06F
:101F70000C03042B1CD0082B1CD14A684B68496801
:101F800013F4800314BF0D480D48C1F3881118BF26
:101F9000002302F03F02A1FB0001FEF76FFC064B9D
:101FA0005B68C3F3014301335B00B0FBF3F008BD92
:101FB0000248FCE70248FAE70038024040787D0119
:101FC0000024F4002DE9F0410D46044610B901202B
:101FD000BDE8F081444B1A6802F007028A4228D318
:101FE000226897072DD4D00741D43F4B1A6802F0DE
:101FF0000702AA4266D8226851076CD4130707D596
:102000003A4A2169936823F4604343EAC103936029
:10201000FFF7AAFF354B364A9B68C3F30313D35C23
:10202000D840344B1860344B1868FFF7C9FB0020C8
:10203000CEE7CAB21A701B6803F007038B42C6D101
:10204000CEE72A4B12F0040F1EBF996841F4E0510D
:102050009960160742BF996841F46041996023492D
:10206000A0688B6823F0F00303438B60BBE76268D2
:102070001E4B012A1CD11B6813F4003FA7D01B4E36
:10208000B36823F003031343B360FFF7E3FB41F2AC
:1020900088380746B368626803F00C03B3EB820F1D
:1020A000A3D0FFF7D7FBC01B4045F3D903208FE730
:1020B000911E01291B6802D813F0007FDEE713F0A0
:1020C000020FDBE7EAB21A701B6803F00703AB42AA
:1020D0007FF47DAF8FE70549E0688B6823F4E05318
:1020E00003438B608AE700BF003C02400038024097
:1020F000DC5E00080000002008000020044B054AB8
:102100009B68C3F38223D35C034A1068D8407047AE
:1021100000380240EC5E000800000020044B054A35
:102120009B68C3F34233D35C034A1068D8407047BE
:1021300000380240EC5E000800000020036A23F033
:1021400001030362036A70B5446882690D6822F076
:1021500073022A438D6823F002032B430E4DA842DD
:1021600002D00E4EB04210D1CE6823F008033343A4
:10217000A84223F0040302D0084DA84205D1D1E9BA
:10218000055624F4407435432C43446082614A6808
:102190004263036270BD00BF0000014000040140C3
:1021A000036A23F480730362036A70B54468C269EA
:1021B0000D6822F073022A438D6823F4007343EA0A
:1021C0000523114DA84203D005F58065A84214D11E
:1021D000CD6823F4006343EA05230B4DA84223F4A2
:1021E000806303D005F58065A84206D1D1E9055684
:1021F00024F44054354344EA05144460C2614A68FB
:10220000C263036270BD00BF00000140036A23F493
:1022100080530362036A30B54468C2690D6822F4D2
:10222000E64242EA05228D6823F4005343EA05336F
:10223000084DA84203D005F58065A84204D14D6938
:1022400024F4804444EA85144460C2614A6802640C
:10225000036230BD00000140704730B590F83E2069
:1022600090F83F3090F8425090F84340D2B2DBB241
:10227000EDB2E4B2C9B9012A46D1012D46D10223FB
:1022800080F83E3080F8423003681A6A22F001027A
:102290001A621A6A42F001021A620268136843F075
:1022A000010313600023184630BD042911D1012B0E
:1022B0002AD1012CF7D1022380F83F3080F8433037
:1022C00003681A6A22F010021A621A6A42F01002B7
:1022D000E2E7012A18D1012B18D1012DE3D1012CFD
:1022E000E1D1022380F83E3080F83F3080F8423060
:1022F00080F8433003681A6A22F001021A621A6AEF
:1023000042F001021A62DCE70123CCE71346CAE778
:10231000304A0368904212D0B0F1804F0FD0A2F53E
:102320007C4290420BD002F58062904207D002F5C9
:102330008062904203D002F57842904219D14A68F7
:1023400023F070031343234A904229D0B0F1804F09
:1023500026D0A2F57C42904222D002F580629042C3
:102360001ED002F5806290421AD002F57842904267
:1023700016D0194A904213D002F5806290420FD0D5
:1023800002F5806290420BD0A2F59832904207D0BD
:1023900002F58062904203D002F58062904203D140
:1023A000CA6823F4407313434A6923F0800313433C
:1023B00003608B68C3620B688362064B984203D04C
:1023C00003F58063984201D10B69036301234361E4
:1023D000704700BF000001400040014010B50446B6
:1023E00030B390F83D3003F0FF021BB980F83C2079
:1023F000FFF798F80223206884F83D30211DFFF78D
:1024000087FF012384F84630002084F83E3084F8AA
:102410003F3084F8403084F8413084F8423084F80A
:10242000433084F8443084F8453084F83D3010BDA2
:102430000120FCE710B5044630B390F83D3003F0BE
:10244000FF021BB980F83C20FFF706FF022320683B
:1024500084F83D30211DFFF75BFF012384F84630EF
:10246000002084F83E3084F83F3084F8403084F80F
:10247000413084F8423084F8433084F8443084F8A2
:10248000453084F83D3010BD0120FCE7F8B50D461D
:10249000044600284DD090F83D3003F0FF021BB9F0
:1024A00080F83C20FFF79AF82146022384F83D305B
:1024B00051F8040B836823F4804323F007038360FF
:1024C000FFF726FF20682A6886688369A968076A7B
:1024D0001643AA6923F4407341EA022123F003035F
:1024E0000B4323F47C422B69E9691B0143EA012376
:1024F000E9680B43296A22F0FC0243EA01331343E3
:10250000696927F0AA026F68866047EA011783614C
:1025100017430123076284F84630002084F83E30D8
:1025200084F83F3084F8423084F8433084F83D30FA
:10253000F8BD0120FCE70000036A23F010030362EA
:10254000036A70B5446882690D6822F4E64242EA83
:1025500005228D6823F0200343EA0513104DA8429D
:1025600003D005F58065A84214D1CD6823F080031F
:1025700043EA05130A4DA84223F0400303D005F5B2
:102580008065A84206D1D1E9055624F4406435435C
:1025900044EA8504446082614A688263036270BDD4
:1025A0000000014070B590F83C30012B054653D037
:1025B0000120082A85F83C003DD006D8C2B1042A83
:1025C00028D0002385F83C3070BD0C2AF9D128684A
:1025D000FFF71CFE2B680969DA6942F40062DA61D0
:1025E000DA6922F48062DA61DA6942EA012231E0D2
:1025F0002868FFF7A3FD2B6809699A6942F0080271
:102600009A619A6922F004029A619A690A439A616E
:102610000020D6E72868FFF78FFF2B6809699A69C1
:1026200042F400629A619A6922F480629A619A691E
:1026300042EA0122EBE72868FFF7B2FD2B6809693F
:10264000DA6942F00802DA61DA6922F00402DA613A
:10265000DA690A43DA61DBE70220B5E710B584687E
:10266000114324F47F4441EA03232343836010BDD4
:1026700070B590F83C30012B04464FF0020300F097
:102680009180012280F83D3080F83C20006883680A
:1026900023F47F4323F0770383600B68602B52D0D1
:1026A00033D8402B67D016D8202B0DD00AD833F062
:1026B000100109D0012384F83D30002384F83C3018
:1026C000104670BD302BF5D1826822F070021343A2
:1026D00043F0070317E0502BECD14A68CE68016A3B
:1026E000056A25F001050562836921F00A0123F0DE
:1026F000F00343EA06130A4383610262836823F00E
:10270000700343F05703836011E0B3F5805F0ED090
:10271000B3F5005F0DD0702BCCD1CB68D1E901218E
:10272000FFF79CFF2268936843F0770393600022D1
:10273000C0E7CB68D1E90121FFF790FF22689368D9
:1027400043F48043F2E74D68CE68016A21F010013E
:1027500001628269036A22F4704223F0A00343EA13
:10276000051342EA063282610362836823F0700334
:1027700043F06703C7E74A68CE68016A056A25F037
:1027800001050562836921F00A0123F0F00343EAA1
:1027900006130A4383610262836823F0700343F0E7
:1027A0004703B0E71A468BE7036A01F01F0110B533
:1027B00001248C4023EA04030362036A8A401A431B
:1027C000026210BD10B5044629B990F83E30012BC5
:1027D00018D001202DE004290DD190F83F30013BA5
:1027E00018BF0123002BF4D104294FF0020321D19B
:1027F00084F83F3009E008290CBF90F8403090F889
:102800004130ECE7022380F83E3020680122FFF7D8
:10281000CBFF23681C498B4213D01C4A934210D033
:10282000B3F1804F14D19A6802F00702062A26D12C
:10283000002010BD08290CBF84F8403084F84130D6
:10284000E3E75A6C8B4242F400425A64EBD0E7E76C
:102850000F4A9342E7D002F580629342E3D002F53B
:1028600080629342DFD002F578429342DBD002F5DA
:1028700070529342D7D0A2F594329342D3D01A68C3
:1028800042F001021A60D3E7000001400004014059
:1028900000040040FFF796BF30B590F83C30012BA4
:1028A0004FF0020332D080F83D3003680D685C6859
:1028B0009A6824F070042C435C60154CA3421AD033
:1028C000B3F1804F17D0A4F57C44A34213D004F594
:1028D0008064A3420FD004F58064A3420BD004F5BA
:1028E0007844A34207D004F57054A34203D0A4F562
:1028F0009434A34204D1496822F080020A439A60CA
:10290000012380F83D30002380F83C30184630BD6C
:102910000000014090F83C30012B1FD0CB688A6842
:1029200023F4407313434A6823F4806313430A6813
:1029300023F4006313430A6923F4805313434A6961
:1029400023F400531343CA6923F4804313430268FA
:102950005364002380F83C301846704702207047CB
:10296000026802F10C0353E8003F23F490730C3229
:1029700042E8003102680029F2D102F1140353E861
:10298000003F23F0010302F1140C4CE80031002950
:10299000F3D1036B012B0BD102F10C0353E8003F81
:1029A00023F0100302F10C0C4CE800310029F3D1A4
:1029B000202380F83E300023036370470268C1681B
:1029C000136923F440530B4370B5136105468368C4
:1029D0000069D168034368690343E86921F416413B
:1029E00021F00C0103430B43D3605369A96923F41D
:1029F00040730B4353611F4B9A4203D003F580632E
:102A00009A4223D1FFF78AFBEB691921B3F5004FF6
:102A1000D5E90046A0FB01011BD1B2194FF000031C
:102A20005B41FDF72BFF6421B0FBF1F501FB1503C2
:102A3000DB003233B3FBF1F303F007025B0002EB80
:102A4000051203F4F8731344A36070BDFFF756FB3F
:102A5000DAE7B200B30FFDF711FF6422B0FBF2F129
:102A600002FB11031B013233B3FBF2F303EB01133F
:102A7000EAE700BF00100140F8B504460E461746CD
:102A80001D462268136836EA030301D1002028E0BE
:102A90006B1CF7D025B1FEF7DDFEC01B8542F0D2DE
:102AA000226802F10C0353E8003F23F4D0730C3288
:102AB00042E8003021680028F2D101F1140353E804
:102AC000003F23F0010301F1140040E80032002A26
:102AD000F3D1202384F83D3084F83C2084F83E3044
:102AE0000320F8BD10B5044640B390F83D3003F024
:102AF000FF021BB980F83C20FEF7B8FD22682423B2
:102B000084F83D30D36823F40053D3602046FFF7A8
:102B100055FF23681A6922F490421A615A6922F01B
:102B20002A025A61DA6842F40052DA600020202357
:102B3000206484F83D3084F83E3010BD0120FCE76D
:102B4000F7B5174690F83D200093202A04460E461C
:102B500049D1002945D0002F43D090F83C20012ACC
:102B600041D0012280F83C2000252122056480F814
:102B70003D20FEF76FFEA168009BA784B1F5805F42
:102B80000246E78403D1216909B935460E46002182
:102B900084F83C10E18C89B241B940212046FFF70E
:102BA0006BFF60B9202384F83D3009E08021204686
:102BB000CDE90023FFF760FFDDE9002310B103201A
:102BC00003B0F0BD20684EB935F8021BC1F308010F
:102BD0004160E18C013989B2E184DBE716F8011B21
:102BE000F6E70120ECE70220EAE7704770477047FC
:102BF00008B5806B0023C385C384FFF7F8FF08BDC9
:102C0000704707B58168836A0268B1F5805F3ED17D
:102C1000016900293ED15268C2F3080223F8022B51
:102C20008362C38D013B9BB2C385002B2CD102680C
:102C3000D16821F02001D160D16821F48071D16088
:102C4000516921F001015161202280F83E20026B80
:102C5000012A026828D1036302F10C0353E8003F04
:102C600023F0100302F10C0C4CE800310029F3D1E1
:102C70001368DB0605D5019113680193536801932E
:102C8000019B818DFFF7BCFF03B05DF804FB39B9F0
:102C9000016929B95268D2B21A70836A0133BFE759
:102CA000526802F07F02F7E7FFF7A0FFECE70000B1
:102CB000036837B51A68D9685D6912F00F0F0446CA
:102CC0000CD1950670D58D066ED590F83E30222B2E
:102CD00064D103B0BDE83040FFF793BF05F00100B9
:102CE00001F4907505435FD0D50705D5CB0542BFEC
:102CF000236C43F001032364550704D518B1236CFA
:102D000043F002032364930704D518B1236C43F006
:102D100004032364150707D501F0200303431EBFF6
:102D2000236C43F008032364236C002B36D09006F9
:102D300008D58A0606D594F83E30222B02D12046CB
:102D4000FFF75FFF23685B69256C03F0400305F024
:102D500008051D43204623D0FFF702FE2268536971
:102D60005B0618D502F1140353E8003F23F040033B
:102D700002F1140040E800310029F3D1A06B50B1FA
:102D8000724B0365FEF72AFE40B1A06B036D03B0E2
:102D9000BDE8304018472046FFF729FF03B030BD9B
:102DA000FFF725FF2564F9E7206B012840F09180AB
:102DB000D50640F18E80C80640F18B80002201923A
:102DC0001A6801925A680192019A5A6955064CD5BF
:102DD000A16B0A68526892B2002ADFD0A08D90429F
:102DE000DCD9E285CA69B2F5807F36D003F10C02E6
:102DF00052E8002F22F4807203F10C0040E8002119
:102E00000029F3D103F1140252E8002F22F001024D
:102E100003F1140040E800210029F3D103F114026A
:102E200052E8002F22F0400203F1140040E8002194
:102E30000029F3D1202284F83E20216303F10C0203
:102E400052E8002F22F0100203F10C0040E80021AC
:102E50000029F3D1A06BFEF77DFDE38DA18DC91A8A
:102E600089B22046FFF7CCFE98E7E18D8AB2E18D6A
:102E700089B2002992D0A18D891A89B200298DD0FA
:102E800003F10C0252E8002F22F4907203F10C05BA
:102E900045E800200028F3D103F1140252E8002F86
:102EA00022F0010203F1140545E800200028F3D1C7
:102EB000202284F83E20206303F10C0252E8002F08
:102EC00022F0100203F10C0545E800200028F3D1A0
:102ED000C7E7100628D50D0626D594F83D20212AEF
:102EE0007FF45CAFA168226AB1F5805F17D12169D8
:102EF000A9B932F8021BC1F3080159602262E28CC1
:102F0000013A92B2E284002A7FF448AFDA6822F0F4
:102F10008002DA60DA6842F04002DA603EE7511C73
:102F2000216212785A60EAE750067FF537AF4A0609
:102F30007FF534AFDA6822F04002DA60202384F8AB
:102F40003D302046FFF751FE28E700BFF12B000877
:102F5000C285002382852222036480F83E20026914
:102F600080F83C30816203681AB1DA6842F48072FA
:102F7000DA605A6942F001025A61DA6842F02002CE
:102F8000DA600020704770B490F83E60202E10D1B7
:102F900061B15AB190F83C40012C0AD0012480F86C
:102FA0003C400024046370BCFFF7D2BF012070BC1A
:102FB00070470220FBE70000EFF305832BB9064BB7
:102FC000186828B901221A6070476FF00500704731
:102FD0004FF0FF30704700BF2C08002010B5EFF312
:102FE00005845CB9084B1A68012A0AD1074AD477CC
:102FF00002221A6000F088FD204610BD6FF0050027
:10300000FBE74FF0FF30F8E72C08002000ED00E070
:10301000F0B587B0144600220B460592EFF3058207
:10302000D2B9C8B1002C2FD0A569002D08BF182532
:10303000691E3729AC462BD86168C90728D4666950
:103040006EB1B208D4E9027E216857B1BEF15B0FC0
:1030500002D9246904B1EEB9059807B0F0BD802209
:10306000F0E7BEF1000FF7D12469002CF4D10C4633
:1030700005A9CDE900C192B2214600F018FD012852
:103080001CBF00230593E7E74FF0180C8022EFE701
:103090001046E2E7CDE90147009500F0D0FC05902D
:1030A000DAE710B5EFF3058424B910B100F08AFE19
:1030B000204610BD6FF00500FBE70000034B0360E6
:1030C000034B0B6080231360704700BFD0070020C4
:1030D000D0050020034B0360034B0B604FF480735B
:1030E00013607047300C00203008002000F1080306
:1030F0004FF0FF32C0E90223436003610023036005
:10310000704700230361704743684B609A688A6088
:103110009A685160996003680861013303607047E1
:1031200030B50C68631C0AD103695A684A60916023
:103130008B605960036808610133036030BD00F1A2
:103140000802134652681568A542FAD9EDE7D0E99E
:10315000011203698A6051605968814208BF5A6050
:10316000002202611A68013A1A601868704710B5A7
:10317000044601F0F7F9A46B01F014FAB4FA84F0F4
:10318000400910BDF8B51546026C866B044652B96D
:10319000076847BB806800F04DFFA7600546013611
:1031A000A6632846F8BD65B9406801F043FC636832
:1031B000226C1344A26863609342F0D32368636077
:1031C000EDE7C06801F036FC226CE36851429B1ABF
:1031D0002268E36093423EBFA3685B18E360022D60
:1031E00001D116B1013E0025D9E73546D7E70346A0
:1031F00010B41A6C08466AB1DC68996814448C42B1
:1032000028BF1968DC6028BFD960D9685DF8044B15
:1032100001F010BC5DF8044B704770B5044601F036
:10322000A1F994F8455004F124066DB2002D14DC88
:10323000FF2384F8453001F0B5F901F093F994F8D3
:10324000445004F110066DB2002D12DCFF2384F807
:103250004430BDE8704001F0A5B9636A002BE7D0A7
:10326000304600F045FE08B100F0CEFE013D6DB2E3
:10327000DCE72369002BE9D0304600F039FE08B1C5
:1032800000F0C2FE013D6DB2DEE738B50D460446E2
:1032900040B94FF0500383F31188BFF36F8FBFF332
:1032A0004F8FFEE701F05EF9D4E90F3122686260CA
:1032B0004B43D0185B1A1344A060E3600020FF2347
:1032C000A06384F8443084F84530A5B9236973B10C
:1032D00004F1100000F00CFE48B14FF0E0234FF075
:1032E0008052C3F8042DBFF34F8FBFF36F8F01F0EF
:1032F00059F9012038BD04F11000FFF7F7FE04F181
:103300002400FFF7F3FEF2E713B51C4640B94FF077
:10331000500383F31188BFF36F8FBFF34F8FFEE726
:1033200043B94FF0500383F31188BFF36F8FBFF39E
:103330004F8FFEE74AB191B94FF0500383F31188E4
:10334000BFF36F8FBFF34F8FFEE741B14FF05003D4
:1033500083F31188BFF36F8FBFF34F8FFEE75023C6
:103360000193019B502B08D04FF0500383F3118839
:10337000BFF36F8FBFF34F8FFEE7002908BF2246D0
:10338000019B22600123C4E90F0184F846301946ED
:103390002046FFF77AFF9DF8103084F84C30204625
:1033A00002B010BD2DE9F04385B0884601921F465A
:1033B000044640B94FF0500383F31188BFF36F8F79
:1033C000BFF34F8FFEE751B9036C43B14FF0500389
:1033D00083F31188BFF36F8FBFF34F8FFEE7022F88
:1033E0000BD1E36B012B08D04FF0500383F311880E
:1033F000BFF36F8FBFF34F8FFEE700F00BFE064663
:1034000050B9019B4BB14FF0500383F31188BFF3C8
:103410006F8FBFF34F8FFEE700264FF0000937E0B4
:10342000019D1DB901F0BEF8002052E016B902A8B6
:1034300000F0A2FD01F0B6F800F0ACFB01F092F84C
:1034400094F84430FF2B08BF84F8449094F845303A
:10345000FF2B08BF84F8459001F0A4F801A902A849
:1034600000F096FD00284AD101F07CF8A26BE36BD6
:103470009A4231D101F096F8019904F1100000F060
:10348000FFFC2046FFF7C9FE00F028FC60B30126D0
:1034900001F068F8A26BE36B9A4201D3022FBFD10F
:1034A0003A4641462046FFF76DFE636A1BB104F1C0
:1034B000240000F01DFD48B14FF0E0234FF0805292
:1034C000C3F8042DBFF34F8FBFF36F8F01F06AF87D
:1034D000012005B0BDE8F08301F064F82046FFF755
:1034E0009CFE00F0FBFBD2E74FF0E0234FF0805250
:1034F000C3F8042DBFF34F8FBFF36F8FC7E720468C
:10350000FFF78BFE00F0EAFB8EE72DE9F8438946D2
:1035100090461F46044640B94FF0500383F311888C
:10352000BFF36F8FBFF34F8FFEE751B9036C43B109
:103530004FF0500383F31188BFF36F8FBFF34F8FAA
:10354000FEE7022F0BD1E36B012B08D04FF05003A5
:1035500083F31188BFF36F8FBFF34F8FFEE701F046
:1035600017F9EFF311864FF0500383F31188BFF37F
:103570006F8FBFF34F8FA26BE36B9A4201D3022F81
:1035800023D194F84550A36B6DB23A464946204684
:10359000FFF7F8FD6B1C13D1636A0BB901200BE038
:1035A00004F1240000F0A4FC0028F7D0B8F1000FCB
:1035B000F4D00120C8F8000086F31188BDE8F88334
:1035C00001356DB284F84550E8E70020F4E72DE9B5
:1035D000FF410F460192044640B94FF0500383F378
:1035E0001188BFF36F8FBFF34F8FFEE751B9036CA4
:1035F00043B14FF0500383F31188BFF36F8FBFF3D4
:103600004F8FFEE700F006FD064650B9019B4BB117
:103610004FF0500383F31188BFF36F8FBFF34F8FC9
:10362000FEE700264FF000083DE0019D1DB900F0C7
:10363000B9FF002056E016B902A800F09DFC00F08A
:10364000B1FF00F0A7FA00F08DFF94F84430FF2B93
:1036500008BF84F8448094F84530FF2B08BF84F8F5
:10366000458000F09FFF01A902A800F091FC00280E
:1036700041D12046FFF77BFDB8B3019904F1240046
:1036800000F0FEFB2046FFF7C8FD00F027FB48B91D
:103690004FF0E0234FF08052C3F8042DBFF34F8F5B
:1036A000BFF36F8F012600F05DFFA56B002DBCD02E
:1036B00039462046013DFFF79AFDA563236973B1A2
:1036C00004F1100000F014FC48B14FF0E0234FF07B
:1036D0008052C3F8042DBFF34F8FBFF36F8F00F0FC
:1036E00061FF012004B0BDE8F0812046FFF795FDA1
:1036F00000F0F4FAD6E72046FFF78FFD00F0EEFA6F
:103700002046FFF734FD0028CCD092E710B5074AD9
:10371000002352F833402CB942F8331002EBC303B4
:10372000586010BD0133082BF3D1FAE78C0C002050
:1037300070B504460D46164600F014FF94F8443068
:10374000FF2B04BF002384F8443094F84530FF2B4E
:1037500004BF002384F8453000F024FFA36B2BB98D
:103760003246294604F1240000F0A4FB2046BDE8BF
:103770007040FFF752BD00002DE9F041044600F013
:10378000F1FE304B304E1A68304F01321A60356806
:10379000002D4BD134601B68012B1FD1B846404629
:1037A0000135FFF7A3FC382D08F11408F7D1DFF835
:1037B000C480274D4046FFF799FC2846FFF796FC4A
:1037C0002448FFF793FC2448FFF790FC2348FFF7B9
:1037D0008DFC234BC3F80080224B1D60224A1368E6
:1037E00001331360214A63641168E36A14208B4239
:1037F00000FB037004F1040188BF1360FFF784FC31
:1038000000F0D0FE1A4B1B6873B13368DA6AE36AC2
:103810009A4209D24FF0E0234FF08052C3F8042DB2
:10382000BFF34F8FBFF36F8FBDE8F081104B1B6864
:10383000002BD3D13368DA6AE36A9A4298BF3460C6
:10384000CCE700BF38110020CC0C0020D80C0020A1
:103850006011002080110020AC1100209811002080
:10386000D00C0020D40C002044110020481100206E
:10387000941100204C110020F8B5154B154E1D6811
:103880000446306804300F46FFF761FC631C07D123
:1038900037B131681048BDE8F8400431FFF734BC57
:1038A00033682C195C6007D30C4B18683168BDE88D
:1038B000F8400431FFF734BC094B18683168043113
:1038C000FFF72EFC074B1A68A24288BF1C60F8BDA8
:1038D000C0110020CC0C002098110020D40C002036
:1038E000D00C002074110020064A13681968064B9A
:1038F00019B94FF0FF321A6070471268D268D26867
:103900005268F8E7D00C00207411002010B590F830
:10391000593004463BB9006B01F024F82046BDE85D
:10392000104001F01FB8012BF9D0022B08D04FF046
:10393000500383F31188BFF36F8FBFF34F8FFEE700
:1039400010BD000080B5134C134F144D236873B99C
:10395000134B1B68012BF8D94FF0E0234FF0805236
:10396000C3F8042DBFF34F8FBFF36F8FEDE700F067
:10397000F9FDFB68DE68301DFFF7E9FB2B68013BB2
:103980002B602368013B236000F00CFE3046FFF7FC
:10399000BDFFDBE73C110020AC11002038110020F6
:1039A000D80C00202DE9F047DDE909844FEA8209AF
:1039B0004A4606460D46206BA5211F4601F048F8F1
:1039C000226BA9F10409914429F00709A5B36B1EE4
:1039D00004F134020F3513F8010F02F8010B08B19E
:1039E000AB42F8D1002384F84330089D372D28BF1F
:1039F00037254FF0000AE562E564201DC4F850A0A9
:103A0000FFF77FFBC5F1380504F11800FFF779FBDC
:103A1000C4F854A02461A561646284F858A03A46B1
:103A20003146484600F074FD2060B8F1000F01D027
:103A3000C8F80040BDE8F08784F83450D5E770B589
:103A400086B0DDE90B5445B94FF0500383F311887C
:103A5000BFF36F8FBFF34F8FFEE744B94FF05003B2
:103A600083F31188BFF36F8FBFF34F8FFEE75C26A0
:103A70000596059E5C2E08D04FF0500383F3118805
:103A8000BFF36F8FBFF34F8FFEE72563022584F8E6
:103A9000595004AD01950A9D02940095059EFFF7CB
:103AA00081FF2046FFF768FE049806B070BD2DE93F
:103AB000F043074685B0900088461646994600F0C8
:103AC000B9FE0546E8B15C2000F0B4FE0446A8B19A
:103AD000002380F859300D9B056301930C9B0290E5
:103AE000009332464B4641463846FFF75BFF20467F
:103AF000FFF742FE012005B0BDE8F083284600F044
:103B000031FF4FF0FF30F6E710B588B0002407AA68
:103B100006A905A8CDE90544FFF7D0FA059B029355
:103B2000069B079A16491748CDE900432346FFF73D
:103B300086FF18B300F014FB012814D14FF0500396
:103B400083F31188BFF36F8FBFF34F8F0E4B4FF08E
:103B5000FF321A600D4B18600D4B1C6008B0BDE8B9
:103B6000104000F08FBD013008D14FF0500383F3B7
:103B70001188BFF36F8FBFF34F8FFEE708B010BD02
:103B8000F45E0008453900087411002094110020EB
:103B9000C0110020024A136801331360704700BF50
:103BA00040110020014B1868704700BFC011002071
:103BB0003F4B1B682DE9F74F002B73D13D4B1D6820
:103BC00001351D60BDB93C4B1A68126842B14FF017
:103BD000500383F31188BFF36F8FBFF34F8FFEE75E
:103BE000364A1968106818601160354A1368013345
:103BF0001360FFF779FE334E334F3368DFF8D4801C
:103C00009D424FF0000411D2D8F80030DB6A142234
:103C10005343FB58022B2D4B1B6828BF0124002B5C
:103C200018BF0124204603B0BDE8F08FDFF888906C
:103C3000DFF8A4A0D9F800301B681BB94FF0FF33A0
:103C40003360E1E7D9F80030DB68D3F80CB0DBF87B
:103C50000420954201D23260D6E70BF104010846F8
:103C60000191FFF774FADBF82820019922B10BF1DA
:103C70001800FFF76CFA0199DBF82C00DAF8002045
:103C80001423904288BFCAF8000003FB0070FFF7BE
:103C90003BFAD8F80010DBF82C20CB6A9A4228BFF8
:103CA0000124C7E70A4A1368013313600024B9E707
:103CB00040110020C0110020D00C0020D40C0020A6
:103CC0007811002074110020D80C0020C4110020AD
:103CD0007C110020CC0C002048110020F7B5314C9D
:103CE000236843B94FF0500383F31188BFF36F8FFC
:103CF000BFF34F8FFEE700F035FC2368013B2360E4
:103D000024682CB1002400F04DFC204603B0F0BD27
:103D1000254B1B68002BF5D0244D254E254F1EE06A
:103D2000EB68DC6804F11800FFF711FA211D084662
:103D30000191FFF70CFAE36A32680199142093426B
:103D400000FB037088BF3360FFF7DEF91A4BE26AAD
:103D50001B68DB6A9A4202D3184B01221A602B6857
:103D6000002BDDD10CB1FFF7BFFD154D2C6844B120
:103D7000124E0127FFF71CFF00B13760013CF9D15B
:103D80002C600E4B1B68002BBCD04FF0E0234FF093
:103D90008052C3F8042DBFF34F8FBFF36F8F012400
:103DA000B1E700BF40110020381100208011002031
:103DB00048110020D80C0020CC0C0020C411002099
:103DC0007C11002008B550B94FF0E0234FF080522D
:103DD000C3F8042DBFF34F8FBFF36F8F08BD0A4B9D
:103DE000196841B14FF0500383F31188BFF36F8F0F
:103DF000BFF34F8FFEE7FFF7CDFEFFF73DFDFFF767
:103E00006DFF0028E0D0E9E740110020174B1A6849
:103E1000174B70B512B101221A6070BD154D1A60B2
:103E20002A681549142606FB02F3C818CC588CB131
:103E300044680833646844600B449C4204BF636870
:103E40004360142303FB02114B68D9680B4B1960C4
:103E50002A60E2E742B94FF0500383F31188BFF3C1
:103E60006F8FBFF34F8FFEE7013ADCE74011002070
:103E7000C411002048110020D80C0020CC0C0020D8
:103E800010B50C4640B94FF0500383F31188BFF3CF
:103E90006F8FBFF34F8FFEE7054B19681831FFF79F
:103EA0003FF920460121BDE81040FFF7E5BC00BF07
:103EB000CC0C002038B50D46144640B94FF05003E5
:103EC00083F31188BFF36F8FBFF34F8FFEE7074B6C
:103ED00019681831FFF718F9002C21460CBF284645
:103EE0004FF0FF30BDE83840FFF7C6BCCC0C0020D7
:103EF000C36813B5DC6844B94FF0500383F31188ED
:103F0000BFF36F8FBFF34F8FFEE704F11801084630
:103F10000191FFF71CF9124B01991B68EBB9211DA8
:103F200008460191FFF713F90E4AE36A10680199F8
:103F3000834288BF13600C4A142000FB0320FFF764
:103F4000E3F80A4BE26A1B68DB6A9A4285BF084BBA
:103F500001200020186002B010BD0648EFE700BF46
:103F60004011002048110020D80C0020CC0C00206B
:103F7000C411002080110020034B1B680360034B19
:103F80001B684360704700BF78110020C0110020FB
:103F900070B50C46054640B94FF0500383F31188C5
:103FA000BFF36F8FBFF34F8FFEE741B94FF0500360
:103FB00083F31188BFF36F8FBFF34F8FFEE700F0DD
:103FC000D1FA0F4B196823685A1C10D00D482E687F
:103FD00000686A68864201D08A420FD9881A8342F3
:103FE0000AD95B1A134423602846FFF7C5FF002453
:103FF00000F0D8FA204670BD002323600124F7E7C3
:10400000C011002078110020014B01221A60704776
:10401000C4110020054B1B6833B1054B1B68002BF6
:104020000CBF02200020704701207047941100202F
:104030004011002013B510B9002002B010BD1C4B78
:104040001C68844208D04FF0500383F31188BFF3FB
:104050006F8FBFF34F8FFEE7236D43B94FF05003CF
:1040600083F31188BFF36F8FBFF34F8FFEE7E16AD1
:10407000E26C013B91422365DED0002BDCD1211D97
:1040800008460191FFF763F8E36C0199E362C3F11D
:104090003802A261074A1068834288BF1360064A4B
:1040A000142000FB0320FFF72FF80120C5E700BF15
:1040B000CC0C002048110020D80C0020F7B5114C82
:1040C00000F050FA2568BDB90F4F104E3846FFF783
:1040D0000DF83046FFF70AF80D4B0E4A1F600E4BE5
:1040E00010211E600A200D4B0095FFF70DF920608E
:1040F00010B10B49FFF70AFB03B0BDE8F04000F038
:1041000051BA00BFEC12002070120020841200206F
:10411000C8110020D0110020CC1100209C120020DA
:10412000F95E0008914208B5416000610AD8D21AD0
:1041300083699A420DD2084B011D1868FEF7F0FF03
:10414000002008BD9A4201D2994202D2034B011DC0
:10415000F3E70120F5E700BFCC110020C8110020D3
:1041600010B588B0FFF7AAFF124B1B68B3B100244B
:1041700007AA06A905A8CDE90544FEF7ABFF059BF4
:104180000293069B019302230093079A0A490B4866
:104190002346FFF754FC0A4B186040B94FF0500318
:1041A00083F31188BFF36F8FBFF34F8FFEE70120BA
:1041B00008B010BDEC120020FE5E0008C9420008E5
:1041C000F01200207FB5164604461A4640B94FF05B
:1041D000500383F31188BFF36F8FBFF34F8FFEE758
:1041E0000D4D286880B10529CDE9001602940DDC3B
:1041F000FFF710FF0023022808BF089A286818BF9D
:104200001A466946FFF7CEF804B070BD0023694630
:10421000FFF77BF9F8E700BFEC1200202DE9FF471C
:10422000DFF8A0800646FFF7BDFCD8F800308342D7
:10423000054640D9214F4FF000093B681A685AB92A
:104240001F4A116839601360012328463360C8F89B
:10425000005004B0BDE8F087DB68DC68D3F800A04C
:10426000211D08460391FEF772FF236A20469847F6
:1042700094F82830039913F0040FDED0A369534457
:104280009A4505D2386863602461FEF749FFD4E798
:104290000023CDF80090524619462046FFF792FFC2
:1042A0000028CAD14FF0500383F31188BFF36F8FFA
:1042B000BFF34F8FFEE70023C7E700BFC811002000
:1042C000CC110020981200202DE9F0436E4D6F4E66
:1042D00089B02B68D3F80080B8F1000F35D0DB68C7
:1042E000D3F800800024FFF755FC04A8FFF796FFE1
:1042F000049B8146002B69D1002C4CD1404550D302
:10430000FFF7ECFC2B68DB68DF68381DFEF71FFF4A
:1043100097F8283058071AD5B96943464A464144A8
:104320003846FFF7FFFEB0B10094234642462146CF
:104330003846FFF747FF70B94FF0500383F31188F9
:10434000BFF36F8FBFF34F8FFEE70124CBE723F05E
:10435000010387F828303B6A3846984730680022C6
:1043600004A9FFF734F90028B3D0049B0698002B6A
:104370002FDB069C6369002B32D103A8FFF74EFFA9
:10438000049B0246092BE9D8DFE803F02E2E2E57B6
:104390005E762E2E575E3E4B1B681C68B4FA84F482
:1043A000640930682246A8EB0901FFF7C1F9FFF75D
:1043B00095FC0028D2D14FF0E0234FF08052C3F893
:1043C000042DBFF34F8FBFF36F8FC7E7FFF786FC56
:1043D000C4E7059B07999847049B002BBEDBC8E701
:1043E000201DFEF7B4FEC8E794F82830A16943F019
:1043F000010384F82830059B20461944FFF792FEFC
:104400000028ABD0236A2046984794F828305907F3
:10441000A4D5A269059900230A44009319462046B1
:10442000FFF7D0FE002899D14FF0500383F3118895
:10443000BFF36F8FBFF34F8FFEE794F8283023F060
:10444000010384F8283089E794F8283043F0010309
:1044500084F828300599A16141B94FF0500383F3E6
:104460001188BFF36F8FBFF34F8FFEE70346014400
:104470002046FFF757FE71E794F828309A07DED4FC
:10448000204600F06FFA69E7C8110020EC12002006
:10449000CC11002008480068006880F308884FF0BD
:1044A000000080F3148862B661B6BFF34F8FBFF38C
:1044B0006F8F00DF00BF000008ED00E0DFF80C00A8
:1044C000016841F4700101607047000088ED00E070
:1044D00082B0002301930D4B1B68013308D04FF0CD
:1044E000500383F31188BFF36F8FBFF34F8FFEE745
:1044F0004FF0500383F31188BFF36F8FBFF34F8FDB
:10450000019B002BFCD002B0704700BF0C000020C4
:104510004FF0807340F8043C074B40F80C3C21F00E
:1045200001016FF0020340F8081C40F8202C40F80D
:10453000243C4438704700BFD1440008000000000C
:10454000074B19680868B0E8F04F80F30988BFF39B
:104550006F8F4FF0000080F311887047AFF3008039
:10456000CC0C00204FF0500383F31188BFF36F8F02
:10457000BFF34F8F0A4A13680133012B13600ED12A
:104580004FF0E023D3F8043DDBB243B14FF05003CA
:1045900083F31188BFF36F8FBFF34F8FFEE7704730
:1045A0000C000020084A136843B94FF0500383F30E
:1045B0001188BFF36F8FBFF34F8FFEE7013B13608E
:1045C0000BB983F3118870470C0000200000000035
:1045D000EFF30980BFF36F8F154B1A681EF0100FB1
:1045E00008BF20ED108A20E9F04F10602DE9090086
:1045F0004FF0500080F31188BFF34F8FBFF36F8FE0
:10460000FFF704FC4FF0000080F3118809BC196823
:104610000868B0E8F04F1EF0100F08BFB0EC108A29
:1046200080F30988BFF36F8F704700BFAFF300803E
:10463000CC0C002008B54FF0500383F31188BFF372
:104640006F8FBFF34F8FFFF7B3FA28B14FF0E0231E
:104650004FF08052C3F8042D002383F3118808BD66
:104660004FF0E022002313619361054B4FF47A7100
:104670001B68B3FBF1F3013B5361072313617047E0
:10468000000000204FF0E02337B5D3F8001D3A4A70
:10469000914208D14FF0500383F31188BFF36F8F1D
:1046A000BFF34F8FFEE7D3F8002D344B9A4208D169
:1046B0004FF0500383F31188BFF36F8FBFF34F8F19
:1046C000FEE72F4B1A78D2B20192FF221A701B78A4
:1046D0002C4ADBB28DF803309DF8033003F0500311
:1046E0001370294A0723136000219DF80300000678
:1046F00003F1FF340CD411B1032B136011D04FF030
:10470000500383F31188BFF36F8FBFF34F8FFEE722
:104710009DF803305B00DBB28DF8033001212346A6
:10472000E3E74FF440731360019B154A4FF0E02418
:10473000DBB21370D4F8203D43F47003C4F8203D7D
:10474000D4F8203D43F07043C4F8203DFFF788FFC4
:104750000E4B00251D60FFF7B1FED4F8343F43F047
:104760004043C4F8343FFFF795FEFFF74FFBFFF7D8
:10477000AFFE284603B030BD71C20F4170C20F4179
:1047800000E400E0F4120020F81200200C000020E9
:10479000EFF305830F2B0ED9114A9B5C114A127857
:1047A0009A4208D94FF0500383F31188BFF36F8FFB
:1047B000BFF34F8FFEE74FF0E0230B4AD3F80C3DD9
:1047C000126803F4E063934208D94FF0500383F377
:1047D0001188BFF36F8FBFF34F8FFEE7704700BFA5
:1047E000F0E300E0F4120020F812002010B50F4BA7
:1047F0001A461B688342FBD354681119884201BFD3
:104800004168104609195160446801198B4207D16B
:10481000074909688B421FBF59681B680919416025
:104820009042036018BF106010BD00BF144F0020FD
:10483000FC1200202DE9F0410446FFF7ABF9424895
:10484000424D03680BBB42494E071FBFCB1D23F0EF
:10485000070301F57052D21A14BF19464FF4705273
:104860000A443C4E083A22F007020023736031608C
:10487000C2E90033531AC1E900230260364A1360CB
:10488000364A13604FF000432B602F68274255D102
:10489000002C46D004F1080361071CBF23F0070376
:1048A0000833002B4AD02D4C26689E4246D3294A15
:1048B00015686968994204D2D5F800C0BCF1000FB0
:1048C00015D10068A84239D0C91A2868D2F80080EA
:1048D0001060102912D9E81842070BD04FF050038E
:1048E00083F31188BFF36F8FBFF34F8FFEE72A4624
:1048F0006546DEE741606B60FFF778FF6B6816493D
:10490000174A0868F61A1F4300232B6013682660B5
:10491000864203F1010338BF0E6008F108046F609E
:104920001360FFF7DBF963070AD04FF0500383F3FE
:104930001188BFF36F8FBFF34F8FFEE70024F0E7BE
:104940002046BDE8F08100BFFC120020004F00208F
:1049500000130020144F0020084F0020044F0020B7
:104960000C4F002010B5044690B31A4A50F8043C8E
:104970001268134208D14FF0500383F31188BFF33C
:104980006F8FBFF34F8FFEE750F8081C41B14FF017
:10499000500383F31188BFF36F8FBFF34F8FFEE790
:1049A00023EA020340F8043CFFF7F4F80A4A54F8FB
:1049B000043C1168A4F108000B441360FFF716FFD4
:1049C000064A1368BDE8104001331360FFF786B94B
:1049D00010BD00BF004F0020044F0020104F0020EA
:1049E000014B1868704700BF1000002070B50D4DD6
:1049F0000D4C641BA4100026A64209D10B4D0C4C93
:104A000000F08EFC641BA4100026A64205D170BDE8
:104A100055F8043B98470136EEE755F8043B9847B4
:104A20000136F2E7445F0008445F0008445F000875
:104A3000485F00080A44914200F1FF3300D17047FB
:104A400010B511F8014B03F8014F9142F9D110BD97
:104A500002440346934200D1704703F8011BF9E773
:104A60000EB400B59CB01DAB029006906FF00041F3
:104A7000094807910491094953F8042B05910068EE
:104A8000019302A900F068F8029B00221A701CB082
:104A90005DF804EB03B07047100000200802FFFF30
:104AA0002DE9F0478E689E4282460C4690461F468E
:104AB00038D88A8912F4906F32D025680969A5EB3D
:104AC0000109656905EB450505EBD57501334B44D7
:104AD0006D109D4238BF1D46530531D5294600F063
:104AE00055FB064650B90C23CAF80030A38943F0A1
:104AF0004003A3814FF0FF30BDE8F08721694A46AB
:104B0000FFF798FFA38923F4906343F08003A38108
:104B1000266165614E44A5EB09052660A5603E4609
:104B2000BE4200D93E4620683246414600F0A8FA0F
:104B3000A3689B1BA3602368334423600020DBE74A
:104B40002A4600F097FB06460028E1D1216950462D
:104B500000F0B0FAC7E700002DE9F04F98468B89C6
:104B60001B069DB007460D4614460ED50B6963B96A
:104B7000402100F00BFB2860286120B90C233B602A
:104B80004FF0FF30D1E040236B61002309932023D5
:104B90008DF82930CDF80C803023DFF8A8818DF80E
:104BA0002A304FF0010923469A4613F8012B0AB127
:104BB000252AF9D1BAEB040B0BD05B4622462946D5
:104BC0003846FFF76DFF013000F0AA80099A5A4479
:104BD00009929AF80030002B00F0A28000234FF0D9
:104BE000FF32CDE905230AF1010A049307938DF8FA
:104BF00053301A935446052214F8011B5148FBF711
:104C0000E7FA049AD8B9D00644BF20238DF8533070
:104C1000110744BF2B238DF853309AF800302A2B0C
:104C200015D0079A544600204FF00A0C214611F87F
:104C3000013B303B092B4ED9B0B1079214E0A0EBF9
:104C4000080309FA03F313430493A246D2E7039B34
:104C5000191D1B680391002BBBBF5B4242F002028F
:104C600007930793B8BF049223782E2B0CD1637857
:104C70002A2B35D1039B1A1D1B680392002BB8BF4A
:104C80004FF0FF3302340593DFF8C8A021780322E8
:104C90005046FBF79DFA40B14023A0EB0A0003FA0F
:104CA00000F0049B03430134049314F8011B2648CD
:104CB0008DF828100622FBF78BFA002838D0234BFA
:104CC0001BBB039B073323F0070308330393099BA4
:104CD0003344099367E70CFB02320C460120A5E739
:104CE00000230134059319464FF00A0C204610F8B2
:104CF000012B303A092A03D9002BC5D00591C3E70F
:104D00000CFB012104460123F0E703AB00932A4684
:104D10000F4B04A93846AFF30080421C0646D6D19B
:104D2000AB895B063FF52CAF09981DB0BDE8F08F4D
:104D300003AB00932A46064B04A9384600F07AF8E4
:104D4000EBE700BF065F0008105F000800000000EE
:104D5000A14A00080C5F00082DE9F0471646994665
:104D60008A680B69DDF820809342B8BF1346336030
:104D700091F8432007460C460AB10133336023689B
:104D8000990642BF336802333360256815F0060583
:104D900006D104F1190AE36832689B1AAB4226DC9B
:104DA00094F84320131E226818BF012392062BD4C7
:104DB00004F1430249463846C04701301ED02368FB
:104DC000E568326803F00603042B08BFAD1AA36838
:104DD00022690CBF25EAE57500259342C4BF9B1AE2
:104DE000ED1800261A34B5421AD1002008E001233C
:104DF000524649463846C047013003D14FF0FF3094
:104E0000BDE8F0870135C6E7E1185A1C302081F86B
:104E10004300224494F8451082F843100233C7E758
:104E20000123224649463846C0470130E6D00136C4
:104E3000D9E700002DE9FF470F7E0C9D782F9146A2
:104E400080460C469A4601F1430207D8622F0AD8E1
:104E5000002F00F0D880582F00F0A38004F1420505
:104E600084F842703AE0A7F16303152BF6D801A14C
:104E700051F823F0CD4E0008E14E00085D4E0008C9
:104E80005D4E00085D4E00085D4E0008E14E0008D2
:104E90005D4E00085D4E00085D4E00085D4E000846
:104EA000ED4F0008114F0008CF4F00085D4E00087D
:104EB0005D4E00080F5000085D4E0008114F0008BD
:104EC0005D4E00085D4E0008D74F00082B681A1D84
:104ED0001B682A6004F1420584F842300123A3E0F4
:104EE00020682968060601F104030AD50E682B60C4
:104EF000002E03DA2D23764284F843305E480A23DD
:104F000019E00E682B6010F0400F18BF36B2EFE7C3
:104F10002B682068191D2960010601D51E6802E072
:104F20004606FBD51E8854486F2F0CBF08230A2362
:104F3000002184F843106568A560002DA2BF216898
:104F400021F0040121600EB9002D4DD01546B6FBAD
:104F5000F3F103FB1167C75D05F8017D3746BB42DE
:104F60000E46F4D9082B0BD12368DE0708D5236938
:104F700061689942DEBF302305F8013C05F1FF3539
:104F8000521B2261CDF800A04B4603AA21464046A1
:104F9000FFF7E2FE01304CD14FF0FF3004B0BDE826
:104FA000F087354881F845702968236851F8046B0B
:104FB00029601D0614D5DF0744BF43F0200323609A
:104FC0001EB9236823F0200323601023B0E7236871
:104FD00043F0200323607823284884F84530E3E732
:104FE000590648BFB6B2E6E71546BBE72B68266808
:104FF0006169181D286035061B6801D5196002E03B
:105000007006FBD51980002323611546BAE72B688B
:105010001A1D2A601D68626800212846FBF7D8F82F
:1050200008B1401B606063682361002384F843304B
:10503000A8E723692A4649464046D0470130ABD00D
:1050400023689B0713D4E068039B9842B8BF1846B7
:10505000A4E70123324649464046D04701309BD061
:105060000135E36803995B1AAB42F2DCEBE70025FC
:1050700004F11906F5E700BF175F0008285F000874
:10508000884210B501EB020402D98442234607D8B6
:10509000431EA14208D011F8012B03F8012FF8E7B5
:1050A000024401468A4200D110BD13F8014D02F8B6
:1050B000014DF7E737B5002944D051F8043C019081
:1050C000002BA1F10404B8BFE41800F013F91E4A44
:1050D0000198136833B96360146003B0BDE83040D1
:1050E00000F00EB9A34208D9256861198B4201BFAF
:1050F00019685B6849192160EDE71A465B680BB1D6
:10510000A342FAD911685518A5420BD1246821444D
:105110005418A3421160E0D11C685B6853602144BD
:105120001160DAE702D90C230360D6E7256861191C
:105130008B4204BF19685B68636004BF4919216032
:105140005460CAE703B030BD1C4F002070B50E4E4E
:105150000C463168054611B900F0BCF830602146B4
:10516000284600F0B7F8431C0AD0C41C24F00304FE
:10517000A04207D0211A284600F0ACF8013001D136
:105180004FF0FF34204670BD204F00202DE9F04144
:10519000CD1C25F0030508350C2D38BF0C25002D3E
:1051A000074601DBA94205D90C233B6000263046A7
:1051B000BDE8F0812E4E00F09DF833681C4634BBEC
:1051C00029463846FFF7C2FF431C04464DD13468D8
:1051D0002646002E40D123683146384604EB0308AA
:1051E00000F078F880453AD1216803356D1A25F032
:1051F000030508350C2D38BF0C2529463846FFF726
:10520000A5FF01302BD023682B4423600EE02268D9
:10521000521B1ED40B2A16D96119A342256018BF50
:105220005960636808BF316062514B60384604F1D1
:105230000B0600F065F826F00706231DF21AB6D01B
:105240009B1BA350B3E76268A3420CBF32605A6055
:10525000ECE723466468B2E734467668B9E70C2386
:105260003B60384600F04CF8A1E72560DEE700BF60
:105270001C4F00202DE9F041804614460E4621B90E
:10528000BDE8F0411146FFF781BF2AB9FFF712FFD1
:1052900025462846BDE8F08100F038F884420746EC
:1052A00002D8B4EB500F12D821464046FFF76EFFEC
:1052B00005460028EDD0BC422246314628BF3A467A
:1052C000FFF7B8FB31464046FFF7F4FEE1E735460D
:1052D000DFE7000038B5064D0023044608462B6082
:1052E000FCF71AFA431C02D12B6803B1236038BDC6
:1052F000244F0020014800F011B800BF284F0020C3
:10530000014800F00CB800BF284F002051F8043CC1
:10531000181F002BBCBF0B58C01870477047704750
:10532000F8B500BFF8BC08BC9E467047F8B500BF92
:08533000F8BC08BC9E46704762
:105338007465737431210000000000000000000053
:105348000000000070756C73653A253564000074C0
:105358006F74616C313A2535640000746F74616C48
:10536800323A2535640000746F74616C333A253520
:10537800640000746F74616C343A2535640000620F
:105388007566663A257300456E636F64657254618D
:10539800736B004D6F746F725F52004D6F746F7254
:1053A8005F4C00446973706C61795461736B00647D
:1053B800656661756C745461736B0000AB530008CB
:1053C80000000000000000000000000000000000D5
:1053D80000020000080000000000000000000000BB
:1053E8008F530008000000000000000000000000CB
:1053F800000000000002000008000000000000009B
:1054080000000000A3530008000000000000000096
:10541800000000000000000000020000080000007A
:1054280000000000000000009B530008000000007E
:105438000000000000000000000000000002000062
:10544800080000000000000000000000B75300083A
:105458000000000000000000000000000000000044
:10546800000200001800000000000000000000001A
:105478000000000000000000000000000000000024
:105488003F400000000000000000300040003000F5
:105498004000000009000BC03D000BC03D000900A2
:1054A80018C024407FE0224031800000180024C04A
:1054B8001B000D803240018003801C4027401C8067
:1054C80007400040100060000000000000000000DD
:1054D8000000000000001F80204040200000402005
:1054E80020401F8000000000090006001F80060001
:1054F80009000000040004003F80040004000000CC
:10550800001000600000000000000000040004001B
:105518000400040004000000000000400000000037
:1055280000000000002001C0060038004000000014
:105538001F802040204020401F80000000001040B5
:105548003FC000400000000018C021402240244015
:105558001840000010802040244024401B80000098
:1055680002000D0011003FC0014000003C802440B3
:1055780024402440238000001F80244024403440DD
:10558800038000003000200027C038002000000001
:105598001B802440244024401B8000001C0022C0A3
:1055A800224022401F800000000000000840000048
:1055B800000000000000000004600000000000007F
:1055C800000004000A001100208040400900090082
:1055D8000900090009000000000040402080110077
:1055E8000A000400180020002340240018000000CE
:1055F8001F802040274029401F400000004007C06E
:1056080039000F0001C0004020403FC02440244022
:105618001B8000001F802040204020403080000078
:1056280020403FC0204020401F80000020403FC055
:1056380024402E4030C0000020403FC024402E00AF
:10564800300000000F00108020402240338002000C
:1056580020403FC0040004003FC0204020402040BC
:105668003FC02040204000000060202020203FC094
:105678002000200020403FC024400B0030C02040C4
:1056880020403FC020400040004000C03FC03C00D8
:1056980003C03C003FC0000020403FC00C40230036
:1056A8003FC020001F802040204020401F80000075
:1056B80020403FC024402400180000001F802140E3
:1056C800214020E01FA0000020403FC024402600C9
:1056D80019C0004018C024402440224031800000F6
:1056E800300020403FC020403000000020003F80B4
:1056F800004000403F80200020003E0001C007001D
:1057080038002000380007C03C0007C038000000FF
:10571800204039C0060039C0204000002000384031
:1057280007C0384020000000304021C026403840E3
:1057380020C00000000000007FE040204020000062
:10574800000070000C0003800040000000004020B2
:1057580040207FE000000000000020004000200002
:1057680000000000001000100010001000100010D1
:10577800000000004000000000000000000002805F
:105788000540054003C0004020003FC004400440DD
:10579800038000000000038004400440064000002D
:1057A80000000380044024403FC000400000038004
:1057B8000540054003400000000004401FC024408D
:1057C80024402000000002E0055005500650042047
:1057D80020403FC00440040003C0004000000440D3
:1057E80027C000400000000000100010041027E04F
:1057F8000000000020403FC00140070004C00440F2
:10580800204020403FC000400040000007C0040086
:1058180007C0040003C00000044007C0044004009F
:1058280003C00040000003800440044003800000DF
:10583800041007F0045004400380000000000380B7
:105848000440045007F00010044007C00240040060
:1058580004000000000006400540054004C00000A8
:10586800000004001F80044000400000040007807E
:105878000040044007C000400400070004C0018045
:1058880006000400060001C0070001C00600000071
:10589800044006C0010006C00440000004100710C0
:1058A80004E00180060004000000044005C0064032
:1058B800044000000000000004007BE040200000DD
:1058C800000000000000FFF0000000000000402081
:1058D8007BE0040000000000400080004000200041
:1058E8002000400000000000000000000000000050
:1058F800000000000000000000001FCC000C0000A9
:1059080000000000000008003000600008003000BF
:1059180060000000022003FC1E20022003FC1E2061
:105928000220000000000E1811043FFF10840C78BC
:10593800000000000F0010840F3800C0077818849A
:105948000078000000780F8410C411240E9800E439
:1059580000840008080068007000000000000000D3
:105968000000000000000000000007E018182004F4
:1059780040020000000040022004181807E0000060
:10598800000000000240024001800FF00180024048
:10599800024000000080008000800FF80080008036
:1059A800008000000001000D000E00000000000053
:1059B800000000000000008000800080008000805F
:1059C800008000800000000C000C000000000000B7
:1059D80000000000000000060018006001800600BA
:1059E80018002000000007F0080810041004080838
:1059F80007F000000000080408041FFC000400046D
:105A08000000000000000E0C101410241044118433
:105A18000E0C000000000C18100411041104128868
:105A28000C700000000000E00320042408241FFC80
:105A38000024000000001F9810841104110410882D
:105A480010700000000007F008881104110418887D
:105A58000070000000001C00100010FC13001C0067
:105A68001000000000000E38114410841084114406
:105A78000E38000000000700088C10441044088805
:105A880007F00000000000000000030C030C0000F9
:105A980000000000000000000001010600000000F6
:105AA80000000000000000800140022004100808E7
:105AB80010040000022002200220022002200220FE
:105AC8000220000000001004080804100220014011
