:020000040800F2
:1000000000000220D5420008D5410008DB4100086D
:10001000E1410008E7410008ED4100080000000050
:10002000000000000000000000000000A1B3000874
:10003000F341000800000000F1B50008014200088B
:1000400025430008254300082543000825430008F0
:1000500025430008254300082543000825430008E0
:1000600025430008254300082543000825430008D0
:100070001D420008254300082543000825430008C9
:1000800025430008254300082543000825430008B0
:1000900025430008254300082543000825430008A0
:1000A0002543000825430008254300082543000890
:1000B0002543000825430008254300082543000880
:1000C0002543000825430008254300082543000870
:1000D0002543000825430008254300083142000855
:1000E0002543000825430008254300082543000850
:1000F0002543000825430008254300082543000840
:10010000254300082543000825430008254300082F
:10011000254300082543000825430008254300081F
:10012000254300082543000825430008254300080F
:1001300025430008254300082543000825430008FF
:1001400025430008254300082543000825430008EF
:1001500025430008254300082543000825430008DF
:1001600025430008254300082543000825430008CF
:10017000254300082543000825430008000000002F
:08018000254300082543000897
:1001900010B5054C237833B9044B13B10448AFF3C1
:1001A00000800123237010BD980000200000000093
:1001B000DCD5000808B5034B1BB103490348AFF376
:1001C000008008BD000000009C000020DCD5000875
:1001D000034613F8012B002AFBD1181A0138704787
:1001E00001F0FF01102A2BDB10F0070F08D010F8E8
:1001F000013B013A8B422DD010F0070F42B3F6D1EC
:10020000F0B441EA012141EA014122F007047FF004
:1002100000070023F0E80256083C85EA010586EA5B
:10022000010685FA47F5A3FA87F586FA47F6A5FA97
:1002300087F68EB9EED1F0BC01F0FF0102F00702A3
:1002400032B110F8013B013A83EA010313B1F8D14E
:100250000020704701387047002D06BF354603382F
:10026000073815F0010F07D1013015F4807F02BF68
:10027000013015F4C03F0130F0BC0138704700BFB9
:1002800081F0004102E000BF83F0004330B54FEA47
:1002900041044FEA430594EA050F08BF90EA020FB4
:1002A0001FBF54EA000C55EA020C7FEA645C7FEA47
:1002B000655C00F0E2804FEA5454D4EB5555B8BF6A
:1002C0006D420CDD2C4480EA020281EA030382EADB
:1002D000000083EA010180EA020281EA0303362D6D
:1002E00088BF30BD11F0004F4FEA01314FF4801C40
:1002F0004CEA113102D0404261EB410113F0004F52
:100300004FEA03334CEA133302D0524263EB430308
:1003100094EA050F00F0A780A4F10104D5F1200EA6
:100320000DDB02FA0EFC22FA05F2801841F1000101
:1003300003FA0EF2801843FA05F359410EE0A5F1D5
:1003400020050EF1200E012A03FA0EFC28BF4CF006
:10035000020C43FA05F3C01851EBE37101F00045BC
:1003600007D54FF0000EDCF1000C7EEB00006EEBC9
:100370000101B1F5801F1BD3B1F5001F0CD3490853
:100380005FEA30004FEA3C0C04F101044FEA4452AA
:1003900012F5800F80F09A80BCF1004F08BF5FEA31
:1003A000500C50F1000041EB045141EA050130BD11
:1003B0005FEA4C0C404141EB0101013C28BFB1F523
:1003C000801FE9D291F0000F04BF01460020B1FA6E
:1003D00081F308BF2033A3F10B03B3F120020CDA41
:1003E0000C3208DD02F1140CC2F10C0201FA0CF01F
:1003F00021FA02F10CE002F11402D8BFC2F1200C84
:1004000001FA02F120FA0CFCDCBF41EA0C01904039
:10041000E41AA2BF01EB0451294330BD6FEA040482
:100420001F3C1CDA0C340EDC04F11404C4F120026D
:1004300020FA04F001FA02F340EA030021FA04F37F
:1004400045EA030130BDC4F10C04C4F1200220FAD6
:1004500002F001FA04F340EA0300294630BD21FA14
:1004600004F0294630BD94F0000F83F4801306BFDA
:1004700081F480110134013D4EE77FEA645C18BFCE
:100480007FEA655C29D094EA050F08BF90EA020F65
:1004900005D054EA000C04BF1946104630BD91EA5D
:1004A000030F1EBF0021002030BD5FEA545C05D160
:1004B0004000494128BF41F0004130BD14F580049F
:1004C0003CBF01F5801130BD01F0004545F0FE4113
:1004D00041F470014FF0000030BD7FEA645C1ABF48
:1004E000194610467FEA655C1CBF0B46024650EA7F
:1004F000013406BF52EA033591EA030F41F40021AB
:1005000030BD00BF90F0000F04BF0021704730B530
:100510004FF4806404F132044FF000054FF0000105
:1005200050E700BF90F0000F04BF0021704730B5C6
:100530004FF4806404F1320410F0004548BF40429B
:100540004FF000013EE700BF42004FEAE2014FEAF0
:1005500031014FEA02701FBF12F07F4393F07F4FCB
:1005600081F06051704732F07F4208BF704793F0CE
:100570007F4F04BF41F40021704730B54FF46074E1
:1005800001F0004521F000411CE700BF50EA0102E4
:1005900008BF704730B54FF000050AE050EA01028D
:1005A00008BF704730B511F0004502D5404261EBFD
:1005B00041014FF4806404F132045FEA915C3FF43E
:1005C000D8AE4FF003025FEADC0C18BF03325FEADB
:1005D000DC0C18BF033202EBDC02C2F1200300FA8C
:1005E00003FC20FA02F001FA03FE40EA0E0021FAB1
:1005F00002F11444BDE600BF70B54FF0FF0C4CF49F
:10060000E06C1CEA11541DBF1CEA135594EA0C0F50
:1006100095EA0C0F00F0DEF82C4481EA030621EA8B
:100620004C5123EA4C5350EA013518BF52EA0335C6
:1006300041F4801143F4801338D0A0FB02CE4FF078
:100640000005E1FB02E506F00042E0FB03E54FF0A8
:100650000006E1FB03569CF0000F18BF4EF0010EA0
:10066000A4F1FF04B6F5007F64F5407404D25FEA9C
:100670004E0E6D4146EB060642EAC62141EA55514F
:100680004FEAC52040EA5E504FEACE2EB4F1FD0C91
:1006900088BFBCF5E06F1ED8BEF1004F08BF5FEA0F
:1006A000500E50F1000041EB045170BD06F00046C1
:1006B00046EA010140EA020081EA0301B4EB5C046E
:1006C000C2BFD4EB0C0541EA045170BD41F4801166
:1006D0004FF0000E013C00F3AB8014F1360FDEBF8B
:1006E000002001F0004170BDC4F10004203C35DA67
:1006F0000C341BDC04F11404C4F1200500FA05F3EA
:1007000020FA04F001FA05F240EA020001F000428A
:1007100021F0004110EBD37021FA04F642EB060100
:100720005EEA430E08BF20EAD37070BDC4F10C042A
:10073000C4F1200500FA04F320FA05F001FA04F2EE
:1007400040EA020001F0004110EBD37041F10001DA
:100750005EEA430E08BF20EAD37070BDC4F12005E5
:1007600000FA05F24EEA020E20FA04F301FA05F24D
:1007700043EA020321FA04F001F0004121FA04F2F5
:1007800020EA020000EBD3705EEA430E08BF20EAC5
:10079000D37070BD94F0000F0FD101F000464000FF
:1007A00041EB010111F4801F08BF013CF7D041EA81
:1007B000060195F0000F18BF704703F00046520085
:1007C00043EB030313F4801F08BF013DF7D043EA56
:1007D0000603704794EA0C0F0CEA135518BF95EA0C
:1007E0000C0F0CD050EA410618BF52EA4306D1D193
:1007F00081EA030101F000414FF0000070BD50EAB2
:10080000410606BF1046194652EA430619D094EA3B
:100810000C0F02D150EA013613D195EA0C0F05D125
:1008200052EA03361CBF104619460AD181EA030179
:1008300001F0004141F0FE4141F470014FF0000031
:1008400070BD41F0FE4141F4780170BD70B54FF0CC
:10085000FF0C4CF4E06C1CEA11541DBF1CEA13554C
:1008600094EA0C0F95EA0C0F00F0A7F8A4EB05042E
:1008700081EA030E52EA03354FEA013100F0888025
:100880004FEA03334FF0805545EA131343EA1263EE
:100890004FEA022245EA111545EA10654FEA0026A3
:1008A0000EF000419D4208BF964244F1FD0404F55C
:1008B000407402D25B084FEA3202B61A65EB0305B8
:1008C0005B084FEA32024FF480104FF4002CB6EB75
:1008D000020E75EB030E22BFB61A754640EA0C00F5
:1008E0005B084FEA3202B6EB020E75EB030E22BF35
:1008F000B61A754640EA5C005B084FEA3202B6EB76
:10090000020E75EB030E22BFB61A754640EA9C0034
:100910005B084FEA3202B6EB020E75EB030E22BF04
:10092000B61A754640EADC0055EA060E18D04FEAC2
:10093000051545EA16754FEA06164FEAC30343EA62
:1009400052734FEAC2025FEA1C1CC0D111F4801F2F
:100950000BD141EA00014FF000004FF0004CB6E728
:1009600011F4801F04BF01430020B4F1FD0C88BFC7
:10097000BCF5E06F3FF6AFAEB5EB030C04BFB6EBD2
:10098000020C5FEA500C50F1000041EB045170BDC5
:100990000EF0004E4EEA113114EB5C04C2BFD4EBF2
:1009A0000C0541EA045170BD41F480114FF0000E76
:1009B000013C90E645EA060E8DE60CEA135594EAF2
:1009C0000C0F08BF95EA0C0F3FF43BAF94EA0C0FF5
:1009D0000AD150EA01347FF434AF95EA0C0F7FF46A
:1009E00025AF104619462CE795EA0C0F06D152EABE
:1009F00003353FF4FDAE1046194622E750EA4106A2
:100A000018BF52EA43067FF4C5AE50EA41047FF4B2
:100A10000DAF52EA43057FF4EBAE12E74FF0FF3C17
:100A200006E000BF4FF0010C02E000BF4FF0010CE8
:100A30004DF804CD4FEA410C7FEA6C5C4FEA430C61
:100A400018BF7FEA6C5C1BD001B050EA410C0CBFB0
:100A500052EA430C91EA030F02BF90EA020F002012
:100A6000704710F1000F91EA030F58BF994208BF79
:100A700090422CBFD8176FEAE37040F00100704736
:100A80004FEA410C7FEA6C5C02D150EA013C07D18D
:100A90004FEA430C7FEA6C5CD6D152EA033CD3D0D8
:100AA0005DF8040B704700BF8446104662468C46D2
:100AB0001946634600E000BF01B5FFF7B7FF002805
:100AC00048BF10F1000F01BD4DF808EDFFF7F4FF2E
:100AD0000CBF012000205DF808FB00BF4DF808EDB9
:100AE000FFF7EAFF34BF012000205DF808FB00BFDC
:100AF0004DF808EDFFF7E0FF94BF012000205DF8FE
:100B000008FB00BF4DF808EDFFF7CEFF94BF0120B2
:100B100000205DF808FB00BF4DF808EDFFF7C4FFAB
:100B200034BF012000205DF808FB00BF4FEA4102FE
:100B300012F5001215D211D56FF47873B3EB62522F
:100B400012D94FEAC12343F0004343EA505311F056
:100B5000004F23FA02F018BF404270474FF00000E8
:100B6000704750EA013005D111F0004008BF6FF026
:100B7000004070474FF00000704700BF4A0011D29C
:100B800012F5001211D20DD56FF47873B3EB6252E7
:100B90000ED44FEAC12343F0004343EA505323FAF3
:100BA00002F070474FF00000704750EA013002D168
:100BB0004FF0FF3070474FF0000070474FEA41029E
:100BC000B2F1E04324BFB3F5001CDCF1FE5C0DD9AB
:100BD00001F0004C4FEAC0024CEA5070B2F1004FF5
:100BE00040EB830008BF20F00100704711F0804FF8
:100BF00021D113F13872BCBF01F00040704741F4BD
:100C000080114FEA5252C2F11802C2F1200C10FAC0
:100C10000CF320FA02F018BF40F001004FEAC123A4
:100C20004FEAD32303FA0CFC40EA0C0023FA02F348
:100C30004FEA4303CCE77FEA625307D150EA01331E
:100C40001EBF4FF0FE4040F44000704701F00040EE
:100C500040F0FE4040F40000704700BF53B94AB96D
:100C6000002908BF00281CBF4FF0FF314FF0FF30B4
:100C700000F074B9ADF1080C6DE904CE00F006F88F
:100C8000DDF804E0DDE9022304B070472DE9F04708
:100C9000089D04468E46002B4DD18A42944669D960
:100CA000B2FA82F252B101FA02F3C2F1200120FA43
:100CB00001F10CFA02FC41EA030E94404FEA1C4891
:100CC000210CBEFBF8F61FFA8CF708FB16E341EA8D
:100CD000034306FB07F199420AD91CEB030306F113
:100CE000FF3080F01F81994240F21C81023E634434
:100CF0005B1AA4B2B3FBF8F008FB103344EA0344D8
:100D000000FB07F7A7420AD91CEB040400F1FF33EC
:100D100080F00A81A74240F207816444023840EA29
:100D20000640E41B00261DB1D4400023C5E9004362
:100D30003146BDE8F0878B4209D9002D00F0EF80E5
:100D40000026C5E9000130463146BDE8F087B3FA18
:100D500083F6002E4AD18B4202D3824200F2F98000
:100D6000841A61EB030301209E46002DE0D0C5E903
:100D7000004EDDE702B9FFDEB2FA82F2002A40F04F
:100D80009280A1EB0C014FEA1C471FFA8CFE012652
:100D9000200CB1FBF7F307FB131140EA01410EFBF6
:100DA00003F0884208D91CEB010103F1FF3802D29D
:100DB000884200F2CB804346091AA4B2B1FBF7F097
:100DC00007FB101144EA01440EFB00FEA64508D9BA
:100DD0001CEB040400F1FF3102D2A64500F2BB80F7
:100DE0000846A4EB0E0440EA03409CE7C6F1200746
:100DF000B34022FA07FC4CEA030C20FA07F401FA8C
:100E000006F31C43F9404FEA1C4900FA06F3B1FB14
:100E1000F9F8200C1FFA8CFE09FB181140EA014179
:100E200008FB0EF0884202FA06F20BD91CEB010116
:100E300008F1FF3A80F08880884240F28580A8F16E
:100E400002086144091AA4B2B1FBF9F009FB1011C0
:100E500044EA014100FB0EFE8E4508D91CEB01015E
:100E600000F1FF346CD28E456AD90238614440EA01
:100E70000840A0FB0294A1EB0E01A142C846A64681
:100E800056D353D05DB1B3EB080261EB0E0101FA0A
:100E900007F722FA06F3F1401F43C5E90071002667
:100EA0003146BDE8F087C2F12003D8400CFA02FCBD
:100EB00021FA03F3914001434FEA1C471FFA8CFECD
:100EC000B3FBF7F007FB10360B0C43EA064300FBBD
:100ED0000EF69E4204FA02F408D91CEB030300F15B
:100EE000FF382FD29E422DD9023863449B1B89B212
:100EF000B3FBF7F607FB163341EA034106FB0EF39B
:100F00008B4208D91CEB010106F1FF3816D28B4247
:100F100014D9023E6144C91A46EA004638E72E4613
:100F2000284605E70646E3E61846F8E64B45A9D20B
:100F3000B9EB020864EB0C0E0138A3E74646EAE77A
:100F4000204694E74046D1E7D0467BE7023B614428
:100F500032E7304609E76444023842E7704700BF91
:100F6000B0B58CB000AFF860B9607A60AD4B07F1F6
:100F700018041D460FCD0FC42B68237007F12903F9
:100F800000221A809A70FB68BA681A60FB687A6857
:100F90005A6000227F21F86800F0BAF903461A4629
:100FA000A14B1A70A04B1B78002B07D007F1180338
:100FB0009E4A07CA03C31A8000239AE1002107F161
:100FC00017031A46F86800F0C3F903461A46964B11
:100FD0001A70954B1B78002B07D007F11803944A21
:100FE00007CA03C31A80002383E1FB7D1A4607F179
:100FF0002C03904918460AF0E9FD07F12C0207F18D
:101000001803114618460AF001FE3B7E203BDBB276
:1010100087F824307B7E203BDBB287F825300D2318
:1010200087F826300A2387F82730002387F82830EE
:101030000D233B760A237B764923BB76FB685C68ED
:1010400007F118031846FFF7C3F803469AB207F1F1
:1010500018014FF0FF33204606F091FD00227F215A
:10106000F86800F055F903461A466F4B1A706E4B3C
:101070001B78002B07D007F118036F4A07CA03C378
:101080001A80002335E1F1220621F86800F040F9CA
:1010900003461A46644B1A70634B1B78002B0AD028
:1010A00007F11803654A07CA03C31A800233120CFA
:1010B0001A7000231DE10A2003F0A8F9012206217D
:1010C000F86800F025F903461A46574B1A70564B3C
:1010D0001B78002B0AD007F11803594A07CA03C32B
:1010E0001A800233120C1A70002302E10A2003F066
:1010F0008DF93F220721F86800F00AF903461A46E5
:10110000494B1A70484B1B78002B0AD007F1180383
:101110004C4A07CA03C31A800233120C1A70002308
:10112000E7E00A2003F072F900220721F86800F0D6
:10113000EFF803461A463C4B1A703B4B1B78002BCA
:101140000AD007F11803404A07CA03C31A800233C2
:10115000120C1A700023CCE001221021F86800F074
:10116000D7F803461A46304B1A7020227F21F868C0
:1011700000F0CEF803461A462B4B1A702A4B1B7808
:10118000002B07D007F11803304A07CA03C31A809F
:101190000023AEE004220021F86800F0B9F803460D
:1011A0001A46214B1A70204B1B78002B07D007F1F1
:1011B0001803274A07CA03C31A80002399E0332281
:1011C0000121F86800F0A4F803461A46164B1A707D
:1011D000154B1B78002B07D007F118031D4A07CACF
:1011E00003C31A80002384E007221121F86800F06D
:1011F0008FF803461A460C4B1A7000221021F8682B
:1012000000F086F803461A46074B1A70064B1B7807
:10121000002B23D007F118030F4A07CA03C31A8013
:10122000002366E098D60008B4000020F8D5000836
:1012300004D6000810D6000814D6000820D60008EE
:101240002CD6000838D6000844D6000850D600082E
:101250005CD6000868D6000874D600083122142134
:10126000F86800F055F803461A46244B1A70234BD1
:101270001B78002B0AD007F11803214A07CA03C3C1
:101280001A800233120C1A70002332E0002253211C
:10129000F86800F03DF800227F21F86800F038F887
:1012A00003461A46154B1A70144B1B78002B0AD0B4
:1012B00007F11803134A07CA03C31A800233120C3A
:1012C0001A70002315E0642003F0A0F80E4B0022F2
:1012D0001A600D4B00225A600B4B00229A600B4B98
:1012E00000221A60094B00225A60084B00229A60C3
:1012F000002318463037BD46B0BD00BFB400002003
:1013000080D600088CD60008BC000020C800002051
:1013100080B588B004AF78600B46FB701346BB7095
:10132000BB78FB737B681868D02399B2FB789AB2BC
:101330004FF0FF3302930123019307F10F03009352
:10134000012304F0C7F8034618461037BD4680BD98
:1013500080B588B004AFF8600B467A60FB72FB681A
:101360001868D02399B2FB7A9AB24FF0FF330293F8
:10137000012301937B680093012304F0A5F9034640
:101380001A46044B1A70034B1B7818461037BD469B
:1013900080BD00BFB4000020B0B58CB000AF786055
:1013A0000023BB810023FB610023BB6107F10C0319
:1013B0001A4638217868FFF7CBFF03461A467C4B64
:1013C0001A7007F10C0301331A4637217868FFF7CA
:1013D000BFFF03461A46764B1A70764B1B68002BEC
:1013E00007D109F019F803461A46724B1A60002318
:1013F0001BE109F011F803467B616E4B1B687A69AB
:10140000D31A3B616B4A7B6913607B7B1A023B7B7F
:101410001946694BB3F90430CB1A1343FB61FB69DE
:10142000B3F5004F04DAFB69BB620023FB6206E000
:101430000023BB62FB69C3F57F43FF33FB625F4B55
:101440005B685E4A93605E4B5B685D4A93605B4B92
:101450001B685A4A53605A4B1B68594A5360BB6A0F
:10146000564A1360FB6A564A1360544B5A68534BF2
:101470001B689A4209DC514B5A68504B9B689A4250
:1014800003DB4E4B5B683B6242E04C4B5A684B4B74
:101490009B689A4209DC494B5A68484B1B689A4240
:1014A00003DB464B5B683B6232E0444B1A68434BBC
:1014B0009B689A4209DC414B1A68404B5B689A4230
:1014C00003DB3E4B1B683B6222E03C4B1A683B4B04
:1014D0009B689A4209DC394B1A68384B5B689A4220
:1014E00003DB364B1B683B6212E0344B9A68334B8C
:1014F0001B689A4209DC314B9A68304B5B689A4210
:1015000003DB2E4B9B683B6202E02C4B9B683B62EB
:101510002B4B5A682A4B1B689A4209DC284B5A68A5
:10152000274B9B689A4203DB254B5B687B624CE050
:10153000234B5A68224B9B689A4209DC204B5A681D
:101540001F4B1B689A4203DB1D4B5B687B623CE0D0
:101550001B4B1A681A4B9B689A4209DC184B1A6895
:10156000174B5B689A4203DB154B1B687B622CE0D0
:10157000134B1A68124B9B689A4209DC104B1A688D
:101580000F4B5B689A4203DB0D4B1B687B621CE0D0
:101590000B4B9A680A4B1B689A4213DC084B9A68FB
:1015A000074B5B689A420DDB054B9B687B620CE046
:1015B000B4000020B8000020D4000020C8000020A3
:1015C000BC0000201B4B9B687B627A6A3B6AD21A84
:1015D000194B1B68D31A1846FEF7A4FF4FF0000200
:1015E000164BFFF709F802460B4614461D463869AC
:1015F000FEF788FF02460B4620462946FEF7FCFF11
:1016000002460B46104619464FF000020C4BFFF7FE
:101610001DF902460B4610461946FFF7CFFA02465F
:101620007B68DA617A6A3B6AD31A18463037BD465E
:10163000B0BD00BFBC000020DC00002000408F3F98
:1016400000408F4080B586B000AFF86087ED000B9A
:1016500000237B6100237B820CE0F868FFF79CFE8F
:1016600097ED000B07F071FDB7F912309BB2013313
:101670009BB27B82B7F91230B3F5007FEDDB00231C
:101680007B8210E0F868FFF787FE02467B6913440F
:101690007B6197ED000B07F058FDB7F912309BB254
:1016A00001339BB27B82B7F91230B3F5006FE9DBEF
:1016B0007B69DB12024A136000BF1837BD4680BD4C
:1016C000DC00002080B500AF02F02EFE2B4B642220
:1016D0001A702A4B57225A70284B30229A70274B87
:1016E0003922DA70254B30221A7100F065F800F0CB
:1016F00027FB00F005FB00F02FFA00F085F900F061
:10170000E7F800F0D3FA00F0D3F900F0B3F801F0F5
:10171000A3FF1B4BDB681A4A43F08073D360194B5D
:1017200000225A60174B1B68164A43F001031360EE
:1017300007F014FC144A0021144807F059FC034632
:10174000134A1360134A0021134807F051FC034663
:10175000124A1360124A0021124807F049FC03465E
:10176000114A1360114A0021114807F041FC034659
:10177000104A136007F016FCFEE700BF08030020C4
:10178000F0ED00E0001000E034D70008651E00080E
:10179000F802002058D70008A91E0008FC0200200B
:1017A0007CD70008F91E000800030020A0D700081D
:1017B000A12F00080403002080B594B000AF07F10A
:1017C00020033022002118460AF0F8F907F10C0333
:1017D00000221A605A609A60DA601A610023BB60C6
:1017E000224B1B6C214A43F0805313641F4B1B6C2C
:1017F00003F08053BB60BB6800237B601C4B1B68FD
:101800001B4A43F480431360194B1B6803F4804365
:101810007B607B6802233B620123FB6210233B63F6
:101820000023BB6307F12003184604F0F7FC0346CE
:10183000002B01D001F064FD0F23FB6000233B610E
:1018400000237B610023BB610023FB6107F10C03D4
:101850000021184604F05AFF0346002B01D001F086
:101860004FFD00BF5037BD4680BD00BF003802406D
:101870000070004080B500AF124B134A1A60114B44
:10188000124A5A600F4B00229A600E4B0022DA6017
:101890000C4B4FF480421A610A4B00225A61094BEB
:1018A00000229A61074B0022DA61064B00221A627D
:1018B000044803F0CBFC0346002B01D001F020FDCF
:1018C00000BF80BDE000002000540040A086010061
:1018D00080B596B000AF07F1480300221A605A6045
:1018E0009A60DA6007F1400300221A605A6007F13B
:1018F000240300221A605A609A60DA601A615A6101
:101900009A613B1D2022002118460AF057F93C4BF2
:101910003C4A1A603A4BA0225A60394B00229A6026
:10192000374B4FF47A72DA60354B00221A61344B30
:1019300000225A61324B00229A61314805F0C6F804
:101940000346002B01D001F0DBFC4FF48053BB6455
:1019500007F1480319462A4805F01EFC0346002BF0
:1019600001D001F0CDFC264805F0FFF80346002B1E
:1019700001D001F0C5FC00233B6400237B6407F128
:10198000400319461E4805F0DFFF0346002B01D037
:1019900001F0B6FC60237B620023BB620023FB6284
:1019A00000237B630023BB630023FB6307F1240355
:1019B0000C221946124805F02DFB0346002B01D0DE
:1019C00001F09EFC00237B600023BB600023FB60D2
:1019D00000233B6100237B614FF40053BB61002374
:1019E0003B623B1D1946064806F02AF80346002BC9
:1019F00001D001F085FC00BF5837BD4680BD00BF57
:101A0000340100200000014080B58CB000AF07F128
:101A10000C032422002118460AF0D0F83B1D0022B6
:101A20001A605A60214B4FF080421A601F4B00220F
:101A30005A601E4B00229A601C4B4FF6FF72DA6010
:101A40001A4B00221A61194B00229A610323FB6092
:101A500000233B6101237B610023BB610A23FB61FF
:101A600000233B6201237B620023BB620A23FB62EB
:101A700007F10C0319460D4805F098F90346002BB1
:101A800001D001F03DFC00237B600023BB603B1DC7
:101A90001946064805F058FF0346002B01D001F017
:101AA0002FFC00BF3037BD4680BD00BF7C01002049
:101AB00080B58CB000AF07F10C032422002118463A
:101AC0000AF07CF83B1D00221A605A60204B214A24
:101AD0001A601F4B00225A601D4B00229A601C4B5B
:101AE0004FF6FF72DA601A4B00221A61184B00227F
:101AF0009A610323FB6000233B6101237B61002388
:101B0000BB610A23FB6100233B6201237B6200234C
:101B1000BB620A23FB6207F10C0319460C4805F06F
:101B200045F90346002B01D001F0EAFB00237B605E
:101B30000023BB603B1D1946054805F005FF034621
:101B4000002B01D001F0DCFB00BF3037BD4680BD6B
:101B5000C40100200004004080B596B000AF07F13A
:101B6000480300221A605A609A60DA6007F1400365
:101B700000221A605A6007F1240300221A605A609A
:101B80009A60DA601A615A619A613B1D2022002135
:101B900018460AF013F8434B434A1A60414B00229F
:101BA0005A60404B00229A603E4B41F61F42DA6079
:101BB0003C4B00221A613B4B00225A61394B0022F8
:101BC0009A61384804F082FF0346002B01D001F0EF
:101BD00097FB4FF48053BB6407F148031946314823
:101BE00005F0DAFA0346002B01D001F089FB2D48FD
:101BF00004F0BBFF0346002B01D001F081FB002362
:101C00003B6400237B6407F140031946254805F037
:101C10009BFE0346002B01D001F072FB60237B6228
:101C20000023BB620023FB6200233B6300237B6332
:101C30000023BB630023FB6307F124030022194642
:101C4000184805F0E7F90346002B01D001F058FBD6
:101C500007F1240304221946124805F0DBF9034674
:101C6000002B01D001F04CFB00237B600023BB6004
:101C70000023FB6000233B6100237B614FF4005392
:101C8000BB6100233B623B1D1946064805F0D8FEA8
:101C90000346002B01D001F033FB00BF5837BD468F
:101CA00080BD00BF0C0200200004014080B500AFE1
:101CB000114B124A1A60104B4FF4E1325A600E4B2E
:101CC00000229A600C4B0022DA600B4B00221A6152
:101CD000094B0C225A61084B00229A61064B0022E4
:101CE000DA61054805F0FEFE0346002B01D001F045
:101CF00007FB00BF80BD00BF540200200048004029
:101D000080B582B000AF00237B600C4B1B6B0B4A8D
:101D100043F400131363094B1B6B03F400137B6044
:101D20007B68002205210C2002F06FFC0C2002F0E1
:101D300088FC00BF0837BD4680BD00BF00380240A8
:101D400080B58AB000AF07F1140300221A605A6010
:101D50009A60DA601A6100233B613E4B1B6B3D4A7F
:101D600043F0100313633B4B1B6B03F010033B6109
:101D70003B690023FB60374B1B6B364A43F0010382
:101D80001363344B1B6B03F00103FB60FB68002300
:101D9000BB60304B1B6B2F4A43F0080313632D4B82
:101DA0001B6B03F00803BB60BB6800237B60294BFF
:101DB0001B6B284A43F004031363264B1B6B03F091
:101DC00004037B607B6800233B60224B1B6B214A32
:101DD00043F0020313631F4B1B6B03F002033B60D2
:101DE0003B6800224FF4BC611B4803F0FBF9002262
:101DF0003C211A4803F0F6F94FF4BC637B610123E0
:101E0000BB610023FB6100233B6207F11403194609
:101E1000114803F033F83C237B610123BB610023AD
:101E2000FB6100233B6207F1140319460B4803F0E2
:101E300025F84FF480737B610023BB610023FB61B5
:101E400007F114031946064803F018F800BF2837B5
:101E5000BD4680BD00380240001002400000024034
:101E6000000C024080B588B000AF786007F10C0329
:101E70000A4A0B49184609F0A9FE07F10C031A4655
:101E800014210A2001F0B6FB4FF48061054803F0ED
:101E9000C2F9012007F03EF9E8E700BF080300207F
:101EA000D8D600080010024080B588B000AF786036
:101EB0000F4A07F10C0307CA03C31A7007F1150391
:101EC00000221A605A60C3F8072007F10C03094981
:101ED000184609F07BFE07F10C031A460A210A2076
:101EE00001F088FB01F05CFA012007F013F9ECE740
:101EF000E8D60008E0D600082DE9F04F2DED028B62
:101F00009FB002AF78600021974804F087FE04215B
:101F1000954804F083FE0C21944804F07FFE02E013
:101F2000642007F0F7F8924B1B78002BF8D08F4B0A
:101F30001B6894221A64002387F86F304FF0000268
:101F40004FF00003C7E918234FF000024FF00003E1
:101F5000C7E916234FF000024FF00003C7E908233A
:101F60004FF000024FF00003C7E914234FF00002C6
:101F70004FF00003C7E912237E4BD3E9002310463C
:101F80001946FEF7D3FD03467B4A136005227B49C1
:101F90007B4805F086FE642007F0BCF8774B1B7881
:101FA000642BF8D0754B9B78303B9BB21A4692005D
:101FB00013441A4691001A460B4613449B009AB2EA
:101FC0006E4BDB78303B9BB2194689000B445B00BB
:101FD0009BB213449AB2694B1B799BB213449BB2D8
:101FE000303B9BB2A7F84630644B1B78462B03D19D
:101FF000624B5B784C2B07D0604B1B78422B18D17F
:102000005E4B5B78522B14D15B4B1A68B7F94630A4
:10201000D31A594A1360584B1B681846FEF782FAC8
:1020200002460B465749C1E90023012387F86F3068
:1020300032E0524B1B78462B03D1504B5B78522B2E
:1020400007D04E4B1B78422B18D14C4B5B784C2B56
:1020500014D1B7F94620484B1B681344464A136015
:10206000454B1B681846FEF75DFA02460B4645498C
:10207000C1E90023002387F86F300DE03F4B5B7808
:10208000572B09D13C4B1B681846FEF74BFA02460A
:102090000B463C49C1E90023384B5B784C2B04D1FB
:1020A000324B1B685B221A640CE0344B5B78522B7A
:1020B00004D12E4B1B68F0221A6403E02B4B1B68E3
:1020C00094221A6440F2262007F024F82B4B5B7808
:1020D000572B00F0BD8300230193012300939FED54
:1020E0001C2B9FED1D1B9FED1E0B264B264A2149E5
:1020F000264801F079FB0121244801F0ABFC0A21BC
:10210000224801F01BFE224BD3E900014FF00002F0
:10211000204BFEF7B9F802460B4643EC182B1C4B3C
:10212000D3E900234FF000001A49FEF7ADF802464C
:102130000B4643EC172BB0EE471AF0EE671AB0EEE1
:10214000480AF0EE680A114801F0A2FC3FE300BF24
:1021500000000000000000009A9999999999B93FF0
:102160001B2FDD240681953F0C0200203401002046
:10217000280300201803002010030020080300207B
:102180005402002018000020B8040020680300203A
:10219000080000200000F03F4FF48061BA4803F0CF
:1021A0003AF8BA4801F06CFB09F0C4F9B84B5B7817
:1021B0004C2B40F08381B74BD3E900014FF0000274
:1021C0004FF00003FEF78AFC0346002B00F0AE80C0
:1021D00000220421B04803F005F801220821AE488E
:1021E00003F000F800222021AB4802F0FBFF01229F
:1021F0001021A94802F0F6FF97F86F301846FEF755
:1022000081F902460B464FF00000A449FEF73CF866
:1022100002460B461046194602460B46FEF736F8B4
:1022200002460B46904699469D4BD3E900019D4BD3
:10223000D3E90023FEF728F802460B4640464946FC
:10224000FEF7DAF902460B46104619464FF0000237
:10225000954BFEF743FC0346002B28D0934B1B887D
:102260001846FEF74FF9924BD3E90023FEF7C4F965
:1022700002460B468F490E6810461946FEF77EFC53
:10228000034673638C4B1B881846FEF73BF9884B5B
:10229000D3E90023FEF7B0F902460B4685490E68E4
:1022A00010461946FEF76AFC0346B3638AE27F4B89
:1022B0001B881846FEF726F9804689467C4BD3E9F1
:1022C0000001744BD3E90023FDF7DEFF02460B4605
:1022D00040464946FEF790F902460B4675490E689E
:1022E00010461946FEF74AFC03467363724B1B887F
:1022F0001846FEF707F9804689466D4BD3E9000181
:10230000644BD3E90023FDF7BFFF02460B4640466E
:102310004946FEF771F902460B4666490E681046BB
:102320001946FEF72BFC0346B3634BE2002208215B
:10233000594802F057FF01220421574802F052FF8A
:1023400000221021544802F04DFF01222021524862
:1023500002F048FF97F86F301846FEF7D3F80246B0
:102360000B464FF000004D49FDF78EFF02460B462D
:102370001046194602460B46FDF788FF02460B46FB
:1023800090469946464BD3E90001464BD3E90023DA
:10239000FDF77AFF02460B4640464946FEF72CF908
:1023A00002460B46104619464FF000023E4BFEF720
:1023B00095FB0346002B28D03C4B1B881846FEF7A4
:1023C000A1F83B4BD3E90023FEF716F902460B4672
:1023D00038490E6810461946FEF7D0FB0346736372
:1023E000354B1B881846FEF78DF8314BD3E9002397
:1023F000FEF702F902460B462E490E6810461946B2
:10240000FEF7BCFB0346B363DCE1284B1B88184690
:10241000FEF778F8804689461E4BD3E90001244B2D
:10242000D3E90023FDF732FF02460B4640464946FA
:10243000FEF7E2F802460B461E490E6810461946A2
:10244000FEF79CFB034673631B4B1B881846FEF785
:1024500059F8804689460F4BD3E90001144BD3E964
:102460000023FDF713FF02460B4640464946FEF7A0
:10247000C3F802460B460F490E6810461946FEF790
:102480007DFB0346B3639DE100100240680300201A
:1024900008030020B8040020000002400000E03FD4
:1024A0001800002018030020000024400200002033
:1024B000080000200C02002004000020974B5B78ED
:1024C000522B40F07F81964BD3E900014FF0000280
:1024D0004FF00003FEF702FB0346002B00F0AE8036
:1024E000002208218F4802F07DFE012204218D4840
:1024F00002F078FE002210218A4802F073FE0122C9
:102500002021884802F06EFE97F86F301846FDF7DC
:10251000F9FF02460B464FF000008349FDF7B4FE79
:1025200002460B461046194602460B46FDF7AEFE24
:1025300002460B46904699467C4BD3E900017C4B02
:10254000D3E90023FDF7A0FE02460B46404649466C
:10255000FEF752F802460B46104619464FF00002AD
:10256000744BFEF7BBFA0346002B28D0724B1B8836
:102570001846FDF7C7FF714BD3E90023FEF73CF87F
:1025800002460B466E490E6810461946FEF7F6FAEB
:10259000034673636B4B1B881846FDF7B3FF674B0D
:1025A000D3E90023FEF728F802460B4664490E687B
:1025B00010461946FEF7E2FA0346B36302E15E4BAA
:1025C0001B881846FDF79EFF804689465B4BD3E982
:1025D0000001534BD3E90023FDF756FE02460B469C
:1025E00040464946FEF708F802460B4654490E6835
:1025F00010461946FEF7C2FA03467363514B1B8817
:102600001846FDF77FFF804689464C4BD3E9000111
:10261000434BD3E90023FDF737FE02460B46404605
:102620004946FDF7E9FF02460B4645490E6810464C
:102630001946FEF7A3FA0346B363C3E00022042160
:10264000384802F0CFFD01220821364802F0CAFDC9
:1026500000222021334802F0C5FD0122102131481B
:1026600002F0C0FD97F86F301846FDF74BFF0246A9
:102670000B464FF000002C49FDF706FE02460B46C4
:102680001046194602460B46FDF700FE02460B4671
:1026900090469946254BD3E90001254BD3E9002309
:1026A000FDF7F2FD02460B4640464946FDF7A4FF02
:1026B00002460B46104619464FF000021D4BFEF72E
:1026C0000DFA0346002B3FD01B4B1B881846FDF725
:1026D00019FF1A4BD3E90023FDF78EFF02460B4684
:1026E00017490E6810461946FEF748FA0346736309
:1026F000144B1B881846FDF705FF104BD3E9002348
:10270000FDF77AFF02460B460D490E681046194642
:10271000FEF734FA0346B36354E000BF0803002019
:10272000B8040020000002400000E03F1800002034
:1027300018030020000024400400002008000020AE
:102740000C02002002000020C54B1B881846FDF734
:10275000D9FE80468946C34BD3E90001C24BD3E979
:102760000023FDF793FD02460B4640464946FDF720
:1027700043FF02460B46BD490E6810461946FEF758
:10278000FDF903467363BA4B1B881846FDF7BAFE82
:1027900080468946B34BD3E90001B34BD3E900230C
:1027A000FDF774FD02460B4640464946FDF724FFFF
:1027B00002460B46AD490E6810461946FEF7DEF993
:1027C0000346B36308F0E6FE0A2006F0BEFC97F865
:1027D0006F301846FDF796FE02460B464FF000009C
:1027E000A449FDF751FD02460B4610461946024624
:1027F0000B46FDF74BFD02460B46904699469E4B15
:10280000D3E900019D4BD3E90023FDF73DFD0246CE
:102810000B4640464946FDF7EFFE02460B46104682
:1028200019464FF000024FF00003FEF775F903461A
:10283000002B7FF4B1AC08F07DFE8C4B1B680022AE
:102840005A638A4B1B6800229A6308F0A3FE81E357
:102850008B494FF000024FF00003C1E90023894B80
:1028600000221A60884B1B78462B2ED100220421AF
:10287000864802F0B7FC01220821844802F0B2FC2D
:1028800000222021814802F0ADFC012210217F4866
:1028900002F0A8FC012387F86F30B7F946301846DC
:1028A000FDF740FE4FF00002794BFDF7A5FE024612
:1028B0000B461046194660A3D3E90023FDF7C6FF77
:1028C00002460B46C7E9082338E06F4B1B78422BC2
:1028D00034D1002208216D4802F084FC0122042139
:1028E0006A4802F07FFC00221021684802F07AFC5E
:1028F00001222021654802F075FC002387F86F3023
:10290000B7F946301846FDF70DFE02460B46144651
:1029100083F000454FF000025D4B20462946FDF74D
:102920006BFE02460B461046194643A3D3E900232B
:10293000FDF78CFF02460B46C7E9082307F1200389
:1029400007F1280200210191012100919FED3C2B0C
:102950009FED3D1B9FED3E0B49494E4800F044FF63
:1029600001214C4801F076F80A214A4801F0E6F9C5
:102970003D4BD3E900014FF00002474BFDF784FCCB
:1029800002460B4643EC182B374BD3E900234FF09C
:1029900000004149FDF778FC02460B4643EC172B3B
:1029A000B0EE471AF0EE671AB0EE480AF0EE680A89
:1029B000384801F06DF839494FF000024FF000033C
:1029C000C1E900234FF000024FF00003C7E90223E2
:1029D00007F1080300220192012200929FED182BBB
:1029E0009FED1B1B9FED1C0B1E4A2C492C4800F031
:1029F000FBFE01212A4801F02DF80A21284801F0A8
:102A00009DF9284BD3E90023924683F0004B254BD8
:102A100093ED007BB0EE471AF0EE671A4BEC10AB6B
:102A20001F4801F035F8114B1B6800225A630F4B09
:102A30001B6800229A635CE20000000000A059407D
:102A40000000000000000000EC51B81E85EBB13F13
:102A50007B14AE47E17A943F9A9999999999A93F45
:102A600004000020B8040020080000200C02002010
:102A7000020000200000E03F1800002018030020A2
:102A80003003002040030020080300200000024023
:102A900000005940D80300200000F03F3803002018
:102AA0004804002010000020B34800F0E9FEB348BD
:102AB00000F0E6FEB24B1B78462B56D1B14BD3E962
:102AC0000001B14BD3E90023FDF7DEFB02460B46C4
:102AD000104619464FF00002AC4BFDF78DFD024643
:102AE0000B4610461946A2A3D3E90023FDF7CEFBFF
:102AF00002460B46A6490E6810461946FEF73EF8F8
:102B000003463364A34B1B881846FDF7FBFC804645
:102B10008946A14BD3E900014FF000029F4BFDF71E
:102B2000B5FB02460B4640464946FDF765FD0246A9
:102B30000B46C7E91823974B1B881846FDF7E2FCA4
:102B400080468946944BD3E900234FF00000934917
:102B5000FDF79AFB02460B4640464946FDF74CFD01
:102B600002460B46C7E9162359E0854B1B78422BDA
:102B700055D1854BD3E90001824BD3E90023FDF702
:102B800083FB02460B46104619464FF000027F4B6E
:102B9000FDF732FD02460B461046194674A3D3E9F1
:102BA0000023FDF773FB02460B4679490E68104679
:102BB0001946FDF7E3FF03463364764B1B8818463E
:102BC000FDF7A0FC80468946734BD3E900234FF004
:102BD00000007249FDF758FB02460B464046494645
:102BE000FDF70AFD02460B46C7E91823694B1B880F
:102BF0001846FDF787FC80468946674BD3E90001FC
:102C00004FF00002654BFDF741FB02460B46404684
:102C10004946FDF7F1FC02460B46C7E9162308F0CA
:102C200089FCD7E90A014FF000024FF00003FDF7DD
:102C300055FF0346002B00F0BF80002208215848B2
:102C400002F0D0FA01220421554802F0CBFA00220A
:102C50001021534802F0C6FA01222021504802F008
:102C6000C1FA97F86F301846FDF74CFC4FF00002A0
:102C70004C4BFDF709FB02460B461046194602462F
:102C80000B46FDF703FB02460B4690469946D7E9F3
:102C90000801454BD3E90023FDF7F6FA02460B463F
:102CA00040464946FDF7A8FC02460B461046194629
:102CB0004FF000023D4BFDF711FF0346002B22D0E1
:102CC0003B4BD3E90001D7E91823FDF795FC0246F9
:102CD0000B4638490E6810461946FDF74FFF03466C
:102CE0007363334BD3E90001D7E91623FDF784FC66
:102CF00002460B462F490E6810461946FDF73EFF67
:102D00000346B363F0E02A4BD3E90001D7E90A2375
:102D1000FDF7BAFA02460B4610461946D7E91823C2
:102D2000FDF76AFC02460B4622490E68104619461A
:102D3000FDF724FF034673631D4BD3E90001D7E978
:102D40000A23FDF7A1FA02460B4610461946D7E9B9
:102D50001623FDF751FC02460B4616490E68104635
:102D60001946FDF70BFF0346B363BDE0AFF30080E8
:102D7000CDCCCCCCCC8C6240D803002048040020C1
:102D8000080300201800002018030020000008405D
:102D90003401002000000020B80400200000F03FB3
:102DA000000002400000E03F30030020000024400B
:102DB000080000200C020020002204216F4802F0CD
:102DC00011FA012208216D4802F00CFA002220219C
:102DD0006A4802F007FA01221021684802F002FA5C
:102DE00097F86F301846FDF78DFB4FF00002644BEB
:102DF000FDF74AFA02460B461046194602460B46B4
:102E0000FDF744FA02460B4690469946D7E9080179
:102E10005C4BD3E90023FDF737FA02460B464046E8
:102E20004946FDF7E9FB02460B46104619464FF0AE
:102E30000002554BFDF752FE0346002B22D0534BA8
:102E4000D3E90001D7E91823FDF7D6FB02460B466C
:102E50004F490E6810461946FDF790FE034673630E
:102E60004A4BD3E90001D7E91623FDF7C5FB02461B
:102E70000B4647490E6810461946FDF77FFE03468C
:102E8000B36331E0414BD3E90001D7E90A23FDF7F1
:102E9000FDF902460B4610461946D7E91823FDF7FF
:102EA000ABFB02460B463A490E6810461946FDF741
:102EB00065FE03467363354BD3E90001D7E90A2366
:102EC000FDF7E4F902460B4610461946D7E91623EA
:102ED000FDF792FB02460B462D490E681046194637
:102EE000FDF74CFE0346B36308F054FB0A2006F0DE
:102EF0002CF997F86F301846FDF704FB4FF00002ED
:102F00001F4BFDF7C1F902460B4610461946024613
:102F10000B46FDF7BBF902460B4690469946D7E9AA
:102F20000801184BD3E90023FDF7AEF902460B4622
:102F300040464946FDF760FB02460B4610461946DF
:102F40004FF000024FF00003FDF7E6FD0346002BB3
:102F50007FF4AAAD0E4B1B6800225A630C4B1B6812
:102F600000229A630B4B64221A704FF0FF33022247
:102F700009490A4804F003FEFFF70DB800000240BB
:102F80000000E03F30030020000024400800002043
:102F90000C02002008030020FCD600085402002088
:102FA0002DE9B0438EB000AF7860454A45494648A8
:102FB000FDF7D6FFB86208F0BDFA07F114034349E4
:102FC000184608F003FE07F114031A461E210A20D2
:102FD00000F010FB4FF4FA6006F09CF89FED360B02
:102FE0003948FEF72FFB4FF4FA6006F093F808F02B
:102FF000D1FA374B01221A704FF0FF337B634FF049
:10300000FF333B630023FB623C21324803F074FF33
:1030100008F090FA2C48FEF7BFF908F0BBFA2A4BEB
:10302000DB691846FDF790FA2B4BD3E90023FDF737
:103030002DF902460B462849C1E90023264BD3E966
:1030400000232649C1E900237B6BB3F1FF3F03D086
:103050003B6BB3F1FF3F06D11E4B1B685B6A3B63C2
:103060003B6B7B63B3E03B6B7B631A4B1B685B6A18
:103070003B63184B1B681B6803F01003102B10D127
:103080003A6B7B6B9A4204DC7A6B3B6BD31AFB6224
:103090002DE03B6BC3F57F43FF337A6B1344FB6238
:1030A00025E03A6B7B6B9A421ADB7A6B3B6BD31A47
:1030B000FB621CE0AFF30080000000000000354020
:1030C00054020020E00000204403002000D7000844
:1030D000280300207C01002020030020180300208A
:1030E0003B6B03F57F43FF337A6BD31AFB62784B5C
:1030F0001B681846FDF716FA04460D46F86AFDF7F8
:1031000011FA80468946734BD3E90001724BD3E92B
:103110000023FDF7B9F802460B461046194666A390
:10312000D3E90023FDF768FA02460B4643EC172B60
:10313000B0EE470AF0EE670A09F0B2F953EC102B33
:1031400040464946FDF758FA02460B4620462946B6
:10315000FDF79CF802460B4610461946FDF7E6FCC3
:1031600003465B4A1360F86AFDF7DCF904460D4636
:10317000584BD3E90001584BD3E90023FDF784F8FD
:1031800002460B46104619464BA3D3E90023FDF730
:1031900033FA02460B4643EC172BB0EE470AF0EE2B
:1031A000670A09F0D1F953EC102B20462946FDF7A8
:1031B00023FA02460B4610461946484BD3E9002332
:1031C000FDF764F802460B464449C1E90023404B31
:1031D0001B681846FDF7A6F939A3D3E90023FDF7CC
:1031E0000BFA02460B463E49C1E90023394BD3E9AD
:1031F00000014FF000023B4BFDF7FEF902460B4683
:1032000007F11400384908F0E1FC07F114031A46ED
:103210001E210A2000F0EEF94FF48071334801F0CE
:10322000C9FF0346002B40D1294B00221A602C49CC
:103230004FF000024FF00003C1E900234FF0FF33CD
:103240007B634FF0FF333B630023FB6228494FF061
:1032500000024FF00003C1E900231E494FF00002B5
:103260004FF00003C1E90023224B00221A6008F04E
:1032700061F907F114032049184608F0A7FC07F18B
:1032800014031A461E210A2000F0B4F94FF4FA6024
:1032900005F040FF9FED0C0B1848FEF7D3F94FF4F3
:1032A000FA6005F037FF08F075F90A2005F04DFFC8
:1032B000AEE600BFAFF30080399D52A246DF913FDA
:1032C000994B7CF3E9CE8A3F0000000000003540B6
:1032D00040030020180300201800002038030020BD
:1032E0003003002000408F4010D70008000C02403F
:1032F000200300201003002000D700084403002012
:1033000080B400AF72B600BFFEE7000080B584B0A5
:1033100000AF03460A46FB711346BB71BB79012B14
:1033200006D101224FF480711C4801F05BFF05E0DB
:1033300000224FF48071194801F054FF0023FB7301
:103340001EE000222021154801F04CFF97F90730BC
:10335000002B05DA01224021104801F043FF04E070
:10336000002240210D4801F03DFF012220210B48A1
:1033700001F038FFFB795B00FB71FB7B0133FB73D2
:10338000FB7B072BDDD901224FF48071034801F04C
:1033900029FF00BF1037BD4680BD00BF00100240AE
:1033A00080B582B000AF0023FB7126E0FB79503B73
:1033B000DBB200211846FFF7A9FF00210020FFF72C
:1033C000A5FF00211020FFF7A1FF0023BB710DE036
:1033D000BA79FB790D49D2000A4413441B780121C4
:1033E0001846FFF793FFBB790133BB7197F906309D
:1033F000002BEDDAFB790133FB71FB79072BD5D973
:1034000000BF00BF0837BD4680BD00BFC00400201C
:1034100080B582B000AF0023FB7114E00023BB71C4
:103420000AE0BA79FB790C49D2000A44134400221D
:103430001A70BB790133BB7197F90630002BF0DAB3
:10344000FB790133FB71FB79072BE7D9FFF7A8FF65
:1034500000BF0837BD4680BDC004002080B485B0E1
:1034600000AF0346FB710B46BB7113467B71002313
:10347000FB7397F90730002B41DBBB793F2B3ED81C
:10348000BB79DB08DBB2C3F10703BB73BB7903F085
:1034900007037B737B7BC3F10703012202FA03F36B
:1034A000FB737B79002B12D0FA79BB7B1749D200D2
:1034B0000A4413441878FA79BB7BF97B0143C8B2FC
:1034C0001249D2000A44134402461A7018E0FA79ED
:1034D000BB7B0E49D2000A4413441B785AB297F9B9
:1034E0000F30DB435BB2134059B2FA79BB7BC8B2F1
:1034F0000649D2000A44134402461A7000E000BF95
:103500001437BD465DF8047B704700BFC00400203F
:1035100090B585B000AF0446084611461A462346CA
:10352000FB710346BB710B467B7113463B71BB7944
:103530003B737B79203B7B710023BB734DE03B7970
:103540000C2B0BD17A79B97B284813465B001344C6
:103550009B0003440B441B78FB7307E07A79BB7B29
:10356000234912010A4413441B78FB7300237B7325
:103570002DE097F90F30002B07DA97F82020B97962
:10358000FB791846FFF76AFF0CE097F82030002B14
:103590000CBF01230023DBB21A46B979FB79184628
:1035A000FFF75CFFFB7B5B00FB73BB790133BB71F7
:1035B000BA793B7BD21A3B799A4205D13B7BBB71EE
:1035C000FB790133FB7105E07B7B01337B737B7BF4
:1035D000072BCED9BB7B0133BB73BA7B3B799A42B5
:1035E000ADD300BF00BF1437BD4690BDC4D700089F
:1035F00038DC000880B584B002AF03463A60FB7146
:103600000B46BB711FE0FB797A2B04D90023FB71B9
:10361000BB791033BB71BB793A2B05D90023FB7101
:10362000FB79BB71FFF7F4FE3B681A78B979F8793A
:10363000012300930C23FFF76BFFFB790833FB7129
:103640003B6801333B603B681B78002BDBD100BF3C
:1036500000BF0837BD4680BD80B500AF02F0B6FDA3
:10366000414B1B6F404A23F0010313673E4B1B6F16
:103670003D4A23F00403136702F0BCFD00228021C1
:103680003A4801F0AFFD642000F0C0FE0122802125
:10369000364801F0A7FD0021AE20FFF737FE0021DC
:1036A000D520FFF733FE00215020FFF72FFE002129
:1036B000A820FFF72BFE00213F20FFF727FE002167
:1036C000D320FFF723FE00210020FFF71FFE00217B
:1036D0004020FFF71BFE00218D20FFF717FE002181
:1036E0001420FFF713FE00212020FFF70FFE00211A
:1036F0000220FFF70BFE0021A120FFF707FE0021AB
:10370000C020FFF703FE0021DA20FFF7FFFD0021B4
:103710001220FFF7FBFD00218120FFF7F7FD0021BC
:10372000EF20FFF7F3FD0021D920FFF7EFFD002187
:10373000F120FFF7EBFD0021DB20FFF7E7FD002183
:103740003020FFF7E3FD0021A420FFF7DFFD00217B
:10375000A620FFF7DBFD0021AF20FFF7D7FDFFF725
:1037600057FE00BF80BD00BF00380240001002407D
:1037700080B582B000AF78607B685B6CD3E90023D2
:103780007968C1E914237B681B6CD3E9002379684D
:10379000C1E916237B68D3E914017B68D3E91A23B6
:1037A000FDF7BAF90346002B06D07B68D3E91A234C
:1037B0007968C1E9142311E07B68D3E914017B68BF
:1037C000D3E91823FDF78AF90346002B00D105E061
:1037D0007B68D3E918237968C1E9142300BF08374F
:1037E000BD4680BD0000000080B58AB000AF7862A1
:1037F0003962FA61BB6187ED040B87ED021B87ED2F
:10380000002B7B6AFA695A647B6A3A6A1A647B6A9B
:10381000BA699A647B6A00225A709FED151B9FED6E
:10382000160B786A00F034F97B6A64229A6097F884
:1038300034301946786A00F041FA97F8303019466A
:1038400097ED002B97ED021B97ED040B786A00F0C3
:103850008DF900F0CFFD02467B6A9B68D21A7B6A25
:103860005A6000BF2837BD4680BD00BFAFF300805F
:103870000000000000E06F400000000000000000B9
:10388000B0B58CB000AF78607B685B78002B01D15D
:103890000023DBE000F0AEFD78627B685B687A6A4B
:1038A000D31A3B627B689B683A6A9A42C0F0CD802B
:1038B0007B681B6CD3E90023C7E906237B689B6CFC
:1038C000D3E90001D7E90623FCF7DEFC02460B46EC
:1038D000C7E904237B68D3E91623D7E90601FCF77F
:1038E000D3FC02460B46C7E902237B68D3E91445A3
:1038F0007B68D3E90C01D7E90423FCF77DFE02467F
:103900000B4620462946FCF7C1FC02460B46796867
:10391000C1E914237B681B78002B14D17B68D3E9A1
:1039200014457B68D3E90A01D7E90223FCF764FE5A
:1039300002460B4620462946FCF7A6FC02460B46EB
:103940007968C1E914237B68D3E914017B68D3E962
:103950001A23FDF7E1F80346002B06D07B68D3E974
:103960001A237968C1E9142310E07B68D3E91401B4
:103970007B68D3E91823FDF7B1F80346002B05D087
:103980007B68D3E918237968C1E914237B681B7825
:10399000002B0BD07B68D3E90A23D7E90401FCF79D
:1039A0002BFE02460B46C7E90A2305E04FF0000252
:1039B0004FF00003C7E90A237B68D3E914457B680D
:1039C000D3E90E01D7E90223FCF716FE02460B46A7
:1039D00020462946FCF758FC02460B46D7E90A0167
:1039E000FCF754FC02460B46C7E90A237B68D3E97F
:1039F0001A23D7E90A01FDF78FF80346002B05D0FB
:103A00007B68D3E91A23C7E90A230EE07B68D3E970
:103A10001823D7E90A01FDF761F80346002B04D00B
:103A20007B68D3E91823C7E90A237B68596CD7E977
:103A30000A23C1E900237968D7E90623C1E91623DF
:103A40007B687A6A5A60012300E000231846303709
:103A5000BD46B0BD80B584B000AF78600B46FB704A
:103A6000FB78012B0CBF01230023DBB2FB73FB7B34
:103A7000002B06D07B685B78002B02D17868FFF7BB
:103A800077FE7B68FA7B5A7000BF1037BD4680BD59
:103A900080B586B000AF786187ED020B87ED001B23
:103AA000D7E90023D7E90201FDF72CF80346002BE4
:103AB00058D17969D7E90223C1E918237969D7E98F
:103AC0000023C1E91A237B695B78002B4BD07B690B
:103AD0005B6CD3E900017B69D3E91A23FDF71CF87D
:103AE0000346002B07D07B69596C7B69D3E91A2305
:103AF000C1E9002312E07B695B6CD3E900017B69BB
:103B0000D3E91823FCF7EAFF0346002B06D07B69B4
:103B1000596C7B69D3E91823C1E900237B69D3E998
:103B200014017B69D3E91A23FCF7F6FF0346002B47
:103B300006D07B69D3E91A237969C1E9142312E01D
:103B40007B69D3E914017B69D3E91823FCF7C6FF2D
:103B50000346002B07D07B69D3E918237969C1E9B3
:103B6000142300E000BF1837BD4680BD80B58AB081
:103B700000AFF86187ED040B87ED021B87ED002B8A
:103B80000B46FB764FF000024FF00003D7E904012B
:103B9000FCF7A4FF0346002B40F089804FF00002A1
:103BA0004FF00003D7E90201FCF798FF0346002B12
:103BB0007DD14FF000024FF00003D7E90001FCF780
:103BC0008DFF0346002B72D1FB69FA7E9A70FB7E53
:103BD000012B0CBF01230023DBB21A46FB691A70CC
:103BE000F969D7E90423C1E90423F969D7E9022374
:103BF000C1E90623F969D7E90023C1E90823FB6974
:103C00009B681846FCF77EFC4FF000022A4BFCF73D
:103C10001DFE02460B46C7E90823F969D7E90423CC
:103C2000C1E90A23D7E90823D7E90201FCF7E4FC3C
:103C300002460B46F969C1E90C23D7E90823D7E905
:103C40000001FCF703FE02460B46F969C1E90E23A9
:103C5000FB69DB78012B2BD1FB69D3E90A234FF0F9
:103C600000004FF00001FCF70FFB02460B46F9691C
:103C7000C1E90A23FB69D3E90C234FF000004FF0A0
:103C80000001FCF701FB02460B46F969C1E90C2370
:103C9000FB69D3E90E234FF000004FF00001FCF761
:103CA000F3FA02460B46F969C1E90E2300E000BFB2
:103CB0002837BD4680BD00BF00408F4080B582B030
:103CC00000AF78600B46FB707B685B78002B2ED0D2
:103CD0007B68DB78FA789A4229D07B68D3E90A239B
:103CE0004FF000004FF00001FCF7CEFA02460B4601
:103CF0007968C1E90A237B68D3E90C234FF00000FF
:103D00004FF00001FCF7C0FA02460B467968C1E9A2
:103D10000C237B68D3E90E234FF000004FF0000125
:103D2000FCF7B2FA02460B467968C1E90E237B68BC
:103D3000FA78DA7000BF0837BD4680BDB0B584B0F0
:103D400000AF786039603B68002B2EDD3868FCF7E7
:103D5000E9FB04460D467B689B681846FCF7D2FBDE
:103D600002460B4620462946FCF770FD02460B46EC
:103D7000C7E902237B68D3E90C01D7E90223FCF7EA
:103D80003BFC02460B467968C1E90C237B68D3E90A
:103D90000E01D7E90223FCF759FD02460B4679686C
:103DA000C1E90E233A687B689A6000BF1037BD46B0
:103DB000B0BD000080B582B000AF00237B60124B25
:103DC0005B6C114A43F4804353640F4B5B6C03F408
:103DD00080437B607B6800233B600B4B1B6C0A4A73
:103DE00043F080531364084B1B6C03F080533B601B
:103DF0003B6800220F216FF0010000F006FC00BFBD
:103E00000837BD4680BD00BF0038024080B58AB08B
:103E100000AF786007F1140300221A605A609A60BC
:103E2000DA601A617B681B68194A93422CD100231F
:103E30003B61184B1B6B174A43F002031363154B8E
:103E40001B6B03F002033B613B694FF440737B61E2
:103E50001223BB610023FB6103233B6204237B62CB
:103E600007F1140319460C4801F008F80023FB6021
:103E7000084B1B6C074A43F400131364054B1B6C7F
:103E800003F40013FB60FB6800BF2837BD4680BD0C
:103E900000540040003802400004024080B58CB05D
:103EA00000AF786007F11C0300221A605A609A6024
:103EB000DA601A617B681B68324A93422DD1002375
:103EC000BB61314B5B6C304A43F0010353642E4BB2
:103ED0005B6C03F00103BB61BB6900237B612A4B70
:103EE0001B6B294A43F010031363274B1B6B03F032
:103EF00010037B617B694FF48043FB6102233B62CB
:103F000000237B620023BB620123FB6207F11C03D9
:103F100019461E4800F0B2FF30E07B681B681C4A5F
:103F200093422BD100233B61174B5B6C164A43F045
:103F300002035364144B5B6C03F002033B613B6967
:103F40000023FB60104B1B6B0F4A43F00403136309
:103F50000D4B1B6B03F00403FB60FB68C023FB618C
:103F600002233B6200237B620023BB620323FB62CC
:103F700007F11C031946074800F080FF00BF3037E7
:103F8000BD4680BD000001400038024000100240E4
:103F9000000401400008024080B58CB000AF78609A
:103FA00007F11C0300221A605A609A60DA601A61F5
:103FB0007B681B68B3F1804F4BD10023BB613F4B43
:103FC0001B6C3E4A43F0010313643C4B1B6C03F033
:103FD0000103BB61BB6900237B61384B1B6B374A14
:103FE00043F001031363354B1B6B03F001037B614B
:103FF0007B6900233B61314B1B6B304A43F002036A
:1040000013632E4B1B6B03F002033B613B694FF4C0
:104010000043FB6102233B6200237B620023BB62FF
:104020000123FB6207F11C031946254800F026FF17
:104030000823FB6102233B6200237B620023BB62F7
:104040000123FB6207F11C0319461E4800F016FF0E
:1040500030E07B681B681C4A93422BD10023FB6035
:10406000164B1B6C154A43F002031364134B1B6C75
:1040700003F00203FB60FB680023BB600F4B1B6B6C
:104080000E4A43F0010313630C4B1B6B03F0010357
:10409000BB60BB68C023FB6102233B6200237B62E1
:1040A0000023BB620223FB6207F11C03194604488C
:1040B00000F0E4FE00BF3037BD4680BD003802404E
:1040C00000000240000402400004004080B58AB0B5
:1040D00000AF786007F1140300221A605A609A60FA
:1040E000DA601A617B681B68354A934263D100230A
:1040F0003B61344B1B6C334A43F480231364314BD4
:104100001B6C03F480233B613B690023FB602D4B58
:104110001B6B2C4A43F0040313632A4B1B6B03F005
:104120000403FB60FB684FF440637B610223BB61C7
:104130000023FB6103233B6207237B6207F1140327
:104140001946214800F09AFE204B214A1A601F4B65
:104150004FF000625A601D4B00229A601B4B0022F8
:10416000DA601A4B4FF480621A61184B00225A61D0
:10417000164B00229A61154B4FF48072DA61134B93
:1041800000221A62114B00225A62104800F074FAA1
:104190000346002B01D0FFF7B3F87B680B4A9A6304
:1041A0000A4A7B68936300220521272000F02DFA3C
:1041B000272000F046FA00BF2837BD4680BD00BF6B
:1041C00000480040003802400008024098020020E9
:1041D0002860024080B400AFFEE780B400AFFEE785
:1041E00080B400AFFEE780B400AFFEE780B400AF5C
:1041F000FEE780B400AF00BFBD465DF8047B7047AA
:1042000080B500AF00F0E2F806F03CFC0346012B5D
:1042100001D007F021FA00BF80BD000080B500AFDB
:10422000024800F0C1FB00BF80BD00BF9802002023
:1042300080B500AF024803F065FD00BF80BD00BF40
:104240005402002080B586B000AF7860144A154B48
:10425000D31A7B617B693B61134B1B68002B02D136
:10426000114B124A1A60104B1A687B6813443A6962
:104270009A4207D207F06AFC03460C221A604FF0FC
:10428000FF3309E0084B1B68FB60074B1A687B682B
:104290001344054A1360FB6818461837BD4680BDB5
:1042A0000000022000040000C00800202852002066
:1042B00080B400AF064BD3F88830054A43F470034E
:1042C000C2F8883000BFBD465DF8047B704700BF70
:1042D00000ED00E0DFF834D00D480E490E4A00230F
:1042E00002E0D458C4500433C4188C42F9D30B4AAA
:1042F0000B4C002301E013600432A242FBD3FFF712
:10430000D7FF07F029FCFDF7DDF970470000022018
:10431000000000209400002068E4000898000020BD
:1043200028520020FEE7000080B500AF0E4B1B684E
:104330000D4A43F4007313600B4B1B680A4A43F4A5
:1043400080631360084B1B68074A43F48073136053
:10435000032000F04FF90F2000F008F8FFF72AFDC6
:104360000023184680BD00BF003C024080B582B0EB
:1043700000AF7860124B1A68124B1B7819464FF445
:104380007A73B3FBF1F3B2FBF3F3184600F067F96D
:104390000346002B01D001230EE07B680F2B0AD8C7
:1043A000002279684FF0FF3000F02FF9064A7B6851
:1043B0001360002300E0012318460837BD4680BD86
:1043C00020000020280000202400002080B400AF3E
:1043D000064B1B781A46064B1B681344044A1360AD
:1043E00000BFBD465DF8047B704700BF2800002079
:1043F000C408002080B400AF034B1B681846BD46BC
:104400005DF8047B704700BFC408002080B584B00D
:1044100000AF7860FFF7EEFFB8607B68FB60FB6879
:10442000B3F1FF3F05D00A4B1B781A46FB681344D3
:10443000FB6000BFFFF7DEFF0246BB68D31AFA68D5
:104440009A42F7D800BF00BF1037BD4680BD00BFFD
:104450002800002080B485B000AF78607B6803F04E
:104460000703FB600C4BDB68BB60BA684FF6FF03C9
:104470001340BB60FB681A02BB68134343F0BF6381
:1044800043F40033BB60044ABB68D36000BF1437F9
:10449000BD465DF8047B704700ED00E080B400AFDE
:1044A000044BDB681B0A03F007031846BD465DF8A2
:1044B000047B704700ED00E080B483B000AF03469A
:1044C000FB7197F90730002B0BDBFB7903F01F0220
:1044D000074997F907305B09012000FA02F241F819
:1044E000232000BF0C37BD465DF8047B704700BF3A
:1044F00000E100E080B483B000AF03463960FB7197
:1045000097F90730002B0ADB3B68DAB20C4997F9C0
:1045100007301201D2B20B4483F800230AE03B6853
:10452000DAB20849FB7903F00F03043B1201D2B25F
:104530000B441A7600BF0C37BD465DF8047B70470C
:1045400000E100E000ED00E080B489B000AFF86069
:10455000B9607A60FB6803F00703FB61FB69C3F194
:104560000703042B28BF0423BB61FB690433062B1C
:1045700002D9FB69033B00E000237B614FF0FF326F
:10458000BB6902FA03F3DA43BB681A407B699A40BD
:104590004FF0FF317B6901FA03F3D9437B680B408D
:1045A000134318462437BD465DF8047B704700006E
:1045B00080B582B000AF78607B68013BB3F1807F4B
:1045C00001D301230FE00A4A7B68013B53600F21AE
:1045D0004FF0FF30FFF78EFF054B00229A60044B2F
:1045E00007221A60002318460837BD4680BD00BF69
:1045F00010E000E080B582B000AF78607868FFF727
:1046000029FF00BF0837BD4680BD80B586B000AF2A
:104610000346B9607A60FB7300237B61FFF73EFFBE
:1046200078617A68B9687869FFF78EFF024697F972
:104630000F3011461846FFF75DFF00BF1837BD4623
:1046400080BD80B582B000AF0346FB7197F907309B
:104650001846FFF731FF00BF0837BD4680BD80B563
:1046600082B000AF78607868FFF7A2FF0346184673
:104670000837BD4680BD000080B586B000AF7860C9
:1046800000237B61FFF7B6FE38617B68002B01D108
:10469000012399E07B68022283F835207B680022A1
:1046A00083F834207B681B681A687B681B6822F0DB
:1046B00001021A600FE0FFF79DFE02463B69D31A24
:1046C000052B08D97B6820225A657B68032283F872
:1046D0003520032378E07B681B681B6803F0010327
:1046E000002BE8D17B681B681B687B617A69384BBB
:1046F00013407B617B685A687B689B681A437B68C0
:10470000DB681A437B681B691A437B685B691A4341
:104710007B689B691A437B68DB691A437B681B6A69
:1047200013437A6913437B617B685B6A042B07D16F
:104730007B68DA6A7B681B6B13437A6913437B617E
:104740007B681B687A691A607B681B685B697B61A0
:104750007B6923F007037B617B685B6A7A6913439B
:104760007B617B685B6A042B17D17B689B6A7A69E3
:1047700013437B617B68DB6A002B0ED0786800F006
:1047800001FB0346002B08D07B6840225A657B68FA
:10479000012283F83520012316E07B681B687A69C3
:1047A0005A61786800F0B8FA0346FB607B68DB6DFD
:1047B0003F229A40FB689A607B6800225A657B68BA
:1047C000012283F83520002318461837BD4680BDE6
:1047D0003F8010F080B586B000AFF860B9607A60B5
:1047E0003B600023FB75FB689B6D3B61FB6893F8A6
:1047F0003430012B01D1022340E0FB68012283F811
:104800003420FB6893F83530DBB2012B2FD1FB68E5
:10481000022283F83520FB6800225A653B687A68DB
:10482000B968F86800F04AFAFB68DB6D3F229A40ED
:104830003B699A60FB681B681A68FB681B6842F05A
:1048400016021A60FB681B6C002B07D0FB681B6804
:104850001A68FB681B6842F008021A60FB681B6854
:104860001A68FB681B6842F001021A6005E0FB68E9
:10487000002283F834200223FB75FB7D184618378D
:10488000BD4680BD80B584B000AF78607B689B6D0D
:10489000FB60FFF7AFFDB8607B6893F83530DBB2A3
:1048A000022B08D07B6880225A657B68002283F83F
:1048B0003420012352E07B681B681A687B681B6800
:1048C00022F016021A607B681B685A697B681B68B5
:1048D00022F080025A617B681B6C002B03D17B683D
:1048E0009B6C002B07D07B681B681A687B681B6871
:1048F00022F008021A607B681B681A687B681B68D4
:1049000022F001021A6013E0FFF774FD0246BB6853
:10491000D31A052B0CD97B6820225A657B680322A9
:1049200083F835207B68002283F83420032315E0C8
:104930007B681B681B6803F00103002BE4D17B68D4
:10494000DB6D3F229A40FB689A607B68012283F806
:1049500035207B68002283F8342000231846103766
:10496000BD4680BD80B483B000AF78607B6893F8AB
:104970003530DBB2022B04D07B6880225A650123DC
:104980000CE07B68052283F835207B681B681A6879
:104990007B681B6822F001021A60002318460C375E
:1049A000BD465DF8047B704780B586B000AF786087
:1049B0000023BB608E4B1B688E4AA2FB03239B0A1D
:1049C0007B617B689B6D3B613B691B68FB607B681F
:1049D000DB6D08229A40FB681340002B1AD07B68DD
:1049E0001B681B6803F00403002B13D07B681B6853
:1049F0001A687B681B6822F004021A607B68DB6D12
:104A000008229A403B699A607B685B6D43F0010223
:104A10007B685A657B68DB6D01229A40FB68134016
:104A2000002B12D07B681B685B6903F08003002BAE
:104A30000BD07B68DB6D01229A403B699A607B68F2
:104A40005B6D43F002027B685A657B68DB6D042274
:104A50009A40FB681340002B12D07B681B681B68D0
:104A600003F00203002B0BD07B68DB6D04229A401D
:104A70003B699A607B685B6D43F004027B685A6512
:104A80007B68DB6D10229A40FB681340002B43D0FB
:104A90007B681B681B6803F00803002B3CD07B6815
:104AA000DB6D10229A403B699A607B681B681B682B
:104AB00003F48023002B18D07B681B681B6803F469
:104AC0000023002B08D17B681B6C002B24D07B6853
:104AD0001B6C786898471FE07B689B6C002B1BD091
:104AE0007B689B6C7868984716E07B681B681B683E
:104AF00003F48073002B07D17B681B681A687B68FE
:104B00001B6822F008021A607B681B6C002B03D024
:104B10007B681B6C786898477B68DB6D20229A4025
:104B2000FB681340002B00F08F807B681B681B68BC
:104B300003F01003002B00F087807B68DB6D2022E0
:104B40009A403B699A607B6893F83530DBB2052B5D
:104B500036D17B681B681A687B681B6822F01602D6
:104B60001A607B681B685A697B681B6822F08002A8
:104B70005A617B681B6C002B03D17B689B6C002BFC
:104B800007D07B681B681A687B681B6822F00802E4
:104B90001A607B68DB6D3F229A403B699A607B68B4
:104BA000012283F835207B68002283F834207B685B
:104BB0001B6D002B7ED07B681B6D7868984779E071
:104BC0007B681B681B6803F48023002B1DD07B6867
:104BD0001B681B6803F40023002B0DD17B685B6C02
:104BE000002B31D07B685B6C786898472CE000BF65
:104BF00020000020B5814E1B7B68DB6B002B23D08F
:104C00007B68DB6B786898471EE07B681B681B68D5
:104C100003F48073002B0FD17B681B681A687B68D4
:104C20001B6822F010021A607B68012283F835208D
:104C30007B68002283F834207B68DB6B002B03D079
:104C40007B68DB6B786898477B685B6D002B32D0A4
:104C50007B685B6D03F00103002B22D07B6805228B
:104C600083F835207B681B681A687B681B6822F014
:104C700001021A60BB680133BB607A699A4207D3AC
:104C80007B681B681B6803F00103002BF2D100E076
:104C900000BF7B68012283F835207B68002283F8FF
:104CA00034207B68DB6C002B05D07B68DB6C78687C
:104CB000984700E000BF1837BD4680BD80B485B07E
:104CC00000AFF860B9607A603B60FB681B681A68E7
:104CD000FB681B6822F480221A60FB681B683A6834
:104CE0005A60FB689B68402B08D1FB681B687A6898
:104CF0009A60FB681B68BA68DA6007E0FB681B68AB
:104D0000BA689A60FB681B687A68DA6000BF14377B
:104D1000BD465DF8047B704780B485B000AF786015
:104D20007B681B68DBB2103B144AA2FB03231B0900
:104D3000FB60134AFB6813441B781A467B68DA65EC
:104D4000FB68032B09D97B681B6823F47F7323F06E
:104D500003031A1D7B689A6507E07B681B6823F4D0
:104D60007F7323F003037A6893657B689B6D184615
:104D70001437BD465DF8047B704700BFABAAAAAAF2
:104D800040E2000880B485B000AF78600023FB7378
:104D90007B689B6ABB607B689B69002B1FD1BB68EB
:104DA000032B56D801A252F823F000BFBD4D0008D6
:104DB000CF4D0008BD4D0008534E00087B68DB6AEC
:104DC00003F08073002B46D00123FB7343E07B6824
:104DD000DB6AB3F1C07F40D10123FB733DE07B6808
:104DE0009B69B3F5005F21D1BB68032B37D801A2C3
:104DF00052F823F0054E00080B4E0008054E00083F
:104E00001D4E00080123FB7330E07B68DB6A03F072
:104E10008073002B25D00123FB7322E07B68DB6AC3
:104E2000B3F1C07F1FD10123FB731CE0BB68022BD1
:104E300003D9BB68032B03D018E00123FB7315E0F3
:104E40007B68DB6A03F08073002B0ED00123FB73B9
:104E50000BE000BF0AE000BF08E000BF06E000BFB3
:104E600004E000BF02E000BF00E000BFFB7B18468B
:104E70001437BD465DF8047B704700BF80B489B02D
:104E800000AF7860396000237B6100233B61002321
:104E9000BB610023FB616BE10122FB6902FA03F3B2
:104EA0007B613B681B687A6913403B613A697B69A7
:104EB0009A4240F05A813B685B6803F00303012B80
:104EC00005D03B685B6803F00303022B30D17B689D
:104ED0009B68BB61FB695B00032202FA03F3DB43BF
:104EE000BA691340BB613B68DA68FB695B0002FA90
:104EF00003F3BA691343BB617B68BA699A607B6844
:104F00005B68BB610122FB6902FA03F3DB43BA6908
:104F10001340BB613B685B681B0903F00102FB693E
:104F200002FA03F3BA691343BB617B68BA695A603A
:104F30003B685B6803F00303032B17D07B68DB68D7
:104F4000BB61FB695B00032202FA03F3DB43BA692E
:104F50001340BB613B689A68FB695B0002FA03F38C
:104F6000BA691343BB617B68BA69DA603B685B6806
:104F700003F00303022B23D1FB69DA087B680832B4
:104F800053F82230BB61FB6903F007039B000F223B
:104F900002FA03F3DB43BA691340BB613B681A6949
:104FA000FB6903F007039B0002FA03F3BA6913439A
:104FB000BB61FB69DA087B680832B96943F82210E3
:104FC0007B681B68BB61FB695B00032202FA03F389
:104FD000DB43BA691340BB613B685B6803F00302C3
:104FE000FB695B0002FA03F3BA691343BB617B6898
:104FF000BA691A603B685B6803F44033002B00F029
:10500000B4800023FB60604B5B6C5F4A43F48043D9
:1050100053645D4B5B6C03F48043FB60FB685B4A4D
:10502000FB699B08023352F82330BB61FB6903F034
:1050300003039B000F2202FA03F3DB43BA69134018
:10504000BB617B68524A93422BD07B68514A9342A2
:1050500025D07B68504A93421FD07B684F4A9342C9
:1050600019D07B684E4A934213D07B684D4A9342D5
:105070000DD07B684C4A934207D07B684B4A9342E1
:1050800001D107230EE008230CE006230AE00523E4
:1050900008E0042306E0032304E0022302E00123E6
:1050A00000E00023FA6902F0030292009340BA691B
:1050B0001343BB613549FB699B080233BA6941F868
:1050C00023203B4B1B68BB613B69DB43BA69134040
:1050D000BB613B685B6803F48033002B03D0BA6983
:1050E0003B691343BB61324ABB691360304B5B6859
:1050F000BB613B69DB43BA691340BB613B685B68DA
:1051000003F40033002B03D0BA693B691343BB613E
:10511000274ABB695360264B9B68BB613B69DB43F5
:10512000BA691340BB613B685B6803F48013002BD2
:1051300003D0BA693B691343BB611D4ABB699360E5
:105140001B4BDB68BB613B69DB43BA691340BB6146
:105150003B685B6803F40013002B03D0BA693B691A
:105160001343BB61124ABB69D360FB690133FB6126
:10517000FB690F2B7FF690AE00BF00BF2437BD4602
:105180005DF8047B704700BF0038024000380140E2
:10519000000002400004024000080240000C0240EF
:1051A000001002400014024000180240001C02409F
:1051B000003C014080B485B000AF78600B467B8036
:1051C0007B681A697B881340002B02D00123FB7394
:1051D00001E00023FB73FB7B18461437BD465DF8E6
:1051E000047B704780B483B000AF78600B467B804F
:1051F00013467B707B78002B03D07A887B689A619A
:1052000003E07B881A047B689A6100BF0C37BD46B7
:105210005DF8047B704780B485B000AF78600B46C2
:105220007B807B685B69FB607A88FB6813401A04AB
:10523000FB68D9437B880B401A437B689A6100BFA7
:105240001437BD465DF8047B7047000080B584B01C
:1052500000AF78607B68002B01D101232BE17B68D4
:1052600093F83D30DBB2002B06D17B68002283F837
:105270003C207868FEF7CAFD7B68242283F83D2035
:105280007B681B681A687B681B6822F001021A6041
:105290007B681B681A687B681B6842F400421A60CE
:1052A0007B681B681A687B681B6822F400421A60DE
:1052B00001F0E4FBF8607B685B68814A934207D8A1
:1052C000FB68804A934294BF01230023DBB206E0CF
:1052D000FB687D4A934294BF01230023DBB2002B7D
:1052E00001D00123E7E0FB68784AA2FB03239B0C73
:1052F000BB607B681B685B6823F03F017B681B68B1
:10530000BA680A435A607B681B681B6A23F03F0136
:105310007B685B686A4A934202D8BB68013309E044
:10532000BB684FF4967202FB03F3694AA2FB0323A6
:105330009B0901337A6812680B4313627B681B6810
:10534000DB6923F44F4222F0FF027B685B685C4913
:105350008B4219D8FB68591E7B685B685B00B1FB08
:10536000F3F3591C40F6FC730B40002B0AD0FB688A
:10537000591E7B685B685B00B1FBF3F30133C3F339
:105380000B0351E004234FE07B689B68002B11D195
:10539000FB68581E7B6859680B465B000B44B0FBEA
:1053A000F3F30133C3F30B03002B0CBF01230023E2
:1053B000DBB212E0FB68581E7B6859680B469B0005
:1053C0000B4499000B44B0FBF3F30133C3F30B031D
:1053D000002B0CBF01230023DBB2002B01D00123E3
:1053E00022E07B689B68002B0ED1FB68581E7B680F
:1053F00059680B465B000B44B0FBF3F30133C3F376
:105400000B0343F400430FE0FB68581E7B685968A8
:105410000B469B000B4499000B44B0FBF3F30133A4
:10542000C3F30B0343F44043796809681343CB612A
:105430007B681B681B6823F0C0017B68DA697B68A6
:105440001B6A1A437B681B680A431A607B681B68E7
:105450009B6823F4034323F0FF037A6811697A6899
:10546000D26811437A6812680B4393607B681B68AB
:10547000DB6823F0FF017B685A697B689B691A43EC
:105480007B681B680A43DA607B681B681A687B6864
:105490001B6842F001021A607B6800221A647B6874
:1054A000202283F83D207B6800221A637B6800225B
:1054B00083F83E20002318461037BD4680BD00BF4C
:1054C000A08601007F841E00FF083D0083DE1B4391
:1054D000D34D621080B588B002AFF860084611461F
:1054E0001A4603467B810B463B811346FB80FEF741
:1054F00081FF7861FB6893F83D30DBB2202B40F0F0
:10550000D9807B690093192301226D49F86800F066
:105510007FFC0346002B01D00223CCE0FB6893F80C
:105520003C30012B01D10223C5E0FB68012283F846
:105530003C20FB681B681B6803F00103012B07D0AC
:10554000FB681B681A68FB681B6842F001021A605E
:10555000FB681B681A68FB681B6822F400621A600B
:10556000FB68212283F83D20FB68402283F83E201F
:10557000FB6800221A64FB683A6A5A62FB68BA8CBC
:105580005A85FB685B8D9AB2FB681A85FB684D4AA9
:10559000DA62F8883A8979897B690193BB6A00935A
:1055A0000346F86800F0B6FA0346002B52D00123F8
:1055B00081E07A69B96AF86800F000FD0346002BC3
:1055C0000DD0FB681B6C042B07D1FB681B681A68A5
:1055D000FB681B6842F400721A6001236BE0FB68F1
:1055E0005B6A1A78FB681B681A61FB685B6A5A1C65
:1055F000FB685A62FB681B8D013B9AB2FB681A85F7
:10560000FB685B8D9BB2013B9AB2FB685A85FB68D5
:105610001B685B6903F00403042B1BD1FB681B8D23
:10562000002B17D0FB685B6A1A78FB681B681A614D
:10563000FB685B6A5A1CFB685A62FB681B8D013B66
:105640009AB2FB681A85FB685B8D9BB2013B9AB2EC
:10565000FB685A85FB681B8D002BAAD17A69B96A51
:10566000F86800F0ECFC0346002B0DD0FB681B6CC7
:10567000042B07D1FB681B681A68FB681B6842F49F
:1056800000721A60012316E0FB681B681A68FB6849
:105690001B6842F400721A60FB68202283F83D20E8
:1056A000FB68002283F83E20FB68002283F83C2040
:1056B000002300E0022318461837BD4680BD00BF16
:1056C000020010000000FFFF80B58CB002AFF86050
:1056D000084611461A4603467B810B463B8113461A
:1056E000FB80FEF787FE7862FB6893F83D30DBB203
:1056F000202B40F008827B6A0093192301227B490A
:10570000F86800F085FB0346002B01D00223FBE183
:10571000FB6893F83C30012B01D10223F4E1FB68D4
:10572000012283F83C20FB681B681B6803F001031F
:10573000012B07D0FB681B681A68FB681B6842F0E6
:1057400001021A60FB681B681A68FB681B6822F478
:1057500000621A60FB68222283F83D20FB68402229
:1057600083F83E20FB6800221A64FB683A6B5A6299
:10577000FB68BA8E5A85FB685B8D9AB2FB681A8506
:10578000FB685B4ADA62F8883A8979897B6A019317
:10579000BB6B00930346F86800F052FA0346002BF7
:1057A00001D00123B0E1FB681B8D002B13D1002336
:1057B0003B62FB681B685B693B62FB681B689B691B
:1057C0003B623B6AFB681B681A68FB681B6842F413
:1057D00000721A6084E1FB681B8D012B1BD1FB68F2
:1057E0001B681A68FB681B6822F480621A60002339
:1057F000FB61FB681B685B69FB61FB681B689B695D
:10580000FB61FB69FB681B681A68FB681B6842F454
:1058100000721A6064E1FB681B8D022B1BD1FB68D0
:105820001B681A68FB681B6822F480621A60FB68B8
:105830001B681A68FB681B6842F400621A60002348
:10584000BB61FB681B685B69BB61FB681B689B698C
:10585000BB61BB6944E100237B61FB681B685B693A
:105860007B61FB681B689B697B617B6938E1FB6836
:105870001B8D032B00F2F180FB681B8D012B23D1C4
:105880007A6AB96BF86800F01BFC0346002B01D064
:10589000012339E1FB681B681A69FB685B6AD2B2B5
:1058A0001A70FB685B6A5A1CFB685A62FB681B8DA6
:1058B000013B9AB2FB681A85FB685B8D9BB2013B8A
:1058C0009AB2FB685A850BE1FB681B8D022B4ED107
:1058D0007B6A0093BB6B00220649F86800F098FAD7
:1058E0000346002B08D001230EE100BF0200100088
:1058F0000000FFFF04000100FB681B681A68FB68DA
:105900001B6842F400721A60FB681B681A69FB6826
:105910005B6AD2B21A70FB685B6A5A1CFB685A62F7
:10592000FB681B8D013B9AB2FB681A85FB685B8D97
:105930009BB2013B9AB2FB685A85FB681B681A69E7
:10594000FB685B6AD2B21A70FB685B6A5A1CFB6820
:105950005A62FB681B8D013B9AB2FB681A85FB6893
:105960005B8D9BB2013B9AB2FB685A85B8E07B6ABB
:105970000093BB6B00226649F86800F049FA0346C1
:10598000002B01D00123BFE0FB681B681A68FB688D
:105990001B6822F480621A60FB681B681A69FB6846
:1059A0005B6AD2B21A70FB685B6A5A1CFB685A6267
:1059B000FB681B8D013B9AB2FB681A85FB685B8D07
:1059C0009BB2013B9AB2FB685A857B6A0093BB6B22
:1059D00000224F49F86800F01BFA0346002B01D063
:1059E000012391E0FB681B681A68FB681B6842F49E
:1059F00000721A60FB681B681A69FB685B6AD2B2A6
:105A00001A70FB685B6A5A1CFB685A62FB681B8D44
:105A1000013B9AB2FB681A85FB685B8D9BB2013B28
:105A20009AB2FB685A85FB681B681A69FB685B6A57
:105A3000D2B21A70FB685B6A5A1CFB685A62FB6838
:105A40001B8D013B9AB2FB681A85FB685B8D9BB28C
:105A5000013B9AB2FB685A8542E07A6AB96BF868F2
:105A600000F02EFB0346002B01D001234CE0FB6825
:105A70001B681A69FB685B6AD2B21A70FB685B6AC2
:105A80005A1CFB685A62FB681B8D013B9AB2FB688B
:105A90001A85FB685B8D9BB2013B9AB2FB685A8505
:105AA000FB681B685B6903F00403042B18D1FB68D7
:105AB0001B681A69FB685B6AD2B21A70FB685B6A82
:105AC0005A1CFB685A62FB681B8D013B9AB2FB684B
:105AD0001A85FB685B8D9BB2013B9AB2FB685A85C5
