:020000040800F2
:100000000000022089260008952500089725000891
:10001000992500089B2500089D2500080000000088
:10002000000000000000000000000000515D00081A
:100030009F25000800000000E15D0008A1250008E0
:10004000D9260008D9260008D9260008D926000894
:10005000D9260008D9260008D9260008D926000884
:10006000D9260008D9260008D9260008D926000874
:10007000D9260008D9260008D9260008D926000864
:10008000D9260008D9260008D9260008D926000854
:10009000D9260008D9260008D9260008D926000844
:1000A000D9260008D9260008D9260008D926000834
:1000B000D9260008D9260008D9260008D926000824
:1000C000D9260008D9260008D9260008D926000814
:1000D000D9260008D9260008D9260008B925000825
:1000E000D9260008D9260008D9260008D9260008F4
:1000F000D9260008D9260008D9260008D9260008E4
:10010000D9260008D9260008D9260008D9260008D3
:10011000D9260008D9260008D9260008D9260008C3
:10012000D9260008D9260008D9260008D9260008B3
:10013000D9260008D9260008D9260008D9260008A3
:10014000D9260008D9260008D9260008D926000893
:10015000D9260008D9260008D9260008D926000883
:10016000D9260008D9260008D9260008D926000873
:10017000D9260008D9260008D9260008000000006A
:08018000D9260008D926000869
:1001900010B5054C237833B9044B13B10448AFF3C1
:1001A00000800123237010BDE80100200000000042
:1001B0002C90000808B5034B1BB103490348AFF36B
:1001C000008008BD00000000EC0100202C90000819
:1001D000034613F8012B002AFBD1181A0138704787
:1001E00001F0FF01102A2BDB10F0070F08D010F8E8
:1001F000013B013A8B422DD010F0070F42B3F6D1EC
:10020000F0B441EA012141EA014122F007047FF004
:1002100000070023F0E80256083C85EA010586EA5B
:10022000010685FA47F5A3FA87F586FA47F6A5FA97
:1002300087F68EB9EED1F0BC01F0FF0102F00702A3
:1002400032B110F8013B013A83EA010313B1F8D14E
:100250000020704701387047002D06BF354603382F
:10026000073815F0010F07D1013015F4807F02BF68
:10027000013015F4C03F0130F0BC0138704700BFB9
:1002800081F0004102E000BF83F0004330B54FEA47
:1002900041044FEA430594EA050F08BF90EA020FB4
:1002A0001FBF54EA000C55EA020C7FEA645C7FEA47
:1002B000655C00F0E2804FEA5454D4EB5555B8BF6A
:1002C0006D420CDD2C4480EA020281EA030382EADB
:1002D000000083EA010180EA020281EA0303362D6D
:1002E00088BF30BD11F0004F4FEA01314FF4801C40
:1002F0004CEA113102D0404261EB410113F0004F52
:100300004FEA03334CEA133302D0524263EB430308
:1003100094EA050F00F0A780A4F10104D5F1200EA6
:100320000DDB02FA0EFC22FA05F2801841F1000101
:1003300003FA0EF2801843FA05F359410EE0A5F1D5
:1003400020050EF1200E012A03FA0EFC28BF4CF006
:10035000020C43FA05F3C01851EBE37101F00045BC
:1003600007D54FF0000EDCF1000C7EEB00006EEBC9
:100370000101B1F5801F1BD3B1F5001F0CD3490853
:100380005FEA30004FEA3C0C04F101044FEA4452AA
:1003900012F5800F80F09A80BCF1004F08BF5FEA31
:1003A000500C50F1000041EB045141EA050130BD11
:1003B0005FEA4C0C404141EB0101013C28BFB1F523
:1003C000801FE9D291F0000F04BF01460020B1FA6E
:1003D00081F308BF2033A3F10B03B3F120020CDA41
:1003E0000C3208DD02F1140CC2F10C0201FA0CF01F
:1003F00021FA02F10CE002F11402D8BFC2F1200C84
:1004000001FA02F120FA0CFCDCBF41EA0C01904039
:10041000E41AA2BF01EB0451294330BD6FEA040482
:100420001F3C1CDA0C340EDC04F11404C4F120026D
:1004300020FA04F001FA02F340EA030021FA04F37F
:1004400045EA030130BDC4F10C04C4F1200220FAD6
:1004500002F001FA04F340EA0300294630BD21FA14
:1004600004F0294630BD94F0000F83F4801306BFDA
:1004700081F480110134013D4EE77FEA645C18BFCE
:100480007FEA655C29D094EA050F08BF90EA020F65
:1004900005D054EA000C04BF1946104630BD91EA5D
:1004A000030F1EBF0021002030BD5FEA545C05D160
:1004B0004000494128BF41F0004130BD14F580049F
:1004C0003CBF01F5801130BD01F0004545F0FE4113
:1004D00041F470014FF0000030BD7FEA645C1ABF48
:1004E000194610467FEA655C1CBF0B46024650EA7F
:1004F000013406BF52EA033591EA030F41F40021AB
:1005000030BD00BF90F0000F04BF0021704730B530
:100510004FF4806404F132044FF000054FF0000105
:1005200050E700BF90F0000F04BF0021704730B5C6
:100530004FF4806404F1320410F0004548BF40429B
:100540004FF000013EE700BF42004FEAE2014FEAF0
:1005500031014FEA02701FBF12F07F4393F07F4FCB
:1005600081F06051704732F07F4208BF704793F0CE
:100570007F4F04BF41F40021704730B54FF46074E1
:1005800001F0004521F000411CE700BF50EA0102E4
:1005900008BF704730B54FF000050AE050EA01028D
:1005A00008BF704730B511F0004502D5404261EBFD
:1005B00041014FF4806404F132045FEA915C3FF43E
:1005C000D8AE4FF003025FEADC0C18BF03325FEADB
:1005D000DC0C18BF033202EBDC02C2F1200300FA8C
:1005E00003FC20FA02F001FA03FE40EA0E0021FAB1
:1005F00002F11444BDE600BF70B54FF0FF0C4CF49F
:10060000E06C1CEA11541DBF1CEA135594EA0C0F50
:1006100095EA0C0F00F0DEF82C4481EA030621EA8B
:100620004C5123EA4C5350EA013518BF52EA0335C6
:1006300041F4801143F4801338D0A0FB02CE4FF078
:100640000005E1FB02E506F00042E0FB03E54FF0A8
:100650000006E1FB03569CF0000F18BF4EF0010EA0
:10066000A4F1FF04B6F5007F64F5407404D25FEA9C
:100670004E0E6D4146EB060642EAC62141EA55514F
:100680004FEAC52040EA5E504FEACE2EB4F1FD0C91
:1006900088BFBCF5E06F1ED8BEF1004F08BF5FEA0F
:1006A000500E50F1000041EB045170BD06F00046C1
:1006B00046EA010140EA020081EA0301B4EB5C046E
:1006C000C2BFD4EB0C0541EA045170BD41F4801166
:1006D0004FF0000E013C00F3AB8014F1360FDEBF8B
:1006E000002001F0004170BDC4F10004203C35DA67
:1006F0000C341BDC04F11404C4F1200500FA05F3EA
:1007000020FA04F001FA05F240EA020001F000428A
:1007100021F0004110EBD37021FA04F642EB060100
:100720005EEA430E08BF20EAD37070BDC4F10C042A
:10073000C4F1200500FA04F320FA05F001FA04F2EE
:1007400040EA020001F0004110EBD37041F10001DA
:100750005EEA430E08BF20EAD37070BDC4F12005E5
:1007600000FA05F24EEA020E20FA04F301FA05F24D
:1007700043EA020321FA04F001F0004121FA04F2F5
:1007800020EA020000EBD3705EEA430E08BF20EAC5
:10079000D37070BD94F0000F0FD101F000464000FF
:1007A00041EB010111F4801F08BF013CF7D041EA81
:1007B000060195F0000F18BF704703F00046520085
:1007C00043EB030313F4801F08BF013DF7D043EA56
:1007D0000603704794EA0C0F0CEA135518BF95EA0C
:1007E0000C0F0CD050EA410618BF52EA4306D1D193
:1007F00081EA030101F000414FF0000070BD50EAB2
:10080000410606BF1046194652EA430619D094EA3B
:100810000C0F02D150EA013613D195EA0C0F05D125
:1008200052EA03361CBF104619460AD181EA030179
:1008300001F0004141F0FE4141F470014FF0000031
:1008400070BD41F0FE4141F4780170BD70B54FF0CC
:10085000FF0C4CF4E06C1CEA11541DBF1CEA13554C
:1008600094EA0C0F95EA0C0F00F0A7F8A4EB05042E
:1008700081EA030E52EA03354FEA013100F0888025
:100880004FEA03334FF0805545EA131343EA1263EE
:100890004FEA022245EA111545EA10654FEA0026A3
:1008A0000EF000419D4208BF964244F1FD0404F55C
:1008B000407402D25B084FEA3202B61A65EB0305B8
:1008C0005B084FEA32024FF480104FF4002CB6EB75
:1008D000020E75EB030E22BFB61A754640EA0C00F5
:1008E0005B084FEA3202B6EB020E75EB030E22BF35
:1008F000B61A754640EA5C005B084FEA3202B6EB76
:10090000020E75EB030E22BFB61A754640EA9C0034
:100910005B084FEA3202B6EB020E75EB030E22BF04
:10092000B61A754640EADC0055EA060E18D04FEAC2
:10093000051545EA16754FEA06164FEAC30343EA62
:1009400052734FEAC2025FEA1C1CC0D111F4801F2F
:100950000BD141EA00014FF000004FF0004CB6E728
:1009600011F4801F04BF01430020B4F1FD0C88BFC7
:10097000BCF5E06F3FF6AFAEB5EB030C04BFB6EBD2
:10098000020C5FEA500C50F1000041EB045170BDC5
:100990000EF0004E4EEA113114EB5C04C2BFD4EBF2
:1009A0000C0541EA045170BD41F480114FF0000E76
:1009B000013C90E645EA060E8DE60CEA135594EAF2
:1009C0000C0F08BF95EA0C0F3FF43BAF94EA0C0FF5
:1009D0000AD150EA01347FF434AF95EA0C0F7FF46A
:1009E00025AF104619462CE795EA0C0F06D152EABE
:1009F00003353FF4FDAE1046194622E750EA4106A2
:100A000018BF52EA43067FF4C5AE50EA41047FF4B2
:100A10000DAF52EA43057FF4EBAE12E74FF0FF3C17
:100A200006E000BF4FF0010C02E000BF4FF0010CE8
:100A30004DF804CD4FEA410C7FEA6C5C4FEA430C61
:100A400018BF7FEA6C5C1BD001B050EA410C0CBFB0
:100A500052EA430C91EA030F02BF90EA020F002012
:100A6000704710F1000F91EA030F58BF994208BF79
:100A700090422CBFD8176FEAE37040F00100704736
:100A80004FEA410C7FEA6C5C02D150EA013C07D18D
:100A90004FEA430C7FEA6C5CD6D152EA033CD3D0D8
:100AA0005DF8040B704700BF8446104662468C46D2
:100AB0001946634600E000BF01B5FFF7B7FF002805
:100AC00048BF10F1000F01BD4DF808EDFFF7F4FF2E
:100AD0000CBF012000205DF808FB00BF4DF808EDB9
:100AE000FFF7EAFF34BF012000205DF808FB00BFDC
:100AF0004DF808EDFFF7E0FF94BF012000205DF8FE
:100B000008FB00BF4DF808EDFFF7CEFF94BF0120B2
:100B100000205DF808FB00BF4DF808EDFFF7C4FFAB
:100B200034BF012000205DF808FB00BF4FEA410CF4
:100B30007FEA6C5C02D150EA013C0AD14FEA430CD7
:100B40007FEA6C5C02D152EA033C02D14FF0000014
:100B500070474FF0010070474FEA410212F5001252
:100B600015D211D56FF47873B3EB625212D94FEAF4
:100B7000C12343F0004343EA505311F0004F23FADE
:100B800002F018BF404270474FF00000704750EA33
:100B9000013005D111F0004008BF6FF000407047F0
:100BA0004FF00000704700BF4A0011D212F500124A
:100BB00011D20DD56FF47873B3EB62520ED44FEAB5
:100BC000C12343F0004343EA505323FA02F0704735
:100BD0004FF00000704750EA013002D14FF0FF3073
:100BE00070474FF00000704753B94AB9002908BF59
:100BF00000281CBF4FF0FF314FF0FF3000F074B9F8
:100C0000ADF1080C6DE904CE00F006F8DDF804E063
:100C1000DDE9022304B070472DE9F047089D044642
:100C20008E46002B4DD18A42944669D9B2FA82F29F
:100C300052B101FA02F3C2F1200120FA01F10CFADB
:100C400002FC41EA030E94404FEA1C48210CBEFB13
:100C5000F8F61FFA8CF708FB16E341EA034306FB9C
:100C600007F199420AD91CEB030306F1FF3080F02B
:100C70001F81994240F21C81023E63445B1AA4B278
:100C8000B3FBF8F008FB103344EA034400FB07F71A
:100C9000A7420AD91CEB040400F1FF3380F00A815B
:100CA000A74240F207816444023840EA0640E41B50
:100CB00000261DB1D4400023C5E900433146BDE8FC
:100CC000F0878B4209D9002D00F0EF800026C5E99E
:100CD000000130463146BDE8F087B3FA83F6002EB6
:100CE0004AD18B4202D3824200F2F980841A61EB2E
:100CF000030301209E46002DE0D0C5E9004EDDE74C
:100D000002B9FFDEB2FA82F2002A40F09280A1EB33
:100D10000C014FEA1C471FFA8CFE0126200CB1FB88
:100D2000F7F307FB131140EA01410EFB03F0884281
:100D300008D91CEB010103F1FF3802D2884200F20E
:100D4000CB804346091AA4B2B1FBF7F007FB1011A0
:100D500044EA01440EFB00FEA64508D91CEB04043E
:100D600000F1FF3102D2A64500F2BB800846A4EB99
:100D70000E0440EA03409CE7C6F12007B34022FA84
:100D800007FC4CEA030C20FA07F401FA06F31C43B3
:100D9000F9404FEA1C4900FA06F3B1FBF9F8200CC0
:100DA0001FFA8CFE09FB181140EA014108FB0EF006
:100DB000884202FA06F20BD91CEB010108F1FF3A56
:100DC00080F08880884240F28580A8F10208614462
:100DD000091AA4B2B1FBF9F009FB101144EA014170
:100DE00000FB0EFE8E4508D91CEB010100F1FF341B
:100DF0006CD28E456AD90238614440EA0840A0FBB3
:100E00000294A1EB0E01A142C846A64656D353D088
:100E10005DB1B3EB080261EB0E0101FA07F722FAAC
:100E200006F3F1401F43C5E9007100263146BDE8D5
:100E3000F087C2F12003D8400CFA02FC21FA03F338
:100E4000914001434FEA1C471FFA8CFEB3FBF7F0B9
:100E500007FB10360B0C43EA064300FB0EF69E42DE
:100E600004FA02F408D91CEB030300F1FF382FD277
:100E70009E422DD9023863449B1B89B2B3FBF7F61F
:100E800007FB163341EA034106FB0EF38B4208D9F8
:100E90001CEB010106F1FF3816D28B4214D9023E39
:100EA0006144C91A46EA004638E72E46284605E757
:100EB0000646E3E61846F8E64B45A9D2B9EB020828
:100EC00064EB0C0E0138A3E74646EAE7204694E7B8
:100ED0004046D1E7D0467BE7023B614432E73046EB
:100EE00009E76444023842E7704700BF7FB5012339
:100EF0008DF817204FF0FF32CDE901320DF11702C6
:100F0000009200680A46D02102F074F807B05DF83C
:100F100004FB00001FB54FF0FF3C0123CDE9013C6D
:100F2000009200680A46D02102F0F4F8024B1870D3
:100F300005B05DF804FB00BF340200202DE9F0414C
:100F4000774B88B003AE944604468E4603F11002F8
:100F5000354618685968374603C7083393423E46FA
:100F6000F7D11B783B7000227F21C4E900EC2046BA
:100F7000ADF81D208DF81F20FFF7B8FF694E014620
:100F8000307038B16849284605F0FCFD002008B0F3
:100F9000BDE8F0810DF107022046FFF7BBFF0746D1
:100FA000307008B16149EEE79DF80720604902A85A
:100FB00005F0C8FD02A9284605F0E4FD9DF80C30B7
:100FC0008DF81C70203B8DF818309DF80D30203BBB
:100FD0008DF819300D238DF81A304FF00A088DF86E
:100FE0000C30284649238DF80E308DF81B808DF883
:100FF0000D80FFF7EDF84FF0FF3382B229466068AD
:1010000003F048F93A467F212046FFF76FFF307022
:1010100008B14849B7E7F12206212046FFF766FFED
:10102000307008B14449AEE7404601F0A7FB012209
:1010300006212046FFF75AFF307008B13F49A2E76A
:10104000404601F09BFB3F2207212046FFF74EFF61
:101050000746307008B13A4995E7404601F08EFBEB
:101060003A4607212046FFF741FF307008B1354965
:1010700089E7012210212046FFF738FF7F213070D9
:1010800020222046FFF732FF0146307008B12E497A
:1010900079E704222046FFF729FF307008B12B4979
:1010A00071E7372201212046FFF720FF0746307005
:1010B00008B1274967E7072211212046FFF716FFED
:1010C0003A46307010212046FFF710FF307008B10B
:1010D000204958E7312214212046FFF707FF074631
:1010E000307008B11C494EE7024653212046FFF7F5
:1010F000FDFE20463A467F21FFF7F8FE0446307099
:1011000008B116493FE7642001F038FB144BC3E9EE
:1011100000449C60134BC3E900449C6036E700BF69
:101120004890000834020020709000087A9000086F
:101130008490000887900008919000089C90000817
:10114000A7900008B2900008BD900008C790000862
:10115000D1900008DB900008E5900008F0900008AE
:1011600010020020040200202DE9F74F002401AAFC
:1011700038210546ADF80440FFF7CCFE644E0DF172
:101180000502307037212846FFF7C4FE307001F0A9
:10119000EFFA604ADFF898E1136810605E4ADFF802
:1011A00094C1B2F90420DCF80460DCF80010CCF83B
:1011B0000860C71A9DF80430DEF80400CEF8080075
:1011C0009B1A9DF80520CCF8041043EA0223B3F5DE
:1011D000004FAABFC3F57F4222462346DEF80040F7
:1011E000CEF80440A8BFFF329C42CEF80030CCF8C5
:1011F000002000F38880A0425FDC234691427EDC21
:101200008E4260DC0A4607EE902AB8EE677A07EE57
:10121000903AF8EE677A414BDFF81CA137EE677A17
:10122000DFED3F7A27EE277A07EE907AF8EE677ABD
:101230003C4F67EE277A9FED3C7AC7EE876A4FF006
:1012400000080026D3ED007A9FED387AD6EE877A33
:10125000C5ED077A17EE900AFFF776F9DAE9002371
:10126000FFF714F804460D46CAE9004532463B46EE
:1012700020462946FFF746FC58BBB8F1000F01D0C5
:10128000CAE90045DAE90045DFF898904FF0000B15
:10129000002600274FF0000832463B4620462946EC
:1012A000FFF71CFC00BBBBF1000F01D0CAE90045F1
:1012B00045EC104B03B0BDE8F08F9C429DD08342BB
:1012C000A8BF03469AE791429CD0B242A8BF3246DB
:1012D00099E72046294632463B46FEF7D5FF4FF0B8
:1012E000010804460D46C1E72046294642464B46C2
:1012F000FEF7CCFF4FF0010B04460D46CCE78E42C3
:1013000080DA32467FE7A042BFF677AF034675E743
:1013100034020020300200201C02002024020020A1
:1013200000007A3D0080764000007A447A6E303FBB
:1013300004020020100200202802002038B52DED04
:10134000028B9FED0D8ADFED0D8A0546202428468D
:10135000FFF70AFFD5ED077A0A20013CA7EEA88A1D
:1013600001F00CFA14F0FF04F1D1054B83ED008A73
:10137000BDEC028B38BD00BF000000000000003D46
:10138000240200207FB5104910480F4C0F4E104D1D
:10139000052203F0A0F921460522304603F09BF90F
:1013A00022460C4901A805F0CDFB01AA14210A2010
:1013B00000F0D4FC28464FF4806101F08EFB012040
:1013C00003F017FAE7E700BF3502002044040020CD
:1013D00000100240FB90000808B5012003F009FA54
:1013E000FBE700007FB5164A164D10685168127A67
:1013F000154C01AB03C31A700023CDF81130CDF8A2
:101400000D300593294601A805F0BCFB0A2101AA6D
:10141000084600F0A3FCD4E90001FFF79DFB0B494F
:10142000024601A805F08EFB01AA1E210A2000F049
:1014300095FC00F0F7FB012003F0DBF9E2E700BFC9
:101440005C90000803910008C80200200991000880
:101450002DE9F047002190B09B489C4C9A4E02F039
:10146000C3FD0421984802F0BFFD0C21984802F00A
:10147000BBFD3C21204602F09AFA23685B6A01F02A
:1014800077F9944A94499548FFF758FD4FF47A70DC
:1014900001F074F99148FFF751FF914B91480022F8
:1014A000CDE90A23012400239FED7D2B9FED7E1BB8
:1014B0009FED7F0B08AACDE9004306A90AAB4FF0C8
:1014C00000084FF00009CDE9068900F0A9FE214689
:1014D0008448854C00F0B3FD82480A2100F0D4FE18
:1014E0009FED751B9FED760B7E4800F0B5FD01204A
:1014F00003F07FF92378642BF9D0462B40F0C080AD
:1015000063784C2B40F0BC80A0782379714F303841
:1015100000EB8000303B00EB800003EB8000E378C1
:10152000303B03EB830300EB430040B2FEF7FAFFCE
:1015300001F100430B93664B0A901B68CDE90689C5
:101540005B221A64654C6948DFF8B891DFF8B8810E
:101550004FF4806101F0C1FA04F00CFC2046FFF763
:1015600003FE04F027FCE069FEF7EEFF02460B469F
:10157000DDE90601FEF78AFECDE90601594800F0D3
:10158000BAFCDDE90601FFF7E7FA0590DDE908019D
:10159000FFF7E2FA059B564902460DA805F0D2FA7C
:1015A0004FF0FF330A220DA9384602F073FE51496D
:1015B0004FF0FF330222384602F06CFEDDE90801ED
:1015C00000220023FFF78AFA044600283FD04A4849
:1015D0000022042101F07CFA47480122082101F091
:1015E00077FA45480022202101F072FA4248012290
:1015F000102101F06DFA089B0293099B03F100434F
:101600000393DDE902013D4B0022FFF71FF9044679
:101610000D46B9F80000D6F800A0FEF773FF224689
:101620002B46FEF7E9FFFFF7BFFACAF83400B8F817
:101630000000FEF767FF22462B46FEF7DDFFFFF7AF
:10164000B3FACAF838000A2003F0DFF87AE7024656
:101650000821294801F03CFA27480122042101F021
:1016600037FA25482246102101F032FA2248012299
:10167000202101F02DFADDE90801204B0022C4E70A
:1016800033681F49134800225A639A636423237006
:1016900002224FF0FF3302F0FDFD28E7AFF3008098
:1016A00000000000000008400000000000000040B2
:1016B000000000000000F03F000000000000594062
:1016C00000000000000059C0FC0300206C03002053
:1016D0002403002044040020D002002088040020BD
:1016E00000805640500200203502002000100240C9
:1016F00006910008ED9000080000024000005940EB
:101700001F910008020000200000002008B50A20F8
:1017100003F07BF8FBE7000000B595B02C22002118
:1017200009A804F09DFD1422002103A804F098FDEF
:101730000023194A0193116C41F080511164126C1D
:1017400002F080520192019A144A0293116841F406
:101750008041116012680E9302F480420292029A54
:101760000222089201201022CDE90B0208A801F004
:10177000F5FD014608B172B6FEE70F23CDE903304F
:10178000CDE90500079003A801F0C6FF08B172B6C5
:10179000FEE715B05DF804FB003802400070004021
:1017A00000B59BB000F0BEFFAA4BAB4D46221A70AD
:1017B0004C225A70392130229A70D9701A71FFF771
:1017C000ABFF1422002111A804F04AFD0024A34B12
:1017D00000941A6BA24842F010021A631A6B02F0CE
:1017E00010020092009A01941A6B42F001021A63EF
:1017F0001A6B02F001020192019A02941A6B42F0F4
:1018000004021A631A6B02F004020292029A039411
:101810001A6B42F002021A631B6B03F0020303937C
:1018200022464FF4BC61039B01F052F922468D48D9
:101830003C2101F04DF901264FF4BC63884811A901
:10184000CDE91136CDE9134401F068F83C23854811
:1018500011A9CDE91136CDE9134401F05FF810224A
:10186000214606A804F0FCFC1C2221460AA8CDE96A
:10187000044404F0F5FC2022214611A804F0F0FCF9
:10188000794BAC60C5E90034284641F61F43C5E9F1
:101890000334C5E9054402F04BF908B172B6FEE71E
:1018A0004FF4805306A92846069302F08BFA08B13C
:1018B00072B6FEE7284602F067F908B172B6FEE795
:1018C000CDE9040004A9284602F090FB024608B1C5
:1018D00072B6FEE76023CDE90A30CDE90C00CDE910
:1018E0000E0010900AA9284602F006FA08B172B656
:1018F000FEE704220AA9284602F0FEF908B172B6F2
:10190000FEE7CDE91100CDE9130015904FF4005327
:10191000189011A92846169302F0A6FB044608B1B8
:1019200072B6FEE7514D01461C2212A804F098FC45
:101930004FF08043C5E900344FF6FF73C5E9033427
:101940000323119311A90A232846CDE90A44AC6068
:10195000AC61139615931796199302F041F908B1EB
:1019600072B6FEE7CDE90A000AA9284602F03EFB5E
:10197000044608B172B6FEE70146102206A804F03C
:101980006FFC1C2221460AA8CDE9044404F068FC3F
:101990002022214611A804F063FC354D3548A023D0
:1019A000C0E900534FF47A73C0E90334C0E9054439
:1019B000846002F0BDF808B172B6FEE74FF48053C0
:1019C0002C48069306A902F0FDF908B172B6FEE7AD
:1019D000284802F0D9F808B172B6FEE7CDE9040054
:1019E00004A9244802F002FB08B172B6FEE76023A6
:1019F000CDE90A30CDE90E000C9010900C221D4864
:101A00000AA902F079F908B172B6FEE74FF4005363
:101A1000CDE91100CDE913001590189011A91548D2
:101A2000169302F021FB034608B172B6FEE7124896
:101A3000124C03614FF4E132C0E900420C22C0E9CC
:101A40000233C0E90523C36102F0F6FB0446B8B1D6
:101A500072B6FEE735020020FC0300200038024089
:101A60000010024000000240000401406C0300200E
:101A700000000140240300204404002000480040EE
:101A800001461C2212A804F0EBFB384D384BAC6029
:101A9000C5E900344FF6FF73C5E90334032301227F
:101AA000119311A90A232846CDE90A44AC61139287
:101AB00015931792199302F093F808B172B6FEE7E6
:101AC000CDE90A000AA9284602F090FA034608B1B7
:101AD00072B6FEE727482849284A0362C0E9001287
:101AE0004FF48042C0E90233C0E90423C0E9063361
:101AF00001F0D8F9044608B172B6FEE700F04EF9DD
:101B00001F4AD2F8FC3043F08073C2F8FC301D4B02
:101B10005C601A6842F001021A6002F0F5FD1A4A90
:101B20001A48214602F01CFE194B1A4A1860214639
:101B3000194802F015FE194B194A18602146194838
:101B400002F00EFE184B194A18602146184802F0A0
:101B500007FE184B184A18602146184802F000FE8C
:101B6000174B186002F0E2FDFEE700BFB40300204F
:101B700000040040D002002000540040A086010074
:101B800000ED00E0001000E0D4910008851300088B
:101B9000C002002044910008E51300083C02002028
:101BA0008C9100085114000844020020B0910008F4
:101BB000D913000848020020689100080D1700089A
:101BC00040020020012970B50A46044618BF0022D1
:101BD0001348134E4FF4807100F07AFF082500225D
:101BE0002021304600F074FF23064CBF0122002262
:101BF0004021304600F06CFF013D0122202130469B
:101C000000F066FF640015F0FF05E4B2E7D1BDE81F
:101C10007040034801224FF4807100F059BF00BFAB
:101C20000010024070B50F4EB02400212046FFF78F
:101C3000C9FF00210846FFF7C5FF00211020FFF76C
:101C4000C1FF002516F8350001210135FFF7BAFF65
:101C5000802DF7D10134E4B2B82C06F10106E4D1AD
:101C600070BD00BFAC0400200023084810B41C461F
:101C70000022C11801F832400132802AFAD1013322
:101C8000082BF5D15DF8044BFFF7CCBFAC04002066
:101C9000030630B513D43F2911D801F007050A4CCB
:101CA000C908C1F10701C9B204EBC0000123C5F1A5
:101CB000070503FA05F5435C12B12B43435430BDCD
:101CC00023EA0503FAE700BFAC0400202DE9F74F33
:101CD0001F46A2F1200A1F4B9DF830B05FFA8AFA26
:101CE00003EB0A1300931C4B0AEB4A0A03EB8A032B
:101CF0008146884601930C460026B74202D103B0C4
:101D0000BDE8F08F0C2F0CBF019B009B9D5D04F183
:101D100008035FFA83FA2B0658BFBBFA8BF2214601
:101D200004F101044CBF5A4652094846E4B2FFF799
:101D3000AFFFA4EB08026D00BA42EDB207D109F182
:101D400001005FFA80F9C24601365446D5E7A24544
:101D5000E1D1F9E76C960008F8910008F7B5044660
:101D60000D46561E012716F8013F0BB903B0F0BD12
:101D70007A2C82BF1035EDB200243A2D03D9FFF73B
:101D800073FF00252C460097204632780C23294605
:101D90000834FFF79BFFE4B2E5E7000010B501F05F
:101DA000C1FA404B404C1A6F22F001021A671A6FB9
:101DB00022F004021A6701F0C3FA002280212046B3
:101DC00000F086FE642000F0D9FC0122204680212C
:101DD00000F07EFE0021AE20FFF7F4FE0021D520AA
:101DE000FFF7F0FE00215020FFF7ECFE0021A820B5
:101DF000FFF7E8FE00213F20FFF7E4FE0021D3209B
:101E0000FFF7E0FE00210846FFF7DCFE002140203E
:101E1000FFF7D8FE00218D20FFF7D4FE002114200B
:101E2000FFF7D0FE00212020FFF7CCFE002102208A
:101E3000FFF7C8FE0021A120FFF7C4FE0021C0204B
:101E4000FFF7C0FE0021DA20FFF7BCFE00211220C0
:101E5000FFF7B8FE00218120FFF7B4FE0021EF203C
:101E6000FFF7B0FE0021D920FFF7ACFE0021F120E2
:101E7000FFF7A8FE0021DB20FFF7A4FE00213020A1
:101E8000FFF7A0FE0021A420FFF79CFE0021A62062
:101E9000FFF798FE0021AF20FFF794FEBDE8104049
:101EA000FFF7E2BE0038024000100240436C2DE90B
:101EB000D043D3E90067C0E91467036CD0E91A89FD
:101EC000D3E900230446C0E91623394642464B466F
:101ED0003046FEF721FE10B1C4E9148909E0D4E9C7
:101EE0001889304642464B463946FEF7F7FD002832
:101EF000F2D1BDE8D0832DE9F04F2DED048B43786E
:101F000085B004462BB9002005B0BDEC048BBDE8BC
:101F1000F08F00F02DFC6368A268C31A9A42054650
:101F2000F1D8236CA16CD3E900ABD1E90001524692
:101F30005B46FEF7A9F9D4E9162341EC180B50468D
:101F40005946FEF7A1F9D4E90C2341EC190B51ECE9
:101F5000180BFEF751FBD4E91423FEF797F9237809
:101F6000019306460F46C4E914676BB9D4E90A2306
:101F700051EC190BFEF740FB02460B463046394642
:101F8000FEF782F9C4E91401D4E91489D4E91A6787
:101F9000404632463B464946FEF7BEFD002838D053
:101FA000C4E91467019B002B44D0D4E90A2351EC07
:101FB000180BFEF721FB80468946D4E90E2351EC2D
:101FC000190BFEF719FB02460B46D4E91401FEF784
:101FD0005BF942464B46FEF759F980468946024670
:101FE0000B4630463946FEF779FD50B9D4E91867FB
:101FF00042464B4630463946FEF78EFD08B9464606
:102000004F46636C0120C3E90067C4E916AB656005
:102010007AE794ED187B404653EC172B49468DED3B
:10202000027BFEF75BFD0028BCD09DED027B84EDBA
:10203000147BB7E74FF000084FF00009BDE7012916
:1020400038B504460CBF0125002503D143780BB9F0
:10205000FFF72CFF657038BD2DE9F84F55EC104B9C
:1020600057EC116B824611EE102A10EE100A3B4617
:102070002946FEF747FD002837D19AF80130CAE912
:102080001845CAE91A67002B2FD0DAF844B0DBE90B
:10209000008932463B4640464946FEF73DFD78B151
:1020A000CBE90067DAE91467DAE91A4530462246D7
:1020B0002B463946FEF730FD68B1CAE9144514E0F5
:1020C00022462B4640464946FEF708FD0028E9D047
:1020D000CBE90045E6E7DAE91845304622462B46CB
:1020E0003946FEF7FBFC0028E7D1BDE8F88F000079
:1020F0002DE9F34755EC104B8246884610EE100A46
:102100000022002329468DED002B57EC116BFEF7C2
:10211000E5FC00285DD10022002330463946FEF759
:10212000DDFC002855D1DDE9000100220023FEF787
:10213000D5FC00284DD19DED007B08F1FF338AF8D6
:102140000280D3F1000848EB03088AED087BCAE956
:1021500006678AF80080CAE90445DAF80800FEF745
:10216000D1F91D4B0022FEF771FBCAE90A458046F2
:10217000894602460B4630463946FEF73DFA06468A
:102180000F464B464246CAE90C67DDE90001FEF7FF
:102190005DFB9AF8033080468946012BCAE90E8917
:1021A00017D122462B4600200021FEF76DF832465B
:1021B000CAE90A013B4600200021FEF765F84246C5
:1021C000CAE90C014B4600200021FEF75DF8CAE980
:1021D0000E0102B0BDE8F08700408F4038B543786B
:1021E00004460D46D3B1C3788B4217D0D0E90A23F9
:1021F00000210020FEF748F8D4E90C23C4E90A01C5
:1022000000200021FEF740F8D4E90E23C4E90C01B8
:1022100000200021FEF738F8C4E90E01E57038BD52
:1022200010B583640023C0E910124370002200231C
:10223000C0E9182312A3D3E9002386B0C0E91A230A
:102240006423044683609DF824108DED040B8DED0E
:10225000021B8DED002BFFF7C1FF9DED002B9DEDC7
:10226000021B9DED040B9DF820102046FFF740FF58
:1022700000F07EFAA368C01A606006B010BD00BF0F
:102280000000000000E06F40F8B50D1E044620DDA0
:102290002846FEF747F90646A0680F46FEF732F9D2
:1022A00002460B4630463946FEF7D0FA02460B4648
:1022B00006460F46D4E90C01FEF79EF93246C4E902
:1022C0000C013B46D4E90E01FEF7C0FAC4E90E0149
:1022D000A560F8BD82B00E4B00220092596C41F40B
:1022E00080415964596C01F4804100910099019238
:1022F000196C41F0805119641B6C03F080530193F9
:10230000019B0F216FF0010002B000F05DBA00BF29
:102310000038024030B5044689B01422002103A8D9
:1023200003F09EFF2268144B9A4222D1134C1448AA
:1023300000250195236B43F002032363236B03F015
:1023400002030193019B4FF440721223CDE9032352
:1023500003210423CDE9061303A900F0DFFA029557
:10236000236C43F400132364236C03F400130293DF
:10237000029B09B030BD00BF00540040003802404D
:102380000004024010B514228AB0044600210DEB6F
:10239000020003F065FF2368234A934222D1234BB6
:1023A0002348002101915A6C42F001025A645A6C90
:1023B00002F001020192019A02911A6B42F010029E
:1023C0001A631B6B03F0100302934FF48041029BCE
:1023D0000223CDE905130123099305A900F09EFA14
:1023E0000AB010BD134A9342FAD1104B1248002193
:1023F00003915A6C42F002025A645A6C02F00202D3
:102400000392039A04911A6B42F004021A631B6B45
:1024100003F004030493049BC0220223CDE90523A7
:102420000323099305A9D9E70000014000380240C1
:1024300000100240000401400008024070B5142260
:102440008AB0044600210DEB020003F009FF236867
:10245000B3F1804F37D103F50E33002400941A6C8A
:10246000294842F001021A641A6C02F0010200923B
:10247000009A01941A6B42F001021A631A6B02F07F
:1024800001020192019A02941A6B42F002021A634D
:102490001B6B03F002030293029B02264FF40043DE
:1024A000012505A9CDE90536099500F037FA08237D
:1024B000CDE90536CDE907441448099505A900F092
:1024C0002DFA0AB070BD124A9342FAD1114B0E4850
:1024D000002103911A6C42F002021A641A6C02F095
:1024E00002020392039A04911A6B42F001021A63EA
:1024F0001B6B03F001030493049BC0220223CDE96C
:102500000523099305A9DAE7000002400004024010
:10251000000400400038024010B5044688B0142280
:10252000002103A803F09CFE2268184B9A422BD18D
:1025300003F5F833002401941A6C154842F4802204
:102540001A641A6C02F480220192019A02941A6BA6
:1025500042F004021A631B6B03F0040302934FF46E
:102560004062029B0223CDE9032303210723CDE927
:10257000061303A900F0D2F927202246052100F016
:1025800023F9272000F052F908B010BD00480040A0
:1025900000080240FEE7FEE7FEE7FEE7FEE77047C1
:1025A00008B500F0D9F803F03BF9012803D0BDE8E5
:1025B000084003F047BC08BD014801F023BF00BF3D
:1025C000440400200120704708B503F011FE1623D3
:1025D00003604FF0FF3008BD08B503F009FE162375
:1025E0000360FEE770B50D4614460E46731B9C4211
:1025F00001DC204670BDAFF3008006F8010BF5E763
:1026000070B50D4614460E46731B9C4201DC2046F5
:1026100070BD16F8010BAFF30080F5E74FF0FF3007
:1026200070474FF400534B60002070470120704703
:10263000002070470B4A116810B5034609B90A49D2
:102640001160106809490A4C0344091B8B4206D9E2
:1026500003F0CEFD0C2303604FF0FF3010BD13607C
:10266000FCE700BFAC080020105200200000022050
:1026700000040000034AD2F8883043F47003C2F823
:102680008830704700ED00E0DFF834D00D480E4987
:102690000E4A002302E0D458C4500433C4188C42BC
:1026A000F9D30B4A0B4C002301E013600432A24221
:1026B000FBD3FFF7DFFF03F0A1FDFFF771F87047D1
:1026C0000000022000000020E401002074A00008A7
:1026D000E801002010520020FEE7000038B50E4A45
:1026E0000E4B054618784FF47A73B3FBF0F310687D
:1026F000B0FBF3F000F0A8F8044658B90F2D09D844
:10270000024629464FF0FF3000F05EF8044B2046A9
:102710001D6038BD0120FCE70400002008000020F7
:102720000C00002008B50B4B1A6842F400721A60C6
:102730001A6842F480621A601A6842F480721A6061
:10274000032000F02FF80F20FFF7C8FFFFF7C2FDAE
:10275000002008BD003C0240034A044B11681B786E
:102760000B441360704700BFB00800200800002031
:10277000014B1868704700BFB008002038B5044608
:10278000FFF7F6FF631C1CBF054B1B78054618BFFF
:10279000E418FFF7EDFF431BA342FAD338BD00BF97
:1027A000080000200749CA6822F4E062030212040C
:1027B00003F4E063120C134343F0BF6343F40033AC
:1027C000CB60704700ED00E0164B30B5DC68C4F319
:1027D0000224C4F10705231D042D28BF0425062B60
:1027E0004FF0FF338CBF033C002403FA05F521EAC8
:1027F0000501A34022EA0302A140002841EA0203A6
:10280000ACBF00F16040084A4FEA0313B8BF00F0C4
:102810000F00DBB2AABF00F56140135480F800330B
:1028200030BD00BF00ED00E014ED00E0002808DB43
:102830004209012300F01F0003FA00F0014B43F8A6
:102840002200704700E100E00138B0F1807F0BD238
:102850004FF0E023054A5861F02182F82310002050
:10286000072298611A6170470120704700ED00E06F
:1028700070B50446866DFFF77BFF94F83530022B68
:10288000054606D080236365002384F83430012098
:1028900070BD23681A6822F016021A605A6922F085
:1028A00080025A61226C0AB9A26C1AB11A6822F02D
:1028B00008021A601A6822F001021A6023681B6875
:1028C00013F001030AD1E16D3F228A40B260012278
:1028D00084F8352084F834301846D9E7FFF748FFEC
:1028E000401B0528EAD9202363650320002384F8D0
:1028F000350084F83430CBE790F83530022B03D024
:1029000080234365012070470268052380F8353035
:10291000136823F001031360002070472DE9F74F7F
:10292000DFF8A891674A00230D6801249C4004EA5F
:10293000050CAC4340F0B1804D6805F003044FEA4C
:1029400043080326671E06FA08F6012F6FEA0606FB
:1029500034D8876807EA060ECF6807FA08F747EA0F
:102960000E078760476827EA0C0EC5F300179F40E3
:1029700047EA0E074760C76807EA060E8F6807FA3E
:1029800008F747EA0E07022CC76019D14FEAD30AAD
:1029900000EB8A0A03F0070BDAF820704FEA8B0B82
:1029A0004FF00F0E0EFA0BFE27EA0E0E0F6907FA14
:1029B0000BF747EA0E07CAF8207001E0032CDAD1C2
:1029C000076804FA08F43E40264315F4403F0660C9
:1029D00063D04FF0000ACDF804A0D9F844603A4C17
:1029E00046F48046C9F84460D9F8446006F480464D
:1029F0000196019E23F0030606F1804606F59C36FB
:102A000003F0030ED6F808804FEA8E0E0F2707FA60
:102A10000EF7A04228EA070746D004F58064A042DA
:102A200044D004F58064A04242D004F58064A04202
:102A300040D004F58064A0423ED004F58064A042FA
:102A40003CD004F58064A0423AD004F58064A042F2
:102A50000CBF0724082404FA0EF43C43B460146845
:102A60006FEA0C06EF0354BF34404CEA04041460D0
:102A70005468AF0354BF34404CEA04045460946873
:102A8000EF0254BF34404CEA04049460D468AD02B1
:102A900054BF34404CEA0404D4600133102B7FF45B
:102AA00043AF03B0BDE8F08F5446D4E70124D2E72A
:102AB0000224D0E70324CEE70424CCE70524CAE7A8
:102AC0000624C8E7003C01400000024000380240F4
:102AD0000AB1816170470904FBE7436901EA030217
:102AE00021EA030141EA02418161704701684B69B3
:102AF00013F480634FF0000210D06FF480634B61D9
:102B00002023026380F83D3080F83E20036C80F87B
:102B10003C2043F0040303640120704718467047CB
:102B20002DE9F84606460F4691461D464FEA114AE2
:102B30003368BAF1010F0CBF5C699C6927EA040491
:102B4000A4B2B4FA84F46409A14501D0002017E0CE
:102B50006A1CEED0FFF70CFE089BC01AA84201D8F1
:102B6000002DE5D100232022336386F83D2086F82E
:102B70003E30326C86F83C3042F020023264012054
:102B8000BDE8F8862DE9F04104460F461646984602
:102B90002568686927EA000080B2B8B16B695A05F8
:102BA00016D52B6843F400732B606FF480636B6160
:102BB00020220023236384F83D2084F83E30226CD9
:102BC00042F00402226484F83C300120BDE8F08128
:102BD000731CDED0FFF7CCFDA0EB0800B04201D89B
:102BE000002ED5D100232022236384F83D2084F8D1
:102BF0003E30226C42F02002E4E770B504460D46F8
:102C0000164621684B6913F0400301D0002010E004
:102C10004A69D2060ED56FF010024A612022236362
:102C200084F83D2084F83E30226C226484F83C30E5
:102C3000012070BDFFF79CFD801BA84201D8002D2C
:102C4000DFD100232022236384F83D2084F83E3026
:102C5000226C42F02002E8E770B504460D461646A5
:102C600023685B695B0701D5002070BD2046FFF734
:102C70003DFFA8B96A1CF3D0FFF77AFD801BA8427C
:102C800001D8002DECD100232022236384F83D20BD
:102C900084F83E30226C84F83C3042F020022264FA
:102CA0000120E2E770B504460D46164623685B69CD
:102CB0001B0601D5002070BD2046FFF717FFA8B9FD
:102CC0006A1CF3D0FFF754FD801BA84201D8002DE9
:102CD000ECD100232022236384F83D2084F83E3089
:102CE000226C84F83C3042F0200222640120E2E7AA
:102CF0002DE9F0431546026885B0DDE90C78994668
:102D0000136843F4807313600E463B46CDF8008091
:102D100000224FF001110446FFF702FF236838B18B
:102D20001B68DB0502D54FF40073236403200AE01F
:102D300006F0FE061E61194943463A462046FFF753
:102D400021FF18B1012005B0BDE8F083236803908E
:102D50005A6903929B690393424639462046039B76
:102D6000FFF7A0FF40B1236C042B01BF226813685A
:102D700043F400731360E5E7B9F1010F236802D152
:102D8000EDB21D61DFE72A0A1A6139464246204644
:102D9000FFF788FF0028E6D12368F1E70200010071
:102DA0002DE9FF479A46036815461A6842F4806287
:102DB0001A601A68DDE90C7842F480721A600E46D7
:102DC0003B46CDF8008000224FF001110446FFF78A
:102DD000A7FE236848B11B68DB0502D54FF40073DA
:102DE0002364032004B0BDE8F0875FFA86F906F09B
:102DF000FE061E612A4943463A462046FFF7C2FEB8
:102E000008B10120EEE7236803905A6903929B6999
:102E10000393424639462046039BFFF743FF40B1E8
:102E2000236C042B01BF2268136843F40073136002
:102E3000E7E7BAF1010F23681AD1EDB21D614246EE
:102E400039462046FFF72EFF0028E9D12268136893
:102E500043F4807313604FF001110246CDF80080F7
:102E60003B462046FFF75CFE226860B11368B3E77B
:102E70002A0A1A61394642462046FFF713FF002806
:102E8000CED12368D9E749F00103136104494346D1
:102E90003A462046FFF776FE003818BF0120A1E72A
:102EA0000200010070B5044608B9012070BD90F819
:102EB0003D3003F0FF021BB980F83C20FFF72AFAEF
:102EC000242384F83D3023681A6822F001021A6036
:102ED0001A6842F400421A601A6822F400421A602A
:102EE00000F0B6FC3F4B65689D4294BF3E4B3F4BA4
:102EF00098428CBF00230123002BD6D12268394E83
:102F000053683B49B0FBF1F123F03F030B43B5425B
:102F1000536088BF4FF49676136A88BF714323F0DD
:102F20003F0384BF4FF47A76B1FBF6F101311943C8
:102F30001162D169431E2B4821F44F41854221F093
:102F4000FF0132D86D0040F6FC70B3FBF5F301339E
:102F5000034242D0C3F30B030B43D361D4E90730E0
:102F60001168034321F0C0010B4313609168D4E959
:102F7000030321F40341034321F0FF010B4393605A
:102F8000D4E90530D168034321F0FF010B43D3603E
:102F9000136843F00103136000202023206484F8A9
:102FA0003D30206384F83E0080E7A06850B905EB0F
:102FB0004505B3FBF5F30133C3F30B037BB143F4D6
:102FC0000043C9E719204543B3FBF5F30133C3F3CD
:102FD0000B0323B143F44043BEE70423BCE70123C2
:102FE000BAE700BFA08601007F841E00FF083D00F5
:102FF00040420F002DE9F743044699460C9E0F46C8
:103000009046FFF7B5FB94F83D30202B054603D0E2
:10301000022003B0BDE8F08300903C49192301224F
:103020002046FFF77DFD0028F2D194F83C30012BBB
:10303000EED02068012384F83C300368D9075EBFD6
:10304000036843F001030360036823F40063036033
:10305000212384F83D30402384F83E30002323644C
:103060000A9B6362BDF82C306385638D2385284BF2
:10307000E362CDE900654B46424639462046FFF7FC
:1030800037FE00282AD00120C3E7FFF70BFE40B12E
:10309000236C042B01BF2268136843F40073136090
:1030A000F1E7636A27681A4612F8011B3961626208
:1030B000628D218D013A92B262857A69481E80B292
:1030C000520720850AD548B15A783A6102336362C3
:1030D000638D013B02399BB221856385238D2A468E
:1030E00031462046002BD0D1FFF7B6FD0028CFD1C6
:1030F0002268136843F400731360202384F83D3082
:1031000084F83C0084F83E0083E700BF0200100012
:103110000000FFFF2DE9F043044687B09946109F59
:103120000D469046FFF724FB94F83D30202B0646D1
:1031300004D00225284607B0BDE8F0830090764908
:10314000192301222046FFF7EBFC0028F1D194F867
:103150003C30012BEDD02068012384F83C3003681B
:10316000DB075EBF036843F001030360036823F4D9
:1031700000630360222384F83D30402384F83E300E
:10318000002323640E9B6362BDF83C306385638D2E
:103190002385624BE3622946CDE900764B464246E1
:1031A0002046FFF7FDFD054608B10125C2E7228D47
:1031B0002368B2B902905A6902929A690292029AFD
:1031C0001A6842F400721A60DFF85481238D002BD4
:1031D0002CD1202284F83D2084F83C3084F83E3005
:1031E000A8E7012A0AD11A6822F480621A600390C3
:1031F0005A6903929A690392039AE1E7022A0ED16F
:103200001A6822F480621A601A6842F400621A6036
:1032100004905A6904929B690493049BD4E7059037
:103220005A6905929B690593059BCDE7032B56D8F8
:10323000012B15D1324639462046FFF7DEFC002827
:10324000B3D123681A69636A1A70636A01336362CF
:10325000238D013B2385638D013B9BB26385B5E7DD
:10326000022B00963B464FF000024146204619D102
:10327000FFF756FC002898D123681A6842F40072C0
:103280001A601A69636A1A70626A531C6362238D3A
:10329000013B2385638D013B9BB2638523681B69DA
:1032A0005370D2E7FFF73CFC00287FF47EAF236821
:1032B0001A6822F480621A601A69636A1A70636A73
:1032C000009601336362238D013B2385638D013BAF
:1032D0009BB2638502463B4641462046C8E73246DC
:1032E00039462046FFF789FC00287FF45EAF23684B
:1032F0001A69636A1A70626A531C6362238D013B08
:103300002385638D013B9BB2638523685969490717
:103310007FF55CAFC3E700BF020010000000FFFFB5
:1033200004000100044B01221A62044B82B01B68A6
:103330000193019B02B0704700000E4200700040F4
:10334000044B00221A62044B82B01B680193019B5C
:1033500002B0704700000E42007000402DE9F341BA
:10336000044640B30368DD0710D4236898075ED491
:1033700023681A0700F1A08023685B0700F1C08072
:10338000A069002840F0288100202BE08F4B9A682C
:1033900002F00C02042A07D09A6802F00C02082AF4
:1033A0000BD15A68510208D5884B1B689A03DCD5AB
:1033B0006368002BD9D1012014E06268B2F5803F28
:1033C00013D11A6842F480321A60FFF7D1F97F4EA8
:1033D000054633689B03C8D4FFF7CAF9401B64282D
:1033E000F7D9032002B0BDE8F081784DB2F5A02FE7
:1033F0002B6807D143F480232B602B6843F4803380
:103400002B60E2E723F480332B602B6823F48023C6
:103410002B60002AD9D1FFF7ABF906462B689F0332
:10342000A3D5FFF7A5F9801B6428F7D9D9E7674B27
:103430009A6812F00C0F07D09A6802F00C02082A62
:1034400011D15B685E020ED4604A13689D0702D5F5
:10345000E368012BAFD11368216923F0F80343EA35
:10346000C103136084E7E268594BB2B101221A60CC
:10347000FFF77EF9554D06462B68980707D52B6850
:10348000226923F0F80343EAC2032B6070E7FFF7D9
:103490006FF9801B0228EFD9A3E71A60FFF768F9DC
:1034A0004A4E0546336899077FF562AFFFF760F92A
:1034B000401B0228F6D994E76269454B82B101228C
:1034C000C3F8802EFFF754F9404E0546736F9F07EF
:1034D0003FF552AFFFF74CF9401B0228F6D980E7C1
:1034E000C3F8802EFFF744F9384E0546736F9807EE
:1034F0007FF542AFFFF73CF9401B0228F6D970E791
:10350000324B1A6C12F0805228D101921A6C42F0A0
:1035100080521A641B6C03F080530193019B0127B6
:103520002C4D2B68D9051BD5A368284D012B27D11D
:103530002B6F43F001032B67FFF71AF9234E054663
:1035400041F28838336F9B0739D5002F3FF418AF0D
:103550001E4A136C23F08053136411E70027DFE742
:103560002B6843F480732B60FFF702F906462B6843
:10357000DA05D9D4FFF7FCF8801B0228F7D930E729
:10358000052B04D12B6F43F004032B67D0E72A6F80
:1035900022F001022A672A6F22F004022A67002B18
:1035A000CAD1FFF7E5F841F2883806462B6F980735
:1035B000CBD5FFF7DDF8801B4045F7D911E7FFF7C2
:1035C000D7F8401B4045BDD90BE700BF003802408B
:1035D0000000474200700040364DAB6803F00C031A
:1035E000082B3DD0344B002202281A662BD1FFF75E
:1035F000BFF806462B6899011FD4D4E9073213435C
:10360000626A43EA8213E26A43EA0263A26A5208E8
:10361000013A43EA02436B60274B264D01221A66AA
:10362000FFF7A6F804462B689A013FF5ADAEFFF709
:103630009FF8001B0228F6D9D3E6FFF799F8801B04
:103640000228D7D9CDE6FFF793F804462B689B01F3
:103650007FF59AAEFFF78CF8001B0228F6D9C0E67A
:1036600001283FF4BFAE6B68E26903F48001914228
:103670007FF4A1AE216A03F03F028A427FF49BAE41
:10368000616A47F6C0721A40B2EB811F7FF493AEB5
:10369000A26A520803F44031013AB1EB024F7FF4C1
:1036A0008AAEE26A03F07063B3EB026F3FF46CAE74
:1036B00081E600BF0038024000004742134908B5C8
:1036C0008B6803F00C03042B1CD0082B1CD14A6818
:1036D0004B68496813F4800314BF0D480D48C1F3CB
:1036E000881118BF002302F03F02A1FB0001FDF783
:1036F0007BFA064B5B68C3F3014301335B00B0FB0D
:10370000F3F008BD0248FCE70248FAE7003802403F
:1037100040787D010024F4002DE9F0410D46044677
:1037200010B90120BDE8F081444B1A6802F007028D
:103730008A4228D3226897072DD4D00741D43F4B23
:103740001A6802F00702AA4266D8226851076CD4B0
:10375000130707D53A4A2169936823F4604343EA83
:10376000C1039360FFF7AAFF354B364A9B68C3F34A
:103770000313D35CD840344B1860344B1868FEF701
:10378000ADFF0020CEE7CAB21A701B6803F0070332
:103790008B42C6D1CEE72A4B12F0040F1EBF9968A8
:1037A00041F4E0519960160742BF996841F46041C5
:1037B00099602349A0688B6823F0F00303438B6072
:1037C000BBE762681E4B012A1CD11B6813F4003F43
:1037D000A7D01B4EB36823F003031343B360FEF777
:1037E000C7FF41F288380746B368626803F00C03EC
:1037F000B3EB820FA3D0FEF7BBFFC01B4045F3D94C
:1038000003208FE7911E01291B6802D813F0007F67
:10381000DEE713F0020FDBE7EAB21A701B6803F071
:103820000703AB427FF47DAF8FE70549E0688B6803
:1038300023F4E05303438B608AE700BF003C02405F
:10384000003802405C9C0008040000200C000020AE
:10385000044B054A9B68C3F38223D35C034A106878
:10386000D8407047003802406C9C000804000020DB
:10387000044B054A9B68C3F34233D35C034A106888
:10388000D8407047003802406C9C000804000020BB
:10389000036A23F001030362036A70B54468826916
:1038A0000D6822F073022A438D6823F002032B4334
:1038B0000E4DA84202D00E4EB04210D1CE6823F079
:1038C00008033343A84223F0040302D0084DA84262
:1038D00005D1D1E9055624F4407435432C434460A6
:1038E00082614A684263036270BD00BF000001400C
:1038F00000040140036A23F480730362036A70B515
:103900004468C2690D6822F073022A438D6823F46B
:10391000007343EA0523114DA84203D005F58065E5
:10392000A84214D1CD6823F4006343EA05230B4D6C
:10393000A84223F4806303D005F58065A84206D130
:10394000D1E9055624F44054354344EA0514446053
:10395000C2614A68C263036270BD00BF00000140DB
:10396000036A23F480530362036A30B54468C26972
:103970000D6822F4E64242EA05228D6823F40053E2
:1039800043EA0533084DA84203D005F58065A842F7
:1039900004D14D6924F4804444EA85144460C26132
:1039A0004A680264036230BD00000140704730B5D0
:1039B00090F83E2090F83F3090F8425090F8434005
:1039C000D2B2DBB2EDB2E4B2C9B9012A46D1012DBF
:1039D00046D1022380F83E3080F8423003681A6AEC
:1039E00022F001021A621A6A42F001021A620268A7
:1039F000136843F0010313600023184630BD042907
:103A000011D1012B2AD1012CF7D1022380F83F30AC
:103A100080F8433003681A6A22F010021A621A6AA8
:103A200042F01002E2E7012A18D1012B18D1012D32
:103A3000E3D1012CE1D1022380F83E3080F83F3001
:103A400080F8423080F8433003681A6A22F001029D
:103A50001A621A6A42F001021A62DCE70123CCE71B
:103A60001346CAE7304A0368904212D0B0F1804F43
:103A70000FD0A2F57C4290420BD002F580629042BA
:103A800007D002F58062904203D002F5784290425E
:103A900019D14A6823F070031343234A904229D076
:103AA000B0F1804F26D0A2F57C42904222D002F5A0
:103AB000806290421ED002F5806290421AD002F5D8
:103AC0007842904216D0194A904213D002F5806293
:103AD00090420FD002F5806290420BD0A2F598324E
:103AE000904207D002F58062904203D002F58062D6
:103AF000904203D1CA6823F4407313434A6923F008
:103B00008003134303608B68C3620B688362064BB8
:103B1000984203D003F58063984201D10B69036397
:103B200001234361704700BF000001400040014095
:103B300010B5044630B390F83D3003F0FF021BB9D6
:103B400080F83C20FEF71EFC0223206884F83D30FC
:103B5000211DFFF787FF012384F84630002084F8F9
:103B60003E3084F83F3084F8403084F8413084F8A7
:103B7000423084F8433084F8443084F8453084F887
:103B80003D3010BD0120FCE710B5044630B390F87D
:103B90003D3003F0FF021BB980F83C20FFF706FF21
:103BA0000223206884F83D30211DFFF75BFF0123CD
:103BB00084F84630002084F83E3084F83F3084F8A2
:103BC000403084F8413084F8423084F8433084F83F
:103BD000443084F8453084F83D3010BD0120FCE7C6
:103BE000F8B50D46044600284DD090F83D3003F05E
:103BF000FF021BB980F83C20FEF720FC214602237F
:103C000084F83D3051F8040B836823F4804323F09B
:103C100007038360FFF726FF20682A6886688369A8
:103C2000A968076A1643AA6923F4407341EA02218E
:103C300023F003030B4323F47C422B69E9691B0146
:103C400043EA0123E9680B43296A22F0FC0243EAB4
:103C500001331343696927F0AA026F68866047EA57
:103C60000117836117430123076284F8463000205F
:103C700084F83E3084F83F3084F8423084F8433092
:103C800084F83D30F8BD0120FCE70000036A23F012
:103C900010030362036A70B5446882690D6822F4F8
:103CA000E64242EA05228D6823F0200343EA051329
:103CB000104DA84203D005F58065A84214D1CD6807
:103CC00023F0800343EA05130A4DA84223F0400382
:103CD00003D005F58065A84206D1D1E9055624F444
:103CE0004064354344EA8504446082614A688263E3
:103CF000036270BD0000014070B590F83C30012BAC
:103D0000054653D00120082A85F83C003DD006D84E
:103D1000C2B1042A28D0002385F83C3070BD0C2A9B
:103D2000F9D12868FFF71CFE2B680969DA6942F4AB
:103D30000062DA61DA6922F48062DA61DA6942EA01
:103D4000012231E02868FFF7A3FD2B6809699A6911
:103D500042F008029A619A6922F004029A619A6913
:103D60000A439A610020D6E72868FFF78FFF2B6887
:103D700009699A6942F400629A619A6922F4806240
:103D80009A619A6942EA0122EBE72868FFF7B2FDDF
:103D90002B680969DA6942F00802DA61DA6922F00F
:103DA0000402DA61DA690A43DA61DBE70220B5E787
:103DB00010B58468114324F47F4441EA032323436C
:103DC000836010BD70B590F83C30012B04464FF075
:103DD000020300F09180012280F83D3080F83C2001
:103DE0000068836823F47F4323F0770383600B68C4
:103DF000602B52D033D8402B67D016D8202B0DD053
:103E00000AD833F0100109D0012384F83D30002393
:103E100084F83C30104670BD302BF5D1826822F01A
:103E20007002134343F0070317E0502BECD14A68AC
:103E3000CE68016A056A25F001050562836921F0F3
:103E40000A0123F0F00343EA06130A438361026286
:103E5000836823F0700343F05703836011E0B3F5E8
:103E6000805F0ED0B3F5005F0DD0702BCCD1CB6846
:103E7000D1E90121FFF79CFF2268936843F07703A3
:103E800093600022C0E7CB68D1E90121FFF790FFE2
:103E90002268936843F48043F2E74D68CE68016A74
:103EA00021F0100101628269036A22F4704223F05A
:103EB000A00343EA051342EA063282610362836883
:103EC00023F0700343F06703C7E74A68CE68016ACE
:103ED000056A25F001050562836921F00A0123F0D6
:103EE000F00343EA06130A4383610262836823F006
:103EF000700343F04703B0E71A468BE7036A01F00B
:103F00001F0110B501248C4023EA04030362036AF5
:103F10008A401A43026210BD10B5044629B990F8D0
:103F20003E30012B18D001202DE004290DD190F84E
:103F30003F30013B18BF0123002BF4D104294FF07F
:103F4000020321D184F83F3009E008290CBF90F822
:103F5000403090F84130ECE7022380F83E30206892
:103F60000122FFF7CBFF23681C498B4213D01C4A68
:103F7000934210D0B3F1804F14D19A6802F0070237
:103F8000062A26D1002010BD08290CBF84F8403035
:103F900084F84130E3E75A6C8B4242F400425A64A1
:103FA000EBD0E7E70F4A9342E7D002F580629342F5
:103FB000E3D002F580629342DFD002F5784293426B
:103FC000DBD002F570529342D7D0A2F594329342DF
:103FD000D3D01A6842F001021A60D3E70000014012
:103FE0000004014000040040FFF796BF30B590F890
:103FF0003C30012B4FF0020332D080F83D30036893
:104000000D685C689A6824F070042C435C60154C61
:10401000A3421AD0B3F1804F17D0A4F57C44A34239
:1040200013D004F58064A3420FD004F58064A3424A
:104030000BD004F57844A34207D004F57054A34292
:1040400003D0A4F59434A34204D1496822F080023D
:104050000A439A60012380F83D30002380F83C3009
:10406000184630BD0000014090F83C30012B1FD0B5
:10407000CB688A6823F4407313434A6823F480634F
:1040800013430A6823F4006313430A6923F480533B
:1040900013434A6923F400531343CA6923F480434A
:1040A000134302685364002380F83C30184670477D
:1040B00002207047026802F10C0353E8003F23F42A
:1040C00090730C3242E8003102680029F2D102F10B
:1040D000140353E8003F23F0010302F1140C4CE8F1
:1040E00000310029F3D1036B012B0BD102F10C033A
:1040F00053E8003F23F0100302F10C0C4CE80031B0
:104100000029F3D1202380F83E3000230363704759
:104110000268C168136923F440530B4370B51361FF
:10412000054683680069D168034368690343E86909
:1041300021F4164121F00C0103430B43D360536972
:10414000A96923F440730B4353611F4B9A4203D078
:1041500003F580639A4223D1FFF78AFBEB691921AB
:10416000B3F5004FD5E90046A0FB01011BD1B21900
:104170004FF000035B41FCF737FD6421B0FBF1F524
:1041800001FB1503DB003233B3FBF1F303F007024D
:104190005B0002EB051203F4F8731344A36070BDD7
:1041A000FFF756FBDAE7B200B30FFCF71DFD642200
:1041B000B0FBF2F102FB11031B013233B3FBF2F34C
:1041C00003EB0113EAE700BF00100140F8B5044615
:1041D0000E4617461D462268136836EA030301D1CE
:1041E000002028E06B1CF7D025B1FEF7C1FAC01BF8
:1041F0008542F0D2226802F10C0353E8003F23F419
:10420000D0730C3242E8003021680028F2D101F16D
:10421000140353E8003F23F0010301F1140040E8C8
:104220000032002AF3D1202384F83D3084F83C206A
:1042300084F83E300320F8BD10B5044640B390F832
:104240003D3003F0FF021BB980F83C20FEF764F913
:104250002268242384F83D30D36823F40053D360CC
:104260002046FFF755FF23681A6922F490421A612D
:104270005A6922F02A025A61DA6842F40052DA607E
:1042800000202023206484F83D3084F83E3010BDA7
:104290000120FCE7F7B5174690F83D200093202A4F
:1042A00004460E4649D1002945D0002F43D090F84E
:1042B0003C20012A41D0012280F83C200025212207
:1042C000056480F83D20FEF753FAA168009BA7849F
:1042D000B1F5805F0246E78403D1216909B935460B
:1042E0000E46002184F83C10E18C89B241B940218E
:1042F0002046FFF76BFF60B9202384F83D3009E0CA
:1043000080212046CDE90023FFF760FFDDE900238F
:1043100010B1032003B0F0BD20684EB935F8021B80
:10432000C1F308014160E18C013989B2E184DBE726
:1043300016F8011BF6E70120ECE70220EAE77047D8
:104340007047704708B5806B0023C385C384FFF7AF
:10435000F8FF08BD704707B58168836A0268B1F548
:10436000805F3ED1016900293ED15268C2F3080244
:1043700023F8022B8362C38D013B9BB2C385002BC4
:104380002CD10268D16821F02001D160D16821F4DC
:104390008071D160516921F001015161202280F8C2
:1043A0003E20026B012A026828D1036302F10C034C
:1043B00053E8003F23F0100302F10C0C4CE80031ED
:1043C0000029F3D11368DB0605D501911368019329
:1043D00053680193019B818DFFF7BCFF03B05DF82B
:1043E00004FB39B9016929B95268D2B21A70836ADB
:1043F0000133BFE7526802F07F02F7E7FFF7A0FF43
:10440000ECE70000036837B51A68D9685D6912F0F7
:104410000F0F04460CD1950670D58D066ED590F819
:104420003E30222B64D103B0BDE83040FFF793BF8C
:1044300005F0010001F4907505435FD0D50705D55F
:10444000CB0542BF236C43F001032364550704D519
:1044500018B1236C43F002032364930704D518B109
:10446000236C43F004032364150707D501F02003F0
:1044700003431EBF236C43F008032364236C002B0B
:1044800036D0900608D58A0606D594F83E30222B01
:1044900002D12046FFF75FFF23685B69256C03F0BC
:1044A000400305F008051D43204623D0FFF702FE18
:1044B000226853695B0618D502F1140353E8003FE4
:1044C00023F0400302F1140040E800310029F3D149
:1044D000A06B50B1724B0365FEF70EFA40B1A06BB2
:1044E000036D03B0BDE8304018472046FFF729FFB1
:1044F00003B030BDFFF725FF2564F9E7206B0128E5
:1045000040F09180D50640F18E80C80640F18B8046
:10451000002201921A6801925A680192019A5A691E
:1045200055064CD5A16B0A68526892B2002ADFD0BA
:10453000A08D9042DCD9E285CA69B2F5807F36D081
:1045400003F10C0252E8002F22F4807203F10C00F8
:1045500040E800210029F3D103F1140252E8002FB2
:1045600022F0010203F1140040E800210029F3D1F8
:1045700003F1140252E8002F22F0400203F114006C
:1045800040E800210029F3D1202284F83E20216355
:1045900003F10C0252E8002F22F0100203F10C008C
:1045A00040E800210029F3D1A06BFEF761F9E38D0B
:1045B000A18DC91A89B22046FFF7CCFE98E7E18D9C
:1045C0008AB2E18D89B2002992D0A18D891A89B26F
:1045D00000298DD003F10C0252E8002F22F49072D2
:1045E00003F10C0545E800200028F3D103F1140283
:1045F00052E8002F22F0010203F1140545E80020E3
:104600000028F3D1202284F83E20206303F10C021D
:1046100052E8002F22F0100203F10C0545E80020BB
:104620000028F3D1C7E7100628D50D0626D594F843
:104630003D20212A7FF45CAFA168226AB1F5805F3A
:1046400017D12169A9B932F8021BC1F308015960D9
:104650002262E28C013A92B2E284002A7FF448AFEF
:10466000DA6822F08002DA60DA6842F04002DA604A
:104670003EE7511C216212785A60EAE750067FF546
:1046800037AF4A067FF534AFDA6822F04002DA60CD
:10469000202384F83D302046FFF751FE28E700BF75
:1046A00045430008C285828522230022026480F8E7
:1046B0003E30036880F83C208162D96841F4807103
:1046C000D960596941F001015961D96841F020016F
:1046D000D9601046704770B490F83E60202E10D11B
:1046E00061B15AB190F83C40012C0AD0012480F805
:1046F0003C400024046370BCFFF7D4BF012070BCB1
:1047000070470220FBE70000EFF305832BB9064B4F
:10471000186828B901221A6070476FF005007047C9
:104720004FF0FF30704700BF100B002010B5EFF3C3
:1047300005845CB9084B1A68012A0AD1074AD47764
:1047400002221A6000F09EFD204610BD6FF00500A9
:10475000FBE74FF0FF30F8E7100B002000ED00E022
:10476000F0B587B0144600220B460592EFF30582A0
:10477000D2B9C8B1002C2FD0A569002D08BF1825CB
:10478000691E3729AC462BD86168C90728D46669E9
:104790006EB1B208D4E9027E216857B1BEF15B0F59
:1047A00002D9246904B1EEB9059807B0F0BD8022A2
:1047B000F0E7BEF1000FF7D12469002CF4D10C46CC
:1047C00005A9CDE900C192B2214600F02EFD0128D5
:1047D0001CBF00230593E7E74FF0180C8022EFE79A
:1047E0001046E2E7CDE90147009500F0E6FC0590B0
:1047F000DAE710B5EFF3058424B910B100F0E8FE54
:10480000204610BD6FF00500FBE737B50546EFF316
:1048100005845CB900F084FD291A0029019008DDA7
:1048200001A800F08DFE204603B030BD6FF00500FA
:10483000FAE76FF00300F7E7034B0360034B0B60ED
:1048400080231360704700BFB40A0020B408002022
:10485000034B0360034B0B604FF48073136070478E
:10486000140F0020140B002000F108034FF0FF325A
:10487000C0E9022343600361002303607047002303
:104880000361704743684B609A688A609A68516018
:1048900099600368086101330360704730B50C68A4
:1048A000631C0AD103695A684A6091608B60596041
:1048B000036808610133036030BD00F1080213464C
:1048C00052681568A542FAD9EDE7D0E901120369EB
:1048D0008A6051605968814208BF5A6000220261B3
:1048E0001A68013A1A601868704710B5044601F05A
:1048F00041FAA46B01F05EFAB4FA84F0400910BDED
:10490000F8B51546026C866B044652B9076847BB7A
:10491000806800F095FFA76005460136A66328462B
:10492000F8BD65B9406801F08DFC6368226C1344E2
:10493000A26863609342F0D323686360EDE7C068C8
:1049400001F080FC226CE36851429B1A2268E3600C
:1049500093423EBFA3685B18E360022D01D116B1FC
:10496000013E0025D9E73546D7E7034610B41A6C57
:1049700008466AB1DC68996814448C4228BF1968FB
:10498000DC6028BFD960D9685DF8044B01F05ABCDF
:104990005DF8044B704770B5044601F0EBF994F8EC
:1049A000455004F124066DB2002D14DCFF2384F879
:1049B000453001F0FFF901F0DDF994F8445004F1BD
:1049C00010066DB2002D12DCFF2384F84430BDE8E0
:1049D000704001F0EFB9636A002BE7D0304600F079
:1049E0008DFE08B100F016FF013D6DB2DCE72369D2
:1049F000002BE9D0304600F081FE08B100F00AFF3C
:104A0000013D6DB2DEE738B50D46044640B94FF0C2
:104A1000500383F31188BFF36F8FBFF34F8FFEE70F
:104A200001F0A8F9D4E90F31226862604B43D01835
:104A30005B1A1344A060E3600020FF23A06384F8A6
:104A4000443084F84530A5B9236973B104F11000EE
:104A500000F054FE48B14FF0E0234FF08052C3F80D
:104A6000042DBFF34F8FBFF36F8F01F0A3F9012027
:104A700038BD04F11000FFF7F7FE04F12400FFF742
:104A8000F3FEF2E713B51C4640B94FF0500383F331
:104A90001188BFF36F8FBFF34F8FFEE743B94FF01D
:104AA000500383F31188BFF36F8FBFF34F8FFEE77F
:104AB0004AB191B94FF0500383F31188BFF36F8F60
:104AC000BFF34F8FFEE741B14FF0500383F31188DE
:104AD000BFF36F8FBFF34F8FFEE750230193019B0E
:104AE000502B08D04FF0500383F31188BFF36F8F22
:104AF000BFF34F8FFEE7002908BF2246019B2260CB
:104B00000123C4E90F0184F8463019462046FFF717
:104B10007AFF9DF8103084F84C30204602B010BD6A
:104B20002DE9F04385B0884601921F46044640B9FE
:104B30004FF0500383F31188BFF36F8FBFF34F8F94
:104B4000FEE751B9036C43B14FF0500383F3118872
:104B5000BFF36F8FBFF34F8FFEE7022F0BD1E36BD5
:104B6000012B08D04FF0500383F31188BFF36F8FF0
:104B7000BFF34F8FFEE700F053FE064650B9019B8E
:104B80004BB14FF0500383F31188BFF36F8FBFF326
:104B90004F8FFEE700264FF0000937E0019D1DB959
:104BA00001F008F9002052E016B902A800F0EAFD71
:104BB00001F000F900F0ACFB01F0DCF894F84430AF
:104BC000FF2B08BF84F8449094F84530FF2B08BFB2
:104BD00084F8459001F0EEF801A902A800F0DEFD8E
:104BE00000284AD101F0C6F8A26BE36B9A4231D19A
:104BF00001F0E0F8019904F1100000F047FD2046B3
:104C0000FFF7C9FE00F028FC60B3012601F0B2F8FE
:104C1000A26BE36B9A4201D3022FBFD13A464146C1
:104C20002046FFF76DFE636A1BB104F1240000F01B
:104C300065FD48B14FF0E0234FF08052C3F8042DDA
:104C4000BFF34F8FBFF36F8F01F0B4F8012005B0B1
:104C5000BDE8F08301F0AEF82046FFF79CFE00F0BF
:104C6000FBFBD2E74FF0E0234FF08052C3F8042D56
:104C7000BFF34F8FBFF36F8FC7E72046FFF78BFE61
:104C800000F0EAFB8EE72DE9F843894690461F467F
:104C9000044640B94FF0500383F31188BFF36F8F80
:104CA000BFF34F8FFEE751B9036C43B14FF0500390
:104CB00083F31188BFF36F8FBFF34F8FFEE7022F8F
:104CC0000BD1E36B012B08D04FF0500383F3118815
:104CD000BFF36F8FBFF34F8FFEE701F061F9EFF382
:104CE00011864FF0500383F31188BFF36F8FBFF32A
:104CF0004F8FA26BE36B9A4201D3022F23D194F81A
:104D00004550A36B6DB23A4649462046FFF7F8FD81
:104D10006B1C13D1636A0BB901200BE004F1240072
:104D200000F0ECFC0028F7D0B8F1000FF4D001201F
:104D3000C8F8000086F31188BDE8F88301356DB22C
:104D400084F84550E8E70020F4E72DE9FF410F46DD
:104D50000192044640B94FF0500383F31188BFF32A
:104D60006F8FBFF34F8FFEE751B9036C43B14FF024
:104D7000500383F31188BFF36F8FBFF34F8FFEE7AC
:104D800000F04EFD064650B9019B4BB14FF0500369
:104D900083F31188BFF36F8FBFF34F8FFEE70026B9
:104DA0004FF000083DE0019D1DB901F003F800201F
:104DB00056E016B902A800F0E5FC00F0FBFF00F099
:104DC000A7FA00F0D7FF94F84430FF2B08BF84F80F
:104DD000448094F84530FF2B08BF84F8458000F0EC
:104DE000E9FF01A902A800F0D9FC002841D1204622
:104DF000FFF77BFDB8B3019904F1240000F046FCF5
:104E00002046FFF7C8FD00F027FB48B94FF0E0232C
:104E10004FF08052C3F8042DBFF34F8FBFF36F8F55
:104E2000012600F0A7FFA56B002DBCD03946204617
:104E3000013DFFF79AFDA563236973B104F11000EA
:104E400000F05CFC48B14FF0E0234FF08052C3F813
:104E5000042DBFF34F8FBFF36F8F00F0ABFF012026
:104E600004B0BDE8F0812046FFF795FD00F0F4FAAC
:104E7000D6E72046FFF78FFD00F0EEFA2046FFF759
:104E800034FD0028CCD092E710B5074A002352F831
:104E900033402CB942F8331002EBC303586010BD05
:104EA0000133082BF3D1FAE7700F002070B50446E8
:104EB0000D46164600F05EFF94F84430FF2B04BF09
:104EC000002384F8443094F84530FF2B04BF0023BE
:104ED00084F8453000F06EFFA36B2BB932462946AB
:104EE00004F1240000F0ECFB2046BDE87040FFF721
:104EF00052BD00002DE9F041044600F03BFF304B6D
:104F0000304E1A68304F01321A603568002D4BD18F
:104F100034601B68012B1FD1B84640460135FFF7AE
:104F2000A3FC382D08F11408F7D1DFF8C480274D11
:104F30004046FFF799FC2846FFF796FC2448FFF708
:104F400093FC2448FFF790FC2348FFF78DFC234B8C
:104F5000C3F80080224B1D60224A1368013313609E
:104F6000214A63641168E36A14208B4200FB0370DA
:104F700004F1040188BF1360FFF784FC00F01AFFFE
:104F80001A4B1B6873B13368DA6AE36A9A4209D232
:104F90004FF0E0234FF08052C3F8042DBFF34F8F42
:104FA000BFF36F8FBDE8F081104B1B68002BD3D18E
:104FB0003368DA6AE36A9A4298BF3460CCE700BF8C
:104FC0001C140020B00F0020BC0F0020441400204F
:104FD00064140020901400207C140020B40F0020E2
:104FE000B80F0020281400202C1400207814002072
:104FF00030140020F8B5154B154E1D680446306876
:1050000004300F46FFF761FC631C07D137B13168EC
:105010001048BDE8F8400431FFF734BC33682C1960
:105020005C6007D30C4B18683168BDE8F840043168
:10503000FFF734BC094B186831680431FFF72EFCC8
:10504000074B1A68A24288BF1C60F8BDA414002058
:10505000B00F00207C140020B80F0020B40F0020F7
:1050600058140020064A13681968064B19B94FF006
:10507000FF321A6070471268D268D2685268F8E747
:10508000B40F00205814002010B590F85930044691
:105090003BB9006B01F06EF82046BDE8104001F00E
:1050A00069B8012BF9D0022B08D04FF0500383F3DD
:1050B0001188BFF36F8FBFF34F8FFEE710BD000065
:1050C00080B5134C134F144D236873B9134B1B68F1
:1050D000012BF8D94FF0E0234FF08052C3F8042D94
:1050E000BFF34F8FBFF36F8FEDE700F043FEFB6818
:1050F000DE68301DFFF7E9FB2B68013B2B6023685E
:10510000013B236000F056FE3046FFF7BDFFDBE7B2
:1051100020140020901400201C140020BC0F00203C
:105120002DE9F047DDE909844FEA82094A4606463F
:105130000D46206BA5211F4601F092F8226BA9F1C4
:105140000409914429F00709A5B36B1E04F1340248
:105150000F3513F8010F02F8010B08B1AB42F8D17B
:10516000002384F84330089D372D28BF37254FF0A2
:10517000000AE562E564201DC4F850A0FFF77FFB3C
:10518000C5F1380504F11800FFF779FBC4F854A005
:105190002461A561646284F858A03A4631464846C5
:1051A00000F0BCFD2060B8F1000F01D0C8F800404D
:1051B000BDE8F08784F83450D5E770B586B0DDE9F6
:1051C0000B5445B94FF0500383F31188BFF36F8F31
:1051D000BFF34F8FFEE744B94FF0500383F31188BC
:1051E000BFF36F8FBFF34F8FFEE75C260596059EDA
:1051F0005C2E08D04FF0500383F31188BFF36F8FFC
:10520000BFF34F8FFEE72563022584F8595004ADA4
:1052100001950A9D02940095059EFFF781FF2046A7
:10522000FFF768FE049806B070BD2DE9F04307460D
:1052300085B0900088461646994600F003FF054663
:10524000E8B15C2000F0FEFE0446A8B1002380F81F
:1052500059300D9B056301930C9B029000933246DD
:105260004B4641463846FFF75BFF2046FFF742FEBC
:10527000012005B0BDE8F083284600F07BFF4FF029
:10528000FF30F6E710B588B0002407AA06A905A8E4
:10529000CDE90544FFF7D0FA059B0293069B079AD8
:1052A00016491748CDE900432346FFF786FF18B398
:1052B00000F05CFB012814D14FF0500383F31188F8
:1052C000BFF36F8FBFF34F8F0E4B4FF0FF321A605B
:1052D0000D4B18600D4B1C6008B0BDE8104000F08D
:1052E000D9BD013008D14FF0500383F31188BFF3CB
:1052F0006F8FBFF34F8FFEE708B010BD749C00089E
:10530000C15000085814002078140020A414002074
:10531000024A136801331360704700BF2414002051
:10532000014B1868704700BFA41400203F4B1B6856
:105330002DE9F74F002B73D13D4B1D6801351D60E2
:10534000BDB93C4B1A68126842B14FF0500383F369
:105350001188BFF36F8FBFF34F8FFEE7364A19688E
:10536000106818601160354A136801331360FFF745
:1053700079FE334E334F3368DFF8D4809D424FF0CF
:10538000000411D2D8F80030DB6A14225343FB58D2
:10539000022B2D4B1B6828BF0124002B18BF0124B2
:1053A000204603B0BDE8F08FDFF88890DFF8A4A0B6
:1053B000D9F800301B681BB94FF0FF333360E1E7C9
:1053C000D9F80030DB68D3F80CB0DBF80420954244
:1053D00001D23260D6E70BF1040108460191FFF7D4
:1053E00074FADBF82820019922B10BF11800FFF7BD
:1053F0006CFA0199DBF82C00DAF8002014239042B3
:1054000088BFCAF8000003FB0070FFF73BFAD8F82A
:105410000010DBF82C20CB6A9A4228BF0124C7E792
:105420000A4A1368013313600024B9E724140020EA
:10543000A4140020B40F0020B80F00205C1400203A
:1054400058140020BC0F0020A81400206014002075
:10545000B00F00202C140020F7B5314C236843B95D
:105460004FF0500383F31188BFF36F8FBFF34F8F5B
:10547000FEE700F07FFC2368013B236024682CB129
:10548000002400F097FC204603B0F0BD254B1B68BC
:10549000002BF5D0244D254E254F1EE0EB68DC682F
:1054A00004F11800FFF711FA211D08460191FFF7DA
:1054B0000CFAE36A326801991420934200FB0370EE
:1054C00088BF3360FFF7DEF91A4BE26A1B68DB6ABC
:1054D0009A4202D3184B01221A602B68002BDDD1AF
:1054E0000CB1FFF7BFFD154D2C6844B1124E0127DA
:1054F000FFF71CFF00B13760013CF9D12C600E4B67
:105500001B68002BBCD04FF0E0234FF08052C3F853
:10551000042DBFF34F8FBFF36F8F0124B1E700BF9E
:10552000241400201C140020641400202C140020DB
:10553000BC0F0020B00F0020A81400206014002031
:1055400010B540B94FF0500383F31188BFF36F8F4C
:10555000BFF34F8FFEE741B94FF0500383F311883B
:10556000BFF36F8FBFF34F8FFEE7174B1B6843B13D
:105570004FF0500383F31188BFF36F8FBFF34F8F4A
:10558000FEE7FFF7C5FE114B04681A6863182CBFCD
:1055900001210021944203600ED971B9FFF75CFF2D
:1055A00048B94FF0E0234FF08052C3F8042DBFF309
:1055B0004F8FBFF36F8F10BD09B99A42EED2002111
:1055C000981AFFF717FDE9E724140020A41400201F
:1055D00008B550B94FF0E0234FF08052C3F8042DC6
:1055E000BFF34F8FBFF36F8F08BD0A4B196841B1EE
:1055F0004FF0500383F31188BFF36F8FBFF34F8FCA
:10560000FEE7FFF785FEFFF7F5FCFFF725FF002813
:10561000E0D0E9E724140020174B1A68174B70B547
:1056200012B101221A6070BD154D1A602A68154921
:10563000142606FB02F3C818CC588CB14468083312
:10564000646844600B449C4204BF63684360142355
:1056500003FB02114B68D9680B4B19602A60E2E723
:1056600042B94FF0500383F31188BFF36F8FBFF33C
:105670004F8FFEE7013ADCE724140020A814002035
:105680002C140020BC0F0020B00F002010B50C46D9
:1056900040B94FF0500383F31188BFF36F8FBFF30E
:1056A0004F8FFEE7054B19681831FFF7F7F82046D2
:1056B0000121BDE81040FFF79DBC00BFB00F0020E6
:1056C00038B50D46144640B94FF0500383F31188A6
:1056D000BFF36F8FBFF34F8FFEE7074B1968183189
:1056E000FFF7D0F8002C21460CBF28464FF0FF30C2
:1056F000BDE83840FFF77EBCB00F0020C36813B58B
:10570000DC6844B94FF0500383F31188BFF36F8F07
:10571000BFF34F8FFEE704F1180108460191FFF730
:10572000D4F8124B01991B68EBB9211D0846019171
:10573000FFF7CBF80E4AE36A10680199834288BFED
:1057400013600C4A142000FB0320FFF79BF80A4B60
:10575000E26A1B68DB6A9A4285BF084B0120002081
:10576000186002B010BD0648EFE700BF2414002007
:105770002C140020BC0F0020B00F0020A814002023
:1057800064140020034B1B680360034B1B684360D9
:10579000704700BF5C140020A414002070B50C46B4
:1057A000054640B94FF0500383F31188BFF36F8F64
:1057B000BFF34F8FFEE741B94FF0500383F31188D9
:1057C000BFF36F8FBFF34F8FFEE700F0D3FA0F4B9D
:1057D000196823685A1C10D00D482E6800686A6842
:1057E000864201D08A420FD9881A83420AD95B1AAD
:1057F000134423602846FFF7C5FF002400F0DAFABF
:10580000204670BD002323600124F7E7A414002084
:105810005C140020014B01221A607047A81400207C
:10582000054B1B6833B1054B1B68002B0CBF0220D6
:1058300000207047012070477814002024140020B5
:1058400013B510B9002002B010BD1C4B1C68844277
:1058500008D04FF0500383F31188BFF36F8FBFF36D
:105860004F8FFEE7236D43B94FF0500383F3118848
:10587000BFF36F8FBFF34F8FFEE7E16AE26C013B2E
:1058800091422365DED0002BDCD1211D0846019119
:10589000FFF71BF8E36C0199E362C3F13802A261E0
:1058A000074A1068834288BF1360064A142000FB31
:1058B0000320FEF7E7FF0120C5E700BFB00F00207F
:1058C0002C140020BC0F0020F7B5114C00F052FA48
:1058D0002568BDB90F4F104E3846FEF7C5FF30465C
:1058E000FEF7C2FF0D4B0E4A1F600E4B10211E60CB
:1058F0000A200D4B0095FFF7C5F8206010B10B4949
:10590000FFF7C2FA03B0BDE8F04000F053BA00BFA1
:10591000D01500205415002068150020AC1400207C
:10592000B4140020B014002080150020799C0008D9
:10593000914208B5416000610AD8D21A83699A423F
:105940000DD2084B011D1868FEF7A8FF002008BD06
:105950009A4201D2994202D2034B011DF3E7012082
:10596000F5E700BFB0140020AC14002010B588B0DB
:10597000FFF7AAFF124B1B68B3B1002407AA06A9C0
:1059800005A8CDE90544FEF763FF059B0293069B3E
:10599000019302230093079A0A490B482346FFF715
:1059A0000CFC0A4B186040B94FF0500383F3118888
:1059B000BFF36F8FBFF34F8FFEE7012008B010BD1C
:1059C000D01500207E9C0008D55A0008D415002070
:1059D0007FB5164604461A4640B94FF0500383F38C
:1059E0001188BFF36F8FBFF34F8FFEE70D4D28680F
:1059F00080B10529CDE9001602940DDCFFF710FFF8
:105A00000023022808BF089A286818BF1A4669466A
:105A1000FFF786F804B070BD00236946FFF733F93D
:105A2000F8E700BFD01500202DE9FF47DFF8A08080
:105A30000646FFF775FCD8F800308342054640D98A
:105A4000214F4FF000093B681A685AB91F4A116884
:105A500039601360012328463360C8F8005004B051
:105A6000BDE8F087DB68DC68D3F800A0211D08469C
:105A70000391FEF72AFF236A2046984794F82830BE
:105A8000039913F0040FDED0A36953449A4505D25D
:105A9000386863602461FEF701FFD4E70023CDF886
:105AA0000090524619462046FFF792FF0028CAD1BF
:105AB0004FF0500383F31188BFF36F8FBFF34F8F05
:105AC000FEE70023C7E700BFAC140020B01400209D
:105AD0007C1500202DE9F0436E4D6F4E89B02B6888
