:020000040800F2
:1000000000000220992E0008992D00089B2D000861
:100010009D2D00089F2D0008A12D00080000000064
:10002000000000000000000000000000F16900086E
:10003000A32D000800000000816A0008A52D00081B
:10004000E92E0008E92E0008E92E0008E92E000834
:10005000E92E0008E92E0008E92E0008E92E000824
:10006000E92E0008E92E0008E92E0008E92E000814
:10007000BD2D0008E92E0008E92E0008E92E000831
:10008000E92E0008E92E0008E92E0008E92E0008F4
:10009000E92E0008E92E0008E92E0008E92E0008E4
:1000A000E92E0008E92E0008E92E0008E92E0008D4
:1000B000E92E0008E92E0008E92E0008E92E0008C4
:1000C000E92E0008E92E0008E92E0008E92E0008B4
:1000D000E92E0008E92E0008E92E0008C92D0008C5
:1000E000E92E0008E92E0008E92E0008E92E000894
:1000F000E92E0008E92E0008E92E0008E92E000884
:10010000E92E0008E92E0008E92E0008E92E000873
:10011000E92E0008E92E0008E92E0008E92E000863
:10012000E92E0008E92E0008E92E0008E92E000853
:10013000E92E0008E92E0008E92E0008E92E000843
:10014000E92E0008E92E0008E92E0008E92E000833
:10015000E92E0008E92E0008E92E0008E92E000823
:10016000E92E0008E92E0008E92E0008E92E000813
:10017000E92E0008E92E0008E92E00080000000022
:08018000E92E0008E92E000839
:1001900010B5054C237833B9044B13B10448AFF3C1
:1001A00000800123237010BDF80100200000000032
:1001B000CC9C000808B5034B1BB103490348AFF3BF
:1001C000008008BD00000000FC010020CC9C00085D
:1001D000034613F8012B002AFBD1181A0138704787
:1001E00001F0FF01102A2BDB10F0070F08D010F8E8
:1001F000013B013A8B422DD010F0070F42B3F6D1EC
:10020000F0B441EA012141EA014122F007047FF004
:1002100000070023F0E80256083C85EA010586EA5B
:10022000010685FA47F5A3FA87F586FA47F6A5FA97
:1002300087F68EB9EED1F0BC01F0FF0102F00702A3
:1002400032B110F8013B013A83EA010313B1F8D14E
:100250000020704701387047002D06BF354603382F
:10026000073815F0010F07D1013015F4807F02BF68
:10027000013015F4C03F0130F0BC0138704700BFB9
:1002800081F0004102E000BF83F0004330B54FEA47
:1002900041044FEA430594EA050F08BF90EA020FB4
:1002A0001FBF54EA000C55EA020C7FEA645C7FEA47
:1002B000655C00F0E2804FEA5454D4EB5555B8BF6A
:1002C0006D420CDD2C4480EA020281EA030382EADB
:1002D000000083EA010180EA020281EA0303362D6D
:1002E00088BF30BD11F0004F4FEA01314FF4801C40
:1002F0004CEA113102D0404261EB410113F0004F52
:100300004FEA03334CEA133302D0524263EB430308
:1003100094EA050F00F0A780A4F10104D5F1200EA6
:100320000DDB02FA0EFC22FA05F2801841F1000101
:1003300003FA0EF2801843FA05F359410EE0A5F1D5
:1003400020050EF1200E012A03FA0EFC28BF4CF006
:10035000020C43FA05F3C01851EBE37101F00045BC
:1003600007D54FF0000EDCF1000C7EEB00006EEBC9
:100370000101B1F5801F1BD3B1F5001F0CD3490853
:100380005FEA30004FEA3C0C04F101044FEA4452AA
:1003900012F5800F80F09A80BCF1004F08BF5FEA31
:1003A000500C50F1000041EB045141EA050130BD11
:1003B0005FEA4C0C404141EB0101013C28BFB1F523
:1003C000801FE9D291F0000F04BF01460020B1FA6E
:1003D00081F308BF2033A3F10B03B3F120020CDA41
:1003E0000C3208DD02F1140CC2F10C0201FA0CF01F
:1003F00021FA02F10CE002F11402D8BFC2F1200C84
:1004000001FA02F120FA0CFCDCBF41EA0C01904039
:10041000E41AA2BF01EB0451294330BD6FEA040482
:100420001F3C1CDA0C340EDC04F11404C4F120026D
:1004300020FA04F001FA02F340EA030021FA04F37F
:1004400045EA030130BDC4F10C04C4F1200220FAD6
:1004500002F001FA04F340EA0300294630BD21FA14
:1004600004F0294630BD94F0000F83F4801306BFDA
:1004700081F480110134013D4EE77FEA645C18BFCE
:100480007FEA655C29D094EA050F08BF90EA020F65
:1004900005D054EA000C04BF1946104630BD91EA5D
:1004A000030F1EBF0021002030BD5FEA545C05D160
:1004B0004000494128BF41F0004130BD14F580049F
:1004C0003CBF01F5801130BD01F0004545F0FE4113
:1004D00041F470014FF0000030BD7FEA645C1ABF48
:1004E000194610467FEA655C1CBF0B46024650EA7F
:1004F000013406BF52EA033591EA030F41F40021AB
:1005000030BD00BF90F0000F04BF0021704730B530
:100510004FF4806404F132044FF000054FF0000105
:1005200050E700BF90F0000F04BF0021704730B5C6
:100530004FF4806404F1320410F0004548BF40429B
:100540004FF000013EE700BF42004FEAE2014FEAF0
:1005500031014FEA02701FBF12F07F4393F07F4FCB
:1005600081F06051704732F07F4208BF704793F0CE
:100570007F4F04BF41F40021704730B54FF46074E1
:1005800001F0004521F000411CE700BF50EA0102E4
:1005900008BF704730B54FF000050AE050EA01028D
:1005A00008BF704730B511F0004502D5404261EBFD
:1005B00041014FF4806404F132045FEA915C3FF43E
:1005C000D8AE4FF003025FEADC0C18BF03325FEADB
:1005D000DC0C18BF033202EBDC02C2F1200300FA8C
:1005E00003FC20FA02F001FA03FE40EA0E0021FAB1
:1005F00002F11444BDE600BF70B54FF0FF0C4CF49F
:10060000E06C1CEA11541DBF1CEA135594EA0C0F50
:1006100095EA0C0F00F0DEF82C4481EA030621EA8B
:100620004C5123EA4C5350EA013518BF52EA0335C6
:1006300041F4801143F4801338D0A0FB02CE4FF078
:100640000005E1FB02E506F00042E0FB03E54FF0A8
:100650000006E1FB03569CF0000F18BF4EF0010EA0
:10066000A4F1FF04B6F5007F64F5407404D25FEA9C
:100670004E0E6D4146EB060642EAC62141EA55514F
:100680004FEAC52040EA5E504FEACE2EB4F1FD0C91
:1006900088BFBCF5E06F1ED8BEF1004F08BF5FEA0F
:1006A000500E50F1000041EB045170BD06F00046C1
:1006B00046EA010140EA020081EA0301B4EB5C046E
:1006C000C2BFD4EB0C0541EA045170BD41F4801166
:1006D0004FF0000E013C00F3AB8014F1360FDEBF8B
:1006E000002001F0004170BDC4F10004203C35DA67
:1006F0000C341BDC04F11404C4F1200500FA05F3EA
:1007000020FA04F001FA05F240EA020001F000428A
:1007100021F0004110EBD37021FA04F642EB060100
:100720005EEA430E08BF20EAD37070BDC4F10C042A
:10073000C4F1200500FA04F320FA05F001FA04F2EE
:1007400040EA020001F0004110EBD37041F10001DA
:100750005EEA430E08BF20EAD37070BDC4F12005E5
:1007600000FA05F24EEA020E20FA04F301FA05F24D
:1007700043EA020321FA04F001F0004121FA04F2F5
:1007800020EA020000EBD3705EEA430E08BF20EAC5
:10079000D37070BD94F0000F0FD101F000464000FF
:1007A00041EB010111F4801F08BF013CF7D041EA81
:1007B000060195F0000F18BF704703F00046520085
:1007C00043EB030313F4801F08BF013DF7D043EA56
:1007D0000603704794EA0C0F0CEA135518BF95EA0C
:1007E0000C0F0CD050EA410618BF52EA4306D1D193
:1007F00081EA030101F000414FF0000070BD50EAB2
:10080000410606BF1046194652EA430619D094EA3B
:100810000C0F02D150EA013613D195EA0C0F05D125
:1008200052EA03361CBF104619460AD181EA030179
:1008300001F0004141F0FE4141F470014FF0000031
:1008400070BD41F0FE4141F4780170BD70B54FF0CC
:10085000FF0C4CF4E06C1CEA11541DBF1CEA13554C
:1008600094EA0C0F95EA0C0F00F0A7F8A4EB05042E
:1008700081EA030E52EA03354FEA013100F0888025
:100880004FEA03334FF0805545EA131343EA1263EE
:100890004FEA022245EA111545EA10654FEA0026A3
:1008A0000EF000419D4208BF964244F1FD0404F55C
:1008B000407402D25B084FEA3202B61A65EB0305B8
:1008C0005B084FEA32024FF480104FF4002CB6EB75
:1008D000020E75EB030E22BFB61A754640EA0C00F5
:1008E0005B084FEA3202B6EB020E75EB030E22BF35
:1008F000B61A754640EA5C005B084FEA3202B6EB76
:10090000020E75EB030E22BFB61A754640EA9C0034
:100910005B084FEA3202B6EB020E75EB030E22BF04
:10092000B61A754640EADC0055EA060E18D04FEAC2
:10093000051545EA16754FEA06164FEAC30343EA62
:1009400052734FEAC2025FEA1C1CC0D111F4801F2F
:100950000BD141EA00014FF000004FF0004CB6E728
:1009600011F4801F04BF01430020B4F1FD0C88BFC7
:10097000BCF5E06F3FF6AFAEB5EB030C04BFB6EBD2
:10098000020C5FEA500C50F1000041EB045170BDC5
:100990000EF0004E4EEA113114EB5C04C2BFD4EBF2
:1009A0000C0541EA045170BD41F480114FF0000E76
:1009B000013C90E645EA060E8DE60CEA135594EAF2
:1009C0000C0F08BF95EA0C0F3FF43BAF94EA0C0FF5
:1009D0000AD150EA01347FF434AF95EA0C0F7FF46A
:1009E00025AF104619462CE795EA0C0F06D152EABE
:1009F00003353FF4FDAE1046194622E750EA4106A2
:100A000018BF52EA43067FF4C5AE50EA41047FF4B2
:100A10000DAF52EA43057FF4EBAE12E74FF0FF3C17
:100A200006E000BF4FF0010C02E000BF4FF0010CE8
:100A30004DF804CD4FEA410C7FEA6C5C4FEA430C61
:100A400018BF7FEA6C5C1BD001B050EA410C0CBFB0
:100A500052EA430C91EA030F02BF90EA020F002012
:100A6000704710F1000F91EA030F58BF994208BF79
:100A700090422CBFD8176FEAE37040F00100704736
:100A80004FEA410C7FEA6C5C02D150EA013C07D18D
:100A90004FEA430C7FEA6C5CD6D152EA033CD3D0D8
:100AA0005DF8040B704700BF8446104662468C46D2
:100AB0001946634600E000BF01B5FFF7B7FF002805
:100AC00048BF10F1000F01BD4DF808EDFFF7F4FF2E
:100AD0000CBF012000205DF808FB00BF4DF808EDB9
:100AE000FFF7EAFF34BF012000205DF808FB00BFDC
:100AF0004DF808EDFFF7E0FF94BF012000205DF8FE
:100B000008FB00BF4DF808EDFFF7CEFF94BF0120B2
:100B100000205DF808FB00BF4DF808EDFFF7C4FFAB
:100B200034BF012000205DF808FB00BF4FEA410CF4
:100B30007FEA6C5C02D150EA013C0AD14FEA430CD7
:100B40007FEA6C5C02D152EA033C02D14FF0000014
:100B500070474FF0010070474FEA410212F5001252
:100B600015D211D56FF47873B3EB625212D94FEAF4
:100B7000C12343F0004343EA505311F0004F23FADE
:100B800002F018BF404270474FF00000704750EA33
:100B9000013005D111F0004008BF6FF000407047F0
:100BA0004FF00000704700BF4A0011D212F500124A
:100BB00011D20DD56FF47873B3EB62520ED44FEAB5
:100BC000C12343F0004343EA505323FA02F0704735
:100BD0004FF00000704750EA013002D14FF0FF3073
:100BE00070474FF0000070474FEA4102B2F1E04316
:100BF00024BFB3F5001CDCF1FE5C0DD901F0004C04
:100C00004FEAC0024CEA5070B2F1004F40EB830053
:100C100008BF20F00100704711F0804F21D113F17F
:100C20003872BCBF01F00040704741F480114FEAB8
:100C30005252C2F11802C2F1200C10FA0CF320FA41
:100C400002F018BF40F001004FEAC1234FEAD3235E
:100C500003FA0CFC40EA0C0023FA02F34FEA4303C8
:100C6000CCE77FEA625307D150EA01331EBF4FF051
:100C7000FE4040F44000704701F0004040F0FE406C
:100C800040F40000704700BF53B94AB9002908BFBB
:100C900000281CBF4FF0FF314FF0FF3000F074B957
:100CA000ADF1080C6DE904CE00F006F8DDF804E0C3
:100CB000DDE9022304B070472DE9F047089D0446A2
:100CC0008E46002B4DD18A42944669D9B2FA82F2FF
:100CD00052B101FA02F3C2F1200120FA01F10CFA3B
:100CE00002FC41EA030E94404FEA1C48210CBEFB73
:100CF000F8F61FFA8CF708FB16E341EA034306FBFC
:100D000007F199420AD91CEB030306F1FF3080F08A
:100D10001F81994240F21C81023E63445B1AA4B2D7
:100D2000B3FBF8F008FB103344EA034400FB07F779
:100D3000A7420AD91CEB040400F1FF3380F00A81BA
:100D4000A74240F207816444023840EA0640E41BAF
:100D500000261DB1D4400023C5E900433146BDE85B
:100D6000F0878B4209D9002D00F0EF800026C5E9FD
:100D7000000130463146BDE8F087B3FA83F6002E15
:100D80004AD18B4202D3824200F2F980841A61EB8D
:100D9000030301209E46002DE0D0C5E9004EDDE7AB
:100DA00002B9FFDEB2FA82F2002A40F09280A1EB93
:100DB0000C014FEA1C471FFA8CFE0126200CB1FBE8
:100DC000F7F307FB131140EA01410EFB03F08842E1
:100DD00008D91CEB010103F1FF3802D2884200F26E
:100DE000CB804346091AA4B2B1FBF7F007FB101100
:100DF00044EA01440EFB00FEA64508D91CEB04049E
:100E000000F1FF3102D2A64500F2BB800846A4EBF8
:100E10000E0440EA03409CE7C6F12007B34022FAE3
:100E200007FC4CEA030C20FA07F401FA06F31C4312
:100E3000F9404FEA1C4900FA06F3B1FBF9F8200C1F
:100E40001FFA8CFE09FB181140EA014108FB0EF065
:100E5000884202FA06F20BD91CEB010108F1FF3AB5
:100E600080F08880884240F28580A8F102086144C1
:100E7000091AA4B2B1FBF9F009FB101144EA0141CF
:100E800000FB0EFE8E4508D91CEB010100F1FF347A
:100E90006CD28E456AD90238614440EA0840A0FB12
:100EA0000294A1EB0E01A142C846A64656D353D0E8
:100EB0005DB1B3EB080261EB0E0101FA07F722FA0C
:100EC00006F3F1401F43C5E9007100263146BDE835
:100ED000F087C2F12003D8400CFA02FC21FA03F398
:100EE000914001434FEA1C471FFA8CFEB3FBF7F019
:100EF00007FB10360B0C43EA064300FB0EF69E423E
:100F000004FA02F408D91CEB030300F1FF382FD2D6
:100F10009E422DD9023863449B1B89B2B3FBF7F67E
:100F200007FB163341EA034106FB0EF38B4208D957
:100F30001CEB010106F1FF3816D28B4214D9023E98
:100F40006144C91A46EA004638E72E46284605E7B6
:100F50000646E3E61846F8E64B45A9D2B9EB020887
:100F600064EB0C0E0138A3E74646EAE7204694E717
:100F70004046D1E7D0467BE7023B614432E730464A
:100F800009E76444023842E7704700BF7FB5012398
:100F90008DF817204FF0FF32CDE901320DF1170225
:100FA000009200680A46D02102F0C0FD07B05DF84B
:100FB00004FB00001FB54FF0FF3C0123CDE9013CCD
:100FC000009200680A46D02102F040FE024B1870E1
:100FD00005B05DF804FB00BF3C0200202DE9F041A4
:100FE000774B88B003AE944604468E4603F1100258
:100FF000354618685968374603C7083393423E465A
:10100000F7D11B783B7000227F21C4E900EC204619
:10101000ADF81D208DF81F20FFF7B8FF694E01467F
:10102000307038B16849284606F0FCFB002008B053
:10103000BDE8F0810DF107022046FFF7BBFF074630
:10104000307008B16149EEE79DF80720604902A8B9
:1010500006F0C8FB02A9284606F0E4FB9DF80C3018
:101060008DF81C70203B8DF818309DF80D30203B1A
:101070008DF819300D238DF81A304FF00A088DF8CD
:101080000C30284649238DF80E308DF81B808DF8E2
:101090000D80FFF79DF84FF0FF3382B2294660685C
:1010A00003F094FE3A467F212046FFF76FFF307031
:1010B00008B14849B7E7F12206212046FFF766FF4D
:1010C000307008B14449AEE7404601F05FFF0122AD
:1010D00006212046FFF75AFF307008B13F49A2E7CA
:1010E000404601F053FF3F2207212046FFF74EFF05
:1010F0000746307008B13A4995E7404601F046FF8F
:101100003A4607212046FFF741FF307008B13549C4
:1011100089E7012210212046FFF738FF7F21307038
:1011200020222046FFF732FF0146307008B12E49D9
:1011300079E704222046FFF729FF307008B12B49D8
:1011400071E7332201212046FFF720FF0746307068
:1011500008B1274967E7072211212046FFF716FF4C
:101160003A46307010212046FFF710FF307008B16A
:10117000204958E7312214212046FFF707FF074690
:10118000307008B11C494EE7024653212046FFF754
:10119000FDFE20463A467F21FFF7F8FE04463070F8
:1011A00008B116493FE7642001F0F0FE144BC3E993
:1011B00000449C60134BC3E900449C6036E700BFC9
:1011C000E89C00083C020020109D00081A9D0008C1
:1011D000249D0008279D0008319D00083C9D0008C3
:1011E000479D0008529D00085D9D0008679D00080E
:1011F000719D00087B9D0008859D0008909D00085A
:1012000020020020140200202DE9F743382101AA12
:101210004FF000080546ADF80480FFF7CBFE3F4CC9
:101220003F4F20700DF1050237212846FFF7C2FE1F
:1012300020703C6834B904F0C5FE3860204603B025
:10124000BDE8F08304F0BEFE364A9DF80430B2F9E2
:101250000420DFF8E0E03E68DFF8DCC038609B1A6D
:101260009DF80520DEF80440DCF80470DCF800107E
:10127000CEF8084043EA0223B3F5004FA0EB060680
:10128000DEF80000CCF80870A5BFC3F57F424346E6
:101290004246FF329842CEF80400CCF80410CEF853
:1012A0000030CCF8002034DC844222DC034691423A
:1012B0002BDC8F4223DC0A46D41A1B4B1868201AF9
:1012C000FFF730F9194B0022FFF796F980463046B8
:1012D0008946FFF717F902460B4640464946FFF795
:1012E0008BF9134B0022FFF7B1FAFFF77DFCE861A1
:1012F000A4E79842DAD0A342A8BF2346D7E7914299
:10130000D9D0BA42A8BF3A46D6E78F42D3DA3A4696
:10131000D2E78442CADA2346C9E700BF3C02002074
:10132000380200202C0200203402002000408F3FB1
:1013300000408F40140200202002002070B50646B5
:101340004FF400742DED028BB0EE408AF0EE608A0F
:101350003046013CFFF758FFB0EE480AF0EE680A4D
:10136000A4B204F0A4F8002CF2D14FF4006530468A
:10137000FFF74AFFB0EE480AF0EE680A013DADB251
:10138000044404F094F8002DF1D1BDEC028B024B23
:10139000E4121C6070BD00BF340200207FB50B4E0C
:1013A0000B4D0C4C3246294601A806F01BFA01AA47
:1013B00014210A2001F0B6F820464FF4806102F0B3
:1013C00028F9012004F067F8ECE700BF3D02002097
:1013D0009B9D0008001002407FB50E4A0E4C10681D
:1013E0005168127A01AB03C31A700023CDF8113093
:1013F000CDF80D300593214601A806F013FA0A2115
:10140000084601AA01F08EF800F0F0FF012004F078
:1014100042F8F0E7FC9C0008A39D000800000000D3
:101420002DE9F04F2DED068B002191B0BA48BB4C51
:1014300003F076FB0421B84803F072FBB8480C2196
:1014400003F06EFB2378002B00F0C880B44B1B68C0
:1014500094221A64B34B0022CDE90A23B24B002434
:10146000D3E900010025CDE90E45FFF775FBAF4B31
:10147000AF4918600522AF4803F080FF45EC174BD9
:101480009FED9F9BB0EE47AAF0EE67AA8DED047B1F
:10149000CDE902455BEC17ABA54C0025642003F0B9
:1014A000FAFF2378642BF9D0A67822796778303E4A
:1014B00006EB8606303A06EB860602EB8606E278F5
:1014C000303A02EB820206EB4202462B16B240F0A3
:1014D00089804C2F40F08D80944B1868801B1860D9
:1014E000FFF720F8CDE90A0101258D4B4C2F1B6831
:1014F00040F095805B221A6440F2262003F0CBFF77
:101500006378572B00F0F081012600234BEC12ABDF
:101510009FED7D1B9FED7E0B874A83498748CDE970
:1015200000630AAB01F060FA3146844801F06BF9C0
:1015300082480A2101F08CFA814B8249D3E9006785
:10154000002032463B46FEF79FFE7E4B41EC180BD7
:10155000002230463946FEF797FEB0EE481AF0EE0C
:10156000681A41EC100B754801F05AF92846FEF74D
:10157000C9FF02460B4600207349FEF785FE02466E
:101580000B46FEF783FE41EC180B674FDDE90A01BD
:10159000D7E90023FEF778FE53EC182BFFF72CF861
:1015A00052465B46FFF7B8FA064600283CD105F0E4
:1015B00031FA594B1B685E639E6305F04BFA564B3C
:1015C00062491B685B4800225A639A636423237054
:1015D00002224FF0FF3303F0F9FB5FE7642003F0D2
:1015E0005AFF2FE7422B10D1522F3FF475AF4C2FEB
:1015F00000E0522F09D14D4B186830441860FEF7B7
:1016000091FF0025CDE90A016FE7572F7FF46DAFF9
:10161000464B1868FEF786FFCDE90A0165E7522FB1
:101620000CBFF022942266E74FF48061484801F035
:10163000F0FF424801F043F805F0ECF963784C2BD9
:1016400040F0C2803C4E5246D6E900015B46FFF7AF
:1016500045FA8046002800F085803E48DFF8B890C3
:10166000DFF8FC800022042101F0CEFF394801227E
:10167000082101F0C9FF37480022202101F0C4FFF2
:1016800034480122102101F0BFFFD7E90023DDE932
:101690000A01FEF7F9FD53EC182BFEF7ADFF2E4BB8
:1016A0000022FFF71BFA264908B3D1E90067B8F812
:1016B0000000D9F80090FEF725FF3B463246FEF7C2
:1016C0009BFFFFF771FA254BC9F834001888FEF725
:1016D00019FF32463B46FEF78FFFFFF765FAC9F860
:1016E000380005F0B7F90A2003F0E1FE4DE7D6E92E
:1016F0000023D1E90001FEF7C7FD06460F46D6E7F5
:101700007B14AE47E17A943F9A9999999999B93F98
:101710001B2FDD240681953F4C050020FC05002091
:101720007404002000805640A8030020000600201A
:101730003D020020940500205002002038030020C4
:10174000080000200000F03F0000E03FA69D0008D8
:10175000001002400000024000002440120000205F
:1017600014000020024608215848DFF8749101F067
:101770004BFF56480122042101F046FF42465348E0
:10178000DFF85881102101F03FFF5048012220214D
:1017900001F03AFFD7E90023DDE90A01FEF774FD05
:1017A00053EC182BFEF728FF494B0022FFF796F960
:1017B000484B10B1D3E9006779E7D3E90023D6E9B4
:1017C0000001FEF763FD98E7522B8AD1424E524644
:1017D000D6E900015B46FFF781F98046002842D038
:1017E0003A48DFF8FC90DFF8FC800022082101F085
:1017F0000BFF36480122042101F006FF3348002286
:10180000102101F001FF31480122202101F0FCFEEE
:10181000D7E90023DDE90A01FEF736FD53EC182B6A
:10182000FEF7EAFE2A4B0022FFF758F9294988B152
:10183000D1E90067B8F80000D9F80090FEF762FE21
:101840003B463246FEF7D8FEFFF7AEF9234BC9F808
:1018500034003BE7D6E90023D1E90001FEF714FD8F
:1018600006460F46E6E7024604211848DFF8709066
:1018700001F0CAFE15480122082101F0C5FE4246CA
:101880001248DFF86080202101F0BEFE0F480122DF
:10189000102101F0B9FED7E90023DDE90A01FEF7C6
:1018A000F3FC53EC182BFEF7A7FE094B0022FFF7C1
:1018B00015F9084B10B1D3E90067BBE7D3E9002362
:1018C000D6E90001FEF7E2FCCAE700BF00000240D3
:1018D00000002440080000205002002014000020D6
:1018E0004C05002012000020B74B83ED00ABB74B36
:1018F00000271F602378462B40F02881B4483A46E1
:10190000042101F081FEB2480122082101F07CFE91
:10191000AF483A46202101F077FE0122AC48102161
:1019200001F072FE3046FEF7FDFDAA4B0022FEF7E5
:1019300063FE9DA3D3E90023FEF788FFCDE90E01E6
:1019400001254FF001094FF000084BEC12ABB0EE4F
:10195000490AF0EE690A9FED961B0EAB0CAA9A4954
:101960009D48CDE9009801F03FF89B48494600F0BA
:101970004AFF99480A2101F06BF8984B9849D3E93E
:101980000067002032463B46FEF77EFC944B41EC5C
:10199000180B002230463946FEF776FCB0EE481AA6
:1019A000F0EE681A41EC100B8B4800F039FFB0EEF6
:1019B000491AF0EE691A4BEC12AB9FED7F0B894A86
:1019C00089498A480AABCDE9009801F00DF88748AB
:1019D000494600F018FF85480A2101F039F8844B88
:1019E0008248D3E9002303F100410892099143ECB6
:1019F000112B9DED080B00F013FF7E4B1B68284652
:101A0000C3F83480C3F83880FEF77CFD7A4B00229F
:101A1000FEF73AFC02460B46FEF738FC41EC180B89
:101A2000694BDDE90E01D3E90023FEF72DFC53ECF1
:101A3000182BFEF7E1FD52465B46FFF76DF80028D4
:101A40003FF4BDAD644800F03AFE684800F037FE50
:101A50002378462B40F0D880684B1E68624BDDE946
:101A60000A01D3E90023FEF70FFC654B0022FEF7C5
:101A7000C3FD53A3D3E90023FEF708FCFFF794F856
:101A8000604B30641888FEF73DFD564BD3E9008962
:101A90000646534B0F46002240464946FEF7F6FBEA
:101AA00032463B46FEF7A8FD4246CDE904014B46CF
:101AB0004B490020FEF7E8FB32463B46FEF79CFD13
:101AC000CDE9020104F0A6FFDDE90C0152465B46B8
:101AD000FFF704F80646002800F0CA803C480022C0
:101AE000082101F091FD3A480122042101F08CFD0A
:101AF00037480022102101F087FD354801222021BE
:101B000001F082FD3549DDE90C23D1E90001FEF742
:101B1000BBFB384BD3F80080DDE9042306460F46B3
:101B2000FEF76AFDFFF740F8DDE90223C8F834004C
:101B300039463046FEF760FDFFF736F8C8F8380042
:101B400004F088FF0A2003F0B2FC69E7422B7FF41F
:101B5000F8AE1F483A46082101F056FD1C48012204
:101B6000042101F051FD1A483A46102101F04CFDC4
:101B700001221748202101F047FD3046FEF7D2FC34
:101B800001F1004307930690124B0022DDE90601A4
:101B9000FEF732FD04A3D3E90023FEF757FE3D46CE
:101BA000CDE90E01CDE600BF0000000000A05940C5
:101BB00000000000000000009A9999999999A93FA6
:101BC000CDCCCCCCCC8C624008060020BC030020DD
:101BD0000000024000005940C80200200800002018
:101BE0000000F03F50020020A8030020580200200F
:101BF000000000204C0500200000E03F740400209D
:101C00000000084010000020422B7FF45BAF284BFF
:101C100028491E68D1E90001DDE90A23FEF734FBFB
:101C2000254B0022FEF7E8FC1FA3D3E90023FEF7B3
:101C30002DFBFEF7B9FF214B30641888FEF762FCDC
:101C40001F4BD3E9008906460F4642464B461D49C5
:101C50000020FEF719FB32463B46FEF7CDFC194B40
:101C6000CDE90401002240464946FEF70FFB23E779
:101C700002460421144801F0C7FC13480122082140
:101C800001F0C2FC32461048202101F0BDFC0E4894
:101C90000122102101F0B8FC0C49DDE90C23D1E947
:101CA0000001FEF7F3FA34E7CDCCCCCCCC8C62400B
:101CB00074040020A8030020000008401000002049
:101CC000500200200000F03F000002400800002009
:101CD0002DE9F04F2DED048B654A6649664887B0C3
:101CE000FFF77CF904F096FE644901A805F09AFD1F
:101CF00001AA1E210A2000F015FC4FF4FA6003F03F
:101D0000CAFB9FED550B5C48FFF718FB4FF4FA60D8
:101D100003F0C1FB04F09EFE594B5A4801223C21BE
:101D20001A709FED4F8B02F0DEFB9FED4B9B4FF047
:101D3000FF34A046504DDFF85C91DFF85CA104F061
:101D400069FE2846FFF760FA04F084FEE869FEF7B2
:101D5000FBFBD9E90023FEF799FA4A4B06460F46EA
:101D6000B8F1FF3FC9E90067CAE90067DFF82C81D5
:101D70001B6801D0621C53D15C6A2546D8F800006C
:101D8000DFF81CB1FEF7CEFB37A3D3E90023FEF743
:101D900033FCCBE9000139463046FEF7DDFE4FF457
:101DA0007A724243384901A805F01CFD1E210A2021
:101DB00001AA00F0B7FB35484FF4807101F01EFC1A
:101DC00040BB334BC8F8000018608BED008B89EDE9
:101DD000008B8AED008B04F01DFE284901A805F058
:101DE00021FD01AA1E210A2000F09CFB4FF4FA609D
:101DF00003F051FBB0EE490AF0EE690A1E48FFF706
:101E00009DFA4FF4FA6003F046FB04F023FE4FF016
:101E1000FF352C460A20A04603F049FB2C4689E7F3
:101E20005D6A1B68DB060DD5AC4201DB631B03E07A
:101E3000C5F57F43FF332344D8F800201344C8F886
:101E400000309BE7AC42F1DD05F57F43FF33E31A39
:101E5000F2E700BFAFF30080000000000000354053
:101E60000000000000000000125FD40067D78A3F26
:101E70009405002020040020D8050020A89D00081B
:101E8000FC050020BC040020B69D0008000C0240A8
:101E900000060020B0030020A8030020BC0300209F
:101EA0000806002000B595B02C22002109A805F0F5
:101EB00027F81422002103A805F022F80023194A6C
:101EC0000193116C41F080511164126C02F0805248
:101ED0000192019A144A0293116841F48041116001
:101EE00012680E9302F480420292029A0222089231
:101EF00001201022CDE90B0208A801F0CBFF01461A
:101F000008B172B6FEE70F23CDE90330CDE9050035
:101F1000079003A802F09CF908B172B6FEE715B06D
:101F20005DF804FB003802400070004000B59DB031
:101F300001F000F8AB4BAC4D64221A7057225A7076
:101F4000392130229A70D9701A710024FFF7AAFF44
:101F50001422002113A804F0D3FF01942B6BA34893
:101F600043F010032B632B6B03F010030193019BD1
:101F700002942B6B43F001032B632B6B03F00103E3
:101F80000293029B03942B6B43F008032B632B6B90
:101F900003F008030393039B04942B6B43F00403A7
:101FA0002B632B6B03F004030493049B05942B6BAE
:101FB00043F002032B632B6B03F0020305932246CD
:101FC0004FF4BC61059B01F01FFB224688483C2171
:101FD00001F01AFB01264FF4BC63844813A9CDE934
:101FE0001336CDE9154401F02FFA3C23804813A99C
:101FF000CDE91336CDE9154401F026FA4FF480738C
:102000007C48159413A9CDE9133401F01DFA00940E
:102010002B6B43F400132B632B6B774D03F40013EE
:102020002246052100930C20009B00F0D5FF0C20D8
:1020300001F004F81022214608A804F061FF1C22D8
:1020400021460CA8CDE9064404F05AFF202221467F
:1020500013A804F055FF694BAC60C5E9003428466D
:1020600041F61F43C5E90334C5E9054402F0FCFA13
:1020700008B172B6FEE74FF4805308A928460893CA
:1020800002F03CFC08B172B6FEE7284602F018FBED
:1020900008B172B6FEE7CDE9060006A9284602F0AF
:1020A00041FD024608B172B6FEE76023CDE90C306F
:1020B000CDE90E00CDE9100012900CA9284602F0DF
:1020C000B7FB08B172B6FEE704220CA9284602F05D
:1020D000AFFB08B172B6FEE7CDE91300CDE91500FC
:1020E00017904FF400531A9013A92846189302F042
:1020F00057FD044608B172B6FEE7414D01461C2269
:1021000014A804F0FDFE4FF08043C5E900344FF6FB
:10211000FF73C5E903340323139313A90A23284645
:10212000CDE90C44AC60AC611596179319961B93DE
:1021300002F0F2FA08B172B6FEE7CDE90C000CA984
:10214000284602F0EFFC044608B172B6FEE70146ED
:10215000102208A804F0D4FE1C2221460CA8CDE9C8
:10216000064404F0CDFE2022214613A804F0C8FE48
:10217000244D2548A023C0E900534FF47A73C0E9E9
:102180000334C0E90544846002F06EFA08B172B607
:10219000FEE74FF480531C48089308A902F0AEFBF9
:1021A00008B172B6FEE7184802F08AFA08B172B6B2
:1021B000FEE7CDE9060006A9134802F0B3FC08B11A
:1021C00072B6FEE76023CDE90C30CDE910000E9029
:1021D00012900C220C480CA902F02AFBB0B172B686
:1021E000FEE700BF3D020020003802400010024020
:1021F00000000240000C02404C0500200004014099
:10220000BC04002000000140740400204FF400537F
:10221000CDE91300CDE9150017901A9013A9444891
:10222000189302F0BDFC034608B172B6FEE74148C0
:10223000414C03614FF4E132C0E900420C22C0E995
:102240000233C0E90523C36102F092FD044608B1E0
:1022500072B6FEE701461C2214A804F051FE374D69
:10226000374BAC60C5E900344FF6FF73C5E9033462
:1022700003230122139313A90A232846CDE90C4412
:10228000AC611592179319921B9302F045FA08B1AD
:1022900072B6FEE7CDE90C000CA9284602F042FC1C
:1022A000034608B172B6FEE726482749274A03626B
:1022B000C0E900124FF48042C0E90233C0E90423B0
:1022C000C0E9063301F08AFB044608B172B6FEE7A6
:1022D00000F048F91E4AD2F8FC3043F08073C2F88F
:1022E000FC301C4B5C601A6842F001021A6003F07B
:1022F0005DF8194A1948214603F084F8184B194A29
:1023000018602146184803F07DF8184B184A1860E9
:102310002146184803F076F8174B184A18602146F2
:10232000174803F06FF8174B186003F051F8FEE7F9
:10233000740400209405002000480040040500209B
:10234000000400402004002000540040A08601004A
:1023500000ED00E0001000E0589E00089D1300080A
:10236000B8030020EC9D0008D913000844020020A7
:10237000349E0008211400084C020020109E000822
:10238000D11C00084802002072B6FEE7012970B592
:102390000A46044618BF00221348134E4FF48071BA
:1023A00001F032F9082500222021304601F02CF9F5
:1023B00023064CBF012200224021304601F024F9BF
:1023C000013D01222021304601F01EF9640015F084
:1023D000FF05E4B2E7D1BDE87040034801224FF4A5
:1023E000807101F011B900BF0010024070B50F4EAE
:1023F000B02400212046FFF7C9FF00210846FFF75F
:10240000C5FF00211020FFF7C1FF002516F8350099
:1024100001210135FFF7BAFF802DF7D10134E4B275
:10242000B82C06F10106E4D170BD00BF10060020F3
:102430000023084810B41C460022C11801F832409D
:102440000132802AFAD10133082BF5D15DF8044B13
:10245000FFF7CCBF10060020030630B513D43F2988
:1024600011D801F007050A4CC908C1F10701C9B22A
:1024700004EBC0000123C5F1070503FA05F5435C31
:1024800012B12B43435430BD23EA0503FAE700BFE2
:10249000100600202DE9F74F1F46A2F1200A1F4B1E
:1024A0009DF830B05FFA8AFA03EB0A1300931C4BD5
:1024B0000AEB4A0A03EB8A038146884601930C46DD
:1024C0000026B74202D103B0BDE8F08F0C2F0CBF3D
:1024D000019B009B9D5D04F108035FFA83FA2B06C4
:1024E00058BFBBFA8BF2214604F101044CBF5A4697
:1024F00052094846E4B2FFF7AFFFA4EB08026D00B3
:10250000BA42EDB207D109F101005FFA80F9C24683
:1025100001365446D5E7A245E1D1F9E7F0A200081B
:102520007C9E0008F7B504460D46561E012716F896
:10253000013F0BB903B0F0BD7A2C82BF1035EDB26C
:1025400000243A2D03D9FFF773FF00252C4600978E
:10255000204632780C2329460834FFF79BFFE4B26B
:10256000E5E7000010B501F079FC404B404C1A6FD4
:1025700022F001021A671A6F22F004021A6701F0B2
:102580007BFC00228021204601F03EF8642000F010
:10259000FDFC01222046802101F036F80021AE200A
:1025A000FFF7F4FE0021D520FFF7F0FE00215020B8
:1025B000FFF7ECFE0021A820FFF7E8FE00213F20F6
:1025C000FFF7E4FE0021D320FFF7E0FE00210846DC
:1025D000FFF7DCFE00214020FFF7D8FE00218D2010
:1025E000FFF7D4FE00211420FFF7D0FE00212020A9
:1025F000FFF7CCFE00210220FFF7C8FE0021A1203A
:10260000FFF7C4FE0021C020FFF7C0FE0021DA2042
:10261000FFF7BCFE00211220FFF7B8FE0021812049
:10262000FFF7B4FE0021EF20FFF7B0FE0021D92014
:10263000FFF7ACFE0021F120FFF7A8FE0021DB2010
:10264000FFF7A4FE00213020FFF7A0FE0021A42008
:10265000FFF79CFE0021A620FFF798FE0021AF2087
:10266000FFF794FEBDE81040FFF7E2BE00380240DD
:1026700000100240436C2DE9D043D3E90067C0E964
:102680001467036CD0E91A89D3E900230446C0E932
:102690001623394642464B463046FEF73DFA10B106
:1026A000C4E9148909E0D4E91889304642464B460A
:1026B0003946FEF713FA0028F2D1BDE8D0832DE9A0
:1026C000F04F2DED048B437885B004462BB90020E4
:1026D00005B0BDEC048BBDE8F08F00F051FC6368E1
:1026E000A268C31A9A420546F1D8236CA16CD3E9BB
:1026F00000ABD1E9000152465B46FDF7C5FDD4E9C8
:10270000162341EC180B50465946FDF7BDFDD4E9A0
:102710000C2341EC190B51EC180BFDF76DFFD4E9BC
:102720001423FDF7B3FD2378019306460F46C4E951
:1027300014676BB9D4E90A2351EC190BFDF75CFF60
:1027400002460B4630463946FDF79EFDC4E91401AA
:10275000D4E91489D4E91A67404632463B464946D3
:10276000FEF7DAF9002838D0C4E91467019B002B82
:1027700044D0D4E90A2351EC180BFDF73DFF804605
:102780008946D4E90E2351EC190BFDF735FF0246BB
:102790000B46D4E91401FDF777FD42464B46FDF7A1
:1027A00075FD8046894602460B4630463946FEF79F
:1027B00095F950B9D4E9186742464B463046394638
:1027C000FEF7AAF908B946464F46636C0120C3E9F3
:1027D0000067C4E916AB65607AE794ED187B404664
:1027E00053EC172B49468DED027BFEF777F9002855
:1027F000BCD09DED027B84ED147BB7E74FF0000861
:102800004FF00009BDE7012938B504460CBF01258A
:10281000002503D143780BB9FFF72CFF657038BD55
:102820002DE9F84F55EC104B57EC116B824611EE29
:10283000102A10EE100A3B462946FEF763F90028DD
:1028400037D19AF80130CAE91845CAE91A67002B4E
:102850002FD0DAF844B0DBE9008932463B464046E7
:102860004946FEF759F978B1CBE90067DAE9146710
:10287000DAE91A45304622462B463946FEF74CF92E
:1028800068B1CAE9144514E022462B464046494641
:10289000FEF724F90028E9D0CBE90045E6E7DAE9BC
:1028A0001845304622462B463946FEF717F90028D0
:1028B000E7D1BDE8F88F00002DE9F34755EC104B48
:1028C0008246884610EE100A0022002329468DED2C
:1028D000002B57EC116BFEF701F900285DD10022A7
:1028E000002330463946FEF7F9F8002855D1DDE9D6
:1028F000000100220023FEF7F1F800284DD19DEDE4
:10290000007B08F1FF338AF80280D3F1000848EB1E
:1029100003088AED087BCAE906678AF80080CAE9DD
:102920000445DAF80800FDF7EDFD1D4B0022FDF728
:102930008DFFCAE90A458046894602460B46304665
:102940003946FDF759FE06460F464B464246CAE950
:102950000C67DDE90001FDF779FF9AF80330804646
:102960008946012BCAE90E8917D122462B46002041
:102970000021FDF789FC3246CAE90A013B460020E6
:102980000021FDF781FC4246CAE90C014B460020BC
:102990000021FDF779FCCAE90E0102B0BDE8F0871D
:1029A00000408F4038B5437804460D46D3B1C37814
:1029B0008B4217D0D0E90A2300210020FDF764FCE8
:1029C000D4E90C23C4E90A0100200021FDF75CFCD6
:1029D000D4E90E23C4E90C0100200021FDF754FCCA
:1029E000C4E90E01E57038BD10B583640023C0E969
:1029F0001012437000220023C0E9182312A3D3E968
:102A0000002386B0C0E91A236423044683609DF83E
:102A100024108DED040B8DED021B8DED002BFFF7C7
:102A2000C1FF9DED002B9DED021B9DED040B9DF85C
:102A300020102046FFF740FF00F0A2FAA368C01A5A
:102A4000606006B010BD00BF0000000000E06F40F5
:102A5000F8B50D1E044620DD2846FDF763FD064649
:102A6000A0680F46FDF74EFD02460B46304639463C
:102A7000FDF7ECFE02460B4606460F46D4E90C0174
:102A8000FDF7BAFD3246C4E90C013B46D4E90E011C
:102A9000FDF7DCFEC4E90E01A560F8BD82B00E4B67
:102AA00000220092596C41F480415964596C01F440
:102AB0008041009100990192196C41F08051196494
:102AC0001B6C03F080530193019B0F216FF00100F9
:102AD00002B000F081BA00BF0038024030B50446B1
:102AE00089B01422002103A804F00AFA2268144BCA
:102AF0009A4222D1134C144800250195236B43F0D0
:102B000002032363236B03F002030193019B4FF441
:102B100040721223CDE9032303210423CDE90613D8
:102B200003A900F091FC0295236C43F40013236485
:102B3000236C03F400130293029B09B030BD00BF65
:102B400000540040003802400004024010B5142236
:102B50008AB0044600210DEB020004F0D1F923688D
:102B6000234A934222D1234B2348002101915A6CDE
:102B700042F001025A645A6C02F001020192019A79
:102B800002911A6B42F010021A631B6B03F01003E0
:102B900002934FF48041029B0223CDE905130123E8
:102BA000099305A900F050FC0AB010BD134A9342E6
:102BB000FAD1104B1248002103915A6C42F00202E4
:102BC0005A645A6C02F002020392039A04911A6B3F
:102BD00042F004021A631B6B03F004030493049B8A
:102BE000C0220223CDE905230323099305A9D9E7D0
:102BF0000000014000380240001002400004014083
:102C00000008024070B514228AB0044600210DEB82
:102C1000020004F075F92368B3F1804F37D103F552
:102C20000E33002400941A6C294842F001021A6401
:102C30001A6C02F001020092009A01941A6B42F0A1
:102C400001021A631A6B02F001020192019A0294C6
:102C50001A6B42F002021A631B6B03F00203029329
:102C6000029B02264FF40043012505A9CDE9053654
:102C7000099500F0E9FB0823CDE90536CDE90744C5
:102C80001448099505A900F0DFFB0AB070BD124A8F
:102C90009342FAD1114B0E48002103911A6C42F075
:102CA00002021A641A6C02F002020392039A04915F
:102CB0001A6B42F001021A631B6B03F001030493C9
:102CC000049BC0220223CDE90523099305A9DAE775
:102CD00000000240000402400004004000380240AE
:102CE00070B5064688B01422002103A804F008F944
:102CF0003268254B9A4245D1002503F5F8330195FA
:102D00001A6C2248224C42F480221A641A6C02F493
:102D100080220192019A02951A6B42F004021A6312
:102D20001B6B03F004030293029B4FF440620223E7
:102D3000CDE9032303210723CDE9061303A900F0FE
:102D400083FB1448A5614FF00063C4E900034FF40E
:102D50008063C4E9043520464FF48073C4E902550A
:102D6000C4E90735656200F0A1F908B1FFF70CFB73
:102D7000B463272000220521A66300F02DF9272047
:102D800000F05CF908B070BD004800400008024047
:102D9000C003002028600240FEE7FEE7FEE7FEE7F2
:102DA000FEE7704708B500F0DFF803F08BFB012861
:102DB00003D0BDE8084003F095BE08BD014800F00F
:102DC00085BA00BFC0030020014802F03BB900BF34
:102DD000940500200120704708B504F059F8162327
:102DE00003604FF0FF3008BD08B504F051F816231A
:102DF0000360FEE770B50D4614460E46731B9C42F9
:102E000001DC204670BDAFF3008006F8010BF5E74A
:102E100070B50D4614460E46731B9C4201DC2046DD
:102E200070BD16F8010BAFF30080F5E74FF0FF30EF
:102E300070474FF400534B600020704701207047EB
:102E4000002070470B4A116810B5034609B90A49BA
:102E50001160106809490A4C0344091B8B4206D9CA
:102E600004F016F80C2303604FF0FF3010BD136020
:102E7000FCE700BF100A0020785300200000022069
:102E800000040000034AD2F8883043F47003C2F80B
:102E90008830704700ED00E0DFF834D00D480E496F
:102EA0000E4A002302E0D458C4500433C4188C42A4
:102EB000F9D30B4A0B4C002301E013600432A24209
:102EC000FBD3FFF7DFFF03F0E9FFFFF72FF87047B1
:102ED0000000022000000020F8010020FCAC0008E7
:102EE000F801002074530020FEE7000038B50E4AB8
:102EF0000E4B054618784FF47A73B3FBF0F3106865
:102F0000B0FBF3F000F0A8F8044658B90F2D09D82B
:102F1000024629464FF0FF3000F05EF8044B204691
:102F20001D6038BD0120FCE7180000201C000020B7
:102F30002000002008B50B4B1A6842F400721A609A
:102F40001A6842F480621A601A6842F480721A6049
:102F5000032000F02FF80F20FFF7C8FFFFF79EFDBA
:102F6000002008BD003C0240034A044B11681B7856
:102F70000B441360704700BF140A00201C0000209F
:102F8000014B1868704700BF140A002038B504468A
:102F9000FFF7F6FF631C1CBF054B1B78054618BFE7
:102FA000E418FFF7EDFF431BA342FAD338BD00BF7F
:102FB0001C0000200749CA6822F4E06203021204E0
:102FC00003F4E063120C134343F0BF6343F4003394
:102FD000CB60704700ED00E0164B30B5DC68C4F301
:102FE0000224C4F10705231D042D28BF0425062B48
:102FF0004FF0FF338CBF033C002403FA05F521EAB0
:103000000501A34022EA0302A140002841EA02038D
:10301000ACBF00F16040084A4FEA0313B8BF00F0AC
:103020000F00DBB2AABF00F56140135480F80033F3
:1030300030BD00BF00ED00E014ED00E0002808DB2B
:103040004209012300F01F0003FA00F0014B43F88E
:103050002200704700E100E00138B0F1807F0BD220
:103060004FF0E023054A5861F02182F82310002038
:10307000072298611A6170470120704700ED00E057
:10308000036810B5084C0246D9B210391820B1FBBC
:10309000F0F0205CD06523F47F7020F003005F29FE
:1030A00088BF0430906510BDF8A8000870B50446CC
:1030B000FFF766FF0546002C73D0022384F83530F5
:1030C0002268002384F83430136823F0010313606E
:1030D00021680B68D8072FD40B68334DA0691D40B9
:1030E000D4E901231343E26813432269134362695D
:1030F0001343E26903431343226A1343626A042AB7
:1031000043EA050302BFD4E90B5635432B430B605A
:103110004B69042A23F0070343EA020333D1A26A6E
:10312000E56A13437DB390B9012A21D032F002023F
:1031300029D1EA0127D51EE0FFF722FF401B052811
:10314000C6D920236365032084F8350070BDB0F52F
:10315000005F14D1032A16D801A050F822F000BF56
:1031600077310008333100087731000871310008E9
:10317000B5F1C07F07D1402363650120E4E7022A4F
:10318000F9D9032AD5D04B612046FFF779FFE26DCC
:103190003F239340836000200123606584F835302D
:1031A000D4E70120D2E700BF3F8010F070B590F85F
:1031B0003440866D012C31D0012480F8344090F8E1
:1031C0003540012C4FF000054FF0020424D180F867
:1031D000354004684565256825F4802525606360D1
:1031E0008368402B0EBFA260A160E260C26D08BF81
:1031F000E1603F239340B360236843F016032360EC
:10320000036C1BB1236843F008032360236843F079
:1032100001032360002070BD80F834500220FAE7DB
:1032200070B50446866DFFF7ABFE94F83530022B7F
:10323000054606D080236365002384F834300120DE
:1032400070BD23681A6822F016021A605A6922F0CB
:1032500080025A61226C0AB9A26C1AB11A6822F073
:1032600008021A601A6822F001021A6023681B68BB
:1032700013F001030AD1E16D3F228A40B2600122BE
:1032800084F8352084F834301846D9E7FFF778FE03
:10329000401B0528EAD9202363650320002384F816
:1032A000350084F83430CBE790F83530022B03D06A
:1032B00080234365012070470268052380F835307C
:1032C000136823F00103136000207047F7B5002353
:1032D00001935C4B856D1F68C36D2E6808229A4070
:1032E000324204460CD001680868400708D50868D7
:1032F00020F004000860AA60626D42F0010262657D
:1033000001229A40324208D021684969090641BF2A
:10331000AA60626D42F00202626504229A40324263
:1033200008D021680968880741BFAA60626D42F031
:103330000402626510229A40324210D02368196854
:1033400009070CD5AA601A68500337D51B68190302
:1033500001D4236C00E0A36C0BB120469847E16DCB
:1033600020228A4032423AD023681868C60636D5F1
:10337000AA6094F83520052A1A6827D122F016028F
:103380001A605A6922F080025A61226C0AB9A26C52
:103390001AB11A6822F008021A603F238B40AB6012
:1033A000012384F83530002384F83430236D002B5A
:1033B00045D0204603B0BDE8F04018471A68D20552
:1033C0005EBF1A6822F008021A60C2E7500327D5D0
:1033D0001B68190331D4636C0BB120469847636DA9
:1033E0006BB3636DDA0719D522684FF41653B7FB38
:1033F000F3F7052384F83530136823F001031360D5
:10340000019B0133BB42019302D81368DB07F7D459
:10341000012384F83530002384F83430E36CC6E7A8
:103420001A6812F4807208D1196821F0100119602D
:10343000012384F8353084F83420E36BCCE703B003
:10344000F0BD00BF180000202DE9F74FDFF8A8916C
:10345000674A00230D6801249C4004EA050CAC4334
:1034600040F0B1804D6805F003044FEA430803269D
:10347000671E06FA08F6012F6FEA060634D8876839
:1034800007EA060ECF6807FA08F747EA0E078760D3
:10349000476827EA0C0EC5F300179F4047EA0E075E
:1034A0004760C76807EA060E8F6807FA08F747EA19
:1034B0000E07022CC76019D14FEAD30A00EB8A0A23
:1034C00003F0070BDAF820704FEA8B0B4FF00F0E6A
:1034D0000EFA0BFE27EA0E0E0F6907FA0BF747EA02
:1034E0000E07CAF8207001E0032CDAD1076804FA4D
:1034F00008F43E40264315F4403F066063D04FF089
:10350000000ACDF804A0D9F844603A4C46F480464D
:10351000C9F84460D9F8446006F480460196019EDB
:1035200023F0030606F1804606F59C3603F0030EF1
:10353000D6F808804FEA8E0E0F2707FA0EF7A04242
:1035400028EA070746D004F58064A04244D004F579
:103550008064A04242D004F58064A04240D004F5CB
:103560008064A0423ED004F58064A0423CD004F5C3
:103570008064A0423AD004F58064A0420CBF0724C6
:10358000082404FA0EF43C43B46014686FEA0C0695
:10359000EF0354BF34404CEA040414605468AF0392
:1035A00054BF34404CEA040454609468EF0254BFA2
:1035B00034404CEA04049460D468AD0254BF3440F3
:1035C0004CEA0404D4600133102B7FF443AF03B002
:1035D000BDE8F08F5446D4E70124D2E70224D0E7B7
:1035E0000324CEE70424CCE70524CAE70624C8E771
:1035F000003C0140000002400038024003691942CB
:1036000014BF0120002070470AB18161704709048E
:10361000FBE7436901EA030221EA030141EA0241AF
:103620008161704701684B6913F480634FF00002B9
:1036300010D06FF480634B612023026380F83D302B
:1036400080F83E20036C80F83C2043F004030364C0
:1036500001207047184670472DE9F84606460F4688
:1036600091461D464FEA114A3368BAF1010F0CBF6B
:103670005C699C6927EA0404A4B2B4FA84F464097E
:10368000A14501D0002017E06A1CEED0FFF778FCBE
:10369000089BC01AA84201D8002DE5D100232022A2
:1036A000336386F83D2086F83E30326C86F83C3035
:1036B00042F0200232640120BDE8F8862DE9F04195
:1036C00004460F46164698462568686927EA0000B2
:1036D00080B2B8B16B695A0516D52B6843F40073F4
:1036E0002B606FF480636B6120220023236384F8D6
:1036F0003D2084F83E30226C42F00402226484F8BB
:103700003C300120BDE8F081731CDED0FFF738FCAF
:10371000A0EB0800B04201D8002ED5D10023202212
:10372000236384F83D2084F83E30226C42F020026E
:10373000E4E770B504460D46164621684B6913F060
:10374000400301D0002010E04A69D2060ED56FF088
:1037500010024A612022236384F83D2084F83E3021
:10376000226C226484F83C30012070BDFFF708FC15
:10377000801BA84201D8002DDFD100232022236323
:1037800084F83D2084F83E30226C42F02002E8E7C5
:1037900070B504460D46164623685B695B0701D584
:1037A000002070BD2046FFF73DFFA8B96A1CF3D08A
:1037B000FFF7E6FB801BA84201D8002DECD10023C7
:1037C0002022236384F83D2084F83E30226C84F864
:1037D0003C3042F0200222640120E2E770B504464A
:1037E0000D46164623685B691B0601D5002070BD97
:1037F0002046FFF717FFA8B96A1CF3D0FFF7C0FBFC
:10380000801BA84201D8002DECD100232022236385
:1038100084F83D2084F83E30226C84F83C3042F03D
:10382000200222640120E2E72DE9F04315460268F8
:1038300085B0DDE90C789946136843F48073136012
:103840000E463B46CDF8008000224FF001110446A1
:10385000FFF702FF236838B11B68DB0502D54FF480
:103860000073236403200AE006F0FE061E61194976
:1038700043463A462046FFF721FF18B1012005B024
:10388000BDE8F083236803905A6903929B69039310
:10389000424639462046039BFFF7A0FF40B1236C08
:1038A000042B01BF2268136843F400731360E5E73B
:1038B000B9F1010F236802D1EDB21D61DFE72A0AD9
:1038C0001A61394642462046FFF788FF0028E6D1B4
:1038D0002368F1E7020001002DE9FF479A460368DB
:1038E00015461A6842F480621A601A68DDE90C789D
:1038F00042F480721A600E463B46CDF800800022EA
:103900004FF001110446FFF7A7FE236848B11B687A
:10391000DB0502D54FF400732364032004B0BDE837
:10392000F0875FFA86F906F0FE061E612A494346D3
:103930003A462046FFF7C2FE08B10120EEE72368B1
:1039400003905A6903929B69039342463946204685
:10395000039BFFF743FF40B1236C042B01BF226898
:10396000136843F400731360E7E7BAF1010F2368AB
:103970001AD1EDB21D61424639462046FFF72EFFAF
:103980000028E9D12268136843F4807313604FF074
:1039900001110246CDF800803B462046FFF75CFE51
:1039A000226860B11368B3E72A0A1A6139464246B1
:1039B0002046FFF713FF0028CED12368D9E749F04E
:1039C00001031361044943463A462046FFF776FE59
:1039D000003818BF0120A1E70200010070B50446BD
:1039E00008B9012070BD90F83D3003F0FF021BB90B
:1039F00080F83C20FFF772F8242384F83D302368D8
:103A00001A6822F001021A601A6842F400421A6031
:103A10001A6822F400421A6000F0B6FC3F4B656859
:103A20009D4294BF3E4B3F4B98428CBF00230123E5
:103A3000002BD6D12268394E53683B49B0FBF1F1D7
:103A400023F03F030B43B542536088BF4FF4967693
:103A5000136A88BF714323F03F0384BF4FF47A7623
:103A6000B1FBF6F1013119431162D169431E2B48B4
:103A700021F44F41854221F0FF0132D86D0040F61C
:103A8000FC70B3FBF5F30133034242D0C3F30B03E5
:103A90000B43D361D4E907301168034321F0C0011F
:103AA0000B4313609168D4E9030321F403410343FA
:103AB00021F0FF010B439360D4E90530D168034343
:103AC00021F0FF010B43D360136843F0010313603F
:103AD00000202023206484F83D30206384F83E00D9
:103AE00080E7A06850B905EB4505B3FBF5F301335A
:103AF000C3F30B037BB143F40043C9E719204543EB
:103B0000B3FBF5F30133C3F30B0323B143F4404399
:103B1000BEE70423BCE70123BAE700BFA08601008B
:103B20007F841E00FF083D0040420F002DE9F7434F
:103B3000044699460C9E0F469046FFF721FA94F8EA
:103B40003D30202B054603D0022003B0BDE8F083B2
:103B500000903C49192301222046FFF77DFD0028F3
:103B6000F2D194F83C30012BEED02068012384F888
:103B70003C300368D9075EBF036843F0010303606C
:103B8000036823F400630360212384F83D3040235D
:103B900084F83E30002323640A9B6362BDF82C3016
:103BA0006385638D2385284BE362CDE900654B4631
:103BB000424639462046FFF737FE00282AD001202A
:103BC000C3E7FFF70BFE40B1236C042B01BF226853
:103BD000136843F400731360F1E7636A27681A46B9
:103BE00012F8011B39616262628D218D013A92B235
:103BF00062857A69481E80B2520720850AD548B18D
:103C00005A783A6102336362638D013B02399BB299
:103C100021856385238D2A4631462046002BD0D14D
:103C2000FFF7B6FD0028CFD12268136843F4007374
:103C30001360202384F83D3084F83C0084F83E0073
:103C400083E700BF020010000000FFFF2DE9F043F2
:103C5000044687B09946109F0D469046FFF790F9AD
:103C600094F83D30202B064604D00225284607B0A4
:103C7000BDE8F08300907649192301222046FFF722
:103C8000EBFC0028F1D194F83C30012BEDD02068FA
:103C9000012384F83C300368DB075EBF036843F010
:103CA00001030360036823F400630360222384F8A4
:103CB0003D30402384F83E30002323640E9B636232
:103CC000BDF83C306385638D2385624BE3622946F2
:103CD000CDE900764B4642462046FFF7FDFD0546FE
:103CE00008B10125C2E7228D2368B2B902905A6952
:103CF00002929A690292029A1A6842F400721A6059
:103D0000DFF85481238D002B2CD1202284F83D2014
:103D100084F83C3084F83E30A8E7012A0AD11A68BA
:103D200022F480621A6003905A6903929A6903929E
:103D3000039AE1E7022A0ED11A6822F480621A601F
:103D40001A6842F400621A6004905A6904929B69EE
:103D50000493049BD4E705905A6905929B690593E7
:103D6000059BCDE7032B56D8012B15D1324639469A
:103D70002046FFF7DEFC0028B3D123681A69636A86
:103D80001A70636A01336362238D013B2385638D5F
:103D9000013B9BB26385B5E7022B00963B464FF093
:103DA00000024146204619D1FFF756FC002898D161
:103DB00023681A6842F400721A601A69636A1A70FA
:103DC000626A531C6362238D013B2385638D013B33
:103DD0009BB2638523681B695370D2E7FFF73CFCF5
:103DE00000287FF47EAF23681A6822F480621A608C
:103DF0001A69636A1A70636A009601336362238DDD
:103E0000013B2385638D013B9BB2638502463B46A4
:103E100041462046C8E7324639462046FFF789FC2E
:103E200000287FF45EAF23681A69636A1A70626AB9
:103E3000531C6362238D013B2385638D013B9BB241
:103E400063852368596949077FF55CAFC3E700BF05
:103E5000020010000000FFFF04000100044B0122DB
:103E60001A62044B82B01B680193019B02B0704739
:103E700000000E4200700040044B00221A62044B06
:103E800082B01B680193019B02B0704700000E4294
:103E9000007000402DE9F341044640B30368DD079C
:103EA00010D4236898075ED423681A0700F1A08015
:103EB00023685B0700F1C080A069002840F02881DA
:103EC00000202BE08F4B9A6802F00C02042A07D0E6
:103ED0009A6802F00C02082A0BD15A68510208D5E0
:103EE000884B1B689A03DCD56368002BD9D101206D
:103EF00014E06268B2F5803F13D11A6842F4803250
:103F00001A60FFF73DF87F4E054633689B03C8D41F
:103F1000FFF736F8401B6428F7D9032002B0BDE84C
:103F2000F081784DB2F5A02F2B6807D143F48023A0
:103F30002B602B6843F480332B60E2E723F480335B
:103F40002B602B6823F480232B60002AD9D1FFF744
:103F500017F806462B689F03A3D5FFF711F8801BBF
:103F60006428F7D9D9E7674B9A6812F00C0F07D08D
:103F70009A6802F00C02082A11D15B685E020ED426
:103F8000604A13689D0702D5E368012BAFD113681F
:103F9000216923F0F80343EAC103136084E7E26870
:103FA000594BB2B101221A60FEF7EAFF554D0646A1
:103FB0002B68980707D52B68226923F0F80343EA9A
:103FC000C2032B6070E7FEF7DBFF801B0228EFD9EE
:103FD000A3E71A60FEF7D4FF4A4E054633689907F7
:103FE0007FF562AFFEF7CCFF401B0228F6D994E7BD
:103FF0006269454B82B10122C3F8802EFEF7C0FFF3
:10400000404E0546736F9F073FF552AFFEF7B8FF6E
:10401000401B0228F6D980E7C3F8802EFEF7B0FFD8
:10402000384E0546736F98077FF542AFFEF7A8FF3D
:10403000401B0228F6D970E7324B1A6C12F08052FE
:1040400028D101921A6C42F080521A641B6C03F062
:1040500080530193019B01272C4D2B68D9051BD55B
:10406000A368284D012B27D12B6F43F001032B6749
:10407000FEF786FF234E054641F28838336F9B07D3
:1040800039D5002F3FF418AF1E4A136C23F080532C
:10409000136411E70027DFE72B6843F480732B607C
:1040A000FEF76EFF06462B68DA05D9D4FEF768FFE7
:1040B000801B0228F7D930E7052B04D12B6F43F082
:1040C00004032B67D0E72A6F22F001022A672A6FC8
:1040D00022F004022A67002BCAD1FEF751FF41F2F9
:1040E000883806462B6F9807CBD5FEF749FF801B13
:1040F0004045F7D911E7FEF743FF401B4045BDD9C6
:104100000BE700BF0038024000004742007000404B
:10411000364DAB6803F00C03082B3DD0344B002226
:1041200002281A662BD1FEF72BFF06462B68990151
:104130001FD4D4E907321343626A43EA8213E26A66
:1041400043EA0263A26A5208013A43EA02436B60FF
:10415000274B264D01221A66FEF712FF04462B68F4
:104160009A013FF5ADAEFEF70BFF001B0228F6D912
:10417000D3E6FEF705FF801B0228D7D9CDE6FEF770
:10418000FFFE04462B689B017FF59AAEFEF7F8FE12
:10419000001B0228F6D9C0E601283FF4BFAE6B68C9
:1041A000E26903F4800191427FF4A1AE216A03F039
:1041B0003F028A427FF49BAE616A47F6C0721A40A2
:1041C000B2EB811F7FF493AEA26A520803F4403130
:1041D000013AB1EB024F7FF48AAEE26A03F07063FA
:1041E000B3EB026F3FF46CAE81E600BF00380240D3
:1041F00000004742134908B58B6803F00C03042BF9
:104200001CD0082B1CD14A684B68496813F4800302
:1042100014BF0D480D48C1F3881118BF002302F0E8
:104220003F02A1FB0001FCF72FFD064B5B68C3F3C7
:10423000014301335B00B0FBF3F008BD0248FCE72B
:104240000248FAE70038024040787D010024F4007B
:104250002DE9F0410D46044610B90120BDE8F0817A
:10426000444B1A6802F007028A4228D32268970753
:104270002DD4D00741D43F4B1A6802F00702AA425E
:1042800066D8226851076CD4130707D53A4A2169CA
:10429000936823F4604343EAC1039360FFF7AAFFE6
:1042A000354B364A9B68C3F30313D35CD840344B79
:1042B0001860344B1868FEF719FE0020CEE7CAB22A
:1042C0001A701B6803F007038B42C6D1CEE72A4B56
:1042D00012F0040F1EBF996841F4E051996016076F
:1042E00042BF996841F4604199602349A0688B6896
:1042F00023F0F00303438B60BBE762681E4B012A87
:104300001CD11B6813F4003FA7D01B4EB36823F0E9
:1043100003031343B360FEF733FE41F288380746C8
:10432000B368626803F00C03B3EB820FA3D0FEF70F
:1043300027FEC01B4045F3D903208FE7911E0129BA
:104340001B6802D813F0007FDEE713F0020FDBE7F3
:10435000EAB21A701B6803F00703AB427FF47DAF2B
:104360008FE70549E0688B6823F4E05303438B60D3
:104370008AE700BF003C024000380240E0A8000885
:104380001800002020000020044B054A9B68C3F35E
:104390008223D35C034A1068D8407047003802403B
:1043A000F0A8000818000020044B054A9B68C3F3DE
:1043B0004233D35C034A1068D8407047003802404B
:1043C000F0A8000818000020036A23F0010303622C
:1043D000036A70B5446882690D6822F073022A434B
:1043E0008D6823F002032B430E4DA84202D00E4EDF
:1043F000B04210D1CE6823F008033343A84223F023
:10440000040302D0084DA84205D1D1E9055624F491
:10441000407435432C43446082614A6842630362BE
:1044200070BD00BF0000014000040140036A23F496
:1044300080730362036A70B54468C2690D6822F034
:1044400073022A438D6823F4007343EA0523114D58
:10445000A84203D005F58065A84214D1CD6823F4A5
:10446000006343EA05230B4DA84223F4806303D085
:1044700005F58065A84206D1D1E9055624F44054DB
:10448000354344EA05144460C2614A68C26303626A
:1044900070BD00BF00000140036A23F48053036233
:1044A000036A30B54468C2690D6822F4E64242EA04
:1044B00005228D6823F4005343EA0533084DA842D2
:1044C00003D005F58065A84204D14D6924F48044E9
:1044D00044EA85144460C2614A680264036230BDE4
:1044E00000000140704730B590F83E2090F83F3012
:1044F00090F8425090F84340D2B2DBB2EDB2E4B251
:10450000C9B9012A46D1012D46D1022380F83E3097
:1045100080F8423003681A6A22F001021A621A6AAD
:1045200042F001021A620268136843F0010313604B
:104530000023184630BD042911D1012B2AD1012CAA
:10454000F7D1022380F83F3080F8433003681A6ABD
:1045500022F010021A621A6A42F01002E2E7012AFF
:1045600018D1012B18D1012DE3D1012CE1D1022367
:1045700080F83E3080F83F3080F8423080F8433099
:1045800003681A6A22F001021A621A6A42F00102F2
:104590001A62DCE70123CCE71346CAE7304A036816
:1045A000904212D0B0F1804F0FD0A2F57C429042E1
:1045B0000BD002F58062904207D002F580629042F3
:1045C00003D002F57842904219D14A6823F0700373
:1045D0001343234A904229D0B0F1804F26D0A2F550
:1045E0007C42904222D002F5806290421ED002F5B9
:1045F000806290421AD002F57842904216D0194A51
:10460000904213D002F5806290420FD002F5806292
:1046100090420BD0A2F59832904207D002F580620A
:10462000904203D002F58062904203D1CA6823F41D
:10463000407313434A6923F08003134303608B687C
:10464000C3620B688362064B984203D003F5806314
:10465000984201D10B69036301234361704700BF96
:10466000000001400040014010B5044630B390F80E
:104670003D3003F0FF021BB980F83C20FEF766FADC
:104680000223206884F83D30211DFFF787FF0123B6
:1046900084F84630002084F83E3084F83F3084F8B7
:1046A000403084F8413084F8423084F8433084F854
:1046B000443084F8453084F83D3010BD0120FCE7DB
:1046C00010B5044630B390F83D3003F0FF021BB93B
:1046D00080F83C20FFF706FF0223206884F83D3075
:1046E000211DFFF75BFF012384F84630002084F88A
:1046F0003E3084F83F3084F8403084F8413084F80C
:10470000423084F8433084F8443084F8453084F8EB
:104710003D3010BD0120FCE7F8B50D4604460028E9
:104720004DD090F83D3003F0FF021BB980F83C20DB
:10473000FEF768FA2146022384F83D3051F8040B55
:10474000836823F4804323F007038360FFF726FF89
:1047500020682A6886688369A968076A1643AA6977
:1047600023F4407341EA022123F003030B4323F4B3
:104770007C422B69E9691B0143EA0123E9680B4389
:10478000296A22F0FC0243EA01331343696927F0E6
:10479000AA026F68866047EA011783611743012305
:1047A000076284F84630002084F83E3084F83F30B9
:1047B00084F8423084F8433084F83D30F8BD01205D
:1047C000FCE70000036A23F010030362036A70B57C
:1047D000446882690D6822F4E64242EA05228D6847
:1047E00023F0200343EA0513104DA84203D005F53A
:1047F0008065A84214D1CD6823F0800343EA0513F5
:104800000A4DA84223F0400303D005F58065A84275
:1048100006D1D1E9055624F44064354344EA8504C1
:10482000446082614A688263036270BD0000014097
:1048300070B590F83C30012B054653D00120082A72
:1048400085F83C003DD006D8C2B1042A28D0002308
:1048500085F83C3070BD0C2AF9D12868FFF71CFEA2
:104860002B680969DA6942F40062DA61DA6922F4D4
:104870008062DA61DA6942EA012231E02868FFF7F2
:10488000A3FD2B6809699A6942F008029A619A6946
:1048900022F004029A619A690A439A610020D6E7DD
:1048A0002868FFF78FFF2B6809699A6942F4006254
:1048B0009A619A6922F480629A619A6942EA0122B5
:1048C000EBE72868FFF7B2FD2B680969DA6942F067
:1048D0000802DA61DA6922F00402DA61DA690A436D
:1048E000DA61DBE70220B5E710B58468114324F4F0
:1048F0007F4441EA03232343836010BD70B590F8E1
:104900003C30012B04464FF0020300F0918001225D
:1049100080F83D3080F83C200068836823F47F43B2
:1049200023F0770383600B68602B52D033D8402B81
:1049300067D016D8202B0DD00AD833F0100109D03B
:10494000012384F83D30002384F83C30104670BDCC
:10495000302BF5D1826822F07002134343F0070335
:1049600017E0502BECD14A68CE68016A056A25F041
:1049700001050562836921F00A0123F0F00343EA8F
:1049800006130A4383610262836823F0700343F0D5
:104990005703836011E0B3F5805F0ED0B3F5005F7D
:1049A0000DD0702BCCD1CB68D1E90121FFF79CFF52
:1049B0002268936843F0770393600022C0E7CB68D6
:1049C000D1E90121FFF790FF2268936843F4804307
:1049D000F2E74D68CE68016A21F010010162826938
:1049E000036A22F4704223F0A00343EA051342EA6B
:1049F000063282610362836823F0700343F0670329
:104A0000C7E74A68CE68016A056A25F001050562B4
:104A1000836921F00A0123F0F00343EA06130A43F5
:104A200083610262836823F0700343F04703B0E7B9
:104A30001A468BE7036A01F01F0110B501248C4070
:104A400023EA04030362036A8A401A43026210BD28
:104A500010B5044629B990F83E30012B18D001203A
:104A60002DE004290DD190F83F30013B18BF012300
:104A7000002BF4D104294FF0020321D184F83F30F8
:104A800009E008290CBF90F8403090F84130ECE77D
:104A9000022380F83E3020680122FFF7CBFF236815
:104AA0001C498B4213D01C4A934210D0B3F1804F63
:104AB00014D19A6802F00702062A26D1002010BD00
:104AC00008290CBF84F8403084F84130E3E75A6C81
:104AD0008B4242F400425A64EBD0E7E70F4A93421C
:104AE000E7D002F580629342E3D002F58062934200
:104AF000DFD002F578429342DBD002F57052934248
:104B0000D7D0A2F594329342D3D01A6842F0010272
:104B10001A60D3E700000140000401400004004097
:104B2000FFF796BF30B590F83C30012B4FF00203F1
:104B300032D080F83D3003680D685C689A6824F0D4
:104B400070042C435C60154CA3421AD0B3F1804F23
:104B500017D0A4F57C44A34213D004F58064A3428B
:104B60000FD004F58064A3420BD004F57844A3422F
:104B700007D004F57054A34203D0A4F59434A342A3
:104B800004D1496822F080020A439A60012380F828
:104B90003D30002380F83C30184630BD0000014015
:104BA00090F83C30012B1FD0CB688A6823F4407307
:104BB00013434A6823F4806313430A6823F40063B1
:104BC00013430A6923F4805313434A6923F40053BF
:104BD0001343CA6923F480431343026853640023D8
:104BE00080F83C301846704702207047026802F196
:104BF0000C0353E8003F23F490730C3242E8003179
:104C000002680029F2D102F1140353E8003F23F0B7
:104C1000010302F1140C4CE800310029F3D1036BBD
:104C2000012B0BD102F10C0353E8003F23F01003DA
:104C300002F10C0C4CE800310029F3D1202380F85C
:104C40003E300023036370470268C168136923F490
:104C500040530B4370B51361054683680069D16802
:104C6000034368690343E86921F4164121F00C010C
:104C700003430B43D3605369A96923F440730B4387
:104C800053611F4B9A4203D003F580639A4223D1AC
:104C9000FFF78AFBEB691921B3F5004FD5E9004610
:104CA000A0FB01011BD1B2194FF000035B41FBF7E0
:104CB000EBFF6421B0FBF1F501FB1503DB003233A0
:104CC000B3FBF1F303F007025B0002EB051203F400
:104CD000F8731344A36070BDFFF756FBDAE7B20028
:104CE000B30FFBF7D1FF6422B0FBF2F102FB11031B
:104CF0001B013233B3FBF2F303EB0113EAE700BF0E
:104D000000100140F8B504460E4617461D462268BD
:104D1000136836EA030301D1002028E06B1CF7D0AA
:104D200025B1FEF72DF9C01B8542F0D2226802F1B1
:104D30000C0353E8003F23F4D0730C3242E80030F8
:104D400021680028F2D101F1140353E8003F23F059
:104D5000010301F1140040E80032002AF3D12023BE
:104D600084F83D3084F83C2084F83E300320F8BDC0
:104D700010B5044640B390F83D3003F0FF021BB974
:104D800080F83C20FDF7ACFF2268242384F83D30F6
:104D9000D36823F40053D3602046FFF755FF236800
:104DA0001A6922F490421A615A6922F02A025A6161
:104DB000DA6842F40052DA6000202023206484F88C
:104DC0003D3084F83E3010BD0120FCE7F7B51746B2
:104DD00090F83D200093202A04460E4649D1002930
:104DE00045D0002F43D090F83C20012A41D0012229
:104DF00080F83C2000252122056480F83D20FEF744
:104E0000BFF8A168009BA784B1F5805F0246E784E4
:104E100003D1216909B935460E46002184F83C10BA
:104E2000E18C89B241B940212046FFF76BFF60B9A0
:104E3000202384F83D3009E080212046CDE900237D
:104E4000FFF760FFDDE9002310B1032003B0F0BDE0
:104E500020684EB935F8021BC1F308014160E18CAE
:104E6000013989B2E184DBE716F8011BF6E701207E
:104E7000ECE70220EAE7704770477047704708B5D3
:104E8000806B03685A6990F83D10212912D11206EF
:104E900010D50022C28403F10C0252E8002F22F048
:104EA000C00203F10C0C4CE800210029F3D12022B0
:104EB00080F83D205B6990F83E20222A05D15B06F0
:104EC00003D50023C385FFF791FE036C43F0100365
:104ED0000364FFF7D3FF08BD08B5806B0023C385CB
:104EE000C384FFF7CBFF08BD7047806B08B5036B29
:104EF000012B04D1818D4908FFF7F6FF08BDFFF7AC
:104F0000BCFFFBE708B50346806B1B681B6813F406
:104F1000807337D1C385026802F10C0353E8003F68
:104F200023F480730C3242E8003103680029F2D187
:104F300003F1140252E8002F22F0010203F1140CD5
:104F40004CE800210029F3D103F1140252E8002FAC
:104F500022F0400203F1140C4CE800210029F3D1A7
:104F6000202280F83E20026B012A0BD103F10C02B3
:104F700052E8002F22F0100203F10C0C4CE8002143
:104F80000029F3D1036B012B03D1818DFFF7ACFF17
:104F900008BDFFF771FFFBE707B58168836A026808
:104FA000B1F5805F3ED1016900293ED15268C2F35C
:104FB000080223F8022B8362C38D013B9BB2C38599
:104FC000002B2CD10268D16821F02001D160D1687A
:104FD00021F48071D160516921F0010151612022D9
:104FE00080F83E20026B012A026828D1036302F197
:104FF0000C0353E8003F23F0100302F10C0C4CE8C3
:1050000000310029F3D11368DB0605D5019113683F
:10501000019353680193019B818DFFF765FF03B0F6
:105020005DF804FB39B9016929B95268D2B21A7026
:10503000836A0133BFE7526802F07F02F7E7FFF7A8
:105040001BFFECE7036837B51A68D9685D6912F091
:105050000F0F04460CD1950670D58D066ED590F8CD
:105060003E30222B64D103B0BDE83040FFF794BF3F
:1050700005F0010001F4907505435FD0D50705D513
:10508000CB0542BF236C43F001032364550704D5CD
:1050900018B1236C43F002032364930704D518B1BD
:1050A000236C43F004032364150707D501F02003A4
:1050B00003431EBF236C43F008032364236C002BBF
:1050C00036D0900608D58A0606D594F83E30222BB5
:1050D00002D12046FFF760FF23685B69256C03F06F
:1050E000400305F008051D43204623D0FFF77EFD51
:1050F000226853695B0618D502F1140353E8003F98
:1051000023F0400302F1140040E800310029F3D1FC
:10511000A06B50B1724B0365FEF7C6F840B1A06BAF
:10512000036D03B0BDE8304018472046FFF7A6FEE8
:1051300003B030BDFFF7A2FE2564F9E7206B01281C
:1051400040F09180D50640F18E80C80640F18B80FA
:10515000002201921A6801925A680192019A5A69D2
:1051600055064CD5A16B0A68526892B2002ADFD06E
:10517000A08D9042DCD9E285CA69B2F5807F36D035
:1051800003F10C0252E8002F22F4807203F10C00AC
:1051900040E800210029F3D103F1140252E8002F66
:1051A00022F0010203F1140040E800210029F3D1AC
:1051B00003F1140252E8002F22F0400203F1140020
:1051C00040E800210029F3D1202284F83E20216309
:1051D00003F10C0252E8002F22F0100203F10C0040
:1051E00040E800210029F3D1A06BFEF719F8E38D08
:1051F000A18DC91A89B22046FFF776FE98E7E18DA6
:105200008AB2E18D89B2002992D0A18D891A89B222
:1052100000298DD003F10C0252E8002F22F4907285
:1052200003F10C0545E800200028F3D103F1140236
:1052300052E8002F22F0010203F1140545E8002096
:105240000028F3D1202284F83E20206303F10C02D1
:1052500052E8002F22F0100203F10C0545E800206F
:105260000028F3D1C7E7100628D50D0626D594F8F7
:105270003D20212A7FF45CAFA168226AB1F5805FEE
:1052800017D12169A9B932F8021BC1F3080159608D
:105290002262E28C013A92B2E284002A7FF448AFA3
:1052A000DA6822F08002DA60DA6842F04002DA60FE
:1052B0003EE7511C216212785A60EAE750067FF5FA
:1052C00037AF4A067FF534AFDA6822F04002DA6081
:1052D000202384F83D302046FFF7CDFD28E700BFAE
:1052E000D94E000873B52223002504460564816267
:1052F00080F83E308285806B1D4BC3631D4B266852
:1053000003641D4BC0E9133513460A46311DFDF7F2
:105310004DFF236801951A6801925A680192019A1B
:1053200084F83C5003F10C0252E8002F42F48072E2
:1053300003F10C0040E800210029F3D103F114022D
:1053400052E8002F42F0010203F1140040E800216E
:105350000029F3D103F1140252E8002F42F0400279
:1053600003F1140141E800200028F3D102B070BD20
:10537000054F0008EB4E00087F4E000870B490F80F
:105380003E60202E10D161B15AB190F83C40012C02
:105390000AD0012480F83C400024046370BCFFF76D
:1053A000A1BF012070BC70470220FBE7EFF305832B
:1053B0002BB9064B186828B901221A6070476FF0A4
:1053C000050070474FF0FF30704700BF740C00209D
:1053D00010B5EFF305845CB9084B1A68012A0AD1AD
:1053E000074AD47702221A6000F09EFD204610BDC5
:1053F0006FF00500FBE74FF0FF30F8E7740C00207A
:1054000000ED00E0F0B587B0144600220B4605928F
:10541000EFF30582D2B9C8B1002C2FD0A569002DB9
:1054200008BF1825691E3729AC462BD86168C90703
:1054300028D466696EB1B208D4E9027E216857B1FA
:10544000BEF15B0F02D9246904B1EEB9059807B02B
:10545000F0BD8022F0E7BEF1000FF7D12469002CE7
:10546000F4D10C4605A9CDE900C192B2214600F065
:105470002EFD01281CBF00230593E7E74FF0180C11
:105480008022EFE71046E2E7CDE90147009500F002
:10549000E6FC0590DAE710B5EFF3058424B910B106
:1054A00000F0E8FE204610BD6FF00500FBE737B5C1
:1054B0000546EFF305845CB900F084FD291A002944
:1054C000019008DD01A800F08DFE204603B030BD3C
:1054D0006FF00500FAE76FF00300F7E7034B036096
:1054E000034B0B6080231360704700BF180C002033
:1054F000180A0020034B0360034B0B604FF48073CA
:105500001360704778100020780C002000F1080329
:105510004FF0FF32C0E902234360036100230360C0
:10552000704700230361704743684B609A688A6044
:105530009A6851609960036808610133036070479D
:1055400030B50C68631C0AD103695A684A609160DF
:105550008B605960036808610133036030BD00F15E
:105560000802134652681568A542FAD9EDE7D0E95A
:10557000011203698A6051605968814208BF5A600C
:10558000002202611A68013A1A601868704710B563
:10559000044601F03FFAA46B01F05CFAB4FA84F01F
:1055A000400910BDF8B51546026C866B044652B929
:1055B000076847BB806800F095FFA7600546013685
:1055C000A6632846F8BD65B9406801F08BFC6368A6
:1055D000226C1344A26863609342F0D32368636033
:1055E000EDE7C06801F07EFC226CE36851429B1A33
:1055F0002268E36093423EBFA3685B18E360022D1C
:1056000001D116B1013E0025D9E73546D7E703465B
:1056100010B41A6C08466AB1DC68996814448C426C
:1056200028BF1968DC6028BFD960D9685DF8044BD1
:1056300001F058BC5DF8044B704770B5044601F0AA
:10564000E9F994F8455004F124066DB2002D14DCFC
:10565000FF2384F8453001F0FDF901F0DBF994F8FF
:10566000445004F110066DB2002D12DCFF2384F8C3
:105670004430BDE8704001F0EDB9636A002BE7D01B
:10568000304600F08DFE08B100F016FF013D6DB20E
:10569000DCE72369002BE9D0304600F081FE08B139
:1056A00000F00AFF013D6DB2DEE738B50D46044655
:1056B00040B94FF0500383F31188BFF36F8FBFF3EE
:1056C0004F8FFEE701F0A6F9D4E90F31226862603E
:1056D0004B43D0185B1A1344A060E3600020FF2303
:1056E000A06384F8443084F84530A5B9236973B1C8
:1056F00004F1100000F054FE48B14FF0E0234FF0E9
:105700008052C3F8042DBFF34F8FBFF36F8F01F0AA
:10571000A1F9012038BD04F11000FFF7F7FE04F1F4
:105720002400FFF7F3FEF2E713B51C4640B94FF033
:10573000500383F31188BFF36F8FBFF34F8FFEE7E2
:1057400043B94FF0500383F31188BFF36F8FBFF35A
:105750004F8FFEE74AB191B94FF0500383F31188A0
:10576000BFF36F8FBFF34F8FFEE741B14FF0500390
:1057700083F31188BFF36F8FBFF34F8FFEE7502382
:105780000193019B502B08D04FF0500383F31188F5
:10579000BFF36F8FBFF34F8FFEE7002908BF22468C
:1057A000019B22600123C4E90F0184F846301946A9
:1057B0002046FFF77AFF9DF8103084F84C302046E1
:1057C00002B010BD2DE9F04385B0884601921F4616
:1057D000044640B94FF0500383F31188BFF36F8F35
:1057E000BFF34F8FFEE751B9036C43B14FF0500345
:1057F00083F31188BFF36F8FBFF34F8FFEE7022F44
:105800000BD1E36B012B08D04FF0500383F31188C9
:10581000BFF36F8FBFF34F8FFEE700F053FE0646D6
:1058200050B9019B4BB14FF0500383F31188BFF384
:105830006F8FBFF34F8FFEE700264FF0000937E070
:10584000019D1DB901F006F9002052E016B902A829
:1058500000F0EAFD01F0FEF800F0ACFB01F0DAF830
:1058600094F84430FF2B08BF84F8449094F84530F6
:10587000FF2B08BF84F8459001F0ECF801A902A8BD
:1058800000F0DEFD00284AD101F0C4F8A26BE36B02
:105890009A4231D101F0DEF8019904F1100000F0D4
:1058A00047FD2046FFF7C9FE00F028FC60B3012643
:1058B00001F0B0F8A26BE36B9A4201D3022FBFD183
:1058C0003A4641462046FFF76DFE636A1BB104F17C
:1058D000240000F065FD48B14FF0E0234FF0805206
:1058E000C3F8042DBFF34F8FBFF36F8F01F0B2F8F1
:1058F000012005B0BDE8F08301F0ACF82046FFF7C9
:105900009CFE00F0FBFBD2E74FF0E0234FF080520B
:10591000C3F8042DBFF34F8FBFF36F8FC7E7204647
:10592000FFF78BFE00F0EAFB8EE72DE9F84389468E
:1059300090461F46044640B94FF0500383F3118848
:10594000BFF36F8FBFF34F8FFEE751B9036C43B1C5
:105950004FF0500383F31188BFF36F8FBFF34F8F66
:10596000FEE7022F0BD1E36B012B08D04FF0500361
:1059700083F31188BFF36F8FBFF34F8FFEE701F002
:105980005FF9EFF311864FF0500383F31188BFF3F3
:105990006F8FBFF34F8FA26BE36B9A4201D3022F3D
:1059A00023D194F84550A36B6DB23A464946204640
:1059B000FFF7F8FD6B1C13D1636A0BB901200BE0F4
:1059C00004F1240000F0ECFC0028F7D0B8F1000F3F
:1059D000F4D00120C8F8000086F31188BDE8F883F0
:1059E00001356DB284F84550E8E70020F4E72DE971
:1059F000FF410F460192044640B94FF0500383F334
:105A00001188BFF36F8FBFF34F8FFEE751B9036C5F
:105A100043B14FF0500383F31188BFF36F8FBFF38F
:105A20004F8FFEE700F04EFD064650B9019B4BB18B
:105A30004FF0500383F31188BFF36F8FBFF34F8F85
:105A4000FEE700264FF000083DE0019D1DB901F082
:105A500001F8002056E016B902A800F0E5FC00F0BD
:105A6000F9FF00F0A7FA00F0D5FF94F84430FF2BBF
:105A700008BF84F8448094F84530FF2B08BF84F8B1
:105A8000458000F0E7FF01A902A800F0D9FC00283A
:105A900041D12046FFF77BFDB8B3019904F1240002
:105AA00000F046FC2046FFF7C8FD00F027FB48B990
:105AB0004FF0E0234FF08052C3F8042DBFF34F8F17
:105AC000BFF36F8F012600F0A5FFA56B002DBCD0A2
:105AD00039462046013DFFF79AFDA563236973B15E
