:020000040800F2
:1000000000000220891900080519000807190008D6
:10001000091900080B1900080D190008000000005C
:100020000000000000000000000000006147000820
:100030000F19000800000000F1470008111900081E
:10004000D9190008D9190008D9190008D9190008C8
:10005000D9190008D9190008D9190008D9190008B8
:10006000D9190008D9190008D9190008D9190008A8
:10007000D9190008D9190008D9190008D919000898
:10008000D9190008D9190008D9190008D919000888
:10009000D9190008D9190008D9190008D919000878
:1000A000D9190008D9190008D9190008D919000868
:1000B000D9190008D9190008D9190008D919000858
:1000C000D9190008D9190008D9190008D919000848
:1000D000D9190008D9190008D919000829190008E8
:1000E000D9190008D9190008D9190008D919000828
:1000F000D9190008D9190008D9190008D919000818
:10010000D9190008D9190008D9190008D919000807
:10011000D9190008D9190008D9190008D9190008F7
:10012000D9190008D9190008D9190008D9190008E7
:10013000D9190008D9190008D9190008D9190008D7
:10014000D9190008D9190008D9190008D9190008C7
:10015000D9190008D9190008D9190008D9190008B7
:10016000D9190008D9190008D9190008D9190008A7
:10017000D9190008D9190008D91900080000000091
:08018000D9190008D919000883
:1001900010B5054C237833B9044B13B10448AFF3C1
:1001A00000800123237010BD7400002000000000B7
:1001B000E455000808B5034B1BB103490348AFF3EE
:1001C000008008BD0000000078000020E455000811
:1001D00001F0FF01102A2BDB10F0070F08D010F8F8
:1001E000013B013A8B422DD010F0070F42B3F6D1FC
:1001F000F0B441EA012141EA014122F007047FF015
:1002000000070023F0E80256083C85EA010586EA6B
:10021000010685FA47F5A3FA87F586FA47F6A5FAA7
:1002200087F68EB9EED1F0BC01F0FF0102F00702B3
:1002300032B110F8013B013A83EA010313B1F8D15E
:100240000020704701387047002D06BF354603383F
:10025000073815F0010F07D1013015F4807F02BF78
:10026000013015F4C03F0130F0BC0138704700BFC9
:1002700070B54FF0FF0C4CF4E06C1CEA11541DBF3C
:100280001CEA135594EA0C0F95EA0C0F00F0DEF807
:100290002C4481EA030621EA4C5123EA4C5350EAEC
:1002A000013518BF52EA033541F4801143F480133D
:1002B00038D0A0FB02CE4FF00005E1FB02E506F0CE
:1002C0000042E0FB03E54FF00006E1FB03569CF023
:1002D000000F18BF4EF0010EA4F1FF04B6F5007F29
:1002E00064F5407404D25FEA4E0E6D4146EB06069B
:1002F00042EAC62141EA55514FEAC52040EA5E5024
:100300004FEACE2EB4F1FD0C88BFBCF5E06F1ED8CD
:10031000BEF1004F08BF5FEA500E50F1000041EB04
:10032000045170BD06F0004646EA010140EA0200B1
:1003300081EA0301B4EB5C04C2BFD4EB0C0541EAD3
:10034000045170BD41F480114FF0000E013C00F3E8
:10035000AB8014F1360FDEBF002001F0004170BD0C
:10036000C4F10004203C35DA0C341BDC04F1140425
:10037000C4F1200500FA05F320FA04F001FA05F2B1
:1003800040EA020001F0004221F0004110EBD3707E
:1003900021FA04F642EB06015EEA430E08BF20EAAA
:1003A000D37070BDC4F10C04C4F1200500FA04F34D
:1003B00020FA05F001FA04F240EA020001F00041DF
:1003C00010EBD37041F100015EEA430E08BF20EA52
:1003D000D37070BDC4F1200500FA05F24EEA020E9A
:1003E00020FA04F301FA05F243EA020321FA04F0C9
:1003F00001F0004121FA04F220EA020000EBD37080
:100400005EEA430E08BF20EAD37070BD94F0000F7F
:100410000FD101F00046400041EB010111F4801FB3
:1004200008BF013CF7D041EA060195F0000F18BF64
:10043000704703F00046520043EB030313F4801FA0
:1004400008BF013DF7D043EA0603704794EA0C0F5A
:100450000CEA135518BF95EA0C0F0CD050EA410670
:1004600018BF52EA4306D1D181EA030101F00041ED
:100470004FF0000070BD50EA410606BF1046194615
:1004800052EA430619D094EA0C0F02D150EA013621
:1004900013D195EA0C0F05D152EA03361CBF104662
:1004A00019460AD181EA030101F0004141F0FE4101
:1004B00041F470014FF0000070BD41F0FE4141F485
:1004C000780170BD81F0004102E000BF83F000437D
:1004D00030B54FEA41044FEA430594EA050F08BFDF
:1004E00090EA020F1FBF54EA000C55EA020C7FEAA3
:1004F000645C7FEA655C00F0E2804FEA5454D4EB20
:100500005555B8BF6D420CDD2C4480EA020281EAE9
:10051000030382EA000083EA010180EA020281EA21
:100520000303362D88BF30BD11F0004F4FEA013173
:100530004FF4801C4CEA113102D0404261EB410182
:1005400013F0004F4FEA03334CEA133302D0524208
:1005500063EB430394EA050F00F0A780A4F10104C4
:10056000D5F1200E0DDB02FA0EFC22FA05F28018FE
:1005700041F1000103FA0EF2801843FA05F35941E4
:100580000EE0A5F120050EF1200E012A03FA0EFC63
:1005900028BF4CF0020C43FA05F3C01851EBE3718D
:1005A00001F0004507D54FF0000EDCF1000C7EEBAA
:1005B00000006EEB0101B1F5801F1BD3B1F5001FE8
:1005C0000CD349085FEA30004FEA3C0C04F1010407
:1005D0004FEA445212F5800F80F09A80BCF1004F30
:1005E00008BF5FEA500C50F1000041EB045141EAB2
:1005F000050130BD5FEA4C0C404141EB0101013C7B
:1006000028BFB1F5801FE9D291F0000F04BF014669
:100610000020B1FA81F308BF2033A3F10B03B3F13B
:1006200020020CDA0C3208DD02F1140CC2F10C02CB
:1006300001FA0CF021FA02F10CE002F11402D8BF29
:10064000C2F1200C01FA02F120FA0CFCDCBF41EAF5
:100650000C019040E41AA2BF01EB0451294330BDC4
:100660006FEA04041F3C1CDA0C340EDC04F11404A1
:10067000C4F1200220FA04F001FA02F340EA030078
:1006800021FA04F345EA030130BDC4F10C04C4F1BE
:10069000200220FA02F001FA04F340EA030029469E
:1006A00030BD21FA04F0294630BD94F0000F83F4E8
:1006B000801306BF81F480110134013D4EE77FEACB
:1006C000645C18BF7FEA655C29D094EA050F08BF17
:1006D00090EA020F05D054EA000C04BF19461046F8
:1006E00030BD91EA030F1EBF0021002030BD5FEA3C
:1006F000545C05D14000494128BF41F0004130BD64
:1007000014F580043CBF01F5801130BD01F00045B7
:1007100045F0FE4141F470014FF0000030BD7FEA2A
:10072000645C1ABF194610467FEA655C1CBF0B4625
:10073000024650EA013406BF52EA033591EA030F3C
:1007400041F4002130BD00BF90F0000F04BF002134
:10075000704730B54FF4806404F132044FF0000567
:100760004FF0000150E700BF90F0000F04BF0021E0
:10077000704730B54FF4806404F1320410F0004546
:1007800048BF40424FF000013EE700BF42004FEA41
:10079000E2014FEA31014FEA02701FBF12F07F43BE
:1007A00093F07F4F81F06051704732F07F4208BF75
:1007B000704793F07F4F04BF41F40021704730B57C
:1007C0004FF4607401F0004521F000411CE700BFC8
:1007D00050EA010208BF704730B54FF000050AE04B
:1007E00050EA010208BF704730B511F0004502D54C
:1007F000404261EB41014FF4806404F132045FEA4E
:10080000915C3FF4D8AE4FF003025FEADC0C18BFF6
:1008100003325FEADC0C18BF033202EBDC02C2F1E8
:10082000200300FA03FC20FA02F001FA03FE40EA7A
:100830000E0021FA02F11444BDE600BF4A0011D2B5
:1008400012F5001211D20DD56FF47873B3EB62522A
:100850000ED44FEAC12343F0004343EA505323FA36
:1008600002F070474FF00000704750EA013002D1AB
:100870004FF0FF3070474FF00000704753B94AB94E
:10088000002908BF00281CBF4FF0FF314FF0FF3098
:1008900000F06EB9ADF1080C6DE904CE00F006F879
:1008A000DDF804E0DDE9022304B070472DE9F047EC
:1008B000089D04468C46002B40F083808A421746F0
:1008C00047D9B2FA82F242B1C2F1200024FA00F014
:1008D0009140974040EA010C94404FEA1748230C9E
:1008E000BCFBF8F61FFA87FE08FB16C143EA01437A
:1008F00006FB0EF1994209D9FB1806F1FF3080F092
:100900001981994240F21681023E3B445B1AA4B21F
:10091000B3FBF8F008FB103344EA034400FB0EFE7F
:10092000A64509D93C1900F1FF3380F00581A645A1
:1009300040F2028102383C4440EA0640A4EB0E0437
:1009400000261DB1D4400023C5E900433146BDE86F
:10095000F08702B9FFDEB2FA82F2002A50D1CB1B37
:100960004FEA174E1FFA87F80126B3FBFEFC210C55
:100970000EFB1C3341EA034108FB0CF38B4207D901
:1009800079180CF1FF3002D28B4200F2E9808446E4
:10099000C91AA3B2B1FBFEF00EFB101143EA0144E9
:1009A00008FB00F8A04507D93C1900F1FF3302D23B
:1009B000A04500F2D9801846A4EB080440EA0C4098
:1009C000BFE78B4209D9002D00F0B1800026C5E9B0
:1009D000000130463146BDE8F087B3FA83F6002EB9
:1009E0004AD18B4202D3824200F2B880841A61EB72
:1009F000030101208C46002DA8D0C5E9004CA5E7D5
:100A0000C2F1200320FA03F6974001FA02F04FEA00
:100A1000174ED9403043030CB1FBFEF61FFA87F89E
:100A20000EFB161143EA014306FB08F1994204FA52
:100A300002F409D9FB1806F1FF3C80F08D80994241
:100A400040F28A80023E3B445B1A81B2B3FBFEF067
:100A50000EFB103341EA034100FB08F38B4207D938
:100A6000791800F1FF3C73D28B4271D902383944B6
:100A7000CB1A40EA064678E7C6F1200C03FA06F4E2
:100A800022FA0CF31C4320FA0CF701FA06F34FEAA2
:100A9000144E21FA0CF11F433B0CB1FBFEF91FFA77
:100AA00084F80EFB191143EA014109FB08FA8A4553
:100AB00002FA06F200FA06F308D9611809F1FF30CC
:100AC00048D28A4546D9A9F102092144A1EB0A017D
:100AD000BFB2B1FBFEF00EFB101147EA014700FB6D
:100AE00008F8B84507D9E71900F1FF312ED2B8450B
:100AF0002CD90238274440EA0940A7EB0807A0FB9D
:100B000002894F45C64649461AD317D05DB1B3EBAB
:100B10000E0267EB010707FA0CFCF2404CEA0202F6
:100B2000F740C5E9002700263146BDE8F0872E468C
:100B300028460BE70646E9E61846FDE64345E5D2BA
:100B4000B8EB020E69EB04010138DFE70846D2E793
:100B500060468DE78146B9E7664675E730464AE765
:100B6000ACF1020C394413E702383C4424E700BFDF
:100B7000704700BFFEE700007FB50D4C0D4E0E4DD7
:100B800021460522304602F006FB22460B4901A809
:100B900004F07AF801AA14210A2000F001FD284689
:100BA0004FF4806101F01BF9012002F082FBE7E7BE
:100BB0008C4A0020F84900200010024056560008D8
:100BC00008B5012002F075FBFBE700007FB50A4A7B
:100BD0001068516801AB03C30023CDE903330593CB
:100BE0000A21084601AA00F0DBFC00F03DFC0120D0
:100BF00002F05FFBF4E700BFFC55000800000000B6
:100C00002DE9F04F002189B0BD48BE4FDFF81883B1
:100C100001F04CFF0421BA4801F048FF0C21BA480A
:100C200001F044FF3C21384601F023FC3B685C6A3C
:100C300000F01EFF054698F8022098F8033098F857
:100C400001108DF8081002A88DF809208DF80A30DF
:100C500003F0D6FF98F8053098F804208DF8053099
:100C6000814601A88DF8042003F0CAFF98F80030EF
:100C7000DFF894A2A24E4C2B00F05A810DD8422BE3
:100C800000F0CF80462B66D0DAF80030CA221A6412
:100C9000336800225A639A63CDE7522BF4D1FFF7F1
:100CA00053FD95A3D3E90023FFF7E2FA974B002207
:100CB000FFF7DEFAFFF7C2FDDAF80030DFF86CA2CA
:100CC000CA221A64042100228146914801F082F868
:100CD0008F480122082101F07DF88D480022202153
:100CE00001F078F801228A48102101F073F8336886
:100CF00040F2DC525A6300269A630AF10B0B00F0B3
:100D0000B7FE401B322823D93A68536A1268D206CC
:100D100040F17A819C4240F37281E41A4A4651467E
:100D200003A803F0B1FF264403AA1E210A2000F005
:100D300037FC3246594603A803F0A6FF03AA282130
:100D40000A2000F02DFC3B685C6A00F091FE05462D
:100D50004E45D4D34DE0DAF80030DFF8D0A13C2086
:100D600093221A640421002200FB09F9684801F06B
:100D700031F867480122082101F02CF8644800226C
:100D8000202101F027F801226148102101F022F80A
:100D9000336840F2DC525A6300269A630AF10B0B67
:100DA00000F066FE401B322821D93A68536A126867
:100DB000D0062ED59C4227DDE41A4A46514603A8A8
:100DC00003F062FF264403AA1E210A2000F0E8FB7C
:100DD0003246594603A803F057FF03AA28210A20E8
:100DE00000F0DEFB3B685C6A00F042FE05464E45C3
:100DF000D6D3642388F80030464947484FF0FF3384
:100E0000062201F0A9FF16E7C3F57F43FF331C4418
:100E1000D3E79C4201DA1C1BCFE7C4F57F44FF34C3
:100E2000F5E7DAF80030DFF804A13C2093221A64D9
:100E30000821002200FB09F9354800F0CBFF3448B7
:100E40000122042100F0C6FF31480022102100F0E9
:100E5000C1FF01222E48202100F0BCFF336840F280
:100E6000DC525A6300269A630AF12E0B00F000FE52
:100E7000401B322830D94A46514603A803F004FFEC
:100E800003AA1E210A2000F08BFB3A68536A1268FD
:100E900012F0100F4FF6FF7221D09C42D5BFD31A2B
:100EA0001E491F49E41ACEBF3246E418324603A851
:100EB00003F0EAFE03AA28210A2000F071FB3B6838
:100EC00034444FF6FF76B4FBF6F6C6EB0646A61B97
:100ED0005C6A00F0CDFD05464E45C7D389E79C42CC
:100EE000A7BF141B0F491C1B3246B2BF5946E4185A
:100EF0003246DCE7AFF30080666666666666D63F1C
:100F0000B0490020944A0020404A002000804D4013
:100F1000000002405E560008F849002026560008EE
:100F2000325600084A5600088C4A00201056000825
:100F3000FFF70AFC3AA3D3E90023FFF799F9364BF0
:100F40000022FFF795F9FFF779FCDAF80030DFF8B7
:100F5000D8A05A221A640421002281462F4800F0AA
:100F600039FF2E480122082100F034FF2B480022CF
:100F7000202100F02FFF01222848102100F02AFF35
:100F8000336840F2DC525A6300269A630AF10B0B75
:100F900000F06EFD401B322821D93A68536A12686E
:100FA000D10624D59C421DDDE41A4A46514603A8C9
:100FB00003F06AFE264403AA1E210A2000F0F0FA7C
:100FC0003246594603A803F05FFE03AA28210A20EF
:100FD00000F0E6FA3B685C6A00F04AFD05464E45C3
:100FE000D6D306E7C3F57F43FF331C44DDE79C42BD
:100FF00001DA1C1BD9E7C4F57F44FF34F5E7C3F5DC
:101000007F43FF331C4489E69C4201DA1C1B85E6C2
:10101000C4F57F44FF34F5E700804D4000000240F6
:10102000666666666666D63F1056000800B595B0DF
:101030002C22002109A803F01FFE1422002103A87E
:1010400003F01AFE0023194A0193116C41F08051FC
:101050001164126C02F080520192019A144A0293B8
:10106000116841F48041116012680E9302F48042CD
:101070000292029A0222089201201022CDE90B026C
:1010800008A800F0D1FE014608B172B6FEE70F23B2
:10109000CDE90330CDE90500079003A801F09EF8E3
:1010A00008B172B6FEE715B05DF804FB00380240E7
:1010B0000070004000B59BB000F0B4FCFFF7B6FF35
:1010C0001422002111A803F0D7FD0024A04B0094A6
:1010D0001A6BA048A04D42F010021A631A6B02F07E
:1010E00010020092009A01941A6B42F001021A63F6
:1010F0001A6B02F001020192019A02941A6B42F0FB
:1011000004021A631A6B02F004020292029A039418
:101110001A6B42F002021A631B6B03F00203039383
:1011200022464FF4BC61039B00F054FE22468B48DC
:101130003C2100F04FFE01264FF4BC63854811A905
:10114000CDE91136CDE9134400F06AFD3C23834814
:1011500011A9CDE91136CDE9134400F061FD10224B
:10116000214606A803F088FD1C2221460AA8CDE9E5
:10117000044403F081FD2022214611A803F07CFDE8
:10118000774BAC60C5E90034284641F61F43C5E9FA
:101190000334C5E9054401F02DFA08B172B6FEE743
:1011A0004FF4805306A92846069301F06FFB08B15F
:1011B00072B6FEE7284601F049FA08B172B6FEE7BA
:1011C000CDE9040004A9284601F072FC024608B1EA
:1011D00072B6FEE76023CDE90A30CDE90C00CDE917
:1011E0000E0010900AA9284601F0E8FA08B172B67C
:1011F000FEE704220AA9284601F0E0FA08B172B617
:10120000FEE7CDE91100CDE9130015904FF400532E
:10121000189011A92846169301F088FC08B172B6FF
:10122000FEE7504C4FF08043C4E900304FF6FF73A7
:10123000C4E903300323CDE911300A23CDE90A00C4
:10124000CDE91360CDE91530CDE91760A060A0614C
:1012500011A92046199301F025FA08B172B6FEE7EC
:10126000CDE90A000AA9204601F022FC044608B193
:1012700072B6FEE70146102206A803F0FDFC1C2210
:1012800021460AA8CDE9044403F0F6FC20222146B9
:1012900011A803F0F1FC344D3448A023C0E90053F9
:1012A0004FF47A73C0E90334C0E90544846001F067
:1012B000A1F908B172B6FEE74FF480532B480693AC
:1012C00006A901F0E3FA08B172B6FEE7274801F07B
:1012D000BDF908B172B6FEE7CDE9040004A92348C0
:1012E00001F0E6FB08B172B6FEE76023CDE90A30F3
:1012F000CDE90E000C9010900C221C480AA901F0B8
:101300005DFA08B172B6FEE74FF40053CDE9110063
:10131000CDE913001590189011A91448169301F007
:1013200005FC034608B172B6FEE711481149036196
:101330004FF4E132C0E900120C22C0E90233C0E9E7
:101340000523C36101F0DAFC0446A8B172B6FEE7DA
:101350000038024000100240B04900200000024066
:1013600000040140944A002000000140404A00204F
:10137000F84900200048004000F032F901F024FF55
:10138000124A1348214601F04BFF124B124A1860D3
:101390002146124801F044FF114B124A18602146C1
:1013A000114801F03DFF114B114A186021461148C8
:1013B00001F036FF104B114A18602146104801F029
:1013C0002FFF104B186001F011FFFEE728570008AF
:1013D000790B0008AC49002098560008CD0B000896
:1013E000884A0020E0560008010C0008A8490020A7
:1013F00004570008750B0008DC4A0020BC560008A2
:10140000C10B00083C4A0020012970B50A46044679
:1014100018BF00221348134E4FF4807100F0DAFC1D
:10142000082500222021304600F0D4FC23064CBFC2
:10143000012200224021304600F0CCFC013D012277
:101440002021304600F0C6FC640015F0FF05E4B230
:10145000E7D1BDE87040034801224FF4807100F0ED
:10146000B9BC00BF0010024070B50F4EB02400217F
:101470002046FFF7C9FF00210846FFF7C5FF0021FE
:101480001020FFF7C1FF002516F8350001210135B6
:10149000FFF7BAFF802DF7D10134E4B2B82C06F182
:1014A0000106E4D170BD00BFE04A002008490823CE
:1014B0000020002201F832000132802AFAD1013BDB
:1014C00013F0FF0301F10101F3D1FFF7CDBF00BF1E
:1014D000E04A0020030630B513D43F2911D801F0AB
:1014E00007050A4CC908C1F10701C9B204EBC000E5
:1014F0000123C5F1070503FA05F5435C12B12B433F
:10150000435430BD23EA0503FAE700BFE04A002058
:101510002DE9F74F1F46A2F1200A1F4B9DF830B06E
:101520005FFA8AFA03EB0A1300931C4B0AEB4A0A90
:1015300003EB8A038146884601930C460026B74296
:1015400002D103B0BDE8F08F0C2F0CBF019B009BB4
:101550009D5D04F108035FFA83FA2B0658BFBBFABE
:101560008BF2214604F101044CBF5A465209484609
:10157000E4B2FFF7AFFFA4EB08026D00BA42EDB290
:1015800007D109F101005FFA80F9C24601365446DD
:10159000D5E7A245E1D1F9E7C05B00084C57000848
:1015A000F7B504460D46561E012716F8013F0BB944
:1015B00003B0F0BD7A2C82BF1035EDB200243A2D75
:1015C00003D9FFF773FF00252C4600972046327899
:1015D0000C2329460834FFF79BFFE4B2E5E700003F
:1015E00010B500F005FC404B404C1A6F22F0010290
:1015F0001A671A6F22F004021A6700F007FC002233
:101600008021204600F0E6FB642000F037FA01223A
:101610002046802100F0DEFB0021AE20FFF7F4FE23
:101620000021D520FFF7F0FE00215020FFF7ECFE4F
:101630000021A820FFF7E8FE00213F20FFF7E4FE8D
:101640000021D320FFF7E0FE00210846FFF7DCFE73
:1016500000214020FFF7D8FE00218D20FFF7D4FEA7
:1016600000211420FFF7D0FE00212020FFF7CCFE40
:1016700000210220FFF7C8FE0021A120FFF7C4FED1
:101680000021C020FFF7C0FE0021DA20FFF7BCFEDA
:1016900000211220FFF7B8FE00218120FFF7B4FEE1
:1016A0000021EF20FFF7B0FE0021D920FFF7ACFEAC
:1016B0000021F120FFF7A8FE0021DB20FFF7A4FEA8
:1016C00000213020FFF7A0FE0021A420FFF79CFEA0
:1016D0000021A620FFF798FE0021AF20FFF794FE1F
:1016E000BDE81040FFF7E2BE0038024000100240A3
:1016F00082B00E4B00220092596C41F48041596433
:10170000596C01F48041009100990192196C41F0EB
:10171000805119641B6C03F080530193019B0F21CE
:101720006FF0010002B000F0CFB900BF00380240F6
:1017300010B514228AB0044600210DEB020003F01C
:101740009BFA2368254A934224D1254B002201921B
:10175000596C41F001015964596C01F0010101918A
:1017600001990292196B41F0100119631B6B03F090
:10177000100302934FF48040029BCDE9072202231D
:10178000CDE9050301231748099305A900F048FA9C
:101790000AB010BD144A9342FAD1114B13480022EB
:1017A0000392596C41F002015964596C01F0020135
:1017B000039103990492196B41F0040119631B6BA7
:1017C00003F004030493C021049B0223CDE9051315
:1017D0000323CDE90722099305A9D7E700000140BB
:1017E000003802400010024000040140000802409E
:1017F00070B5044688B01422002103A803F03CFA17
:101800002368B3F1804F37D103F50E3300240094E1
:101810001A6C1A4842F001021A641A6C02F00102B2
:101820000092009A01941A6B42F001021A631A6B3B
:1018300002F001020192019A02941A6B42F0020234
:101840001A631B6B03F002030293029B02264FF400
:101850000043012503A9CDE90336CDE905440795E9
:1018600000F0DEF908230648079503A9CDE9033601
:10187000CDE9054400F0D4F908B070BD0000024085
:101880000004024010B5044688B01422002103A8C9
:1018900003F0F2F92268194B9A422CD103F5F83380
:1018A000002401941A6C164842F480221A641A6CBF
:1018B00002F480220192019A02941A6B42F004020F
:1018C0001A631B6B059403F0040302934FF4406208
:1018D000029B0223CDE9032303210723CDE906134D
:1018E00003A900F09DF927202246052100F0ECF81D
:1018F000272000F01BF908B010BD00BF00480040D1
:1019000000080240FEE7FEE7FEE7FEE7FEE770475D
:1019100008B500F0A1F802F08DFC012803D0BDE865
:10192000084002F097BF08BD014801F0D3BA00BFDC
:10193000F84900200B4B196810B5024609B90A494D
:101940001960186809490A4C0244091B8A4206D9E1
:1019500003F05AF90C2303604FF0FF3010BD1A60FA
:10196000FCE700BF90000020384F0020000002205C
:1019700000040000034AD2F8883043F47003C2F830
:101980008830704700ED00E0DFF834D00D480E4994
:101990000E4A002302E0D458C4500433C4188C42C9
:1019A000F9D30B4A0B4C002301E013600432A2422E
:1019B000FBD3FFF7DFFF03F02DF9FFF77BFB704749
:1019C00000000220000000207400002020630008B6
:1019D00074000020344F0020FEE7000038B50E4AA6
:1019E0000E4B054618784FF47A73B3FBF0F310688A
:1019F000B0FBF3F000F0A8F8044658B90F2D09D851
:101A0000024629464FF0FF3000F05EF8044B2046B6
:101A10001D6038BD0120FCE700000020040000200C
:101A20000800002008B50B4B1A6842F400721A60D7
:101A30001A6842F480621A601A6842F480721A606E
:101A4000032000F02FF80F20FFF7C8FFFFF750FE2C
:101A5000002008BD003C0240034A044B11681B787B
:101A60000B441360704700BFE04E002004000020CC
:101A7000014B1868704700BFE04E002038B504469F
:101A8000FFF7F6FF631C1CBF054B1B78054618BF0C
:101A9000E418FFF7EDFF431BA342FAD338BD00BFA4
:101AA000040000200749CA6822F4E062030212041D
:101AB00003F4E063120C134343F0BF6343F40033B9
:101AC000CB60704700ED00E0164B30B5DC68C4F326
:101AD0000224C4F10705231D042D28BF0425062B6D
:101AE0004FF0FF338CBF033C002403FA05F521EAD5
:101AF0000501A34022EA0302A140002841EA0203B3
:101B0000ACBF00F16040084A4FEA0313B8BF00F0D1
:101B10000F00DBB2AABF00F56140135480F8003318
:101B200030BD00BF00ED00E014ED00E0002808DB50
:101B30004209012300F01F0003FA00F0014B43F8B3
:101B40002200704700E100E00138B0F1807F0AD246
:101B5000064B074A5860F02182F823100020072224
:101B600098601A6070470120704700BF10E000E0E5
:101B700000ED00E070B50446866DFFF779FF94F83C
:101B80003530022B054606D080236365002384F898
:101B90003430012070BD23681A6822F016021A60E2
:101BA0005A6922F080025A61226C0AB9A26C1AB1F9
:101BB0001A6822F008021A601A6822F001021A60FC
:101BC00023681B6813F001030AD1E16D3F228A40AC
:101BD000B260012284F8352084F834301846D9E701
:101BE000FFF746FF401B0528EAD920236365032041
:101BF000002384F8350084F83430CBE790F8353092
:101C0000022B03D08023436501207047026805231F
:101C100080F83530136823F001031360002070470B
:101C20002DE9F74FDFF8A891674A00230D680124DA
:101C30009C4004EA050CAC4340F0B1804D6805F0CF
:101C400003044FEA43080326671E06FA08F6012F2D
:101C50006FEA060634D8876807EA060ECF6807FAE7
:101C600008F747EA0E078760476827EA0C0EC5F3B6
:101C700000179F4047EA0E074760C76807EA060E4D
:101C80008F6807FA08F747EA0E07022CC76019D1D8
:101C90004FEAD30A00EB8A0A03F0070BDAF8207048
:101CA0004FEA8B0B4FF00F0E0EFA0BFE27EA0E0ECB
:101CB0000F6907FA0BF747EA0E07CAF8207001E030
:101CC000032CDAD1076804FA08F43E40264315F4E1
:101CD000403F066063D04FF0000ACDF804A0D9F869
:101CE00044603A4C46F48046C9F84460D9F84460F0
:101CF00006F480460196019E23F0030606F1804615
:101D000006F59C3603F0030ED6F808804FEA8E0ED7
:101D10000F2707FA0EF7A04228EA070746D004F576
:101D20008064A04244D004F58064A04242D004F50F
:101D30008064A04240D004F58064A0423ED004F507
:101D40008064A0423CD004F58064A0423AD004F5FF
:101D50008064A0420CBF0724082404FA0EF43C431C
:101D6000B46014686FEA0C06EF0354BF34404CEAC9
:101D7000040414605468AF0354BF34404CEA0404B4
:101D800054609468EF0254BF34404CEA04049460F9
:101D9000D468AD0254BF34404CEA0404D46001332B
:101DA000102B7FF443AF03B0BDE8F08F5446D4E767
:101DB0000124D2E70224D0E70324CEE70424CCE7B1
:101DC0000524CAE70624C8E7003C014000000240A1
:101DD000003802400AB1816170470904FBE743699A
:101DE00001EA030221EA030141EA024181617047ED
:101DF000044B01221A60044B82B01B680193019BC3
:101E000002B0704720000E4200700040044B0022D8
:101E10001A60044B82B01B680193019B02B07047AB
:101E200020000E42007000402DE9F341044640B30B
:101E30000368DD0710D4236898075ED423681A0767
:101E400000F1A08023685B0700F1BE80A069002834
:101E500040F01F8100202BE0A64B9A6802F00C0294
:101E6000042A07D09A6802F00C02082A0BD15A689B
:101E7000510208D59F4B1B689A03DCD56368002B81
:101E8000D9D1012014E06268B2F5803F13D11A68FD
:101E900042F480321A60FFF7EBFD964E0546336838
:101EA0009B03C8D4FFF7E4FD401B6428F7D9032047
:101EB00002B0BDE8F0818F4DB2F5A02F2B6807D19D
:101EC00043F480232B602B6843F480332B60E2E7DC
:101ED00023F480332B602B6823F480232B60002AAB
:101EE000D9D1FFF7C5FD06462B689F03A3D5FFF7A1
:101EF000BFFD801B6428F7D9D9E77E4B9A6812F0A2
:101F00000C0F07D09A6802F00C02082A11D15B6806
:101F10005E020ED4774B1A68950702D5E268012A53
:101F2000AFD11A68216922F0F80242EAC1021A60B0
:101F300084E7E268704BB2B101221A60FFF798FDA6
:101F40006C4D06462B68980707D52B68226923F04D
:101F5000F80343EAC2032B6070E7FFF789FD801B9B
:101F60000228EFD9A3E71A60FFF782FD614E05460C
:101F7000336899077FF562AFFFF77AFD401B0228AF
:101F8000F6D994E762695D4B7AB101221A60FFF7D6
:101F90006FFD584E0546736F9F073FF553AFFFF730
:101FA00067FD401B0228F6D981E71A60FFF760FD44
:101FB000504E0546736F98077FF544AFFFF758FD05
:101FC000401B0228F6D972E74A4B1A6C12F0805275
:101FD00028D101921A6C42F080521A641B6C03F0F3
:101FE00080530193019B0127454D2B68D9051BD5D3
:101FF000A368404D012B27D12B6F43F001032B67C2
:10200000FFF736FD3B4E054641F28838336F9B079C
:1020100039D5002F3FF41AAF364A136C23F08053A2
:10202000136413E70027DFE72B6843F480732B600A
:10203000FFF71EFD06462B68DA05D9D4FFF718FD19
:10204000801B0228F7D932E7052B04D12B6F43F010
:1020500004032B67D0E72A6F22F001022A672A6F58
:1020600022F004022A67002BCAD1FFF701FD41F2DA
:10207000883806462B6F9807CBD5FFF7F9FC801BF5
:102080004045F7D913E7FFF7F3FC401B4045BDD9A6
:102090000DE7184DAB6803F00C03082B47D0194E21
:1020A00000230228336035D1FFF7E2FC07462B6896
:1020B000990129D4D4E907321343626A43EA8213AF
:1020C000E26A43EA0263A26A5208013A43EA02431F
:1020D0006B6001233360FFF7CBFC064D04462B6891
:1020E0009A013FF5B7AEFFF7C3FC001B0228F6D9F3
:1020F000DDE600BF0038024000004742800E474244
:102100000070004060004742FFF7B2FCC01B02288D
:10211000CDD9CCE6FFF7ACFC04462B689B017FF5DC
:1021200099AEFFF7A5FC001B0228F6D9BFE60128EF
:102130003FF4BEAE6B68E26903F4800191427FF424
:10214000A0AE216A03F03F028A427FF49AAE616A30
:1021500047F6C0721A40B2EB811F7FF492AEA26ABA
:10216000520803F44031013AB1EB024F7FF489AEDB
:10217000E26A03F07063B3EB026F3FF46BAE80E68C
:10218000134908B58B6803F00C03042B1CD0082BF3
:102190001CD14A684B68496813F4800314BF0D488A
:1021A0000D48C1F3881118BF002302F03F02A1FBC4
:1021B0000001FEF763FB064B5B68C3F30143013389
:1021C0005B00B0FBF3F008BD0248FCE70248FAE709
:1021D0000038024040787D010024F4002DE9F041F0
:1021E0000D46044610B90120BDE8F081444B1A6841
:1021F00002F007028A4228D3226897072DD4D0071D
:1022000041D43F4B1A6802F00702AA4266D82268FE
:1022100051076CD4130707D53A4A2169936823F410
:10222000604343EAC1039360FFF7AAFF354B364A88
:102230009B68C3F30313D35CD840344B1860344B12
:102240001868FFF7CBFB0020CEE7CAB21A701B68F4
:1022500003F007038B42C6D1CEE72A4B12F0040FDE
:102260001EBF996841F4E0519960160742BF996812
:1022700041F4604199602349A0688B6823F0F00322
:1022800003438B60BBE762681E4B012A1CD11B68AD
:1022900013F4003FA7D01B4EB36823F0030313438E
:1022A000B360FFF7E5FB41F288380746B368626820
:1022B00003F00C03B3EB820FA3D0FFF7D9FBC01BD5
:1022C0004045F3D903208FE7911E01291B6802D8EE
:1022D00013F0007FDEE713F0020FDBE7EAB21A70BB
:1022E0001B6803F00703AB427FF47DAF8FE705491E
:1022F000E0688B6823F4E05303438B608AE700BFF8
:10230000003C024000380240B0610008000000209C
:1023100008000020044B054A9B68C3F38223D35C6A
:10232000034A1068D840704700380240C061000876
:1023300000000020044B054A9B68C3F34233D35C82
:10234000034A1068D840704700380240C061000856
:1023500000000020036A23F001030362036A70B5E2
:10236000446882690D6822F073022A438D6823F065
:1023700002032B430E4DA84202D00E4EB04210D1A4
:10238000CE6823F008033343A84223F0040302D0AD
:10239000084DA84205D1D1E9055624F440743543CF
:1023A0002C43446082614A684263036270BD00BF8F
:1023B0000000014000040140036A23F480730362BB
:1023C000036A70B54468C2690D6822F073022A433B
:1023D0008D6823F4007343EA0523114DA84203D00E
:1023E00005F58065A84214D1CD6823F4006343EA63
:1023F00005230B4DA84223F4806303D005F58065C7
:10240000A84206D1D1E9055624F44054354344EAA4
:1024100005144460C2614A68C263036270BD00BFB4
:1024200000000140036A23F480530362036A30B55D
:102430004468C2690D6822F4E64242EA05228D68CA
:1024400023F4005343EA0533084DA84203D005F5B1
:102450008065A84204D14D6924F4804444EA85147F
:102460004460C2614A680264036230BD00000140FA
:10247000704730B590F83E2090F83F3090F84250C9
:1024800090F84340D2B2DBB2EDB2E4B2C9B9012A4E
:1024900046D1012D46D1022380F83E3080F84230EB
:1024A00003681A6A22F001021A621A6A42F00102F3
:1024B0001A620268136843F0010313600023184690
:1024C00030BD042911D1012B2AD1012CF7D10223CF
:1024D00080F83F3080F8433003681A6A22F0100217
:1024E0001A621A6A42F01002E2E7012A18D1012B9F
:1024F00018D1012DE3D1012CE1D1022380F83E3027
:1025000080F83F3080F8423080F8433003681A6A20
:1025100022F001021A621A6A42F001021A62DCE732
:102520000123CCE71346CAE7304A0368904212D031
:10253000B0F1804F0FD0A2F57C4290420BD002F553
:102540008062904207D002F58062904203D002F58B
:102550007842904219D14A6823F070031343234A0A
:10256000904229D0B0F1804F26D0A2F57C42904213
:1025700022D002F5806290421ED002F58062904225
:102580001AD002F57842904216D0194A904213D0E0
:1025900002F5806290420FD002F5806290420BD02B
:1025A000A2F59832904207D002F58062904203D0A3
:1025B00002F58062904203D1CA6823F4407313434A
:1025C0004A6923F08003134303608B68C3620B687E
:1025D0008362064B984203D003F58063984201D191
:1025E0000B69036301234361704700BF0000014092
:1025F0000040014010B5044630B390F83D3003F080
:10260000FF021BB980F83C20FFF792F802232068F4
:1026100084F83D30211DFFF787FF012384F8463001
:10262000002084F83E3084F83F3084F8403084F84D
:10263000413084F8423084F8433084F8443084F8E0
:10264000453084F83D3010BD0120FCE710B504464C
:1026500030B390F83D3003F0FF021BB980F83C2006
:10266000FFF706FF0223206884F83D30211DFFF7A5
:102670005BFF012384F84630002084F83E3084F864
:102680003F3084F8403084F8413084F8423084F898
:10269000433084F8443084F8453084F83D3010BD30
:1026A0000120FCE7F8B50D46044600284DD090F80F
:1026B0003D3003F0FF021BB980F83C20FFF798F88B
:1026C0002146022384F83D3051F8040B836823F43B
:1026D000804323F007038360FFF726FF20682B6801
:1026E00086688269A968076A1E43AB6922F4407252
:1026F00022F0030241EA0323134323F47C422B69B3
:10270000E9691B0143EA0123E9680B43296A22F0C6
:10271000FC0243EA01331343696927F0AA026F6898
:10272000866047EA0117836117430123076284F833
:102730004630002084F83E3084F83F3084F8423040
:1027400084F8433084F83D30F8BD0120FCE70000F8
:10275000036A23F010030362036A70B54468826958
:102760000D6822F4E64242EA05228D6823F0200338
:1027700043EA0513104DA84203D005F58065A84231
:1027800014D1CD6823F0800343EA05130A4DA84213
:1027900023F0400303D005F58065A84206D1D1E9B6
:1027A000055624F44064354344EA8504446082615C
:1027B0004A688263036270BD0000014070B590F802
:1027C0003C30012B0546144654D00122082C80F8D9
:1027D0003C203ED007D8CCB1042C29D0002385F86A
:1027E0003C30104670BD0C2CF8D10068FFF71AFE83
:1027F0002B680969DA6942F40062DA61DA6922F465
:102800008062DA61DA6942EA012231E00068FFF7AA
:10281000A1FD2B6809699A6942F008029A619A69D8
:1028200022F004029A619A690A439A610022D5E76C
:102830000068FFF78DFF2B6809699A6942F400620E
:102840009A619A6922F480629A619A6942EA012245
:10285000EBE70068FFF7B0FD2B680969DA6942F021
:102860000802DA61DA6922F00402DA61DA690A43FD
:10287000DA61DBE70222B4E710B58468114324F47F
:102880007F4441EA03232343836010BD70B590F871
:102890003C30012B04464FF0020300F091800122EE
:1028A00080F83D3080F83C200068836823F47F4343
:1028B00023F0770383600B68602B52D033D8402B12
:1028C00067D016D8202B0DD00AD833F0100109D0CC
:1028D000012384F83D30002384F83C30104670BD5D
:1028E000302BF5D1826822F07002134343F00703C6
:1028F00017E0502BECD14A68CE68016A056A25F0D2
:1029000001050562836921F00A0123F0F00343EA1F
:1029100006130A4383610262836823F0700343F065
:102920005703836011E0B3F5805F0ED0B3F5005F0D
:102930000DD0702BCCD1CB68D1E90121FFF79CFFE2
:102940002268936843F0770393600022C0E7CB6866
:10295000D1E90121FFF790FF2268936843F4804397
:10296000F2E74D68CE68016A21F0100101628269C8
:10297000036A22F4704223F0A00343EA051342EAFB
:10298000063282610362836823F0700343F06703B9
:10299000C7E74A68CE68016A056A25F00105056245
:1029A000836921F00A0123F0F00343EA06130A4386
:1029B00083610262836823F0700343F04703B0E74A
:1029C0001A468BE7036A01F01F0110B501248C4001
:1029D00023EA04030362036A8A401A43026210BDB9
:1029E00010B5044629B990F83E30012B1DD00120C6
:1029F00032E0042907D190F83F30012BF7D10223B0
:102A000080F83F3014E0082907D190F84030012BBE
:102A1000EDD1022380F840300AE090F84130012BDC
:102A2000E5D1022380F8413002E0022380F83E30F5
:102A300001222068FFF7C6FF2368194A93420CD091
:102A400018498B4209D0B3F1804F0DD19A6802F03A
:102A50000702062A1FD1002010BD596C934241F491
:102A600000415964F2D0EEE70F4A9342EED002F5EE
:102A700080629342EAD002F580629342E6D002F58A
:102A800078429342E2D002F570529342DED0A2F532
:102A900094329342DAD01A6842F001021A60DAE7FF
:102AA000000001400004014000040040FFF798BF0F
:102AB00030B590F83C30012B4FF0020332D080F853
:102AC0003D3003680D685C689A6824F070042C43FC
:102AD0005C60154CA3421AD0B3F1804F17D0A4F517
:102AE0007C44A34213D004F58064A3420FD004F5C4
:102AF0008064A3420BD004F57844A34207D004F5C8
:102B00007054A34203D0A4F59434A34204D149687D
:102B100022F080020A439A60012380F83D300023AE
:102B200080F83C30184630BD0000014090F83C3041
:102B3000012B1FD0CB688A6823F4407313434A6883
:102B400023F4806313430A6823F4006313430A6980
:102B500023F4805313434A6923F400531343CA698F
:102B600023F48043134302685364002380F83C300D
:102B70001846704702207047026802F10C0353E8C0
:102B8000003F23F490730C3242E8003102680029C0
:102B9000F2D102F1140353E8003F23F0010302F1E4
:102BA000140C4CE800310029F3D1036B012B0BD13D
:102BB00002F10C0353E8003F23F0100302F10C0C68
:102BC0004CE800310029F3D1202380F83E30002367
:102BD000036370470268C16838B5136923F4405332
:102BE0000B431361054683680069D1680343686934
:102BF0000343E86921F4164121F00C0103430B4320
:102C0000D3605369A96923F440730B4353611F4B8D
:102C10009A4203D003F580639A4224D1FFF78AFBDE
:102C2000EA691923B2F5004FA0FB0301D5E900437F
:102C30001CD11A4692184FF000035B41FDF71EFEAF
:102C40006421B0FBF1F501FB1503DB003233B3FB6C
:102C5000F1F303F007025B0002EB051203F4F873D3
:102C60001344A36038BDFFF755FBD9E79A009B0FCB
:102C7000FDF704FE6422B0FBF2F102FB11031B011D
:102C80003233B3FBF2F303EB0113EAE70010014028
:102C9000F8B504460E4617461D462268136836EA04
:102CA000030301D1002028E06B1CF7D025B1FEF70B
:102CB000DFFEC01B8542F0D2226802F10C0353E80C
:102CC000003F23F4D0730C3242E800302168002822
:102CD000F2D101F1140353E8003F23F0010301F1A5
:102CE000140040E80032002AF3D1202384F83D305C
:102CF00084F83C2084F83E300320F8BD10B504462B
:102D000040B390F83D3003F0FF021BB980F83C203F
:102D1000FEF7B8FD2268242384F83D30D36823F4FD
:102D20000053D3602046FFF755FF23681A6922F449
:102D300090421A615A6922F02A025A61DA6842F412
:102D40000052DA6000202023206484F83D3084F8AB
:102D50003E3010BD0120FCE7F7B5174690F83D2046
:102D60000093202A04460E4649D1002945D0002F61
:102D700043D090F83C20012A41D0012280F83C2029
:102D800000252122056480F83D20FEF771FEA16830
:102D9000009BA784B1F5805F0246E78403D12169D7
:102DA00009B935460E46002184F83C10E18C89B201
:102DB00041B940212046FFF76BFF60B9202384F81A
:102DC0003D3009E080212046CDE90023FFF760FF78
:102DD000DDE9002310B1032003B0F0BD20684EB937
:102DE00035F8021BC1F308014160E18C013989B259
:102DF000E184DBE716F8011BF6E70120ECE702208F
:102E0000EAE770477047704708B5806B0023C385B9
:102E1000C384FFF7F8FF08BD704713B590F83E3044
:102E2000222B53D18168836A0268B1F5805F3DD15E
:102E3000016900293DD15268C2F3080223F8022B30
:102E4000C48D8362013CA4B2C485002C2CD10368DC
:102E5000DA6822F02002DA60DA6822F48072DA603E
:102E60005A6922F001025A61202380F83E30036B38
:102E7000012B036827D1046303F10C0252E8002FF1
:102E800022F0100203F10C0444E800210029F3D1E0
:102E90001A68D20605D501911A6801925B68019300
:102EA000019B818DFFF7B8FF002010E039B901695F
:102EB00029B95268D2B21A70836A0133C0E75268E6
:102EC00002F07F02F7E7FFF79DFFEDE7022002B077
:102ED00010BD0000036837B51A68D9685D6912F043
:102EE0000F0F044608D1950668D58D0666D503B048
:102EF000BDE83040FFF791BF05F0010001F4907587
:102F000005435BD0D50705D5CB0542BF236C43F005
:102F100001032364550704D518B1236C43F0020361
:102F20002364930704D518B1236C43F0040323648E
:102F3000150707D501F0200303431EBF236C43F0A0
:102F400008032364236C002B32D0900604D58A0634
:102F500002D52046FFF761FF23685B69256C03F00B
:102F6000400305F008051D43204623D0FFF704FE6B
:102F7000226853695B0618D502F1140353E8003F39
:102F800023F0400302F1140040E800310029F3D19E
:102F9000A06B50B1724B0365FEF730FE40B1A06BE1
:102FA000036D03B0BDE8304018472046FFF72BFF04
:102FB00003B030BDFFF727FF2564F9E7206B012838
:102FC00040F09180D50640F18E80C80640F18B809C
:102FD000002201921A6801925A680192019A5A6974
:102FE00055064CD5A16B0A68526892B2002ADFD010
:102FF000A08D9042DCD9E285CA69B2F5807F36D0D7
:1030000003F10C0252E8002F22F4807203F10C004D
:1030100040E800210029F3D103F1140252E8002F07
:1030200022F0010203F1140040E800210029F3D14D
:1030300003F1140252E8002F22F0400203F11400C1
:1030400040E800210029F3D1202284F83E202163AA
:1030500003F10C0252E8002F22F0100203F10C00E1
:1030600040E800210029F3D1A06BFEF783FDE38D3A
:10307000A18DC91A89B22046FFF7CEFE98E7E18DEF
:103080008AB2E18D89B2002992D0A18D891A89B2C4
:1030900000298DD003F10C0252E8002F22F4907227
:1030A00003F10C0545E800200028F3D103F11402D8
:1030B00052E8002F22F0010203F1140545E8002038
:1030C0000028F3D1202284F83E20206303F10C0273
:1030D00052E8002F22F0100203F10C0545E8002011
:1030E0000028F3D1C7E7100628D50D0626D594F899
:1030F0003D20212A7FF45CAFA168226AB1F5805F90
:1031000017D12169A9B932F8021BC1F3080159602E
:103110002262E28C013A92B2E284002A7FF448AF44
:10312000DA6822F08002DA60DA6842F04002DA609F
:103130003EE7511C216212785A60EAE750067FF59B
:1031400037AF4A067FF534AFDA6822F04002DA6022
:10315000202384F83D302046FFF753FE28E700BFC8
:10316000092E0008C285828522230022026480F88D
:103170003E30036880F83C208162D96841F4807158
:10318000D960596941F001015961D96841F02001C4
:10319000D9601046704770B490F83E60202E10D170
:1031A00061B15AB190F83C40012C0AD0012480F85A
:1031B0003C400024046370BCFFF7D4BF012070BC06
:1031C00070470220FBE70000EFF305832BB9064BA5
:1031D000186828B901221A6070476FF0050070471F
:1031E0004FF0FF30704700BFF002002010B5EFF342
:1031F00005845CB9084B1A68012A0AD1074AD477BA
:1032000002221A6000F090FD204610BD6FF005000C
:10321000FBE74FF0FF30F8E7F002002000ED00E0A0
:10322000F0B587B0144600220B460592EFF30582F5
:10323000D2B9C8B1002C2FD0A569002D08BF182520
:10324000691E3729AC462BD86168C90728D466693E
:103250006EB1B208D4E9027E216857B1BEF15B0FAE
:1032600002D9246904B1EEB9059807B0F0BD8022F7
:10327000F0E7BEF1000FF7D12469002CF4D10C4621
:1032800005A9CDE900C192B2214600F01FFD012839
:103290001CBF00230593E7E74FF0180C8022EFE7EF
:1032A0001046E2E7CDE90147009500F0D7FC059014
:1032B000DAE710B5EFF3058424B910B100F090FE01
:1032C000204610BD6FF00500FBE70000034B0360D4
:1032D000034B0B6080231360704700BF94020020F3
:1032E00094000020034B0360034B0B604FF480738A
:1032F00013607047F4060020F402002000F1080378
:103300004FF0FF32C0E902234360036100230360F2
:10331000704700230361704743684B609A688A6076
:103320009A685160996003680861013303607047CF
:1033300030B50C68631C0AD103695A684A60916011
:103340008B605960036808610133036030BD00F190
:103350000802134652681568A542FAD9EDE7D0E98C
:10336000011203698A6051605968814208BF5A603E
:10337000002202611A68013A1A601868704710B595
:10338000044601F0FFF9A46B01F01EFAB4FA84F0D0
:10339000400910BDF8B51546026C866B044652B95B
:1033A000076847BB806800F055FFA76005460136F7
:1033B000A6632846F8BD65B9406801F04FFC636814
:1033C000226C1344A26863609342F0D32368636065
:1033D000EDE7C06801F042FC226CE36851429B1AA1
:1033E0002268E36093423EBFA3685B18E360022D4E
:1033F00001D116B1013E0025D9E73546D7E703468E
:1034000010B41A6C08466AB1DC68996814448C429E
:1034100028BF1968DC6028BFD960D9685DF8044B03
:1034200001F01CBC5DF8044B704770B5044601F018
:10343000A9F994F8455004F124066DB2002D14DC6E
:10344000FF2384F8453001F0BFF901F09BF994F8AF
:10345000445004F110066DB2002D12DCFF2384F8F5
:103460004430BDE8704001F0AFB9636A002BE7D08B
:10347000304600F04DFE08B100F0D6FE013D6DB2C1
:10348000DCE72369002BE9D0304600F041FE08B1AB
:1034900000F0CAFE013D6DB2DEE7000038B50D4612
:1034A000044640B94FF0500383F31188BFF36F8F88
:1034B000BFF34F8FFEE701F065F9D4E90F312268C1
:1034C00062604B43D0185B1A1344A060E360002095
:1034D000FF23A06384F8443084F8453095B923690C
:1034E00063B104F1100000F013FE38B10A4B4FF045
:1034F00080521A60BFF34F8FBFF36F8F01F064F9F2
:10350000012038BD04F11000FFF7F8FE04F124009B
:10351000FFF7F4FEF2E700BF04ED00E013B51C4630
:1035200040B94FF0500383F31188BFF36F8FBFF39F
:103530004F8FFEE743B94FF0500383F31188BFF379
:103540006F8FBFF34F8FFEE74AB191B94FF0500331
:1035500083F31188BFF36F8FBFF34F8FFEE741B145
:103560004FF0500383F31188BFF36F8FBFF34F8F7A
:10357000FEE750230193019B502B08D04FF05003DE
:1035800083F31188BFF36F8FBFF34F8FFEE70029DE
:1035900008BF2246019B22600123C4E90F0184F881
:1035A000463019462046FFF779FF9DF8103084F821
:1035B0004C30204602B010BD2DE9FF4788460192ED
:1035C0001F46044640B94FF0500383F31188BFF300
:1035D0006F8FBFF34F8FFEE751B9036C43B14FF0CC
:1035E000500383F31188BFF36F8FBFF34F8FFEE754
:1035F000022F0BD1E36B012B08D04FF0500383F364
:103600001188BFF36F8FBFF34F8FFEE700F012FEFC
:10361000064650B9019B4BB14FF0500383F311881C
:10362000BFF36F8FBFF34F8FFEE70026DFF8E8A0F0
:103630004FF0000937E0019D1DB901F0C5F80020E9
:1036400050E016B902A800F0A7FD01F0BDF800F0A7
:10365000AFFB01F097F894F84430FF2B08BF84F8D3
:10366000449094F84530FF2B08BF84F8459001F052
:10367000ABF801A902A800F09BFD002846D101F09B
:1036800081F8A26BE36B9A422FD101F09DF801996A
:1036900004F1100000F004FD2046FFF7C6FE00F024
:1036A0002BFC50B3012601F06DF8A26BE36B9A423C
:1036B00001D3022FBFD13A4641462046FFF76AFEAA
:1036C000636A1BB104F1240000F022FD38B1124BF3
:1036D0004FF080521A60BFF34F8FBFF36F8F01F02E
:1036E00073F8012004B0BDE8F08701F06DF82046C2
:1036F000FFF79BFE00F000FCD4E74FF08053CAF8C0
:103700000030BFF34F8FBFF36F8FCBE72046FFF73B
:103710008CFE00F0F1FB92E704ED00E02DE9F843A8
:10372000894690461F46044640B94FF0500383F344
:103730001188BFF36F8FBFF34F8FFEE751B9036C52
:1037400043B14FF0500383F31188BFF36F8FBFF382
:103750004F8FFEE7022F0BD1E36B012B08D04FF008
:10376000500383F31188BFF36F8FBFF34F8FFEE7D2
:1037700001F024F9EFF311864FF0500383F3118821
:10378000BFF36F8FBFF34F8FA26BE36B9A4201D3EE
:10379000022F23D194F84550A36B6DB23A464946A7
:1037A0002046FFF7F7FD6B1C13D1636A0BB90120AC
:1037B0000BE004F1240000F0ABFC0028F7D0B8F1D6
:1037C000000FF4D00120C8F8000086F31188BDE88E
:1037D000F88301356DB284F84550E8E70020F4E73E
:1037E0002DE9F04385B00F460192044640B94FF0F1
:1037F000500383F31188BFF36F8FBFF34F8FFEE742
:1038000051B9036C43B14FF0500383F31188BFF3F8
:103810006F8FBFF34F8FFEE700F00CFD064650B9E7
:10382000019B4BB14FF0500383F31188BFF36F8FAF
:10383000BFF34F8FFEE70026DFF8E0904FF000085F
:103840003BE0019D1DB900F0BFFF002052E016B91A
:1038500002A800F0A1FC00F0B7FF00F0A9FA00F008
:1038600091FF94F84430FF2B08BF84F8448094F80B
:103870004530FF2B08BF84F8458000F0A5FF01A963
:1038800002A800F095FC00283DD12046FFF777FD07
:1038900098B3019904F1240000F002FC2046FFF7E0
:1038A000C4FD00F029FB38B94FF08053C9F800304F
:1038B000BFF34F8FBFF36F8F012600F063FFA56B3F
:1038C000002DBED039462046013DFFF798FDA56387
:1038D000236963B104F1100000F01AFC38B10F4BFA
:1038E0004FF080521A60BFF34F8FBFF36F8F00F01D
:1038F0006BFF012005B0BDE8F0832046FFF795FD82
:1039000000F0FAFAD8E72046FFF78FFD00F0F4FA4E
:103910002046FFF734FD0028CED096E704ED00E006
:1039200030B5074A002352F8335002EBC3041DB9E7
:1039300042F83310606030BD0133082BF3D1FAE751
:10394000E44E002070B504460D46164600F01AFFFE
:1039500094F84430FF2B04BF002384F8443094F8DB
:103960004530FF2B04BF002384F8453000F02CFFC6
:10397000A36B2BB93246294604F1240000F0AAFBC0
:103980002046BDE87040FFF750BD00002DE9F04132
:10399000044600F0F7FE2F4B2F4D1A682F4F0132CF
:1039A0001A602E68002E49D12C601B68012B1FD194
:1039B000B84640460136FFF7A1FC382E08F114083E
:1039C000F7D1DFF8C480264E4046FFF797FC30461B
:1039D000FFF794FC2348FFF791FC2348FFF78EFC88
:1039E0002248FFF78BFC224BC3F80080214B1E605E
:1039F000214A136801331360204A63641168E36A43
:103A000014208B4200FB037004F1040188BF136093
:103A1000FFF782FC00F0D8FE194B1B6863B12B68DE
:103A2000DA6AE36A9A4207D2164B4FF080521A6064
:103A3000BFF34F8FBFF36F8FBDE8F081104B1B6852
:103A4000002BD5D12B68DA6AE36A9A4298BF2C60C2
:103A5000CEE700BFBC0B0020500700205C07002011
:103A6000E40B0020040C0020300C00201C0C002073
:103A70005407002058070020C80B0020CC0B002062
:103A8000180C002004ED00E0D00B0020064A13685B
:103A90001968064B19B94FF0FF321A607047126867
:103AA000D268D2685268F8E754070020F80B00206B
:103AB0002DE9F047DDE909844FEA82094A460646C6
:103AC0000D46206BA5211F4601F0D6F8226BA9F107
:103AD0000409914429F00709ADB36B1E04F13402C7
:103AE0000F3513F8011F02F8011B197809B1AB4219
:103AF000F7D1002384F84330089D372D28BF3725A0
:103B00004FF0000AE562E564201DC4F850A0FFF7FD
:103B100000FCC5F1380504F11800FFF7FAFBC4F802
:103B200054A02461A561646284F858A03A463146E5
:103B3000484600F0FBFD2060B8F1000F01D0C8F846
:103B40000040BDE8F08784F83450D5E710B590F810
:103B5000593004463BB9006B01F014F82046BDE82B
:103B6000104001F00FB8012BF9D0022B08D04FF014
:103B7000500383F31188BFF36F8FBFF34F8FFEE7BE
:103B800010BD000080B5DFF85C80124F124C134D61
:103B9000236863B9124B1B68012BF8D94FF080538F
:103BA000C8F80030BFF34F8FBFF36F8FEEE700F020
:103BB000E9FDFB68DE68301DFFF7D1FB2B68013B98
:103BC0002B602368013B236000F0FEFD3046FFF7C9
:103BD000BDFFDDE7300C0020C00B0020BC0B002037
:103BE0005C07002004ED00E0F8B5164B164E1D688A
:103BF0000446306804300F46FFF7B1FB631C3346C0
:103C000007D137B131681148BDE8F8400431FFF7FA
:103C100083BB1A682C19546007D30D4A10681968C1
:103C2000BDE8F8400431FFF783BB0A4A1068196801
:103C30000431FFF77DFB084B1A68A24288BF1C6065
:103C4000F8BD00BF440C0020500700201C0C0020D1
:103C50005807002054070020F80B002070B586B0EC
:103C6000DDE90B5445B94FF0500383F31188BFF3DE
:103C70006F8FBFF34F8FFEE744B94FF0500383F3CC
:103C80001188BFF36F8FBFF34F8FFEE75C26059659
:103C9000059E5C2E08D04FF0500383F31188BFF3CC
:103CA0006F8FBFF34F8FFEE72563022584F85950CD
:103CB00004AD01950A9D02940095059EFFF7F8FE5C
:103CC0002046FFF763FE049806B070BD2DE9F0436F
:103CD000074685B0900088461646994600F0C0FE1B
:103CE0000546E8B15C2000F0BBFE0446A8B1002305
:103CF00080F859300D9B056301930C9B0290009353
:103D000032464B4641463846FFF7D2FE2046FFF783
:103D10003DFE012005B0BDE8F083284600F032FFEB
:103D20004FF0FF30F6E7000010B588B0002407AA76
:103D300006A905A8CDE90544FFF7C8FA059B02933B
:103D4000069B079A15491648CDE900432346FFF71D
:103D500085FFA8B100F014FB012813D14FF05003E8
:103D600083F31188BFF36F8FBFF34F8F0D4B4FF06D
:103D7000FF321A600C4B18600C4B1C6000F09AFD6F
:103D800008B010BD0130FBD14FF0500383F3118810
:103D9000BFF36F8FBFF34F8FFEE700BFC86100080E
:103DA000853B0008F80B0020180C0020440C002074
:103DB000024A136801331360704700BFC40B002030
:103DC000014B1868704700BF440C00203F4B1B6834
:103DD0002DE9F74F002B73D13D4B1D6801351D6058
:103DE000BDB93C4B1A68126842B14FF0500383F3DF
:103DF0001188BFF36F8FBFF34F8FFEE7364A196804
:103E0000106818601160354A136801331360FFF7BA
:103E10003DFE334E334F3368DFF8D4809D424FF080
:103E2000000411D2D8F80030DA6A14235343FB5847
:103E3000022B2D4B1B6828BF0124002B18BF012427
:103E4000204603B0BDE8F08FDFF88890DFF8A4A02B
:103E5000D9F800301B681BB94FF0FF333360E1E73E
:103E6000D9F80030DB68D3F80CB0DBF804209542B9
:103E700001D23260D6E70BF1040108460191FFF749
:103E80006EFADBF82820019922B10BF11800FFF738
:103E900066FA0199DBF82C00DAF80020142390422E
:103EA00088BFCAF8000003FB0070FFF735FAD8F8A6
:103EB0000010DBF82C20CB6A9A4228BF0124C7E708
:103EC0000A4A1368013313600024B9E7C40B0020C9
:103ED000440C00205407002058070020FC0B002051
:103EE000F80B00205C070020480C0020000C00208C
:103EF00050070020CC0B0020F7B5304C236843B9A5
:103F00004FF0500383F31188BFF36F8FBFF34F8FD0
:103F1000FEE700F037FC2368013B236024682CB1E6
:103F2000002400F051FC204603B0F0BD244B1B6878
:103F3000002BF5D0234D244E244F1EE0EB68DC68A7
:103F400004F11800FFF70BFA211D08460191FFF755
:103F500006FAE36A326801991420934200FB037069
:103F600088BF3360FFF7D8F9194BE26A1B68DB6A38
:103F70009A4202D3174B01221A602B68002BDDD125
:103F80000CB1FFF783FD144D2C6844B1114E01278D
:103F9000FFF71CFF00B13760013CF9D12C600D4BDD
:103FA0001B68002BBCD00D4B4FF080521A60BFF342
:103FB0004F8FBFF36F8F0124B3E700BFC40B002006
:103FC000BC0B0020040C0020CC0B00205C07002060
:103FD00050070020480C0020000C002004ED00E0F9
:103FE00008B540B90E4B4FF080521A60BFF34F8FA7
:103FF000BFF36F8F08BD0B4B196841B14FF05003F1
:1040000083F31188BFF36F8FBFF34F8FFEE7FFF786
:10401000CFFEFFF7E9FDFFF76FFF0028E2D0E9E7E9
:1040200004ED00E0C40B0020184B1A68184BF0B5E3
:1040300012B101221A60F0BD164D1A60164A2B68A3
:104040001427164607FB03F1501854588CB14468E6
:104050000831646844600A44944204BF6268426064
:10406000142202FB03625268D1680C4A11602B6073
:10407000E1E743B94FF0500383F31188BFF36F8F2B
:10408000BFF34F8FFEE7013BDCE700BFC40B00200E
:10409000480C0020CC0B00205C07002050070020BB
:1040A00010B50C4640B94FF0500383F31188BFF3AD
:1040B0006F8FBFF34F8FFEE7054B19681831FFF77D
:1040C00037F920460121BDE81040FFF78DBD00BF44
:1040D0005007002038B50D46144640B94FF0500344
:1040E00083F31188BFF36F8FBFF34F8FFEE7074B4A
:1040F00019681831FFF710F9002C21460CBF28462B
:104100004FF0FF30BDE83840FFF76EBD500700208C
:10411000C36813B5DC6844B94FF0500383F31188CA
:10412000BFF36F8FBFF34F8FFEE704F1180108460E
:104130000191FFF714F9124B01991B68EBB9211D8E
:1041400008460191FFF70BF90E4AE36A10680199DE
:10415000834288BF13600C4A142000FB0320FFF742
:10416000DBF80A4BE26A1B68DB6A9A4285BF084BA0
:1041700001200020186002B010BD0648EFE700BF24
:10418000C40B0020CC0B00205C070020500700204F
:10419000480C0020040C0020034B1B680360034BF9
:1041A0001B684360704700BFFC0B0020440C0020DC
:1041B00070B50C46054640B94FF0500383F31188A3
:1041C000BFF36F8FBFF34F8FFEE741B94FF050033E
:1041D00083F31188BFF36F8FBFF34F8FFEE700F0BB
:1041E000D1FA0F4B196823685A1C10D00D482E685D
:1041F00000686A68864201D08A420FD9881A8342D1
:104200000AD95B1A134423602846FFF7C5FF002430
:1042100000F0DAFA204670BD002323600124F7E79E
:10422000440C0020FC0B0020014B01221A60704757
:10423000480C0020054B1B6833B1054B1B68002B55
:104240000CBF02200020704701207047180C00208E
:10425000C40B002013B510B9002002B010BD1C4BD8
:104260001C68844208D04FF0500383F31188BFF3D9
:104270006F8FBFF34F8FFEE7236D43B94FF05003AD
:1042800083F31188BFF36F8FBFF34F8FFEE7E16AAF
:10429000E26C013B91422365DED0002BDCD1211D75
:1042A00008460191FFF75BF8E36C0199E362C3F103
:1042B0003802A261074A1068834288BF1360064A29
:1042C000142000FB0320FFF727F80120C5E700BFFB
:1042D00050070020CC0B00205C070020F7B5114CE4
:1042E00000F050FA2568BDB90F4F104E3846FFF761
:1042F00005F83046FFF702F80D4B0E4A1F600E4BD3
:1043000010211E600A200D4B0095FFF707F9206071
:1043100010B10B49FFF704FB03B0BDE8F04000F01B
:1043200053BA00BF700D0020F40C0020080D0020CF
:104330004C0C0020540C0020500C0020200D0020BC
:10434000CD610008914208B5416000610AD8D21AD7
:1043500083699A420DD2084B011D1868FEF7E8FFE9
:10436000002008BD9A4201D2994202D2034B011D9E
:10437000F3E70120F5E700BF500C00204C0C0020B3
:1043800010B588B0FFF7AAFF124B1B68B3B1002429
:1043900007AA06A905A8CDE90544FEF7A3FF059BDA
:1043A0000293069B019302230093079A0A490B4844
:1043B0002346FFF753FC0A4B186040B94FF05003F7
:1043C00083F31188BFF36F8FBFF34F8FFEE7012098
:1043D00008B010BD700D0020D2610008B94400087B
:1043E000740D00207FB5164604461A4640B94FF0BA
:1043F000500383F31188BFF36F8FBFF34F8FFEE736
:104400000D4D286880B10529CDE9001602940DDC18
:10441000FFF710FF0023022808BF089A286818BF7A
:104420001A466946FFF7C8F804B070BD0023694614
:10443000FFF774F9F8E700BF700D0020F0B51C4DD0
:1044400085B000272B681A682AB91A4A11682960B2
:10445000136005B0F0BDDB68DC681E68211D0846EE
:104460000391FEF77CFF236A2046984794F8283092
:10447000039913F0040FE5D0A36933449E4205D29B
:10448000286863602461FEF753FFDBE70023009791
:10449000324619462046FFF7A5FF0028D2D14FF03B
:1044A000500383F31188BFF36F8FBFF34F8FFEE785
:1044B0004C0C0020500C00202DE9F04F774FDFF816
:1044C000ECA187B0B9463B68D3F800B0BBF1000F50
:1044D00028D0DB68D3F800B00024714EFFF768FCE9
:1044E000FFF76EFC336898420546B0461CD3306037
:1044F0001CB36C4B1B681C68B4FA84F464096A4BE7
:1045000022461868ABEB0501FFF71CFAFFF7F4FC35
:1045100078B94FF08053CAF80030BFF34F8FBFF324
:104520006F8F06E00124D8E7FFF788FF3560FFF7BB
:10453000E3FC5D4E4FF0000B35E08345DFD8FFF71D
:10454000DBFCD9F80030DB68DE68301DFEF707FFC2
:1045500096F82830580718D5B1695B462A46594461
:104560003046FFF7EFFEA0B1009423465A4621469D
:104570003046FFF737FF60B94FF0500383F31188DF
:10458000BFF36F8FBFF34F8FFEE723F0010386F871
:104590002830336A30469847CBE7039B0599984704
:1045A000029B002B0ADA3068002202A9FFF718F9F3
:1045B000002888D0029B0498002BEEDB049C6369E2
:1045C000A3B9FFF7FDFBD8F800309842054601D2A9
:1045D000FFF734FF029BC8F80050092BE3D8DFE84F
:1045E00003F0090909343B540909343B201DFEF747
:1045F000B6FEE6E794F82830A16943F0010384F899
:104600002830039B2A4619442046FFF79BFE0028CA
:10461000C9D0236A2046984794F828305907C2D554
:10462000A2690399CDF800B000230A442046194638
:10463000FFF7D8FE0028B6D14FF0500383F311885E
:10464000BFF36F8FBFF34F8FFEE794F8283023F04E
:10465000010384F82830A6E794F828300399A16173
:1046600043F0010384F8283041B94FF0500383F33D
:104670001188BFF36F8FBFF34F8FFEE72B462A469B
:1046800029442046FFF75EFE8DE794F828309A070C
:10469000DDD4204600F076FA85E700BF4C0C002000
:1046A0001C0D0020500C0020700D002004ED00E0D7
:1046B00008480068006880F308884FF0000080F325
:1046C000148862B661B6BFF34F8FBFF36F8F00DF00
:1046D00000BF000008ED00E0DFF80C00016841F4C5
:1046E000700101607047000088ED00E082B0002397
:1046F00001930D4B1B68013308D04FF0500383F337
:104700001188BFF36F8FBFF34F8FFEE74FF0500359
:1047100083F31188BFF36F8FBFF34F8F019B002B83
:10472000FCD002B0704700BF0C0000204FF0807337
:1047300040F8043C074B40F80C3C21F001016FF0BD
:10474000020340F8081C40F8202C40F8243C443870
:10475000704700BFED4600080000000000000000A8
:10476000074B19680868B0E8F04F80F30988BFF379
:104770006F8F4FF0000080F311887047AFF3008017
:10478000500700204FF0500383F31188BFF36F8F61
:10479000BFF34F8F0A4A13680133012B13600DD109
:1047A000084B1B6813F0FF0F08D04FF0500383F342
:1047B0001188BFF36F8FBFF34F8FFEE7704700BFC5
:1047C0000C00002004ED00E0084A136843B94FF0E4
:1047D000500383F31188BFF36F8FBFF34F8FFEE752
:1047E000013B13600BB983F3118870470C00002064
:1047F000EFF30980BFF36F8F154B1A681EF0100F8F
:1048000008BF20ED108A20E9F04F10602DE9090063
:104810004FF0500080F31188BFF34F8FBFF36F8FBD
:10482000FFF702FC4FF0000080F3118809BC196803
:104830000868B0E8F04F1EF0100F08BFB0EC108A07
:1048400080F30988BFF36F8F704700BFAFF300801C
:104850005007002008B54FF0500383F31188BFF3D1
:104860006F8FBFF34F8FFFF7B1FA18B1034B4FF0C3
:1048700080521A60002383F3118808BD04ED00E024
:10488000084A0949002313600B60084B4FF47A7102
:104890001B68B3FBF1F30649013B0B600723136070
:1048A000704700BF10E000E018E000E000000020CA
:1048B00014E000E0384B394A13B51968914208D129
:1048C0004FF0500383F31188BFF36F8FBFF34F8F07
:1048D000FEE71A68324B9A4208D14FF0500383F337
:1048E0001188BFF36F8FBFF34F8FFEE72D4B1A7800
:1048F000D2B20192FF221A701B782B4ADBB28DF8DC
:1049000003309DF8033003F050031370274A072348
:10491000136000219DF80300000603F1FF340CD45E
:1049200011B1032B136011D04FF0500383F31188A2
:10493000BFF36F8FBFF34F8FFEE79DF803305B002F
:10494000DBB28DF8033001212346E3E74FF44073D7
:104950001360019B134ADBB21370154B1A6842F4C3
:1049600070021A601A6842F070421A60FFF788FFFE
:10497000104B00241C60FFF7AFFE0F4A136843F092
:1049800040431360FFF794FEFFF74EFBFFF7AEFEC8
:10499000204602B010BD00BF00ED00E071C20F4123
:1049A00070C20F4100E400E0780D00207C0D002073
:1049B00020ED00E00C00002034EF00E0EFF3058371
:1049C0000F2B0ED9104A9B5C104A12789A4208D9D4
:1049D0004FF0500383F31188BFF36F8FBFF34F8FF6
:1049E000FEE70B4B0B4A1B68126803F4E06393422B
:1049F00008D94FF0500383F31188BFF36F8FBFF3D3
:104A00004F8FFEE7704700BFF0E300E0780D002015
:104A10000CED00E07C0D002010B50F4B1A461B6812
:104A20008342FBD354681119884201BF4168104684
:104A300009195160446801198B4207D10749096877
:104A40008B421FBF59681B6809194160904203607F
:104A500018BF106010BD00BF98490020800D0020D5
:104A60002DE9F0410446FFF7A3F93E4B3E481A6892
:104A70009C46D2B93D4A3E4B55071CBF073222F037
:104A8000070200211A6059603A4B23F00703C3E97B
:104A90000011991AC2E90031CCF80030364B196088
:104AA000364B19604FF0004303600768274253D12B
:104AB000002C44D004F1080361071CBF23F0070356
:104AC0000833002B48D02D4A16689E42904643D3A7
:104AD000274A15686968994201D22868A8B9DCF8A4
:104AE0000000A84238D0C91A28681468106010293C
:104AF00012D9E81842070BD04FF0500383F3118806
:104B0000BFF36F8FBFF34F8FFEE72A460546E1E7FD
:104B100041606B60FFF780FF6B681749184A0868AF
:104B2000F61A1F4300232B601368C8F80060864202
:104B300003F1010338BF0E6008346F601360FFF7A4
:104B4000DBF963070AD04FF0500383F31188BFF3FA
:104B50006F8FBFF34F8FFEE70024F0E72046BDE8DC
:104B6000F08100BF800D002084490020840D0020CA
:104B7000984900207C4900208C4900208849002069
:104B80009049002010B5044690B31A4A50F8043CEE
:104B90001268134208D14FF0500383F31188BFF31A
:104BA0006F8FBFF34F8FFEE750F8081C41B14FF0F5
:104BB000500383F31188BFF36F8FBFF34F8FFEE76E
:104BC00023EA020340F8043CFFF7F2F80A4A54F8DB
:104BD000043C1168A4F108000B441360FFF71CFFAC
:104BE000064A1368BDE8104001331360FFF784B92B
:104BF00010BD00BF8449002088490020944900204E
:104C00000A22002100F0E4B8014B1868704700BF89
:104C10001000002070B50D4D0D4C641BA410002633
:104C2000A64209D10B4D0C4C00F0DCFC641BA41017
:104C30000026A64205D170BD55F8043B98470136C1
:104C4000EEE755F8043B98470136F2E71863000891
:104C500018630008186300081C6300080A449142A6
:104C600000F1FF3300D1704710B511F8014B03F884
:104C7000014F9142F9D110BD02440346934200D145
:104C8000704703F8011BF9E70EB400B59CB01DABEB
:104C9000029006906FF0004109480791049109497C
:104CA00053F8042B05910068019302A900F0F6F86F
:104CB000029B00221A701CB05DF804EB03B0704731
:104CC000100000200802FFFF012B2DE9F04701D062
:104CD000242B06D9FFF798FF162303600020BDE8B8
:104CE000F0873A4F8E4676461EF8014BE55D15F08B
:104CF0000805F8D12D2C34D19EF800404FF0010862
:104D000006F1020E002B5CD0102B0CD1302C0AD1F6
:104D10009EF8004004F0DF04582C4DD19EF801406D
:104D200010230EF1020E08F1004C0CF1FF3C00269E
:104D3000BCFBF3F9354603FB19CAA4F13007092F70
:104D400018D83C46A34224DD002E1FDBA9451DD305
:104D500001D1A2451ADB05FB034501261EF8014BD4
:104D6000EBE72B2C08BF9EF80040A84608BF06F1D1
:104D7000020EC7E7A4F14107192F01D8373CE1E73C
:104D8000A4F16107192F04D8573CDBE74FF0FF3639
:104D9000E4E7002E05DA22230360654642B928467F
:104DA0009DE7B8F1000F00D06D42002AF7D00EB198
:104DB0000EF1FF311160F2E73024002BB3D108234C
:104DC000B1E7302CA4D00A23ADE700BFDB610008B7
:104DD00013460A46014602480068FFF775BF00BF48
:104DE000100000202DE9F0478E689E4282460C4656
:104DF00090461F4638D88A8912F4906F32D02568C1
:104E00000969A5EB0109656905EB450505EBD57554
:104E100001334B446D109D4238BF1D46530531D5BB
:104E2000294600F039FB064650B90C23CAF8003079
:104E3000A38943F04003A3814FF0FF30BDE8F08722
:104E400021694A46FFF70AFFA38923F4906343F0E0
:104E50008003A381266165614E44A5EB09052660A8
:104E6000A5603E46BE4200D93E46324620684146D5
:104E700000F0A8FAA36822689B1B3244A36022605A
:104E80000020DBE72A4600F061FB06460028E1D15E
:104E90002169504600F0B0FAC7E700002DE9F04F55
:104EA00098468B891B069DB007460D4614460ED5C5
:104EB0000B6963B9402100F0EFFA2860286120B93E
:104EC0000C233B604FF0FF30D1E040236B610023A7
:104ED000099320238DF82930CDF80C803023DFF89A
:104EE000A8818DF82A304FF0010923469A4613F81D
:104EF000012B0AB1252AF9D1BAEB040B0BD05B4682
:104F0000224629463846FFF76DFF013000F0AA809F
:104F1000099A5A4409929AF80030002B00F0A280B6
:104F200000234FF0FF32CDE905230AF1010A049373
:104F300007938DF853301A935446052214F8011B39
:104F40005148FBF745F9049AD8B9D00644BF20234D
:104F50008DF85330110744BF2B238DF853309AF846
:104F600000302A2B15D0079A544600204FF00A0C27
:104F7000214611F8013B303B092B4ED9B0B10792C5
:104F800014E0A0EB080309FA03F313430493A246C9
:104F9000D2E7039B191D1B680391002BBBBF5B422B
:104FA00042F0020207930793B8BF049223782E2B96
:104FB0000CD163782A2B35D1039B1A1D1B680392F1
:104FC000002BB8BF4FF0FF3302340593DFF8C8A0C1
:104FD000217803225046FBF7FBF840B14023A0EBB9
:104FE0000A0003FA00F0049B03430134049314F80D
:104FF000011B26488DF828100622FBF7E9F8002847
:1050000038D0234B1BBB039B073323F00703083324
:105010000393099B3344099367E70CFB02320C4668
:105020000120A5E700230134059319464FF00A0C2F
:10503000204610F8012B303A092A03D9002BC5D09D
:105040000591C3E70CFB012104460123F0E703AB04
:1050500000932A460F4B04A93846AFF30080421C48
:105060000646D6D1AB895B063FF52CAF09981DB03B
:10507000BDE8F08F03AB00932A46064B04A93846DF
:1050800000F07AF8EBE700BFDB620008E562000899
:1050900000000000E54D0008E16200082DE9F0473E
:1050A000164699468A680B69DDF820809342B8BF9E
:1050B0001346336091F8432007460C460AB101338A
:1050C00033602368990642BF336802333360256832
:1050D00015F0060506D104F1190AE36832689B1A37
:1050E000AB4226DC94F84320131E226818BF01232C
:1050F00092062BD404F1430249463846C04701309A
:105100001ED02368E568326803F00603042B08BF4D
:10511000AD1AA36822690CBF25EAE5750025934204
:10512000C4BF9B1AED1800261A34B5421AD10020CC
:1051300008E00123524649463846C047013003D1B2
:105140004FF0FF30BDE8F0870135C6E7E1185A1C83
:10515000302081F84300224494F8451082F843102F
:105160000233C7E70123224649463846C04701308B
:10517000E6D00136D9E700002DE9FF470C469146FD
:10518000277E0C99782F80469A4604F1430207D86F
:10519000622F0AD8002F00F0D880582F00F0A3808B
:1051A00004F1420684F842703AE0A7F16303152B3C
:1051B000F6D801A050F823F011520008255200083B
:1051C000A1510008A1510008A1510008A1510008F7
:1051D00025520008A1510008A1510008A151000862
:1051E000A15100083153000855520008135300081C
:1051F000A1510008A151000853530008A151000813
:1052000055520008A1510008A15100081B53000885
:105210000B681A1D1B680A6004F1420684F84230CC
:105220000123A3E0256808682E0600F104030AD5CF
:1052300005680B60002D03DA2D236D4284F843309E
:105240005E480A2319E015F0400F05680B6018BF8F
:105250002DB2EFE70B682568181D0860280601D5F8
:105260001D6802E06906FBD51D8854486F2F0CBFEE
:1052700008230A23002184F843106668A660002EE4
:10528000A2BF216821F0040121600DB9002E4DD08C
:105290001646B5FBF3F103FB1157C75D06F8017D18
:1052A0002F46BB420D46F4D9082B0BD12368DF07EC
:1052B00008D5236961689942DEBF302306F8013CB6
:1052C00006F1FF36921B2261CDF800A04B4603AADF
:1052D00021464046FFF7E2FE01304CD14FF0FF304F
:1052E00004B0BDE8F087354884F8457023680E683F
:1052F0001F0656F8045B0E6014D5D90744BF43F06F
:10530000200323601DB9236823F0200323601023AA
:10531000B0E7236843F0200323607823284884F80B
:105320004530E3E75E0648BFADB2E6E71646BBE7A9
:105330000B68266860691D1D0D6035061B6801D568
:10534000186002E07106FBD5188000232361164621
:10535000BAE70B681A1D0A601E68626800213046B1
:10536000FAF736FF08B1801B606063682361002391
:1053700084F84330A8E72369324649464046D0477F
:105380000130ABD023689B0713D4E068039B98429D
:10539000B8BF1846A4E70123324649464046D047E5
:1053A00001309BD00135E36803995B1AAB42F2DC14
:1053B000EBE7002504F11906F5E700BFEC620008F1
:1053C000FD620008884210B501EB020402D9844254
:1053D000234607D8431EA14208D011F8012B03F839
:1053E000012FF8E7024401468A4200D110BD13F8AC
:1053F000014D02F8014DF7E737B5002948D051F8C3
:10540000043C0190002BA1F10404B8BFE41800F0A3
:10541000D3F8204A01981368154633B963601460C5
:1054200003B0BDE8304000F0CDB8A3420BD92168ED
:105430006218934204BF1A685B68636004BF521825
:1054400022602C60ECE71A465B680BB1A342FAD9E4
:1054500011685518A5420BD1246821445418A34261
:105460001160DDD11C685B68536021441160D7E78F
:1054700002D90C230360D3E7256861198B4204BF6E
:1054800019685B68636004BF491921605460C7E70D
:1054900003B030BDA0490020F8B5CD1C25F00305B0
:1054A00008350C2D38BF0C25002D064601DBA9421E
:1054B00003D90C2333600020F8BD00F07DF82149AA
:1054C0000A6814469CB9204F3B6823B921463046F0
:1054D00000F062F838602946304600F05DF8431C61
:1054E00023D10C233360304600F06CF8E3E72368E7
:1054F0005B1B17D40B2B03D923601C44256004E0ED
:105500006368A2420CBF0B605360304600F05AF84B
:1055100004F10B00231D20F00700C21ACCD01B1A87
:10552000A350C9E722466468CCE7C41C24F00304F6
:10553000A042E3D0211A304600F02EF80130DDD130
:10554000CFE700BFA0490020A4490020F8B50746D6
:1055500014460E4621B9BDE8F8401146FFF79CBF3E
:1055600022B9FFF749FF25462846F8BD00F030F87C
:10557000A0420FD221463846FFF78EFF054600288D
:10558000F2D031462246FFF769FB31463846FFF735
:1055900033FFE9E73546E7E738B5064D0023044613
:1055A00008462B60FCF7C6F9431C02D12B6803B1F7
:1055B000236038BD244F0020014800F011B800BF1F
:1055C0002C4F0020014800F00CB800BF2C4F0020E9
:1055D00051F8043C181F002BBCBF0B58C018704773
:1055E00070477047F8B500BFF8BC08BC9E467047CE
:0C55F000F8B500BFF8BC08BC9E46704730
:1055FC00746573743121000000000000000000008D
:10560C000000000070756C73653A253564000074F9
:10561C006F74616C3A2535640000746F74616C3181
:10562C003A2535640000746F74616C323A25356428
:10563C000000746F74616C333A2535640000746F2C
:10564C0074616C343A2535640000627566663A25DF
:10565C007300524541445900456E636F6465725442
:10566C0061736B004D6F746F725F52004D6F746F8E
:10567C00725F4C00446973706C61795461736B0098
:10568C0064656661756C745461736B0080560008B8
:10569C0000000000000000000000000000000000FE
:1056AC0000020000080000000000000000000000E4
:1056BC00645600080000000000000000000000001C
:1056CC0000000000000200000800000000000000C4
:1056DC0000000000785600080000000000000000E8
:1056EC0000000000000000000002000008000000A4
:1056FC0000000000000000007056000800000000D0
:10570C00000000000000000000000000000200008B
:10571C000800000000000000000000008C5600088B
:10572C00000000000000000000000000000000006D
:10573C000002000018000000000000000000000043
:10574C00000000000000000000000000000000004D
:10575C003F4000000000000000003000400030001E
:10576C004000000009000BC03D000BC03D000900CB
:10577C0018C024407FE0224031800000180024C073
:10578C001B000D803240018003801C4027401C8090
:10579C000740004010006000000000000000000006
:1057AC000000000000001F8020404020000040202E
:1057BC0020401F8000000000090006001F8006002A
:1057CC0009000000040004003F80040004000000F5
:1057DC000010006000000000000000000400040045
:1057EC000400040004000000000000400000000061
:1057FC0000000000002001C006003800400000003E
:10580C001F802040204020401F80000000001040DE
:10581C003FC000400000000018C02140224024403E
:10582C001840000010802040244024401B800000C1
:10583C0002000D0011003FC0014000003C802440DC
:10584C0024402440238000001F8024402440344006
:10585C00038000003000200027C03800200000002A
:10586C001B802440244024401B8000001C0022C0CC
:10587C00224022401F800000000000000840000071
:10588C0000000000000000000460000000000000A8
:10589C00000004000A0011002080404009000900AB
:1058AC0009000900090000000000404020801100A0
:1058BC000A000400180020002340240018000000F7
:1058CC001F802040274029401F400000004007C097
:1058DC0039000F0001C0004020403FC0244024404C
:1058EC001B8000001F8020402040204030800000A2
:1058FC0020403FC0204020401F80000020403FC07F
:10590C0024402E4030C0000020403FC024402E00D8
:10591C00300000000F001080204022403380020035
:10592C0020403FC0040004003FC0204020402040E5
:10593C003FC02040204000000060202020203FC0BD
:10594C002000200020403FC024400B0030C02040ED
:10595C0020403FC020400040004000C03FC03C0001
:10596C0003C03C003FC0000020403FC00C4023005F
:10597C003FC020001F802040204020401F8000009E
:10598C0020403FC024402400180000001F8021400C
:10599C00214020E01FA0000020403FC024402600F2
:1059AC0019C0004018C0244024402240318000001F
:1059BC00300020403FC020403000000020003F80DD
:1059CC00004000403F80200020003E0001C0070046
:1059DC0038002000380007C03C0007C03800000029
:1059EC00204039C0060039C020400000200038405B
:1059FC0007C0384020000000304021C0264038400D
:105A0C0020C00000000000007FE04020402000008B
:105A1C00000070000C0003800040000000004020DB
:105A2C0040207FE00000000000002000400020002B
:105A3C0000000000001000100010001000100010FA
:105A4C000000000040000000000000000000028088
:105A5C000540054003C0004020003FC00440044006
:105A6C000380000000000380044004400640000056
:105A7C0000000380044024403FC00040000003802D
:105A8C000540054003400000000004401FC02440B6
:105A9C0024402000000002E0055005500650042070
:105AAC0020403FC00440040003C0004000000440FC
:105ABC0027C000400000000000100010041027E078
:105ACC000000000020403FC00140070004C004401B
