:020000040800F2
:10000000000002205D310008C1300008C330000844
:10001000C5300008C7300008C930000800000000E3
:100020000000000000000000000000003171000826
:10003000CB30000800000000C1710008CD3000087E
:10004000AD310008AD310008AD310008AD31000818
:10005000AD310008AD310008AD310008AD31000808
:10006000AD310008AD310008AD310008AD310008F8
:10007000E5300008AD310008AD310008AD310008B1
:10008000AD310008AD310008AD310008AD310008D8
:10009000AD310008AD310008AD310008AD310008C8
:1000A000AD310008AD310008AD310008AD310008B8
:1000B000AD310008AD310008F1300008AD31000865
:1000C000AD310008AD310008AD310008AD31000898
:1000D000AD310008AD310008AD310008FD30000839
:1000E000AD310008AD310008AD310008AD31000878
:1000F000AD310008AD310008AD310008AD31000868
:10010000AD310008AD310008AD310008AD31000857
:10011000AD310008AD310008AD310008AD31000847
:10012000AD310008AD310008AD310008AD31000837
:10013000AD310008AD310008AD310008AD31000827
:10014000AD310008AD310008AD310008AD31000817
:10015000AD310008AD310008AD310008AD31000807
:10016000AD310008AD310008AD310008AD310008F7
:10017000AD310008AD310008AD31000800000000CD
:08018000AD310008AD310008AB
:1001900010B5054C237833B9044B13B10448AFF3C1
:1001A00000800123237010BDA80000200000000083
:1001B000A07E000808B5034B1BB103490348AFF309
:1001C000008008BD00000000AC000020A07E0008F8
:1001D000034613F8012B002AFBD1181A0138704787
:1001E00001F0FF01102A2BDB10F0070F08D010F8E8
:1001F000013B013A8B422DD010F0070F42B3F6D1EC
:10020000F0B441EA012141EA014122F007047FF004
:1002100000070023F0E80256083C85EA010586EA5B
:10022000010685FA47F5A3FA87F586FA47F6A5FA97
:1002300087F68EB9EED1F0BC01F0FF0102F00702A3
:1002400032B110F8013B013A83EA010313B1F8D14E
:100250000020704701387047002D06BF354603382F
:10026000073815F0010F07D1013015F4807F02BF68
:10027000013015F4C03F0130F0BC0138704700BFB9
:1002800081F0004102E000BF83F0004330B54FEA47
:1002900041044FEA430594EA050F08BF90EA020FB4
:1002A0001FBF54EA000C55EA020C7FEA645C7FEA47
:1002B000655C00F0E2804FEA5454D4EB5555B8BF6A
:1002C0006D420CDD2C4480EA020281EA030382EADB
:1002D000000083EA010180EA020281EA0303362D6D
:1002E00088BF30BD11F0004F4FEA01314FF4801C40
:1002F0004CEA113102D0404261EB410113F0004F52
:100300004FEA03334CEA133302D0524263EB430308
:1003100094EA050F00F0A780A4F10104D5F1200EA6
:100320000DDB02FA0EFC22FA05F2801841F1000101
:1003300003FA0EF2801843FA05F359410EE0A5F1D5
:1003400020050EF1200E012A03FA0EFC28BF4CF006
:10035000020C43FA05F3C01851EBE37101F00045BC
:1003600007D54FF0000EDCF1000C7EEB00006EEBC9
:100370000101B1F5801F1BD3B1F5001F0CD3490853
:100380005FEA30004FEA3C0C04F101044FEA4452AA
:1003900012F5800F80F09A80BCF1004F08BF5FEA31
:1003A000500C50F1000041EB045141EA050130BD11
:1003B0005FEA4C0C404141EB0101013C28BFB1F523
:1003C000801FE9D291F0000F04BF01460020B1FA6E
:1003D00081F308BF2033A3F10B03B3F120020CDA41
:1003E0000C3208DD02F1140CC2F10C0201FA0CF01F
:1003F00021FA02F10CE002F11402D8BFC2F1200C84
:1004000001FA02F120FA0CFCDCBF41EA0C01904039
:10041000E41AA2BF01EB0451294330BD6FEA040482
:100420001F3C1CDA0C340EDC04F11404C4F120026D
:1004300020FA04F001FA02F340EA030021FA04F37F
:1004400045EA030130BDC4F10C04C4F1200220FAD6
:1004500002F001FA04F340EA0300294630BD21FA14
:1004600004F0294630BD94F0000F83F4801306BFDA
:1004700081F480110134013D4EE77FEA645C18BFCE
:100480007FEA655C29D094EA050F08BF90EA020F65
:1004900005D054EA000C04BF1946104630BD91EA5D
:1004A000030F1EBF0021002030BD5FEA545C05D160
:1004B0004000494128BF41F0004130BD14F580049F
:1004C0003CBF01F5801130BD01F0004545F0FE4113
:1004D00041F470014FF0000030BD7FEA645C1ABF48
:1004E000194610467FEA655C1CBF0B46024650EA7F
:1004F000013406BF52EA033591EA030F41F40021AB
:1005000030BD00BF90F0000F04BF0021704730B530
:100510004FF4806404F132044FF000054FF0000105
:1005200050E700BF90F0000F04BF0021704730B5C6
:100530004FF4806404F1320410F0004548BF40429B
:100540004FF000013EE700BF42004FEAE2014FEAF0
:1005500031014FEA02701FBF12F07F4393F07F4FCB
:1005600081F06051704732F07F4208BF704793F0CE
:100570007F4F04BF41F40021704730B54FF46074E1
:1005800001F0004521F000411CE700BF50EA0102E4
:1005900008BF704730B54FF000050AE050EA01028D
:1005A00008BF704730B511F0004502D5404261EBFD
:1005B00041014FF4806404F132045FEA915C3FF43E
:1005C000D8AE4FF003025FEADC0C18BF03325FEADB
:1005D000DC0C18BF033202EBDC02C2F1200300FA8C
:1005E00003FC20FA02F001FA03FE40EA0E0021FAB1
:1005F00002F11444BDE600BF70B54FF0FF0C4CF49F
:10060000E06C1CEA11541DBF1CEA135594EA0C0F50
:1006100095EA0C0F00F0DEF82C4481EA030621EA8B
:100620004C5123EA4C5350EA013518BF52EA0335C6
:1006300041F4801143F4801338D0A0FB02CE4FF078
:100640000005E1FB02E506F00042E0FB03E54FF0A8
:100650000006E1FB03569CF0000F18BF4EF0010EA0
:10066000A4F1FF04B6F5007F64F5407404D25FEA9C
:100670004E0E6D4146EB060642EAC62141EA55514F
:100680004FEAC52040EA5E504FEACE2EB4F1FD0C91
:1006900088BFBCF5E06F1ED8BEF1004F08BF5FEA0F
:1006A000500E50F1000041EB045170BD06F00046C1
:1006B00046EA010140EA020081EA0301B4EB5C046E
:1006C000C2BFD4EB0C0541EA045170BD41F4801166
:1006D0004FF0000E013C00F3AB8014F1360FDEBF8B
:1006E000002001F0004170BDC4F10004203C35DA67
:1006F0000C341BDC04F11404C4F1200500FA05F3EA
:1007000020FA04F001FA05F240EA020001F000428A
:1007100021F0004110EBD37021FA04F642EB060100
:100720005EEA430E08BF20EAD37070BDC4F10C042A
:10073000C4F1200500FA04F320FA05F001FA04F2EE
:1007400040EA020001F0004110EBD37041F10001DA
:100750005EEA430E08BF20EAD37070BDC4F12005E5
:1007600000FA05F24EEA020E20FA04F301FA05F24D
:1007700043EA020321FA04F001F0004121FA04F2F5
:1007800020EA020000EBD3705EEA430E08BF20EAC5
:10079000D37070BD94F0000F0FD101F000464000FF
:1007A00041EB010111F4801F08BF013CF7D041EA81
:1007B000060195F0000F18BF704703F00046520085
:1007C00043EB030313F4801F08BF013DF7D043EA56
:1007D0000603704794EA0C0F0CEA135518BF95EA0C
:1007E0000C0F0CD050EA410618BF52EA4306D1D193
:1007F00081EA030101F000414FF0000070BD50EAB2
:10080000410606BF1046194652EA430619D094EA3B
:100810000C0F02D150EA013613D195EA0C0F05D125
:1008200052EA03361CBF104619460AD181EA030179
:1008300001F0004141F0FE4141F470014FF0000031
:1008400070BD41F0FE4141F4780170BD70B54FF0CC
:10085000FF0C4CF4E06C1CEA11541DBF1CEA13554C
:1008600094EA0C0F95EA0C0F00F0A7F8A4EB05042E
:1008700081EA030E52EA03354FEA013100F0888025
:100880004FEA03334FF0805545EA131343EA1263EE
:100890004FEA022245EA111545EA10654FEA0026A3
:1008A0000EF000419D4208BF964244F1FD0404F55C
:1008B000407402D25B084FEA3202B61A65EB0305B8
:1008C0005B084FEA32024FF480104FF4002CB6EB75
:1008D000020E75EB030E22BFB61A754640EA0C00F5
:1008E0005B084FEA3202B6EB020E75EB030E22BF35
:1008F000B61A754640EA5C005B084FEA3202B6EB76
:10090000020E75EB030E22BFB61A754640EA9C0034
:100910005B084FEA3202B6EB020E75EB030E22BF04
:10092000B61A754640EADC0055EA060E18D04FEAC2
:10093000051545EA16754FEA06164FEAC30343EA62
:1009400052734FEAC2025FEA1C1CC0D111F4801F2F
:100950000BD141EA00014FF000004FF0004CB6E728
:1009600011F4801F04BF01430020B4F1FD0C88BFC7
:10097000BCF5E06F3FF6AFAEB5EB030C04BFB6EBD2
:10098000020C5FEA500C50F1000041EB045170BDC5
:100990000EF0004E4EEA113114EB5C04C2BFD4EBF2
:1009A0000C0541EA045170BD41F480114FF0000E76
:1009B000013C90E645EA060E8DE60CEA135594EAF2
:1009C0000C0F08BF95EA0C0F3FF43BAF94EA0C0FF5
:1009D0000AD150EA01347FF434AF95EA0C0F7FF46A
:1009E00025AF104619462CE795EA0C0F06D152EABE
:1009F00003353FF4FDAE1046194622E750EA4106A2
:100A000018BF52EA43067FF4C5AE50EA41047FF4B2
:100A10000DAF52EA43057FF4EBAE12E74FF0FF3C17
:100A200006E000BF4FF0010C02E000BF4FF0010CE8
:100A30004DF804CD4FEA410C7FEA6C5C4FEA430C61
:100A400018BF7FEA6C5C1BD001B050EA410C0CBFB0
:100A500052EA430C91EA030F02BF90EA020F002012
:100A6000704710F1000F91EA030F58BF994208BF79
:100A700090422CBFD8176FEAE37040F00100704736
:100A80004FEA410C7FEA6C5C02D150EA013C07D18D
:100A90004FEA430C7FEA6C5CD6D152EA033CD3D0D8
:100AA0005DF8040B704700BF8446104662468C46D2
:100AB0001946634600E000BF01B5FFF7B7FF002805
:100AC00048BF10F1000F01BD4DF808EDFFF7F4FF2E
:100AD0000CBF012000205DF808FB00BF4DF808EDB9
:100AE000FFF7EAFF34BF012000205DF808FB00BFDC
:100AF0004DF808EDFFF7E0FF94BF012000205DF8FE
:100B000008FB00BF4DF808EDFFF7CEFF94BF0120B2
:100B100000205DF808FB00BF4DF808EDFFF7C4FFAB
:100B200034BF012000205DF808FB00BF4FEA4102FE
:100B300012F5001215D211D56FF47873B3EB62522F
:100B400012D94FEAC12343F0004343EA505311F056
:100B5000004F23FA02F018BF404270474FF00000E8
:100B6000704750EA013005D111F0004008BF6FF026
:100B7000004070474FF00000704700BF4A0011D29C
:100B800012F5001211D20DD56FF47873B3EB6252E7
:100B90000ED44FEAC12343F0004343EA505323FAF3
:100BA00002F070474FF00000704750EA013002D168
:100BB0004FF0FF3070474FF0000070474FEA41029E
:100BC000B2F1E04324BFB3F5001CDCF1FE5C0DD9AB
:100BD00001F0004C4FEAC0024CEA5070B2F1004FF5
:100BE00040EB830008BF20F00100704711F0804FF8
:100BF00021D113F13872BCBF01F00040704741F4BD
:100C000080114FEA5252C2F11802C2F1200C10FAC0
:100C10000CF320FA02F018BF40F001004FEAC123A4
:100C20004FEAD32303FA0CFC40EA0C0023FA02F348
:100C30004FEA4303CCE77FEA625307D150EA01331E
:100C40001EBF4FF0FE4040F44000704701F00040EE
:100C500040F0FE4040F40000704700BF53B94AB96D
:100C6000002908BF00281CBF4FF0FF314FF0FF30B4
:100C700000F06EB9ADF1080C6DE904CE00F006F895
:100C8000DDF804E0DDE9022304B070472DE9F04708
:100C9000089D04468C46002B40F083808A4217460C
:100CA00047D9B2FA82F242B1C2F1200024FA00F030
:100CB0009140974040EA010C94404FEA1748230CBA
:100CC000BCFBF8F61FFA87FE08FB16C143EA014396
:100CD00006FB0EF1994209D9FB1806F1FF3080F0AE
:100CE0001981994240F21681023E3B445B1AA4B23C
:100CF000B3FBF8F008FB103344EA034400FB0EFE9C
:100D0000A64509D93C1900F1FF3380F00581A645BD
:100D100040F2028102383C4440EA0640A4EB0E0453
:100D200000261DB1D4400023C5E900433146BDE88B
:100D3000F08702B9FFDEB2FA82F2002A50D1CB1B53
:100D40004FEA174E1FFA87F80126B3FBFEFC210C71
:100D50000EFB1C3341EA034108FB0CF38B4207D91D
:100D600079180CF1FF3002D28B4200F2E980844600
:100D7000C91AA3B2B1FBFEF00EFB101143EA014405
:100D800008FB00F8A04507D93C1900F1FF3302D257
:100D9000A04500F2D9801846A4EB080440EA0C40B4
:100DA000BFE78B4209D9002D00F0B1800026C5E9CC
:100DB000000130463146BDE8F087B3FA83F6002ED5
:100DC0004AD18B4202D3824200F2B880841A61EB8E
:100DD000030101208C46002DA8D0C5E9004CA5E7F1
:100DE000C2F1200320FA03F6974001FA02F04FEA1D
:100DF000174ED9403043030CB1FBFEF61FFA87F8BB
:100E00000EFB161143EA014306FB08F1994204FA6E
:100E100002F409D9FB1806F1FF3C80F08D8099425D
:100E200040F28A80023E3B445B1A81B2B3FBFEF083
:100E30000EFB103341EA034100FB08F38B4207D954
:100E4000791800F1FF3C73D28B4271D902383944D2
:100E5000CB1A40EA064678E7C6F1200C03FA06F4FE
:100E600022FA0CF31C4320FA0CF701FA06F34FEABE
:100E7000144E21FA0CF11F433B0CB1FBFEF91FFA93
:100E800084F80EFB191143EA014109FB08FA8A456F
:100E900002FA06F200FA06F308D9611809F1FF30E8
:100EA00048D28A4546D9A9F102092144A1EB0A0199
:100EB000BFB2B1FBFEF00EFB101147EA014700FB89
:100EC00008F8B84507D9E71900F1FF312ED2B84527
:100ED0002CD90238274440EA0940A7EB0807A0FBB9
:100EE00002894F45C64649461AD317D05DB1B3EBC8
:100EF0000E0267EB010707FA0CFCF2404CEA020213
:100F0000F740C5E9002700263146BDE8F0872E46A8
:100F100028460BE70646E9E61846FDE64345E5D2D6
:100F2000B8EB020E69EB04010138DFE70846D2E7AF
:100F300060468DE78146B9E7664675E730464AE781
:100F4000ACF1020C394413E702383C4424E700BFFB
:100F5000704700BF7FB501238DF817204FF0FF3297
:100F6000CDE901320DF11702009200680A46D02146
:100F700002F040FF07B05DF804FB00001FB54FF022
:100F8000FF3C0123CDE9013C009200680A46D021D4
:100F900002F0C0FF024B187005B05DF804FB00BF03
:100FA000444A00202DE9F041754B88B003AE9446C9
:100FB00004468E4603F110023546186859683746D4
:100FC00003C7083393423E46F7D11B783B7000229B
:100FD0007F21C4E900EC2046ADF81D208DF81F20CC
:100FE000FFF7B8FF674E01463070374638B16649A3
:100FF000284606F04DFB002008B0BDE8F0810DF159
:1010000007022046FFF7BAFF8046307008B15F49FB
:10101000EEE79DF807205E4902A806F019FB02A939
:10102000284606F035FB9DF80C308DF81C80203BDF
:101030008DF818309DF80D30203B8DF8193040F6B2
:101040000D23ADF81A30ADF80C30284649238DF841
:101050000E30FFF7BDF84FF0FF3382B229466068CB
:1010600004F050FA42467F212046FFF773FF3070AC
:1010700008B14849BCE7F12206212046FFF76AFF84
:10108000307008B14449B3E70A2002F0E1F80122C8
:1010900006212046FFF75EFF307008B13F49A7E701
:1010A0000A2002F0D5F83F2207212046FFF752FF21
:1010B0008046307008B13A499AE70A2002F0C8F831
:1010C000424607212046FFF745FF307008B13549F9
:1010D0008EE7012210212046FFF73CFF7F21307070
:1010E00020222046FFF736FF0146307008B12E4916
:1010F0007EE704222046FFF72DFF307008B12B4910
:1011000076E7332201212046FFF724FF0646387098
:1011100008B127496CE7072211212046FFF71AFF83
:101120003246387010212046FFF714FF387008B19E
:1011300020495DE7312214212046FFF70BFF0646C8
:10114000387008B11C4953E7024653212046FFF787
:1011500001FF204632467F21FFF7FCFE044638702F
:1011600008B1164944E7642002F072F8144BC3E951
:1011700000449C60134BC3E900449C603BE700BF04
:10118000B87E0008444A0020EB7E0008F57E000887
:10119000FF7E0008027F00080C7F0008177F000810
:1011A000227F00082D7F0008387F0008427F00085A
:1011B0004C7F0008567F0008607F00086B7F0008A6
:1011C000384A00202C4A00202DE9F743382101AA93
:1011D0004FF000080546ADF80480FFF7CFFE3F4C06
:1011E0003F4F20700DF1050237212846FFF7C6FE5C
:1011F00020703C6834B905F087FA3860204603B0A7
:10120000BDE8F08305F080FA364A9DF80430B2F963
:101210000420DFF8E0E03E68DFF8DCC038609B1AAD
:101220009DF80520DEF80440DCF80470DCF80010BE
:10123000CEF8084043EA0223B3F5004FA0EB0606C0
:10124000DEF80000CCF80870A5BFC3F57F42434626
:101250004246FF329842CEF80400CCF80410CEF893
:101260000030CCF8002034DC844222DC034691427A
:101270002BDC8F4223DC0A46D41A1B4B1868201A39
:10128000FFF750F9194B0022FFF7B6F980463046B8
:101290008946FFF737F902460B4640464946FFF7B5
:1012A000ABF9134B0022FFF7D1FAFFF787FCE86197
:1012B000A4E79842DAD0A342A8BF2346D7E79142D9
:1012C000D9D0BA42A8BF3A46D6E78F42D3DA3A46D7
:1012D000D2E78442CADA2346C9E700BF444A002065
:1012E000D0000020C4000020CC00002000408F3F30
:1012F00000408F402C4A0020384A002070B5064636
:101300004FF400742DED028BB0EE408AF0EE608A4F
:101310003046013CFFF758FFB0EE480AF0EE680A8D
:10132000A4B204F060FC002CF2D14FF4006530460A
:10133000FFF74AFFB0EE480AF0EE680A013DADB291
:10134000044404F050FC002DF1D1BDEC028B024BA3
:10135000E4121C6070BD00BFCC0000207FB50B4EB6
:101360000B4D0C4C3246294601A806F071F901AA32
:1013700014210A2001F020FA20464FF4806102F087
:10138000ACFA012004F023FCECE700BFF84D00208C
:10139000767F0008001002407FB50E4A0E4C1068A0
:1013A0005168127A01AB03C31A700023CDF81130D3
:1013B000CDF80D300593214601A806F069F90A2100
:1013C000084601AA01F0F8F901F05AF9012004F0E9
:1013D000FEFBF0E7CC7E00087E7F000800000000E6
:1013E0002DE9F04F2DED088B00218FB0BC48BD4C8E
:1013F00003F0ACFE0421BA4803F0A8FEBA480C2161
:1014000003F0A4FE2378002B00F0CC80B64B1B68C1
:1014100094221A64B54B0022CDE90823B44B002472
:10142000D3E900010025CDE90C45FFF77FFBB14B67
:10143000B14918600522B1489FEDA1AB04F03AFB19
:1014400045EC174BCDE90245B0EE47BAF0EE67BA6E
:10145000B0EE478AF0EE678AA74C0025642004F0BE
:10146000B6FB2378642BF9D0A67822796778303ED2
:1014700006EB8606303A06EB860602EB8606E27835
:10148000303A02EB820206EB4206462B36B240F0BF
:101490008D804C2F40F09180964B1868801B18600F
:1014A000FFF740F8CDE9080101258F4B4C2F1B6851
:1014B00040F099805B221A6440F2262004F087FBFA
:1014C0006378572B00F032828D4A89498D48DFF8C6
:1014D00058B2012600239FED7C2B9FED7D1B9FEDD5
:1014E0007E0B82ED008BCDE9006308AB01F0C8FBF9
:1014F0003146844801F0D1FA82480A2101F0F4FB18
:10150000814B8249D3E90067002032463B46FEF713
:10151000BBFE7E4B41EC190B002230463946FEF7EC
:10152000B3FEB0EE491AF0EE691A41EC100B7548A3
:1015300001F0C0FA2846FEF7E5FF02460B46002000
:101540007349FEF7A1FE02460B46FEF79FFE41ECF3
:10155000190B674FDDE90801D7E90023FEF794FE78
:1015600053EC192BFFF748F800220023FFF7D4FAB9
:10157000064600283CD105F0EDFD594B1B685E6323
:101580009E6305F009FE564B62491B685B480022CA
:101590005A639A636423237002224FF0FF3303F0EF
:1015A000B1FF5BE7642004F012FB2BE7422B10D164
:1015B000522F3FF471AF4C2F00E0522F09D14D4B09
:1015C000186830441860FEF7ADFF0025CDE908012A
:1015D0006BE7572F7FF469AF464B1868FEF7A2FF01
:1015E000CDE9080161E7522F0CBFF022942262E797
:1015F0004FF48061584602F070F9424801F0A9F9B1
:1016000005F0A8FD63784C2B40F0DA80DFF8F0801D
:101610000022D8E900010023FFF760FA06460028FF
:1016200000F09A803C48DFF8E0900022042102F0AC
:101630004FF939480122082102F04AF936480022C0
:10164000202102F045F934480122102102F040F92E
:10165000D7E90023DDE90801FEF716FE53EC192B4C
:10166000FEF7CAFF2D4B0022FFF738FA2C4B00285B
:101670005CD01888FEF746FF194BD3F800A0294B21
:10168000D9E90089D3E9002306460F46FEF7B4FFE7
:1016900042464B46FEF7B0FFFFF770FA4246CAF8E3
:1016A00034004B4630463946FEF7A6FFFFF766FA90
:1016B000CAF8380005F070FD0A2004F094FA48E7F3
:1016C000EC51B81E85EBB13F0000000000000000A7
:1016D0009A9999999999B93F1B2FDD240681953FD5
:1016E000504A0020FC000020344D0020008056406D
:1016F000E800002000010020F84D0020644B00208D
:10170000484C0020504C0020180000200000F03F02
:101710000000E03F8B7F00080000024000002440F2
:101720002200002000000020001002401888FEF770
:10173000E9FED8E9002306460F46D9E90001FEF785
:10174000A3FD724BD3F800A0714B80468946D3E9C4
:1017500000233046394699E7024608216D48DFF8F4
:10176000C89102F0B5F86B480122042102F0B0F8EC
:1017700068483246102102F0ABF866480122202169
:1017800002F0A6F8D7E90023DDE90801FEF77CFDA9
:1017900053EC192BFEF730FF5F4B0022FFF79EF949
:1017A0005E4B00287FF465AF1888FEF7ABFED9E9E1
:1017B000002306460F46D8E90001FEF767FDC0E7A3
:1017C000522B7FF477AF564E0022D6E9000100235A
:1017D000FFF784F98046002865D04E48DFF848A11D
:1017E0000022082102F074F84A480122042102F084
:1017F0006FF848480022102102F06AF8454801229B
:10180000202102F065F8D7E90023DDE90801FEF7A1
:101810003BFD53EC192BFEF7EFFE3F4B0022FFF789
:101820005DF93E4BD8B11888FEF76CFEDAE9008905
:10183000364B4246D3F800A04B4606460F46FEF70D
:10184000DBFEFFF79BF9374BCAF83400D3E90023DE
:1018500030463946FEF7D0FE42464B4624E718880C
:10186000FEF750FED6E9002380468946DAE90001FA
:10187000FEF70AFD254B0246D3F800A006460B46AC
:101880000F4640464946FEF7B7FEFFF777F9254B6E
:10189000CAF83400D3E9002340464946FEF7ACFEBF
:1018A00032463B4600E7024604211A48DFF878A09A
:1018B00002F00EF817480122082102F009F8154835
:1018C0004246202102F004F812480122102101F0C2
:1018D000FFFFD7E90023DDE90801FEF7D5FC53EC53
:1018E000192BFEF789FE0C4B0022FFF7F7F80B4B84
:1018F000002898D11888FEF705FEDAE90023804613
:101900008946D6E90001FEF7C1FCB3E7504A002042
:1019100000000020000002400000244022000020BF
:10192000484C00202800002018000020BC4B83ED0C
:10193000008BBC4B00271F602378462B40F033817F
:10194000B9483A46042101F0C3FFB74801220821F3
:1019500001F0BEFFB4483A46202101F0B9FF012250
:10196000B148102101F0B4FF3046FEF7DBFDA2A321
:10197000D3E90023FEF740FECDE90C010125DFF895
:10198000D8A2B0EE4A1AF0EE6A1A012700269FED9F
:101990009C2B9FED9D0B0CAB0AAA8AED008BA049F6
:1019A000A248CDE900768DED0A8B01F069F99F48D8
:1019B000394601F072F89D480A2101F095F99C4BD7
:1019C0009C49D3E90089002042464B46FEF75CFC67
:1019D000984B41EC190B002240464946FEF754FC57
:1019E000B0EE491AF0EE691A41EC100B8F4801F085
:1019F00061F89FED832B52469FED831B9FED840B77
:101A000008AB8D498D48CDE9007601F039F98B4856
:101A1000394601F042F889480A2101F065F9884BFE
:101A20008648D3E9002303F100410692079143EC75
:101A3000112B9DED060B01F03DF8824B1B682846EB
:101A40005E639E63FEF75EFD7F4B0022FEF71CFC8B
:101A500002460B46FEF71AFC82468B46704BDDE9C8
:101A60000C01D3E90023FEF70FFC52465B46FEF75C
:101A7000C3FD00220023FFF74FF800283FF483AD99
:101A80006A4800F066FF6D4800F063FF2378462B3C
:101A900040F0E6806D4B1E68674BDDE90801D3E935
:101AA0000023FEF7F1FB6A4B0022FEF7A5FD5AA3C7
:101AB000D3E90023FEF7EAFBFFF760F8654B3064DB
:101AC0001888FEF71FFD644BD3E900890646594B81
:101AD0000F46002240464946FEF7D8FB32463B46B9
:101AE000FEF78AFD424641EC1B0B4B465149002054
:101AF000FEF7CAFB32463B46FEF77EFDCDE902010A
:101B000005F028FBDDE90A0100220023FEF7E6FFCD
:101B10000646002800F0E5804348DFF828810022CF
:101B2000082101F0D5FE40480122042101F0D0FE39
:101B30003D480022102101F0CBFE3B48012220212C
:101B400001F0C6FE364BDDE90C01D3E90023FEF7B8
:101B50009BFB52465B46FEF74FFD404B0022FEF7D3
:101B6000BDFF3349002800F0AF80D1E90067D8F805
:101B7000008053EC1B2B30463946FEF73DFDFEF747
:101B8000FDFFDDE90223C8F8340039463046FEF790
:101B900033FDFEF7F3FFC8F8380005F0FDFA0A2020
:101BA00004F021F85AE7422B7FF4E9AE1E483A468A
:101BB000082101F08DFE1C480122042101F088FE5D
:101BC00019483A46102101F083FE012216482021CF
:101BD00001F07EFE3046FEF7A5FC01F100430593BF
:101BE000049005A3D3E90023DDE90401FEF704FD19
:101BF0003D46CDE90C01C2E6295C8FC2F528F03FD5
:101C000000000000000000007B14AE47E17A943F22
:101C10009A9999999999A93FCDCCCCCCCC8C62401A
:101C200008010020F800002000000240C04C002005
:101C3000100000200000F03FE8000020804D002050
:101C400008000020504A00200000E03F344D0020F2
:101C50000000084020000020484C002000002040E8
:101C6000422B7FF44DAF3A4B3A491E68D1E900014F
:101C7000DDE90823FEF708FB374B0022FEF7BCFC2A
:101C800031A3D3E90023FEF701FBFEF777FF334BC7
:101C900030641888FEF736FC314BD3E900890646DC
:101CA0000F4642464B462F490020FEF7EDFA3246DA
:101CB0003B46FEF7A1FC2B4B41EC1B0B00224046A0
:101CC0004946FEF7E3FA15E7DDE90A23D1E9000109
:101CD000FEF7DAFAD8F8008053EC1B2B06460F46C5
:101CE0004BE7024604212048DFF88C8001F0F0FD2C
:101CF0001D480122082101F0EBFD1B48324620213E
:101D000001F0E6FD18480122102101F0E1FD174B1A
:101D1000DDE90C01D3E90023FEF7B6FA52465B4633
:101D2000FEF76AFC124B0022FEF7D8FE114900288C
:101D30007FF41BAFDDE90A23D1E90001FEF7A6FA23
:101D4000C8E700BFAFF30080CDCCCCCCCC8C6240D8
:101D5000344D0020E8000020000008402000002052
:101D6000484C00200000F03F000002400801002025
:101D70000000204010000020504A00200000000019
:101D80002DE9F04F2DED048B654A6649664887B012
:101D9000FFF708F905F0DEF9644901A805F078FCC1
:101DA00001AA1E210A2000F007FD4FF4FA6003F09B
:101DB0000EFF9FED550B5C48FFF7A0FA4FF4FA6059
:101DC00003F005FF05F0E8F9594B5A4801223C2180
:101DD0001A709FED4F8B02F0E6FC9FED4B9B4FF08E
:101DE000FF34A046504DDFF85C91DFF85CA105F0B0
:101DF000B1F92846FFF7E8F905F0CEF9E869FEF7F2
:101E0000A3FBD9E90023FEF741FA4A4B06460F46E9
:101E1000B8F1FF3FC9E90067CAE90067DFF82C8124
:101E20001B6801D0621C53D15C6A2546D8F80000BB
:101E3000DFF81CB1FEF776FB37A3D3E90023FEF7EA
:101E4000DBFBCBE9000139463046FEF76FFE4FF46D
:101E50007A724243384901A805F0FAFB1E210A2094
:101E600001AA00F0A9FC35484FF4807101F02AFD69
:101E700040BB334BC8F8000018608BED008B89ED38
:101E8000008B8AED008B05F065F9284901A805F063
:101E9000FFFB01AA1E210A2000F08EFC4FF4FA601D
:101EA00003F095FEB0EE490AF0EE690A1E48FFF70E
:101EB00025FA4FF4FA6003F08AFE05F06DF94FF051
:101EC000FF352C460A20A04603F08DFE2C4689E7FC
:101ED0005D6A1B68DB060DD5AC4201DB631B03E0CA
:101EE000C5F57F43FF332344D8F800201344C8F8D6
:101EF00000309BE7AC42F1DD05F57F43FF33E31A89
:101F0000F2E700BFAFF300800000000000003540A2
:101F10000000000000000000994B7CF3E9CE8A3FEE
:101F2000644B0020A84B0020E04A00208D7F000871
:101F3000FC000020004E00209B7F0008000C0240A7
:101F400000010020F0000020E8000020F800002040
:101F500008010020034B1B6800225A625A6A824221
:101F6000FCD37047984A002070B5037F022B0446CB
:101F700013D1274E3378354683B9042102F06EFC25
:101F8000244B18600123337023681A6A22F0A002E0
:101F90001A621A6A42F020021A6270BD012BFCD14B
:101FA000042102F05BFC1C4B246818600023636270
:101FB000184B1A4A1B68984220D9C31A136010683C
:101FC000FEF7A0FA10A3D3E90023FEF715FB144B8C
:101FD0000022FEF711FBFEF7D1FD124B1860002323
:101FE0002B70236A23F0A0032362236A23620E4B23
:101FF0001A68D36823F00403D360CEE7DFD2C3F5B9
:102000007F43FF330344D9E79CC420B07268A13FEB
:10201000E4000020DC000020E0000020D4000020CC
:102020000000E03FD8000020984A002010B50A4C7C
:1020300001221021204601F04BFC0A20FFF78AFF05
:1020400000221021204601F043FC044B1A68D3689B
:1020500043F00403D36010BD000C0240984A0020F6
:102060007FB5094D094CFFF7E1FF2A68214601A819
:1020700005F0EEFA01AA28210A2000F09DFB642059
:1020800003F0A5FDEFE700BFD8000020E07E0008C8
:1020900000B595B02C22002109A805F0D1FA142230
:1020A000002103A805F0CCFA0023194A0193116C12
:1020B00041F080511164126C02F080520192019A39
:1020C000144A0293116841F48041116012680E9322
:1020D00002F480420292029A022208920120102207
:1020E000CDE90B0208A802F039F8014608B172B632
:1020F000FEE70F23CDE90330CDE90500079003A8E3
:1021000002F006FA08B172B6FEE715B05DF804FBFE
:10211000003802400070004080B59EB001F06CF8BD
:10212000AE4BAF4D64221A7057225A7039213022BB
:1021300000249A70D9701A71FFF7AAFF14220021A7
:1021400015A805F07DFA02942B6BA64843F0100306
:102150002B632B6B03F010030293029B03942B6BF6
:1021600043F080032B632B6B03F080030393039BEB
:1021700004942B6B43F001032B632B6B03F00103DF
:102180000493049B05942B6B43F008032B632B6B88
:1021900003F008030593059B06942B6B43F004039F
:1021A0002B632B6B03F004030693069B07942B6BA6
:1021B00043F002032B632B6B03F0020307932246C9
:1021C0004FF4BC61079B01F083FB874822463C210A
:1021D00001F07EFB22468548102101F079FB0127A2
:1021E0004FF4BC637F4815A9CDE91537CDE91744F5
:1021F00001F08EFA3C237C4815A9CDE91537CDE9CD
:10220000174401F085FA4FF480737848179415A9A4
:10221000CDE91534102601F07BFA744815A9CDE9F3
:102220001567CDE9174401F073FA01942B6B43F461
:1022300000132B632B6B6E4D03F400132246052114
:1022400001930C20019B01F029F80C2001F058F8B3
:10225000324621460AA805F0F3F91C2221460EA8B1
:10226000CDE9084405F0ECF92022214615A805F037
:10227000E7F9604BAC60C5E90034284641F61F43DE
:10228000C5E90334C5E9054402F00AFC08B172B699
:10229000FEE74FF480530AA928460A9302F045FE50
:1022A00008B172B6FEE7284602F026FC08B172B605
:1022B000FEE7CDE9080008A9284602F0CDFF024656
:1022C00008B172B6FEE76023CDE90E30CDE910000B
:1022D000CDE9120014900EA9284602F0F1FC08B1D5
:1022E00072B6FEE704220EA9284602F0E9FC08B106
:1022F00072B6FEE7CDE91500CDE9170019904FF44D
:1023000000531C9015A928461A9302F0E3FF08B168
:1023100072B6FEE7384C4FF08043C4E900304FF608
:10232000FF73C4E903300323CDE915300A23CDE957
:102330000E00CDE91770CDE91930CDE91B70A06012
:10234000A06115A920461D9302F02EFC08B172B6BB
:10235000FEE7CDE90E000EA9204602F07DFF0446FF
:1023600008B172B6FEE7014632460AA805F068F9E0
:102370001C2221460EA8CDE9084405F061F920226F
:10238000214615A805F05CF91C4D1D48A023C0E9A5
:1023900000534FF47A73C0E90334C0E90544846004
:1023A00002F07EFB08B172B6FEE74FF4805314488A
:1023B0000A930AA902F0B9FD08B172B6FEE7104807
:1023C00002F09AFB08B172B6FEE7CDE9080008A951
:1023D0000B4802F041FFA8B172B6FEE7F84D0020AD
:1023E000003802400010024000000240000C024091
:1023F000504A002000040140004E0020000001402F
:10240000344D00206023CDE90E30CDE9120010904C
:1024100014900C2266480EA902F052FC08B172B664
:10242000FEE74FF40053CDE91500CDE917001990F0
:102430001C9015A95E481A9302F04CFF034608B1A0
:1024400072B6FEE75B485C4C03614FF4E132C0E9D1
:1024500000420C22C0E90233C0E90523C36103F046
:1024600023F808B172B6FEE7544C554BA060C4E99E
:1024700000300323CDE9153001220A234FF6FF7502
:10248000CDE90E00C4E90350CDE91720CDE919309C
:10249000CDE91B20A06115A920461D9302F084FB05
:1024A00008B172B6FEE7CDE90E000EA9204602F093
:1024B000D3FE034608B172B6FEE742484249434A9A
:1024C0000362C0E900124FF48042C0E90233C0E960
:1024D0000423C0E9063301F0E5FB044608B172B6F7
:1024E000FEE71026CDE90E000146324615A805F09C
:1024F000A7F83748374B0461C0E90036C0E9024508
:10250000846102F025FB08B172B6FEE70023304873
:102510000EA9CDE90E3302F09FFE08B172B6FEE7B8
:102520000123CDE91630159018900422284815A9EA
:1025300002F05EFC044608B172B6FEE700F05CF9FA
:10254000254A2348D36843F08073D360234B5C60F3
:102550001A6842F001021A60042102F0F9FD03F04A
:10256000C1FA1F4A1F48214603F0E8FA1E4B1F4AD2
:10257000186021461E4803F0E1FA1E4B1E4A1860FF
:1025800021461E4803F0DAFA1D4B1E4A1860214608
:102590001D4803F0D3FA1D4B1D4A186021461D4803
:1025A00003F0CCFA1C4B186003F0AEFAFEE700BF54
:1025B000344D0020644B002000480040FC4B0020BC
:1025C00000040040A84B002000540040A0860100F9
:1025D000984A002000080040F0ED00E0001000E004
:1025E0006C8000085D1300084C4A0020DC7F000866
:1025F00099130008F44D002024800008E11300081E
:10260000484A002000800008811D0008304D00204D
:102610004880000861200008F04D002072B6FEE7F7
:10262000012970B50A46044618BF00221348134E0C
:102630004FF4807101F04CF908250022202130462A
:1026400001F046F923064CBF01220022402130460A
:1026500001F03EF9013D01222021304601F038F918
:10266000640015F0FF05E4B2E7D1BDE8704003480F
:1026700001224FF4807101F02BB900BF001002401D
:1026800070B50F4EB02400212046FFF7C9FF00218E
:102690000846FFF7C5FF00211020FFF7C1FF002506
:1026A00016F8350001210135FFF7BAFF802DF7D16B
:1026B0000134E4B2B82C06F10106E4D170BD00BFCC
:1026C000484E0020084908230020002201F832006B
:1026D0000132802AFAD1013B13F0FF0301F101011D
:1026E000F3D1FFF7CDBF00BF484E0020030630B541
:1026F00013D43F2911D801F007050A4CC908C1F1CC
:102700000701C9B204EBC0000123C5F1070503FAB4
:1027100005F5435C12B12B43435430BD23EA050356
:10272000FAE700BF484E00202DE9F74F1F46A2F1FF
:10273000200A1F4B9DF830B05FFA8AFA03EB0A13A8
:1027400000931C4B0AEB4A0A03EB8A038146884636
:1027500001930C460026B74202D103B0BDE8F08FCA
:102760000C2F0CBF019B009B9D5D04F108035FFAD9
:1027700083FA2B0658BFBBFA8BF2214604F1010401
:102780004CBF5A4652094846E4B2FFF7AFFFA4EBEC
:1027900008026D00BA42EDB207D109F101005FFAFB
:1027A00080F9C24601365446D5E7A245E1D1F9E7A2
:1027B0000485000890800008F7B504460D46561EB3
:1027C000012716F8013F0BB903B0F0BD7A2C82BF88
:1027D0001035EDB200243A2D03D9FFF773FF002521
:1027E0002C460097204632780C2329460834FFF700
:1027F0009BFFE4B2E5E7000010B501F093FC404B0D
:10280000404C1A6F22F001021A671A6F22F004027C
:102810001A6701F095FC00228021204601F058F84B
:10282000642000F015FD01222046802101F050F8BF
:102830000021AE20FFF7F4FE0021D520FFF7F0FEC7
:1028400000215020FFF7ECFE0021A820FFF7E8FE52
:1028500000213F20FFF7E4FE0021D320FFF7E0FE38
:1028600000210846FFF7DCFE00214020FFF7D8FEDC
:1028700000218D20FFF7D4FE00211420FFF7D0FEA9
:1028800000212020FFF7CCFE00210220FFF7C8FE28
:102890000021A120FFF7C4FE0021C020FFF7C0FEE9
:1028A0000021DA20FFF7BCFE00211220FFF7B8FE5E
:1028B00000218120FFF7B4FE0021EF20FFF7B0FEDA
:1028C0000021D920FFF7ACFE0021F120FFF7A8FE80
:1028D0000021DB20FFF7A4FE00213020FFF7A0FE3F
:1028E0000021A420FFF79CFE0021A620FFF798FE00
:1028F0000021AF20FFF794FEBDE81040FFF7E2BED5
:102900000038024000100240436C2DE9D043D3E967
:102910000067C0E91467036CD0E91A89D3E9002382
:102920000446C0E91623394642464B463046FEF778
:10293000F3F810B1C4E9148909E0D4E918893046E4
:1029400042464B463946FEF7C9F80028F2D1BDE8A9
:10295000D0832DE9F04F2DED048B437885B00446EC
:102960002BB9002005B0BDEC048BBDE8F08F00F062
:1029700069FC6368A268C31A9A420546F1D8236CC1
:10298000A16CD3E900ABD1E9000152465B46FDF7EB
:102990007BFCD4E9162341EC180B50465946FDF751
:1029A00073FCD4E90C2341EC190B51EC180BFDF727
:1029B00023FED4E91423FDF769FC2378019306462E
:1029C0000F46C4E914676BB9D4E90A2351EC190B1B
:1029D000FDF712FE02460B4630463946FDF754FC21
:1029E000C4E91401D4E91489D4E91A67404632468F
:1029F0003B464946FEF790F8002838D0C4E91467F2
:102A0000019B002B44D0D4E90A2351EC180BFDF7AD
:102A1000F3FD80468946D4E90E2351EC190BFDF7EE
:102A2000EBFD02460B46D4E91401FDF72DFC4246AE
:102A30004B46FDF72BFC8046894602460B46304646
:102A40003946FEF74BF850B9D4E9186742464B4671
:102A500030463946FEF760F808B946464F46636C83
:102A60000120C3E90067C4E916AB65607AE794ED1D
:102A7000187B404653EC172B49468DED027BFEF741
:102A80002DF80028BCD09DED027B84ED147BB7E7C8
:102A90004FF000084FF00009BDE7012938B50446A2
:102AA0000CBF0125002503D143780BB9FFF72CFF9C
:102AB000657038BD2DE9F84F55EC104B57EC116B94
:102AC000824611EE102A10EE100A3B462946FEF708
:102AD00019F8002837D19AF80130CAE91845CAE92F
:102AE0001A67002B2FD0DAF844B0DBE900893046B2
:102AF00042464B463946FDF7F1FF78B1CBE9006716
:102B0000DAE91467DAE91A45304622462B46394697
:102B1000FEF702F868B1CAE9144514E042464B4694
:102B200020462946FDF7F8FF0028E9D0CBE900450B
:102B3000E6E7DAE91845304622462B463946FDF7E6
:102B4000CDFF0028E7D1BDE8F88F00002DE9F3475D
:102B500055EC104B8246884610EE100A00220023E6
:102B600029468DED002B57EC116BFDF7B7FF0028C0
:102B70005DD10022002330463946FDF7AFFF002823
:102B800055D1DDE9000100220023FDF7A7FF002851
:102B90004DD19DED007B08F1FF338AF80280D3F11F
:102BA000000848EB03088AED087BCAE906678AF843
:102BB0000080CAE90445DAF80800FDF7A3FC1D4BC4
:102BC0000022FDF743FECAE90A45804689460246CF
:102BD0000B4630463946FDF70FFD06460F464B467D
:102BE0004246CAE90C67DDE90001FDF72FFE9AF8BD
:102BF000033080468946012BCAE90E8917D1224647
:102C00002B4600200021FDF73FFB3246CAE90A01AE
:102C10003B4600200021FDF737FB4246CAE90C0184
:102C20004B4600200021FDF72FFBCAE90E0102B040
:102C3000BDE8F08700408F4038B5437804460D4624
:102C4000D3B1C3788B4217D0D0E90A2300210020EA
:102C5000FDF71AFBD4E90C23C4E90A010020002186
:102C6000FDF712FBD4E90E23C4E90C01002000217A
:102C7000FDF70AFBC4E90E01E57038BD0000000055
:102C800010B583640023C0E91012437000220023B2
:102C9000C0E9182312A3D3E9002386B0C0E91A23A0
:102CA0006423044683609DF824108DED040B8DEDA4
:102CB000021B8DED002BFFF7BFFF9DED002B9DED5F
:102CC000021B9DED040B9DF820102046FFF73EFFF0
:102CD00000F0B8FAA368C01A606006B010BD00BF6B
:102CE0000000000000E06F40F8B50D1E044620DD36
:102CF0002846FDF717FC0646A0680F46FDF702FCC4
:102D000002460B4630463946FDF7A0FD02460B460B
:102D100006460F46D4E90C01FDF76EFC3246C4E9C5
:102D20000C013B46D4E90E01FDF790FDC4E90E010C
:102D3000A560F8BD82B00E4B00220092596C41F4A0
:102D400080415964596C01F48041009100990192CD
:102D5000196C41F0805119641B6C03F0805301938E
:102D6000019B0F216FF0010002B000F097BA00BF85
:102D70000038024030B5044689B01422002103A86F
:102D800004F05EFC2268144B9A4223D1134C144881
:102D900000250195236B43F002032363236B059504
:102DA00003F002030193019B4FF440721223CDE91B
:102DB000032303210423CDE9061303A900F0A8FC93
:102DC0000295236C43F400132364236C03F4001373
:102DD0000293029B09B030BD00540040003802400D
:102DE0000004024010B514228AB0044600210DEB05
:102DF000020004F025FC2368254A934224D1254B88
:102E000000220192596C41F001015964596C01F0A2
:102E10000101019101990292196B41F010011963AE
:102E20001B6B03F0100302934FF48040029BCDE92B
:102E300007220223CDE9050301231748099305A9B9
:102E400000F066FC0AB010BD144A9342FAD1114B4F
:102E5000134800220392596C41F002015964596CE5
:102E600001F00201039103990492196B41F00401EE
:102E700019631B6B03F004030493C021049B02231A
:102E8000CDE905130323CDE90722099305A9D7E767
:102E900000000140003802400010024000040140E0
:102EA0000008024070B514228AB0044600210DEBE0
:102EB000020004F0C5FB2368B3F1804F39D103F55C
:102EC0000E33002400941A6C2B4842F001021A645D
:102ED0001A6C02F001020092009A01941A6B42F0FF
:102EE00001021A631A6B02F001020192019A029424
:102EF0001A6B42F002021A631B6B03F00203029387
:102F0000029B02264FF40043012505A9CDE90536B1
:102F1000CDE90744099500F0FBFB0823CDE9053610
:102F2000CDE907441548099505A900F0F1FB0AB061
:102F300070BD134A9342FAD1124B0F4800220392FC
:102F4000196C41F002011964196C01F0020103913E
:102F500003990492196B41F0010119631B6B03F093
:102F600001030493C021049B0223CDE90513CDE99D
:102F70000722099305A9D8E7000002400004024097
:102F8000000400400038024010B5044688B0142206
:102F9000002103A804F054FB2268184B9A422AD15E
:102FA00003F50C33002401941A6C154842F0040216
:102FB0001A641A6C02F004020192019A02941A6BCC
:102FC00042F008021A631B6B03F0080302934FF4EC
:102FD0000052029B03A90223CDE903230793CDE905
:102FE000054400F095FB1E202246052100F056F90D
:102FF0001E2000F085F908B010BD00BF0008004099
:10300000000C024070B5064688B01422002103A8C7
:1030100004F016FB3268264B9A4246D1002503F590
:10302000F83301951A6C2348234C42F480221A6429
:103030001A6C02F480220192019A02951A6B42F0F6
:1030400004021A631B6B059503F004030293029BB1
:103050004FF440620223CDE9032303210723CDE986
:10306000061303A900F054FB1448A5614FF0006358
:10307000C4E900034FF48063C4E9043520464FF4EB
:103080008073C4E90255C4E90735656200F072F93E
:1030900008B1FFF7C3FAB463272000220521A66315
:1030A00000F0FCF8272000F02BF908B070BD00BF3D
:1030B0000048004000080240044B00202860024005
:1030C000FEE7FEE7FEE7FEE7FEE7704708B500F023
:1030D000ADF803F09BFD012803D0BDE8084004F0E3
:1030E000A1B808BD014800F055BA00BF044B00204C
:1030F000014801F0CDBB00BF984A0020014802F012
:10310000EDBA00BF644B00200B4B196810B50246A6
:1031100009B90A491960186809490A4C0244091B8F
:103120008A4206D904F054FA0C2303604FF0FF30B2
:1031300010BD1A60FCE700BF10010020A052002063
:103140000000022000040000034AD2F8883043F453
:103150007003C2F88830704700ED00E0DFF834D02B
:103160000D480E490E4A002302E0D458C4500433DF
:10317000C4188C42F9D30B4A0B4C002301E01360B6
:103180000432A242FBD3FFF7DFFF04F027FAFEF779
:10319000C3FF70470000022000000020A4000020B0
:1031A0006C8B0008A80000209C520020FEE7000065
:1031B00038B50E4A0E4B054618784FF47A73B3FBB8
:1031C000F0F31068B0FBF3F000F0A8F8044658B92B
:1031D0000F2D09D8024629464FF0FF3000F05EF867
:1031E000044B20461D6038BD0120FCE73000002064
:1031F000340000203800002008B50B4B1A6842F458
:1032000000721A601A6842F480621A601A6842F406
:1032100080721A60032000F02FF80F20FFF7C8FF1C
:10322000FFF788FD002008BD003C0240034A044B24
:1032300011681B780B441360704700BF4852002090
:1032400034000020014B1868704700BF485200202E
:1032500038B50446FFF7F6FF631C1CBF054B1B780F
:10326000054618BFE418FFF7EDFF431BA342FAD34E
:1032700038BD00BF340000200749CA6822F4E0626C
:103280000302120403F4E063120C134343F0BF6320
:1032900043F40033CB60704700ED00E0164B30B5CF
:1032A000DC68C4F30224C4F10705231D042D28BFE4
:1032B0000425062B4FF0FF338CBF033C002403FA98
:1032C00005F521EA0501A34022EA0302A1400028F6
:1032D00041EA0203ACBF00F16040084A4FEA031321
:1032E000B8BF00F00F00DBB2AABF00F56140135475
:1032F00080F8003330BD00BF00ED00E014ED00E0C9
:10330000002808DB4209012300F01F0003FA00F047
:10331000014B43F82200704700E100E00138B0F1B2
:10332000807F0AD2064B074A5860F02182F82310AA
:103330000020072298601A6070470120704700BF84
:1033400010E000E000ED00E0036810B5084C024614
:10335000D9B210391820B1FBF0F0205CD06523F40D
:103360007F7020F003005F2988BF0430906510BD96
:103370000C8B000870B50446FFF764FF0546002C6F
:1033800073D0022384F835302268002384F8343067
:10339000136823F00103136021680B68D8072FD44A
:1033A0000B68334DA0691D40D4E901231343E26843
:1033B00013432269134362691343E26903431343CE
:1033C000226A1343626A042A43EA050302BFD4E96E
:1033D0000B5635432B430B604B69042A23F007033C
:1033E00043EA020333D1A26AE56A13437DB390B97D
:1033F000012A21D032F0020229D1EA0127D51EE0AC
:10340000FFF720FF401B0528C6D920236365032052
:1034100084F8350070BDB0F5005F14D1032A16D8CA
:1034200001A050F822F000BF3F340008FB33000831
:103430003F34000839340008B5F1C07F07D140237C
:1034400063650120E4E7022AF9D9032AD5D04B614C
:103450002046FFF779FFE26D3F2393408360002011
:103460000123606584F83530D4E70120D2E700BF3E
:103470003F8010F070B590F83440866D012C31D04B
:10348000012480F8344090F83540012C4FF00005BD
:103490004FF0020424D180F8354004684565256862
:1034A00025F48025256063608368402B0EBFA260F1
:1034B000A160E260C26D08BFE1603F239340B3604A
:1034C000236843F016032360036C1BB1236843F0A9
:1034D00008032360236843F001032360002070BDCC
:1034E00080F834500220FAE770B50446866DFFF785
:1034F000A9FE94F83530022B054606D0802363657B
:10350000002384F83430012070BD23681A6822F04B
:1035100016021A605A6922F080025A61226C0AB9B6
:10352000A26C1AB11A6822F008021A601A6822F016
:1035300001021A6023681B6813F001030AD1E16DD0
:103540003F228A40B260012284F8352084F834306A
:103550001846D9E7FFF776FE401B0528EAD9202355
:1035600063650320002384F8350084F83430CBE70A
:1035700090F83530022B03D080234365012070473B
:103580000268052380F83530136823F001031360C7
:1035900000207047F7B5002301935C4B856D1F68D1
:1035A000C36D2E6808229A40324204460CD001684E
:1035B0000868400708D5086820F004000860AA6081
:1035C000626D42F00102626501229A40324208D0E7
:1035D00021684969090641BFAA60626D42F0020292
:1035E000626504229A40324208D02168096888073F
:1035F00041BFAA60626D42F00402626510229A40E7
:10360000324210D02368196809070CD5AA601A68DD
:10361000500337D51B68190301D4236C00E0A36C59
:103620000BB120469847E16D20228A4032423AD0C1
:1036300023681868C60636D5AA6094F83520052A8E
:103640001A6827D122F016021A605A6922F0800205
:103650005A61226C0AB9A26C1AB11A6822F00802E7
:103660001A603F238B40AB60012384F83530002380
:1036700084F83430236D002B45D0204603B0BDE8DC
:10368000F04018471A68D2055EBF1A6822F0080297
:103690001A60C2E7500327D51B68190331D4636C45
:1036A0000BB120469847636D6BB3636DDA0719D58C
:1036B00022684FF41653B7FBF3F7052384F835302F
:1036C000136823F001031360019B0133BB42019394
:1036D00002D81368DB07F7D4012384F835300023C0
:1036E00084F83430E36CC6E71A6812F4807208D1AB
:1036F000196821F010011960012384F8353084F82D
:103700003420E36BCCE703B0F0BD00BF30000020F5
:103710002DE9F74FDFF8A891674A00230D680124CF
:103720009C4004EA050CAC4340F0B1804D6805F0C4
:1037300003044FEA43080326671E06FA08F6012F22
:103740006FEA060634D8876807EA060ECF6807FADC
:1037500008F747EA0E078760476827EA0C0EC5F3AB
:1037600000179F4047EA0E074760C76807EA060E42
:103770008F6807FA08F747EA0E07022CC76019D1CD
:103780004FEAD30A00EB8A0A03F0070BDAF820703D
:103790004FEA8B0B4FF00F0E0EFA0BFE27EA0E0EC0
:1037A0000F6907FA0BF747EA0E07CAF8207001E025
:1037B000032CDAD1076804FA08F43E40264315F4D6
:1037C000403F066063D04FF0000ACDF804A0D9F85E
:1037D00044603A4C46F48046C9F84460D9F84460E5
:1037E00006F480460196019E23F0030606F180460A
:1037F00006F59C3603F0030ED6F808804FEA8E0ECD
:103800000F2707FA0EF7A04228EA070746D004F56B
:103810008064A04244D004F58064A04242D004F504
:103820008064A04240D004F58064A0423ED004F5FC
:103830008064A0423CD004F58064A0423AD004F5F4
:103840008064A0420CBF0724082404FA0EF43C4311
:10385000B46014686FEA0C06EF0354BF34404CEABE
:10386000040414605468AF0354BF34404CEA0404A9
:1038700054609468EF0254BF34404CEA04049460EE
:10388000D468AD0254BF34404CEA0404D460013320
:10389000102B7FF443AF03B0BDE8F08F5446D4E75C
:1038A0000124D2E70224D0E70324CEE70424CCE7A6
:1038B0000524CAE70624C8E7003C01400000024096
:1038C000003802400369194214BF012000207047EC
:1038D0000AB1816170470904FBE7436901EA030209
:1038E00021EA030141EA02418161704701684B69A5
:1038F00013F480634FF0000210D06FF480634B61CB
:103900002023026380F83D3080F83E20036C80F86D
:103910003C2043F0040303640120704718467047BD
:103920002DE9F04104460F46164698462568686919
:1039300027EA000080B2B8B16B695A0516D52B682A
:1039400043F400732B606FF480636B6120220023CB
:10395000236384F83D2084F83E30226C42F0040258
:10396000226484F83C300120BDE8F081731CDED075
:10397000FFF768FCA0EB0800B04201D8002ED5D1BB
:1039800000232022236384F83D2084F83E30226CFB
:1039900042F02002E4E770B504460D46164623685F
:1039A0005B695B0701D5002070BD2046FFF79EFFD5
:1039B000A8B96A1CF3D0FFF745FC801BA84201D8C8
:1039C000002DECD100232022236384F83D2084F8CD
:1039D0003E30226C84F83C3042F020022264012008
:1039E000E2E770B504460D46164621684B6913F0B0
:1039F000400301D0002010E04A69D2060ED56FF0D6
:103A000010024A612022236384F83D2084F83E306E
:103A1000226C226484F83C30012070BDFFF712FC58
:103A2000801BA84201D8002DDFD100232022236370
:103A300084F83D2084F83E30226C42F02002E8E712
:103A40002DE9F84606460F4691461D464FEA114AB3
:103A50003368BAF1010F0CBF5C699C6927EA040462
:103A6000A4B2B4FA84F46409A14501D0002017E09F
:103A70006A1CEED0FFF7E6FB089BC01AA84201D8EB
:103A8000002DE5D100232022336386F83D2086F8FF
:103A90003E30326C86F83C3042F020023264012025
:103AA000BDE8F88670B504460D46164623685B6986
:103AB0001B0601D5002070BD2046FFF717FFA8B9EF
:103AC0006A1CF3D0FFF7BEFB801BA84201D8002D73
:103AD000ECD100232022236384F83D2084F83E307B
:103AE000226C84F83C3042F0200222640120E2E79C
:103AF0002DE9F0431546026885B0DDE90C7899465A
:103B0000136843F4807313600E463B46CDF8008083
:103B100000224FF001110446FFF792FF236838B1ED
:103B20001B68DB0502D54FF40073236403200AE011
:103B300006F0FE061E61194943463A462046FFF745
:103B4000EFFE18B1012005B0BDE8F08323680390B3
:103B50005A6903929B690393424639462046039B68
:103B6000FFF7A0FF40B1236C042B01BF226813684C
:103B700043F400731360E5E7B9F1010F236802D144
:103B8000EDB21D61DFE72A0A1A6139464246204636
:103B9000FFF788FF0028E6D12368F1E70200010063
:103BA0002DE9FF479A46036815461A6842F4806279
:103BB0001A601A68DDE90C7842F480721A600E46C9
:103BC0003B46CDF8008000224FF001110446FFF77C
:103BD00037FF236848B11B68DB0502D54FF400733B
:103BE0002364032004B0BDE8F0875FFA86F906F08D
:103BF000FE061E612A4943463A462046FFF790FEDC
:103C000008B10120EEE7236803905A6903929B698B
:103C10000393424639462046039BFFF743FF40B1DA
:103C2000236C042B01BF2268136843F400731360F4
:103C3000E7E7BAF1010F23681AD1EDB21D614246E0
:103C400039462046FFF72EFF0028E9D12268136885
:103C500043F4807313604FF001110246CDF80080E9
:103C60003B462046FFF7ECFE226860B11368B3E7DD
:103C70002A0A1A61394642462046FFF713FF0028F8
:103C8000CED12368D9E749F00103136104494346C3
:103C90003A462046FFF744FE003818BF0120A1E74E
:103CA0000200010070B5044608B9012070BD90F80B
:103CB0003D3003F0FF021BB980F83C20FFF75AF8B3
:103CC000242384F83D3023681A6822F001021A6028
:103CD0001A6842F400421A601A6822F400421A601C
:103CE00000F0B2FC3F4A6368934294BF3E4A3F4AA9
:103CF00090428CBF00220122002AD6D121683C4E7E
:103D00004A68B0FBF6F622F03F0232434A60354A79
:103D10000D6A934284BF4FF49672724325F03F05BB
:103D200091BF721C4FF47A76B2FBF6F201322A434D
:103D30000A62CD69421E2B4825F44F45834225F087
:103D4000FF0532D85B00B2FBF3F340F6FC7201339F
:103D5000134242D0C3F30B032B43CB61D4E90730AA
:103D60000A68034322F0C00213430B608A68D4E957
:103D7000030322F40342034322F0FF0213438B6048
:103D8000D4E90530CA68034322F0FF021343CB6035
:103D90000B6843F001030B6000202023206484F8AB
:103DA0003D30206384F83E0080E7A06850B903EB03
:103DB0004303B2FBF3F30133C3F30B037BB143F4CF
:103DC0000043C9E719204343B2FBF3F30133C3F3C4
:103DD0000B0323B143F44043BEE70423BCE70123B4
:103DE000BAE700BFA08601007F841E00FF083D00E7
:103DF00040420F002DE9F743044699460C9E0F46BA
:103E00009046FFF71FFA94F83D30202B054603D06B
:103E1000022003B0BDE8F08300903C491923012241
:103E20002046FFF70DFE0028F2D194F83C30012B1C
:103E3000EED02068012384F83C300368D9075EBFC8
:103E4000036843F001030360036823F40063036025
:103E5000212384F83D30402384F83E30002323643E
:103E60000A9B6362BDF82C306385638D2385284BE4
:103E7000E362CDE900654B46424639462046FFF7EE
:103E800037FE00282AD00120C3E7FFF70BFE40B120
:103E9000236C042B01BF2268136843F40073136082
:103EA000F1E7636A27681A4612F8011B39616262FA
:103EB000628D218D013A92B262857A69481E80B284
:103EC000520720850AD548B15A783A6102336362B5
:103ED000638D013B02399BB221856385238D2A4680
:103EE00031462046002BD0D1FFF755FD0028CFD119
:103EF0002268136843F400731360202384F83D3074
:103F000084F83C0084F83E0083E700BF0200100004
:103F10000000FFFF2DE9F043044687B09946109F4B
:103F20000D469046FFF78EF994F83D30202B06465B
:103F300004D00225284607B0BDE8F08300907649FA
:103F4000192301222046FFF77BFD0028F1D194F8C8
:103F50003C30012BEDD02068012384F83C3003680D
:103F6000DB075EBF036843F001030360036823F4CB
:103F700000630360222384F83D30402384F83E3000
:103F8000002323640E9B6362BDF83C306385638D20
:103F90002385624BE3622946CDE900764B464246D3
:103FA0002046FFF7FDFD054608B10125C2E7228D39
:103FB0002368B2B902905A6902929A690292029AEF
:103FC0001A6842F400721A60DFF85481238D002BC6
:103FD0002CD1202284F83D2084F83C3084F83E30F7
:103FE000A8E7012A0AD11A6822F480621A600390B5
:103FF0005A6903929A690392039AE1E7022A0ED161
:104000001A6822F480621A601A6842F400621A6028
:1040100004905A6904929B690493049BD4E7059029
:104020005A6905929B690593059BCDE7032B56D8EA
:10403000012B15D1324639462046FFF7D2FC002825
:10404000B3D123681A69636A1A70636A01336362C1
:10405000238D013B2385638D013B9BB26385B5E7CF
:10406000022B00963B464FF000024146204619D1F4
:10407000FFF7E6FC002898D123681A6842F4007222
:104080001A601A69636A1A70626A531C6362238D2C
:10409000013B2385638D013B9BB2638523681B69CC
:1040A0005370D2E7FFF7CCFC00287FF47EAF236883
:1040B0001A6822F480621A601A69636A1A70636A65
:1040C000009601336362238D013B2385638D013BA1
:1040D0009BB2638502463B4641462046C8E73246CE
:1040E00039462046FFF77DFC00287FF45EAF236849
:1040F0001A69636A1A70626A531C6362238D013BFA
:104100002385638D013B9BB2638523685969490709
:104110007FF55CAFC3E700BF020010000000FFFFA7
:1041200004000100044B01221A60044B82B01B689A
:104130000193019B02B0704720000E4200700040C6
:10414000044B00221A60044B82B01B680193019B50
:1041500002B0704720000E42007000402DE9F3418C
:10416000044640B30368DD0710D4236898075ED483
:1041700023681A0700F1A08023685B0700F1BE8066
:10418000A069002840F01F8100202BE0A64B9A6810
:1041900002F00C02042A07D09A6802F00C02082AE6
:1041A0000BD15A68510208D59F4B1B689A03DCD586
:1041B0006368002BD9D1012014E06268B2F5803F1A
:1041C00013D11A6842F480321A60FFF73BF8964E1A
:1041D000054633689B03C8D4FFF734F8401B6428B6
:1041E000F7D9032002B0BDE8F0818F4DB2F5A02FC2
:1041F0002B6807D143F480232B602B6843F4803372
:104200002B60E2E723F480332B602B6823F48023B8
:104210002B60002AD9D1FFF715F806462B689F03BB
:10422000A3D5FFF70FF8801B6428F7D9D9E77E4B99
:104230009A6812F00C0F07D09A6802F00C02082A54
:1042400011D15B685E020ED4774B1A68950702D5D0
:10425000E268012AAFD11A68216922F0F80242EA25
:10426000C1021A6084E7E268704BB2B101221A60A1
:10427000FEF7E8FF6C4D06462B68980707D52B68BC
:10428000226923F0F80343EAC2032B6070E7FEF7CC
:10429000D9FF801B0228EFD9A3E71A60FEF7D2FFEF
:1042A000614E0546336899077FF562AFFEF7CAFF96
:1042B000401B0228F6D994E762695D4B7AB101226E
:1042C0001A60FEF7BFFF584E0546736F9F073FF514
:1042D00053AFFEF7B7FF401B0228F6D981E71A60FB
:1042E000FEF7B0FF504E0546736F98077FF544AF59
:1042F000FEF7A8FF401B0228F6D972E74A4B1A6C5A
:1043000012F0805228D101921A6C42F080521A6445
:104310001B6C03F080530193019B0127454D2B68D3
:10432000D9051BD5A368404D012B27D12B6F43F036
:1043300001032B67FEF786FF3B4E054641F28838A6
:10434000336F9B0739D5002F3FF41AAF364A136CF1
:1043500023F08053136413E70027DFE72B6843F44F
:1043600080732B60FEF76EFF06462B68DA05D9D402
:10437000FEF768FF801B0228F7D932E7052B04D12E
:104380002B6F43F004032B67D0E72A6F22F0010262
:104390002A672A6F22F004022A67002BCAD1FEF78F
:1043A00051FF41F2883806462B6F9807CBD5FEF7B0
:1043B00049FF801B4045F7D913E7FEF743FF401B39
:1043C0004045BDD90DE7184DAB6803F00C03082B31
:1043D00047D0194E00230228336035D1FEF732FF53
:1043E00007462B68990129D4D4E907321343626A3E
:1043F00043EA8213E26A43EA0263A26A5208013A7C
:1044000043EA02436B6001233360FEF71BFF064D56
:1044100004462B689A013FF5B7AEFEF713FF001B69
:104420000228F6D9DDE600BF00380240000047420E
:10443000800E47420070004060004742FEF702FFD6
:10444000C01B0228CDD9CCE6FEF7FCFE04462B6843
:104450009B017FF599AEFEF7F5FE001B0228F6D909
:10446000BFE601283FF4BEAE6B68E26903F4800149
:1044700091427FF4A0AE216A03F03F028A427FF4AA
:104480009AAE616A47F6C0721A40B2EB811F7FF4A0
:1044900092AEA26A520803F44031013AB1EB024FE6
:1044A0007FF489AEE26A03F07063B3EB026F3FF40E
:1044B0006BAE80E6134908B58B6803F00C03042B40
:1044C0001CD0082B1CD14A684B68496813F4800340
:1044D00014BF0D480D48C1F3881118BF002302F026
:1044E0003F02A1FB0001FCF7B9FB064B5B68C3F37D
:1044F000014301335B00B0FBF3F008BD0248FCE769
:104500000248FAE70038024040787D010024F400B8
:104510002DE9F0410D46044610B90120BDE8F081B7
:10452000444B1A6802F007028A4228D32268970790
:104530002DD4D00741D43F4B1A6802F00702AA429B
:1045400066D8226851076CD4130707D53A4A216907
:10455000936823F4604343EAC1039360FFF7AAFF23
:10456000354B364A9B68C3F30313D35CD840344BB6
:104570001860344B1868FEF71BFE0020CEE7CAB265
:104580001A701B6803F007038B42C6D1CEE72A4B93
:1045900012F0040F1EBF996841F4E05199601607AC
:1045A00042BF996841F4604199602349A0688B68D3
:1045B00023F0F00303438B60BBE762681E4B012AC4
:1045C0001CD11B6813F4003FA7D01B4EB36823F027
:1045D00003031343B360FEF735FE41F28838074604
:1045E000B368626803F00C03B3EB820FA3D0FEF74D
:1045F00029FEC01B4045F3D903208FE7911E0129F6
:104600001B6802D813F0007FDEE713F0020FDBE730
:10461000EAB21A701B6803F00703AB427FF47DAF68
:104620008FE70549E0688B6823F4E05303438B6010
:104630008AE700BF003C024000380240F48A0008CC
:104640003000002038000020044B054A9B68C3F36B
:104650008223D35C034A1068D84070470038024078
:10466000048B000830000020044B054A9B68C3F30C
:104670004233D35C034A1068D84070470038024088
:10468000048B000830000020036A23F0010303625A
:10469000036A70B5446882690D6822F073022A4388
:1046A0008D6823F002032B430E4DA84202D00E4E1C
:1046B000B04210D1CE6823F008033343A84223F060
:1046C000040302D0084DA84205D1D1E9055624F4CF
:1046D000407435432C43446082614A6842630362FC
:1046E00070BD00BF0000014000040140036A23F4D4
:1046F00080730362036A70B54468C2690D6822F072
:1047000073022A438D6823F4007343EA0523114D95
:10471000A84203D005F58065A84214D1CD6823F4E2
:10472000006343EA05230B4DA84223F4806303D0C2
:1047300005F58065A84206D1D1E9055624F4405418
:10474000354344EA05144460C2614A68C2630362A7
:1047500070BD00BF00000140036A23F48053036270
:10476000036A30B54468C2690D6822F4E64242EA41
:1047700005228D6823F4005343EA0533084DA8420F
:1047800003D005F58065A84204D14D6924F4804426
:1047900044EA85144460C2614A680264036230BD21
:1047A00000000140704730B590F83E2090F83F304F
:1047B00090F8425090F84340D2B2DBB2EDB2E4B28E
:1047C000C9B9012A46D1012D46D1022380F83E30D5
:1047D00080F8423003681A6A22F001021A621A6AEB
:1047E00042F001021A620268136843F00103136089
:1047F0000023184630BD042911D1012B2AD1012CE8
:10480000F7D1022380F83F3080F8433003681A6AFA
:1048100022F010021A621A6A42F01002E2E7012A3C
:1048200018D1012B18D1012DE3D1012CE1D10223A4
:1048300080F83E3080F83F3080F8423080F84330D6
:1048400003681A6A22F001021A621A6A42F001022F
:104850001A62DCE70123CCE71346CAE7082910D027
:1048600004D841B1042909D0002070470C29FBD19C
:104870000368186C70470368586B70470368986B3F
:1048800070470368D86B7047704770477047704730
:1048900003681A69910710B504460ED5DA689207C5
:1048A0000BD56FF002021A61012202779B699B0708
:1048B00077D0FDF759FB0023237723681A69500747
:1048C00010D5DA6851070DD56FF004021A61022283
:1048D00022779B6913F4407F204668D0FDF744FBA4
:1048E0000023237723681A6912070FD5DA681007A7
:1048F0000CD56FF008021A6104222277DB69990750
:1049000020465AD0FDF730FB0023237723681A692D
:10491000D20610D5DA68D0060DD56FF010021A61F4
:1049200008222277DB6913F4407F20464BD0FDF745
:104930001BFB0023237723681A69D10708D5DA689F
:10494000D20705D56FF001021A612046FFF79CFFE0
:1049500023681A69100608D5DA68110605D56FF0C4
:1049600080021A61204600F0DCFC23681A695206B6
:1049700008D5DA68500605D56FF040021A61204666
:10498000FFF785FF23681A69910622D5DA68920637
:104990001FD56FF0200220461A61BDE8104000F0DC
:1049A000BFBCFFF772FF2046FFF770FF83E7FFF7FA
:1049B0006CFF2046FFF76AFF92E7FFF766FF20468D
:1049C000FFF764FFA0E7FFF760FF2046FFF75EFFF9
:1049D000AFE710BD304A0368904212D0B0F1804F6B
:1049E0000FD0A2F57C4290420BD002F5806290423B
:1049F00007D002F58062904203D002F578429042DF
:104A000019D14A6823F070031343234A904229D0F6
:104A1000B0F1804F26D0A2F57C42904222D002F520
:104A2000806290421ED002F5806290421AD002F558
:104A30007842904216D0194A904213D002F5806213
:104A400090420FD002F5806290420BD0A2F59832CE
:104A5000904207D002F58062904203D002F5806256
:104A6000904203D1CA6823F4407313434A6923F088
:104A70008003134303608B68C3620B688362064B39
:104A8000984203D003F58063984201D10B69036318
:104A900001234361704700BF000001400040014016
:104AA00010B5044630B390F83D3003F0FF021BB957
:104AB00080F83C20FEF796F90223206884F83D3008
:104AC000211DFFF787FF012384F84630002084F87A
:104AD0003E3084F83F3084F8403084F8413084F828
:104AE000423084F8433084F8443084F8453084F808
:104AF0003D3010BD0120FCE710B5044630B390F8FE
:104B00003D3003F0FF021BB980F83C20FFF74AFE5E
:104B10000223206884F83D30211DFFF75BFF01234D
:104B200084F84630002084F83E3084F83F3084F822
:104B3000403084F8413084F8423084F8433084F8BF
:104B4000443084F8453084F83D3010BD0120FCE746
:104B500010B5044630B390F83D3003F0FF021BB9A6
:104B600080F83C20FEF710FA0223206884F83D30DC
:104B7000211DFFF72FFF012384F84630002084F821
:104B80003E3084F83F3084F8403084F8413084F877
:104B9000423084F8433084F8443084F8453084F857
:104BA0003D3010BD0120FCE7F8B50D460446002855
:104BB0004DD090F83D3003F0FF021BB980F83C2047
:104BC000FEF770F92146022384F83D3051F8040BBA
:104BD000836823F4804323F007038360FFF7FAFE22
:104BE00020682B6886688269A968076A1E43AB69DA
:104BF00022F4407222F0030241EA0323134323F418
:104C00007C422B69E9691B0143EA0123E9680B43F4
:104C1000296A22F0FC0243EA01331343696927F051
:104C2000AA026F68866047EA011783611743012370
:104C3000076284F84630002084F83E3084F83F3024
:104C400084F8423084F8433084F83D30F8BD0120C8
:104C5000FCE70000036A23F010030362036A70B5E7
:104C6000446882690D6822F4E64242EA05228D68B2
:104C700023F0200343EA0513104DA84203D005F5A5
:104C80008065A84214D1CD6823F0800343EA051360
:104C90000A4DA84223F0400303D005F58065A842E1
:104CA00006D1D1E9055624F44064354344EA85042D
:104CB000446082614A688263036270BD0000014003
:104CC00070B590F83C30012B0546144654D00122B3
:104CD000082C80F83C203ED007D8CCB1042C29D039
:104CE000002385F83C30104670BD0C2CF8D10068CC
:104CF000FFF732FD2B680969DA6942F40062DA6174
:104D0000DA6922F48062DA61DA6942EA012231E08A
:104D10000068FFF7B9FC2B6809699A6942F008023C
:104D20009A619A6922F004029A619A690A439A6127
:104D30000022D5E70068FFF78DFF2B6809699A69A3
:104D400042F400629A619A6922F480629A619A69D7
:104D500042EA0122EBE70068FFF7C8FC2B6809690B
:104D6000DA6942F00802DA61DA6922F00402DA61F3
:104D7000DA690A43DA61DBE70222B4E770B5046A54
:104D80001A4E24F001040462B0428469056A29D0F5
:104D9000B0F1804F26D0A6F57C46B04222D006F571
:104DA0008066B0421ED006F58066B0421AD006F585
:104DB0007846B04216D006F57056B04212D0A6F52D
:104DC0009436B0420ED044F001021B01DBB222F057
:104DD000F0021A4301F00A0125F00A031943826127
:104DE000016270BD24F003042243EEE7000001409D
:104DF000F8B590F83C30012B05460C4600F0898050
:104E0000012085F83C009AB9CB682868D1E90012E6
:104E1000FFF7B4FF2B68A1689A6922F00C029A612F
:104E20009A690A439A610020002385F83C30F8BD56
:104E3000042A23D12B681E6A26F01006D1E9002728
:104E4000C9681E6298691E6A20F4407040EA072013
:104E5000090320F4704089B21201014302F0A0025C
:104E600026F0A000024399611A629A69A16822F4AF
:104E700040629A619A6942EA0122D3E7082A22D164
:104E80002B681E6A26F48076D1E90020C9681E626C
:104E9000DF691E6A27F003073843090120F0F0009C
:104EA000C9B21202014302F4206226F420600243D8
:104EB000D9611A62DA69A16822F00C02DA61DA6952
:104EC0000A43DA61AFE70C2AAED12B681E6A26F4DA
:104ED0008056D1E90027C9681E62D8691E6A20F48D
:104EE000407040EA0720090320F4704089B21203A1
:104EF000014302F4204226F420400243D9611A62A1
:104F0000DA69A16822F44062DA61DA6942EA0122D0
:104F1000D7E702208BE710B58468114324F47F445F
:104F200041EA03232343836010BD70B590F83C3001
:104F3000012B04464FF0020300F09180012280F81B
:104F40003D3080F83C200068836823F47F4323F0E1
:104F5000770383600B68602B52D033D8402B67D027
:104F600016D8202B0DD00AD833F0100109D0012318
:104F700084F83D30002384F83C30104670BD302B5F
:104F8000F5D1826822F07002134343F0070317E063
:104F9000502BECD14A68CE68016A056A25F00105FC
:104FA0000562836921F00A0123F0F00343EA061346
:104FB0000A4383610262836823F0700343F057035E
:104FC000836011E0B3F5805F0ED0B3F5005F0DD0C4
:104FD000702BCCD1CB68D1E90121FFF79CFF22686F
:104FE000936843F0770393600022C0E7CB68D1E970
:104FF0000121FFF790FF2268936843F48043F2E7B2
:105000004D68CE68016A21F0100101628269036A6D
:1050100022F4704223F0A00343EA051342EA063269
:1050200082610362836823F0700343F06703C7E77C
:105030004A68CE68016A056A25F001050562836940
:1050400021F00A0123F0F00343EA06130A438361C7
:105050000262836823F0700343F04703B0E71A4607
:105060008BE7036A01F01F0110B501248C4023EA8D
:1050700004030362036A8A401A43026210BD0000FF
:1050800010B5044629B990F83E30012B1DD00120FF
:1050900032E0042907D190F83F30012BF7D10223E9
:1050A00080F83F3014E0082907D190F84030012BF8
:1050B000EDD1022380F840300AE090F84130012B16
:1050C000E5D1022380F8413002E0022380F83E302F
:1050D00001222068FFF7C5FF2368194A93420CD0CC
:1050E00018498B4209D0B3F1804F0DD19A6802F074
:1050F0000702062A1FD1002010BD596C934241F4CB
:1051000000415964F2D0EEE70F4A9342EED002F527
:1051100080629342EAD002F580629342E6D002F5C3
:1051200078429342E2D002F570529342DED0A2F56B
:1051300094329342DAD01A6842F001021A60DAE738
:10514000000001400004014000040040FFF798BF48
:1051500010B50446002943D190F83E3090F8420043
:10516000DBB2012BC0B272D1012870D10223002919
:105170004CD1226884F83E3084F84230D36843F042
:105180000203D36020680122FFF76BFF2368314AD6
:1051900093421AD0B3F1804F17D0A2F57C429342CC
:1051A00013D002F5806293420FD002F580629342E1
:1051B0000BD002F57842934207D002F57052934229
:1051C00003D0A2F59432934204D19A6802F0070208
:1051D000062A03D01A6842F001021A60002037E064
:1051E000042905D190F83F3090F84300DBB2B8E7CE
:1051F00008290BBF90F8403094F8413090F84400F3
:1052000094F845000CBFDBB2DBB2AAE7042908D151
:10521000226884F83F3084F84330D36843F00403B5
:10522000AFE7082908D1226884F8403084F8443078
:10523000D36843F00803A4E70C2984F8413084F8CC
:10524000453005D12268D36843F0100399E7012067
:1052500010BD00BF0000014030B590F83C30012B7C
:105260004FF0020332D080F83D3003680D685C686F
:105270009A6824F070042C435C60154CA3421AD049
:10528000B3F1804F17D0A4F57C44A34213D004F5AA
:105290008064A3420FD004F58064A3420BD004F5D0
:1052A0007844A34207D004F57054A34203D0A4F578
:1052B0009434A34204D1496822F080020A439A60E0
:1052C000012380F83D30002380F83C30184630BD83
:1052D0000000014090F83C30012B1FD0CB688A6859
:1052E00023F4407313434A6823F4806313430A682A
:1052F00023F4006313430A6923F4805313434A6978
:1053000023F400531343CA6923F480431343026810
:105310005364002380F83C301846704702207047E1
:1053200070477047026802F10C0353E8003F23F412
:1053300090730C3242E8003102680029F2D102F188
:10534000140353E8003F23F0010302F1140C4CE86E
:1053500000310029F3D1036B012B0BD102F10C03B7
:1053600053E8003F23F0100302F10C0C4CE800312D
:105370000029F3D1202380F83E30002303637047D7
:105380000268C16838B5136923F440530B431361B5
:10539000054683680069D168034368690343E86987
:1053A00021F4164121F00C0103430B43D3605369F0
:1053B000A96923F440730B4353611F4B9A4203D0F6
:1053C00003F580639A4224D1FFF74EF9EA69192365
:1053D000B2F5004FA0FB0301D5E900431CD11A46EA
:1053E00092184FF000035B41FBF738FC6421B0FBDF
:1053F000F1F501FB1503DB003233B3FBF1F303F0EE
:1054000007025B0002EB051203F4F8731344A36078
:1054100038BDFFF719F9D9E79A009B0FFBF71EFC7F
:105420006422B0FBF2F102FB11031B013233B3FB28
:10543000F2F303EB0113EAE700100140F8B504466C
:105440000E4617461D462268136836EA030301D14B
:10545000002028E06B1CF7D025B1FDF7F3FEC01B40
:105460008542F0D2226802F10C0353E8003F23F496
:10547000D0730C3242E8003021680028F2D101F1EB
:10548000140353E8003F23F0010301F1140040E846
:105490000032002AF3D1202384F83D3084F83C20E8
:1054A00084F83E300320F8BD10B5044640B390F8B0
:1054B0003D3003F0FF021BB980F83C20FDF7A2FD50
:1054C0002268242384F83D30D36823F40053D3604A
:1054D0002046FFF755FF23681A6922F490421A61AB
:1054E0005A6922F02A025A61DA6842F40052DA60FC
:1054F00000202023206484F83D3084F83E3010BD25
:105500000120FCE7F7B5174690F83D200093202ACC
:1055100004460E4649D1002945D0002F43D090F8CB
:105520003C20012A41D0012280F83C200025212284
:10553000056480F83D20FDF785FEA168009BA784E7
:10554000B1F5805F0246E78403D1216909B9354688
:105550000E46002184F83C10E18C89B241B940210B
:105560002046FFF76BFF60B9202384F83D3009E047
:1055700080212046CDE90023FFF760FFDDE900230D
:1055800010B1032003B0F0BD20684EB935F8021BFE
:10559000C1F308014160E18C013989B2E184DBE7A4
:1055A00016F8011BF6E70120ECE70220EAE7704756
:1055B00070477047704708B5806B03685A6990F868
:1055C0003D10212912D1120610D50022C28403F108
:1055D0000C0252E8002F22F0C00203F10C0C4CE840
:1055E00000210029F3D1202280F83D205B6990F84A
:1055F0003E20222A05D15B0603D50023C385FFF791
:1056000091FE036C43F010030364FFF7D3FF08BD62
:1056100008B5806B0023C385C384FFF7CBFF08BDAB
:10562000704713B590F83E30222B53D18168836ABE
:105630000268B1F5805F3DD1016900293DD1526812
:10564000C2F3080223F8022BC48D8362013CA4B28A
:10565000C485002C2CD10368DA6822F02002DA60BD
:10566000DA6822F48072DA605A6922F001025A6123
:10567000202380F83E30036B012B036827D104639D
:1056800003F10C0252E8002F22F0100203F10C0487
:1056900044E800210029F3D11A68D20605D501910A
:1056A0001A6801925B680193019B818DFFF7B8FF37
:1056B000002010E039B9016929B95268D2B21A70D4
:1056C000836A0133C0E7526802F07F02F7E7FFF711
:1056D0006FFFEDE7022002B010BD0000036837B590
:1056E0001A68D9685D6912F00F0F044608D1950653
:1056F00068D58D0666D503B0BDE83040FFF791BF91
:1057000005F0010001F4907505435BD0D50705D580
:10571000CB0542BF236C43F001032364550704D536
:1057200018B1236C43F002032364930704D518B126
:10573000236C43F004032364150707D501F020030D
:1057400003431EBF236C43F008032364236C002B28
:1057500032D0900604D58A0602D52046FFF761FFB5
:1057600023685B69256C03F0400305F008051D43C1
:10577000204623D0FFF7D6FD226853695B0618D573
:1057800002F1140353E8003F23F0400302F1140038
:1057900040E800310029F3D1A06B50B1724B036592
:1057A000FDF7E6FE40B1A06B036D03B0BDE83040ED
:1057B00018472046FFF7FEFE03B030BDFFF7FAFEA4
:1057C0002564F9E7206B012840F09180D50640F16F
:1057D0008E80C80640F18B80002201921A680192E7
:1057E0005A680192019A5A6955064CD5A16B0A680C
:1057F000526892B2002ADFD0A08D9042DCD9E285B7
:10580000CA69B2F5807F36D003F10C0252E8002F4E
:1058100022F4807203F10C0040E800210029F3D14A
:1058200003F1140252E8002F22F0010203F11400E8
:1058300040E800210029F3D103F1140252E8002FBF
:1058400022F0400203F1140040E800210029F3D1C6
:10585000202284F83E20216303F10C0252E8002F3D
:1058600022F0100203F10C0040E800210029F3D1DE
:10587000A06BFDF739FEE38DA18DC91A89B22046D0
:10588000FFF7CEFE98E7E18D8AB2E18D89B200295B
:1058900092D0A18D891A89B200298DD003F10C0212
:1058A00052E8002F22F4907203F10C0545E8002025
:1058B0000028F3D103F1140252E8002F22F0010274
:1058C00003F1140545E800200028F3D1202284F8D4
:1058D0003E20206303F10C0252E8002F22F0100258
:1058E00003F10C0545E800200028F3D1C7E71006B6
:1058F00028D50D0626D594F83D20212A7FF45CAFEB
:10590000A168226AB1F5805F17D12169A9B932F87F
:10591000021BC1F3080159602262E28C013A92B283
:10592000E284002A7FF448AFDA6822F08002DA606D
:10593000DA6842F04002DA603EE7511C21621278D8
:105940005A60EAE750067FF537AF4A067FF534AF75
:10595000DA6822F04002DA60202384F83D302046E5
:10596000FFF725FE28E700BF11560008806B08B539
:10597000036B012B04D1818D4908FFF751FE08BD4F
:10598000FFF717FEFBE708B50346806B1B681B6833
:1059900013F4807337D1C385026802F10C0353E816
:1059A000003F23F480730C3242E800310368002981
:1059B000F2D103F1140252E8002F22F0010203F1A8
:1059C000140C4CE800210029F3D103F1140252E831
:1059D000002F22F0400203F1140C4CE800210029B2
:1059E000F3D1202280F83E20026B012A0BD103F173
:1059F0000C0252E8002F22F0100203F10C0C4CE8CC
:105A000000210029F3D1036B012B03D1818DFFF716
:105A100007FE08BDFFF7CCFDFBE7000073B52223AE
:105A2000002504460564816280F83E308285806BE3
:105A30001D4BC3631D4B266803641D4BC0E9133522
:105A400013460A46311DFDF715FD236801951A68B6
:105A500001925A680192019A84F83C5003F10C02B9
:105A600052E8002F42F4807203F10C0040E800215C
:105A70000029F3D103F1140252E8002F42F0010291
:105A800003F1140040E800210029F3D103F11402CE
:105A900052E8002F42F0400203F1140141E80020D7
:105AA0000028F3D102B070BD875900086D59000875
:105AB000B755000870B490F83E60202E10D161B147
:105AC0005AB190F83C40012C0AD0012480F83C40A7
:105AD0000024046370BCFFF7A1BF012070BC7047B5
